{
	"contracts/DegenToken.sol": {
		"DegenToken": {
			"abi": [
				{
					"inputs": [],
					"stateMutability": "nonpayable",
					"type": "constructor"
				},
				{
					"anonymous": false,
					"inputs": [
						{
							"indexed": true,
							"internalType": "address",
							"name": "owner",
							"type": "address"
						},
						{
							"indexed": true,
							"internalType": "address",
							"name": "spender",
							"type": "address"
						},
						{
							"indexed": false,
							"internalType": "uint256",
							"name": "value",
							"type": "uint256"
						}
					],
					"name": "Approval",
					"type": "event"
				},
				{
					"anonymous": false,
					"inputs": [
						{
							"indexed": true,
							"internalType": "address",
							"name": "previousOwner",
							"type": "address"
						},
						{
							"indexed": true,
							"internalType": "address",
							"name": "newOwner",
							"type": "address"
						}
					],
					"name": "OwnershipTransferred",
					"type": "event"
				},
				{
					"anonymous": false,
					"inputs": [
						{
							"indexed": true,
							"internalType": "address",
							"name": "from",
							"type": "address"
						},
						{
							"indexed": true,
							"internalType": "address",
							"name": "to",
							"type": "address"
						},
						{
							"indexed": false,
							"internalType": "uint256",
							"name": "value",
							"type": "uint256"
						}
					],
					"name": "Transfer",
					"type": "event"
				},
				{
					"inputs": [
						{
							"internalType": "address",
							"name": "owner",
							"type": "address"
						},
						{
							"internalType": "address",
							"name": "spender",
							"type": "address"
						}
					],
					"name": "allowance",
					"outputs": [
						{
							"internalType": "uint256",
							"name": "",
							"type": "uint256"
						}
					],
					"stateMutability": "view",
					"type": "function"
				},
				{
					"inputs": [
						{
							"internalType": "address",
							"name": "spender",
							"type": "address"
						},
						{
							"internalType": "uint256",
							"name": "amount",
							"type": "uint256"
						}
					],
					"name": "approve",
					"outputs": [
						{
							"internalType": "bool",
							"name": "",
							"type": "bool"
						}
					],
					"stateMutability": "nonpayable",
					"type": "function"
				},
				{
					"inputs": [
						{
							"internalType": "address",
							"name": "account",
							"type": "address"
						}
					],
					"name": "balanceOf",
					"outputs": [
						{
							"internalType": "uint256",
							"name": "",
							"type": "uint256"
						}
					],
					"stateMutability": "view",
					"type": "function"
				},
				{
					"inputs": [
						{
							"internalType": "address",
							"name": "to",
							"type": "address"
						},
						{
							"internalType": "uint256",
							"name": "amount",
							"type": "uint256"
						}
					],
					"name": "burnOther",
					"outputs": [],
					"stateMutability": "nonpayable",
					"type": "function"
				},
				{
					"inputs": [
						{
							"internalType": "uint256",
							"name": "amount",
							"type": "uint256"
						}
					],
					"name": "burnTokens",
					"outputs": [],
					"stateMutability": "nonpayable",
					"type": "function"
				},
				{
					"inputs": [],
					"name": "checkBalance",
					"outputs": [
						{
							"internalType": "uint256",
							"name": "",
							"type": "uint256"
						}
					],
					"stateMutability": "view",
					"type": "function"
				},
				{
					"inputs": [],
					"name": "decimals",
					"outputs": [
						{
							"internalType": "uint8",
							"name": "",
							"type": "uint8"
						}
					],
					"stateMutability": "view",
					"type": "function"
				},
				{
					"inputs": [
						{
							"internalType": "address",
							"name": "spender",
							"type": "address"
						},
						{
							"internalType": "uint256",
							"name": "subtractedValue",
							"type": "uint256"
						}
					],
					"name": "decreaseAllowance",
					"outputs": [
						{
							"internalType": "bool",
							"name": "",
							"type": "bool"
						}
					],
					"stateMutability": "nonpayable",
					"type": "function"
				},
				{
					"inputs": [
						{
							"internalType": "address",
							"name": "spender",
							"type": "address"
						},
						{
							"internalType": "uint256",
							"name": "addedValue",
							"type": "uint256"
						}
					],
					"name": "increaseAllowance",
					"outputs": [
						{
							"internalType": "bool",
							"name": "",
							"type": "bool"
						}
					],
					"stateMutability": "nonpayable",
					"type": "function"
				},
				{
					"inputs": [],
					"name": "itemCount",
					"outputs": [
						{
							"internalType": "uint256",
							"name": "",
							"type": "uint256"
						}
					],
					"stateMutability": "view",
					"type": "function"
				},
				{
					"inputs": [],
					"name": "itemInventory",
					"outputs": [
						{
							"internalType": "string[]",
							"name": "",
							"type": "string[]"
						}
					],
					"stateMutability": "view",
					"type": "function"
				},
				{
					"inputs": [],
					"name": "itemShop",
					"outputs": [
						{
							"internalType": "string",
							"name": "",
							"type": "string"
						}
					],
					"stateMutability": "view",
					"type": "function"
				},
				{
					"inputs": [
						{
							"internalType": "uint256",
							"name": "",
							"type": "uint256"
						}
					],
					"name": "items",
					"outputs": [
						{
							"internalType": "uint256",
							"name": "id",
							"type": "uint256"
						},
						{
							"internalType": "string",
							"name": "name",
							"type": "string"
						},
						{
							"internalType": "uint256",
							"name": "price",
							"type": "uint256"
						}
					],
					"stateMutability": "view",
					"type": "function"
				},
				{
					"inputs": [
						{
							"internalType": "address",
							"name": "to",
							"type": "address"
						},
						{
							"internalType": "uint256",
							"name": "amount",
							"type": "uint256"
						}
					],
					"name": "mintTokens",
					"outputs": [],
					"stateMutability": "nonpayable",
					"type": "function"
				},
				{
					"inputs": [],
					"name": "name",
					"outputs": [
						{
							"internalType": "string",
							"name": "",
							"type": "string"
						}
					],
					"stateMutability": "view",
					"type": "function"
				},
				{
					"inputs": [],
					"name": "owner",
					"outputs": [
						{
							"internalType": "address",
							"name": "",
							"type": "address"
						}
					],
					"stateMutability": "view",
					"type": "function"
				},
				{
					"inputs": [
						{
							"internalType": "uint256",
							"name": "itemId",
							"type": "uint256"
						}
					],
					"name": "redeemItems",
					"outputs": [],
					"stateMutability": "nonpayable",
					"type": "function"
				},
				{
					"inputs": [
						{
							"internalType": "address",
							"name": "",
							"type": "address"
						},
						{
							"internalType": "uint256",
							"name": "",
							"type": "uint256"
						}
					],
					"name": "redeemedItems",
					"outputs": [
						{
							"internalType": "uint256",
							"name": "",
							"type": "uint256"
						}
					],
					"stateMutability": "view",
					"type": "function"
				},
				{
					"inputs": [],
					"name": "renounceOwnership",
					"outputs": [],
					"stateMutability": "nonpayable",
					"type": "function"
				},
				{
					"inputs": [],
					"name": "symbol",
					"outputs": [
						{
							"internalType": "string",
							"name": "",
							"type": "string"
						}
					],
					"stateMutability": "view",
					"type": "function"
				},
				{
					"inputs": [],
					"name": "totalSupply",
					"outputs": [
						{
							"internalType": "uint256",
							"name": "",
							"type": "uint256"
						}
					],
					"stateMutability": "view",
					"type": "function"
				},
				{
					"inputs": [
						{
							"internalType": "address",
							"name": "to",
							"type": "address"
						},
						{
							"internalType": "uint256",
							"name": "amount",
							"type": "uint256"
						}
					],
					"name": "transfer",
					"outputs": [
						{
							"internalType": "bool",
							"name": "",
							"type": "bool"
						}
					],
					"stateMutability": "nonpayable",
					"type": "function"
				},
				{
					"inputs": [
						{
							"internalType": "address",
							"name": "from",
							"type": "address"
						},
						{
							"internalType": "address",
							"name": "to",
							"type": "address"
						},
						{
							"internalType": "uint256",
							"name": "amount",
							"type": "uint256"
						}
					],
					"name": "transferFrom",
					"outputs": [
						{
							"internalType": "bool",
							"name": "",
							"type": "bool"
						}
					],
					"stateMutability": "nonpayable",
					"type": "function"
				},
				{
					"inputs": [
						{
							"internalType": "address",
							"name": "newOwner",
							"type": "address"
						}
					],
					"name": "transferOwnership",
					"outputs": [],
					"stateMutability": "nonpayable",
					"type": "function"
				},
				{
					"inputs": [
						{
							"internalType": "address",
							"name": "_receiver",
							"type": "address"
						},
						{
							"internalType": "uint256",
							"name": "_value",
							"type": "uint256"
						}
					],
					"name": "transferTokens",
					"outputs": [],
					"stateMutability": "nonpayable",
					"type": "function"
				}
			],
			"devdoc": {
				"events": {
					"Approval(address,address,uint256)": {
						"details": "Emitted when the allowance of a `spender` for an `owner` is set by a call to {approve}. `value` is the new allowance."
					},
					"Transfer(address,address,uint256)": {
						"details": "Emitted when `value` tokens are moved from one account (`from`) to another (`to`). Note that `value` may be zero."
					}
				},
				"kind": "dev",
				"methods": {
					"allowance(address,address)": {
						"details": "See {IERC20-allowance}."
					},
					"approve(address,uint256)": {
						"details": "See {IERC20-approve}. NOTE: If `amount` is the maximum `uint256`, the allowance is not updated on `transferFrom`. This is semantically equivalent to an infinite approval. Requirements: - `spender` cannot be the zero address."
					},
					"balanceOf(address)": {
						"details": "See {IERC20-balanceOf}."
					},
					"decimals()": {
						"details": "Returns the number of decimals used to get its user representation. For example, if `decimals` equals `2`, a balance of `505` tokens should be displayed to a user as `5.05` (`505 / 10 ** 2`). Tokens usually opt for a value of 18, imitating the relationship between Ether and Wei. This is the value {ERC20} uses, unless this function is overridden; NOTE: This information is only used for _display_ purposes: it in no way affects any of the arithmetic of the contract, including {IERC20-balanceOf} and {IERC20-transfer}."
					},
					"decreaseAllowance(address,uint256)": {
						"details": "Atomically decreases the allowance granted to `spender` by the caller. This is an alternative to {approve} that can be used as a mitigation for problems described in {IERC20-approve}. Emits an {Approval} event indicating the updated allowance. Requirements: - `spender` cannot be the zero address. - `spender` must have allowance for the caller of at least `subtractedValue`."
					},
					"increaseAllowance(address,uint256)": {
						"details": "Atomically increases the allowance granted to `spender` by the caller. This is an alternative to {approve} that can be used as a mitigation for problems described in {IERC20-approve}. Emits an {Approval} event indicating the updated allowance. Requirements: - `spender` cannot be the zero address."
					},
					"name()": {
						"details": "Returns the name of the token."
					},
					"owner()": {
						"details": "Returns the address of the current owner."
					},
					"renounceOwnership()": {
						"details": "Leaves the contract without owner. It will not be possible to call `onlyOwner` functions anymore. Can only be called by the current owner. NOTE: Renouncing ownership will leave the contract without an owner, thereby removing any functionality that is only available to the owner."
					},
					"symbol()": {
						"details": "Returns the symbol of the token, usually a shorter version of the name."
					},
					"totalSupply()": {
						"details": "See {IERC20-totalSupply}."
					},
					"transfer(address,uint256)": {
						"details": "See {IERC20-transfer}. Requirements: - `to` cannot be the zero address. - the caller must have a balance of at least `amount`."
					},
					"transferFrom(address,address,uint256)": {
						"details": "See {IERC20-transferFrom}. Emits an {Approval} event indicating the updated allowance. This is not required by the EIP. See the note at the beginning of {ERC20}. NOTE: Does not update the allowance if the current allowance is the maximum `uint256`. Requirements: - `from` and `to` cannot be the zero address. - `from` must have a balance of at least `amount`. - the caller must have allowance for ``from``'s tokens of at least `amount`."
					},
					"transferOwnership(address)": {
						"details": "Transfers ownership of the contract to a new account (`newOwner`). Can only be called by the current owner."
					}
				},
				"version": 1
			},
			"evm": {
				"assembly": "    /* \"contracts/DegenToken.sol\":168:3108  contract DegenToken is ERC20, Ownable {... */\n  mstore(0x40, 0x80)\n    /* \"contracts/DegenToken.sol\":432:633  constructor() ERC20(\"Degen\", \"DGN\") {... */\n  callvalue\n  dup1\n  iszero\n  tag_1\n  jumpi\n  0x00\n  dup1\n  revert\ntag_1:\n  pop\n    /* \"@openzeppelin/contracts/token/ERC20/ERC20.sol\":1976:2089  constructor(string memory name_, string memory symbol_) {... */\n  mload(0x40)\n  dup1\n  0x40\n  add\n  0x40\n  mstore\n  dup1\n  0x05\n  dup2\n  mstore\n  0x20\n  add\n  0x446567656e000000000000000000000000000000000000000000000000000000\n  dup2\n  mstore\n  pop\n  mload(0x40)\n  dup1\n  0x40\n  add\n  0x40\n  mstore\n  dup1\n  0x03\n  dup2\n  mstore\n  0x20\n  add\n  0x44474e0000000000000000000000000000000000000000000000000000000000\n  dup2\n  mstore\n  pop\n    /* \"@openzeppelin/contracts/token/ERC20/ERC20.sol\":2050:2055  name_ */\n  dup2\n    /* \"@openzeppelin/contracts/token/ERC20/ERC20.sol\":2042:2047  _name */\n  0x03\n    /* \"@openzeppelin/contracts/token/ERC20/ERC20.sol\":2042:2055  _name = name_ */\n  swap1\n  dup2\n  tag_6\n  swap2\n  swap1\n  tag_7\n  jump\t// in\ntag_6:\n  pop\n    /* \"@openzeppelin/contracts/token/ERC20/ERC20.sol\":2075:2082  symbol_ */\n  dup1\n    /* \"@openzeppelin/contracts/token/ERC20/ERC20.sol\":2065:2072  _symbol */\n  0x04\n    /* \"@openzeppelin/contracts/token/ERC20/ERC20.sol\":2065:2082  _symbol = symbol_ */\n  swap1\n  dup2\n  tag_8\n  swap2\n  swap1\n  tag_7\n  jump\t// in\ntag_8:\n  pop\n    /* \"@openzeppelin/contracts/token/ERC20/ERC20.sol\":1976:2089  constructor(string memory name_, string memory symbol_) {... */\n  pop\n  pop\n    /* \"@openzeppelin/contracts/access/Ownable.sol\":936:968  _transferOwnership(_msgSender()) */\n  tag_10\n    /* \"@openzeppelin/contracts/access/Ownable.sol\":955:967  _msgSender() */\n  tag_11\n    /* \"@openzeppelin/contracts/access/Ownable.sol\":955:965  _msgSender */\n  shl(0x20, tag_12)\n    /* \"@openzeppelin/contracts/access/Ownable.sol\":955:967  _msgSender() */\n  0x20\n  shr\n  jump\t// in\ntag_11:\n    /* \"@openzeppelin/contracts/access/Ownable.sol\":936:954  _transferOwnership */\n  shl(0x20, tag_13)\n    /* \"@openzeppelin/contracts/access/Ownable.sol\":936:968  _transferOwnership(_msgSender()) */\n  0x20\n  shr\n  jump\t// in\ntag_10:\n    /* \"contracts/DegenToken.sol\":489:511  Item(1, \"Yamato\", 200) */\n  mload(0x40)\n  dup1\n  0x60\n  add\n  0x40\n  mstore\n  dup1\n    /* \"contracts/DegenToken.sol\":494:495  1 */\n  0x01\n    /* \"contracts/DegenToken.sol\":489:511  Item(1, \"Yamato\", 200) */\n  dup2\n  mstore\n  0x20\n  add\n  mload(0x40)\n  dup1\n  0x40\n  add\n  0x40\n  mstore\n  dup1\n  0x06\n  dup2\n  mstore\n  0x20\n  add\n  0x59616d61746f0000000000000000000000000000000000000000000000000000\n  dup2\n  mstore\n  pop\n  dup2\n  mstore\n  0x20\n  add\n    /* \"contracts/DegenToken.sol\":507:510  200 */\n  0xc8\n    /* \"contracts/DegenToken.sol\":489:511  Item(1, \"Yamato\", 200) */\n  dup2\n  mstore\n  pop\n    /* \"contracts/DegenToken.sol\":478:483  items */\n  0x06\n    /* \"contracts/DegenToken.sol\":478:486  items[1] */\n  0x00\n    /* \"contracts/DegenToken.sol\":484:485  1 */\n  0x01\n    /* \"contracts/DegenToken.sol\":478:486  items[1] */\n  dup2\n  mstore\n  0x20\n  add\n  swap1\n  dup2\n  mstore\n  0x20\n  add\n  0x00\n  keccak256\n    /* \"contracts/DegenToken.sol\":478:511  items[1] = Item(1, \"Yamato\", 200) */\n  0x00\n  dup3\n  add\n  mload\n  dup2\n  0x00\n  add\n  sstore\n  0x20\n  dup3\n  add\n  mload\n  dup2\n  0x01\n  add\n  swap1\n  dup2\n  tag_15\n  swap2\n  swap1\n  tag_7\n  jump\t// in\ntag_15:\n  pop\n  0x40\n  dup3\n  add\n  mload\n  dup2\n  0x02\n  add\n  sstore\n  swap1\n  pop\n  pop\n    /* \"contracts/DegenToken.sol\":532:557  Item(2, \"Rebellion\", 200) */\n  mload(0x40)\n  dup1\n  0x60\n  add\n  0x40\n  mstore\n  dup1\n    /* \"contracts/DegenToken.sol\":537:538  2 */\n  0x02\n    /* \"contracts/DegenToken.sol\":532:557  Item(2, \"Rebellion\", 200) */\n  dup2\n  mstore\n  0x20\n  add\n  mload(0x40)\n  dup1\n  0x40\n  add\n  0x40\n  mstore\n  dup1\n  0x09\n  dup2\n  mstore\n  0x20\n  add\n  0x526562656c6c696f6e0000000000000000000000000000000000000000000000\n  dup2\n  mstore\n  pop\n  dup2\n  mstore\n  0x20\n  add\n    /* \"contracts/DegenToken.sol\":553:556  200 */\n  0xc8\n    /* \"contracts/DegenToken.sol\":532:557  Item(2, \"Rebellion\", 200) */\n  dup2\n  mstore\n  pop\n    /* \"contracts/DegenToken.sol\":521:526  items */\n  0x06\n    /* \"contracts/DegenToken.sol\":521:529  items[2] */\n  0x00\n    /* \"contracts/DegenToken.sol\":527:528  2 */\n  0x02\n    /* \"contracts/DegenToken.sol\":521:529  items[2] */\n  dup2\n  mstore\n  0x20\n  add\n  swap1\n  dup2\n  mstore\n  0x20\n  add\n  0x00\n  keccak256\n    /* \"contracts/DegenToken.sol\":521:557  items[2] = Item(2, \"Rebellion\", 200) */\n  0x00\n  dup3\n  add\n  mload\n  dup2\n  0x00\n  add\n  sstore\n  0x20\n  dup3\n  add\n  mload\n  dup2\n  0x01\n  add\n  swap1\n  dup2\n  tag_16\n  swap2\n  swap1\n  tag_7\n  jump\t// in\ntag_16:\n  pop\n  0x40\n  dup3\n  add\n  mload\n  dup2\n  0x02\n  add\n  sstore\n  swap1\n  pop\n  pop\n    /* \"contracts/DegenToken.sol\":578:603  Item(3, \"Red Queen\", 200) */\n  mload(0x40)\n  dup1\n  0x60\n  add\n  0x40\n  mstore\n  dup1\n    /* \"contracts/DegenToken.sol\":583:584  3 */\n  0x03\n    /* \"contracts/DegenToken.sol\":578:603  Item(3, \"Red Queen\", 200) */\n  dup2\n  mstore\n  0x20\n  add\n  mload(0x40)\n  dup1\n  0x40\n  add\n  0x40\n  mstore\n  dup1\n  0x09\n  dup2\n  mstore\n  0x20\n  add\n  0x52656420517565656e0000000000000000000000000000000000000000000000\n  dup2\n  mstore\n  pop\n  dup2\n  mstore\n  0x20\n  add\n    /* \"contracts/DegenToken.sol\":599:602  200 */\n  0xc8\n    /* \"contracts/DegenToken.sol\":578:603  Item(3, \"Red Queen\", 200) */\n  dup2\n  mstore\n  pop\n    /* \"contracts/DegenToken.sol\":567:572  items */\n  0x06\n    /* \"contracts/DegenToken.sol\":567:575  items[3] */\n  0x00\n    /* \"contracts/DegenToken.sol\":573:574  3 */\n  0x03\n    /* \"contracts/DegenToken.sol\":567:575  items[3] */\n  dup2\n  mstore\n  0x20\n  add\n  swap1\n  dup2\n  mstore\n  0x20\n  add\n  0x00\n  keccak256\n    /* \"contracts/DegenToken.sol\":567:603  items[3] = Item(3, \"Red Queen\", 200) */\n  0x00\n  dup3\n  add\n  mload\n  dup2\n  0x00\n  add\n  sstore\n  0x20\n  dup3\n  add\n  mload\n  dup2\n  0x01\n  add\n  swap1\n  dup2\n  tag_17\n  swap2\n  swap1\n  tag_7\n  jump\t// in\ntag_17:\n  pop\n  0x40\n  dup3\n  add\n  mload\n  dup2\n  0x02\n  add\n  sstore\n  swap1\n  pop\n  pop\n    /* \"contracts/DegenToken.sol\":625:626  3 */\n  0x03\n    /* \"contracts/DegenToken.sol\":613:622  itemCount */\n  0x07\n    /* \"contracts/DegenToken.sol\":613:626  itemCount = 3 */\n  dup2\n  swap1\n  sstore\n  pop\n    /* \"contracts/DegenToken.sol\":168:3108  contract DegenToken is ERC20, Ownable {... */\n  jump(tag_18)\n    /* \"@openzeppelin/contracts/utils/Context.sol\":640:736  function _msgSender() internal view virtual returns (address) {... */\ntag_12:\n    /* \"@openzeppelin/contracts/utils/Context.sol\":693:700  address */\n  0x00\n    /* \"@openzeppelin/contracts/utils/Context.sol\":719:729  msg.sender */\n  caller\n    /* \"@openzeppelin/contracts/utils/Context.sol\":712:729  return msg.sender */\n  swap1\n  pop\n    /* \"@openzeppelin/contracts/utils/Context.sol\":640:736  function _msgSender() internal view virtual returns (address) {... */\n  swap1\n  jump\t// out\n    /* \"@openzeppelin/contracts/access/Ownable.sol\":2433:2620  function _transferOwnership(address newOwner) internal virtual {... */\ntag_13:\n    /* \"@openzeppelin/contracts/access/Ownable.sol\":2506:2522  address oldOwner */\n  0x00\n    /* \"@openzeppelin/contracts/access/Ownable.sol\":2525:2531  _owner */\n  0x05\n  0x00\n  swap1\n  sload\n  swap1\n  0x0100\n  exp\n  swap1\n  div\n  0xffffffffffffffffffffffffffffffffffffffff\n  and\n    /* \"@openzeppelin/contracts/access/Ownable.sol\":2506:2531  address oldOwner = _owner */\n  swap1\n  pop\n    /* \"@openzeppelin/contracts/access/Ownable.sol\":2550:2558  newOwner */\n  dup2\n    /* \"@openzeppelin/contracts/access/Ownable.sol\":2541:2547  _owner */\n  0x05\n  0x00\n    /* \"@openzeppelin/contracts/access/Ownable.sol\":2541:2558  _owner = newOwner */\n  0x0100\n  exp\n  dup2\n  sload\n  dup2\n  0xffffffffffffffffffffffffffffffffffffffff\n  mul\n  not\n  and\n  swap1\n  dup4\n  0xffffffffffffffffffffffffffffffffffffffff\n  and\n  mul\n  or\n  swap1\n  sstore\n  pop\n    /* \"@openzeppelin/contracts/access/Ownable.sol\":2604:2612  newOwner */\n  dup2\n    /* \"@openzeppelin/contracts/access/Ownable.sol\":2573:2613  OwnershipTransferred(oldOwner, newOwner) */\n  0xffffffffffffffffffffffffffffffffffffffff\n  and\n    /* \"@openzeppelin/contracts/access/Ownable.sol\":2594:2602  oldOwner */\n  dup2\n    /* \"@openzeppelin/contracts/access/Ownable.sol\":2573:2613  OwnershipTransferred(oldOwner, newOwner) */\n  0xffffffffffffffffffffffffffffffffffffffff\n  and\n  0x8be0079c531659141344cd1fd0a4f28419497f9722a3daafe3b4186f6b6457e0\n  mload(0x40)\n  mload(0x40)\n  dup1\n  swap2\n  sub\n  swap1\n  log3\n    /* \"@openzeppelin/contracts/access/Ownable.sol\":2496:2620  {... */\n  pop\n    /* \"@openzeppelin/contracts/access/Ownable.sol\":2433:2620  function _transferOwnership(address newOwner) internal virtual {... */\n  pop\n  jump\t// out\n    /* \"#utility.yul\":7:106   */\ntag_21:\n    /* \"#utility.yul\":59:65   */\n  0x00\n    /* \"#utility.yul\":93:98   */\n  dup2\n    /* \"#utility.yul\":87:99   */\n  mload\n    /* \"#utility.yul\":77:99   */\n  swap1\n  pop\n    /* \"#utility.yul\":7:106   */\n  swap2\n  swap1\n  pop\n  jump\t// out\n    /* \"#utility.yul\":112:292   */\ntag_22:\n    /* \"#utility.yul\":160:237   */\n  0x4e487b7100000000000000000000000000000000000000000000000000000000\n    /* \"#utility.yul\":157:158   */\n  0x00\n    /* \"#utility.yul\":150:238   */\n  mstore\n    /* \"#utility.yul\":257:261   */\n  0x41\n    /* \"#utility.yul\":254:255   */\n  0x04\n    /* \"#utility.yul\":247:262   */\n  mstore\n    /* \"#utility.yul\":281:285   */\n  0x24\n    /* \"#utility.yul\":278:279   */\n  0x00\n    /* \"#utility.yul\":271:286   */\n  revert\n    /* \"#utility.yul\":298:478   */\ntag_23:\n    /* \"#utility.yul\":346:423   */\n  0x4e487b7100000000000000000000000000000000000000000000000000000000\n    /* \"#utility.yul\":343:344   */\n  0x00\n    /* \"#utility.yul\":336:424   */\n  mstore\n    /* \"#utility.yul\":443:447   */\n  0x22\n    /* \"#utility.yul\":440:441   */\n  0x04\n    /* \"#utility.yul\":433:448   */\n  mstore\n    /* \"#utility.yul\":467:471   */\n  0x24\n    /* \"#utility.yul\":464:465   */\n  0x00\n    /* \"#utility.yul\":457:472   */\n  revert\n    /* \"#utility.yul\":484:804   */\ntag_24:\n    /* \"#utility.yul\":528:534   */\n  0x00\n    /* \"#utility.yul\":565:566   */\n  0x02\n    /* \"#utility.yul\":559:563   */\n  dup3\n    /* \"#utility.yul\":555:567   */\n  div\n    /* \"#utility.yul\":545:567   */\n  swap1\n  pop\n    /* \"#utility.yul\":612:613   */\n  0x01\n    /* \"#utility.yul\":606:610   */\n  dup3\n    /* \"#utility.yul\":602:614   */\n  and\n    /* \"#utility.yul\":633:651   */\n  dup1\n    /* \"#utility.yul\":623:704   */\n  tag_46\n  jumpi\n    /* \"#utility.yul\":689:693   */\n  0x7f\n    /* \"#utility.yul\":681:687   */\n  dup3\n    /* \"#utility.yul\":677:694   */\n  and\n    /* \"#utility.yul\":667:694   */\n  swap2\n  pop\n    /* \"#utility.yul\":623:704   */\ntag_46:\n    /* \"#utility.yul\":751:753   */\n  0x20\n    /* \"#utility.yul\":743:749   */\n  dup3\n    /* \"#utility.yul\":740:754   */\n  lt\n    /* \"#utility.yul\":720:738   */\n  dup2\n    /* \"#utility.yul\":717:755   */\n  sub\n    /* \"#utility.yul\":714:798   */\n  tag_47\n  jumpi\n    /* \"#utility.yul\":770:788   */\n  tag_48\n  tag_23\n  jump\t// in\ntag_48:\n    /* \"#utility.yul\":714:798   */\ntag_47:\n    /* \"#utility.yul\":535:804   */\n  pop\n    /* \"#utility.yul\":484:804   */\n  swap2\n  swap1\n  pop\n  jump\t// out\n    /* \"#utility.yul\":810:951   */\ntag_25:\n    /* \"#utility.yul\":859:863   */\n  0x00\n    /* \"#utility.yul\":882:885   */\n  dup2\n    /* \"#utility.yul\":874:885   */\n  swap1\n  pop\n    /* \"#utility.yul\":905:908   */\n  dup2\n    /* \"#utility.yul\":902:903   */\n  0x00\n    /* \"#utility.yul\":895:909   */\n  mstore\n    /* \"#utility.yul\":939:943   */\n  0x20\n    /* \"#utility.yul\":936:937   */\n  0x00\n    /* \"#utility.yul\":926:944   */\n  keccak256\n    /* \"#utility.yul\":918:944   */\n  swap1\n  pop\n    /* \"#utility.yul\":810:951   */\n  swap2\n  swap1\n  pop\n  jump\t// out\n    /* \"#utility.yul\":957:1050   */\ntag_26:\n    /* \"#utility.yul\":994:1000   */\n  0x00\n    /* \"#utility.yul\":1041:1043   */\n  0x20\n    /* \"#utility.yul\":1036:1038   */\n  0x1f\n    /* \"#utility.yul\":1029:1034   */\n  dup4\n    /* \"#utility.yul\":1025:1039   */\n  add\n    /* \"#utility.yul\":1021:1044   */\n  div\n    /* \"#utility.yul\":1011:1044   */\n  swap1\n  pop\n    /* \"#utility.yul\":957:1050   */\n  swap2\n  swap1\n  pop\n  jump\t// out\n    /* \"#utility.yul\":1056:1163   */\ntag_27:\n    /* \"#utility.yul\":1100:1108   */\n  0x00\n    /* \"#utility.yul\":1150:1155   */\n  dup3\n    /* \"#utility.yul\":1144:1148   */\n  dup3\n    /* \"#utility.yul\":1140:1156   */\n  shl\n    /* \"#utility.yul\":1119:1156   */\n  swap1\n  pop\n    /* \"#utility.yul\":1056:1163   */\n  swap3\n  swap2\n  pop\n  pop\n  jump\t// out\n    /* \"#utility.yul\":1169:1562   */\ntag_28:\n    /* \"#utility.yul\":1238:1244   */\n  0x00\n    /* \"#utility.yul\":1288:1289   */\n  0x08\n    /* \"#utility.yul\":1276:1286   */\n  dup4\n    /* \"#utility.yul\":1272:1290   */\n  mul\n    /* \"#utility.yul\":1311:1408   */\n  tag_53\n    /* \"#utility.yul\":1341:1407   */\n  0xffffffffffffffffffffffffffffffffffffffffffffffffffffffffffffffff\n    /* \"#utility.yul\":1330:1339   */\n  dup3\n    /* \"#utility.yul\":1311:1408   */\n  tag_27\n  jump\t// in\ntag_53:\n    /* \"#utility.yul\":1429:1468   */\n  tag_54\n    /* \"#utility.yul\":1459:1467   */\n  dup7\n    /* \"#utility.yul\":1448:1457   */\n  dup4\n    /* \"#utility.yul\":1429:1468   */\n  tag_27\n  jump\t// in\ntag_54:\n    /* \"#utility.yul\":1417:1468   */\n  swap6\n  pop\n    /* \"#utility.yul\":1501:1505   */\n  dup1\n    /* \"#utility.yul\":1497:1506   */\n  not\n    /* \"#utility.yul\":1490:1495   */\n  dup5\n    /* \"#utility.yul\":1486:1507   */\n  and\n    /* \"#utility.yul\":1477:1507   */\n  swap4\n  pop\n    /* \"#utility.yul\":1550:1554   */\n  dup1\n    /* \"#utility.yul\":1540:1548   */\n  dup7\n    /* \"#utility.yul\":1536:1555   */\n  and\n    /* \"#utility.yul\":1529:1534   */\n  dup5\n    /* \"#utility.yul\":1526:1556   */\n  or\n    /* \"#utility.yul\":1516:1556   */\n  swap3\n  pop\n    /* \"#utility.yul\":1245:1562   */\n  pop\n  pop\n    /* \"#utility.yul\":1169:1562   */\n  swap4\n  swap3\n  pop\n  pop\n  pop\n  jump\t// out\n    /* \"#utility.yul\":1568:1645   */\ntag_29:\n    /* \"#utility.yul\":1605:1612   */\n  0x00\n    /* \"#utility.yul\":1634:1639   */\n  dup2\n    /* \"#utility.yul\":1623:1639   */\n  swap1\n  pop\n    /* \"#utility.yul\":1568:1645   */\n  swap2\n  swap1\n  pop\n  jump\t// out\n    /* \"#utility.yul\":1651:1711   */\ntag_30:\n    /* \"#utility.yul\":1679:1682   */\n  0x00\n    /* \"#utility.yul\":1700:1705   */\n  dup2\n    /* \"#utility.yul\":1693:1705   */\n  swap1\n  pop\n    /* \"#utility.yul\":1651:1711   */\n  swap2\n  swap1\n  pop\n  jump\t// out\n    /* \"#utility.yul\":1717:1859   */\ntag_31:\n    /* \"#utility.yul\":1767:1776   */\n  0x00\n    /* \"#utility.yul\":1800:1853   */\n  tag_58\n    /* \"#utility.yul\":1818:1852   */\n  tag_59\n    /* \"#utility.yul\":1827:1851   */\n  tag_60\n    /* \"#utility.yul\":1845:1850   */\n  dup5\n    /* \"#utility.yul\":1827:1851   */\n  tag_29\n  jump\t// in\ntag_60:\n    /* \"#utility.yul\":1818:1852   */\n  tag_30\n  jump\t// in\ntag_59:\n    /* \"#utility.yul\":1800:1853   */\n  tag_29\n  jump\t// in\ntag_58:\n    /* \"#utility.yul\":1787:1853   */\n  swap1\n  pop\n    /* \"#utility.yul\":1717:1859   */\n  swap2\n  swap1\n  pop\n  jump\t// out\n    /* \"#utility.yul\":1865:1940   */\ntag_32:\n    /* \"#utility.yul\":1908:1911   */\n  0x00\n    /* \"#utility.yul\":1929:1934   */\n  dup2\n    /* \"#utility.yul\":1922:1934   */\n  swap1\n  pop\n    /* \"#utility.yul\":1865:1940   */\n  swap2\n  swap1\n  pop\n  jump\t// out\n    /* \"#utility.yul\":1946:2215   */\ntag_33:\n    /* \"#utility.yul\":2056:2095   */\n  tag_63\n    /* \"#utility.yul\":2087:2094   */\n  dup4\n    /* \"#utility.yul\":2056:2095   */\n  tag_31\n  jump\t// in\ntag_63:\n    /* \"#utility.yul\":2117:2208   */\n  tag_64\n    /* \"#utility.yul\":2166:2207   */\n  tag_65\n    /* \"#utility.yul\":2190:2206   */\n  dup3\n    /* \"#utility.yul\":2166:2207   */\n  tag_32\n  jump\t// in\ntag_65:\n    /* \"#utility.yul\":2158:2164   */\n  dup5\n    /* \"#utility.yul\":2151:2155   */\n  dup5\n    /* \"#utility.yul\":2145:2156   */\n  sload\n    /* \"#utility.yul\":2117:2208   */\n  tag_28\n  jump\t// in\ntag_64:\n    /* \"#utility.yul\":2111:2115   */\n  dup3\n    /* \"#utility.yul\":2104:2209   */\n  sstore\n    /* \"#utility.yul\":2022:2215   */\n  pop\n    /* \"#utility.yul\":1946:2215   */\n  pop\n  pop\n  pop\n  jump\t// out\n    /* \"#utility.yul\":2221:2294   */\ntag_34:\n    /* \"#utility.yul\":2266:2269   */\n  0x00\n    /* \"#utility.yul\":2221:2294   */\n  swap1\n  jump\t// out\n    /* \"#utility.yul\":2300:2489   */\ntag_35:\n    /* \"#utility.yul\":2377:2409   */\n  tag_68\n  tag_34\n  jump\t// in\ntag_68:\n    /* \"#utility.yul\":2418:2483   */\n  tag_69\n    /* \"#utility.yul\":2476:2482   */\n  dup2\n    /* \"#utility.yul\":2468:2474   */\n  dup5\n    /* \"#utility.yul\":2462:2466   */\n  dup5\n    /* \"#utility.yul\":2418:2483   */\n  tag_33\n  jump\t// in\ntag_69:\n    /* \"#utility.yul\":2353:2489   */\n  pop\n    /* \"#utility.yul\":2300:2489   */\n  pop\n  pop\n  jump\t// out\n    /* \"#utility.yul\":2495:2681   */\ntag_36:\n    /* \"#utility.yul\":2555:2675   */\ntag_71:\n    /* \"#utility.yul\":2572:2575   */\n  dup2\n    /* \"#utility.yul\":2565:2570   */\n  dup2\n    /* \"#utility.yul\":2562:2576   */\n  lt\n    /* \"#utility.yul\":2555:2675   */\n  iszero\n  tag_73\n  jumpi\n    /* \"#utility.yul\":2626:2665   */\n  tag_74\n    /* \"#utility.yul\":2663:2664   */\n  0x00\n    /* \"#utility.yul\":2656:2661   */\n  dup3\n    /* \"#utility.yul\":2626:2665   */\n  tag_35\n  jump\t// in\ntag_74:\n    /* \"#utility.yul\":2599:2600   */\n  0x01\n    /* \"#utility.yul\":2592:2597   */\n  dup2\n    /* \"#utility.yul\":2588:2601   */\n  add\n    /* \"#utility.yul\":2579:2601   */\n  swap1\n  pop\n    /* \"#utility.yul\":2555:2675   */\n  jump(tag_71)\ntag_73:\n    /* \"#utility.yul\":2495:2681   */\n  pop\n  pop\n  jump\t// out\n    /* \"#utility.yul\":2687:3230   */\ntag_37:\n    /* \"#utility.yul\":2788:2790   */\n  0x1f\n    /* \"#utility.yul\":2783:2786   */\n  dup3\n    /* \"#utility.yul\":2780:2791   */\n  gt\n    /* \"#utility.yul\":2777:3223   */\n  iszero\n  tag_76\n  jumpi\n    /* \"#utility.yul\":2822:2860   */\n  tag_77\n    /* \"#utility.yul\":2854:2859   */\n  dup2\n    /* \"#utility.yul\":2822:2860   */\n  tag_25\n  jump\t// in\ntag_77:\n    /* \"#utility.yul\":2906:2935   */\n  tag_78\n    /* \"#utility.yul\":2924:2934   */\n  dup5\n    /* \"#utility.yul\":2906:2935   */\n  tag_26\n  jump\t// in\ntag_78:\n    /* \"#utility.yul\":2896:2904   */\n  dup2\n    /* \"#utility.yul\":2892:2936   */\n  add\n    /* \"#utility.yul\":3089:3091   */\n  0x20\n    /* \"#utility.yul\":3077:3087   */\n  dup6\n    /* \"#utility.yul\":3074:3092   */\n  lt\n    /* \"#utility.yul\":3071:3120   */\n  iszero\n  tag_79\n  jumpi\n    /* \"#utility.yul\":3110:3118   */\n  dup2\n    /* \"#utility.yul\":3095:3118   */\n  swap1\n  pop\n    /* \"#utility.yul\":3071:3120   */\ntag_79:\n    /* \"#utility.yul\":3133:3213   */\n  tag_80\n    /* \"#utility.yul\":3189:3211   */\n  tag_81\n    /* \"#utility.yul\":3207:3210   */\n  dup6\n    /* \"#utility.yul\":3189:3211   */\n  tag_26\n  jump\t// in\ntag_81:\n    /* \"#utility.yul\":3179:3187   */\n  dup4\n    /* \"#utility.yul\":3175:3212   */\n  add\n    /* \"#utility.yul\":3162:3173   */\n  dup3\n    /* \"#utility.yul\":3133:3213   */\n  tag_36\n  jump\t// in\ntag_80:\n    /* \"#utility.yul\":2792:3223   */\n  pop\n  pop\n    /* \"#utility.yul\":2777:3223   */\ntag_76:\n    /* \"#utility.yul\":2687:3230   */\n  pop\n  pop\n  pop\n  jump\t// out\n    /* \"#utility.yul\":3236:3353   */\ntag_38:\n    /* \"#utility.yul\":3290:3298   */\n  0x00\n    /* \"#utility.yul\":3340:3345   */\n  dup3\n    /* \"#utility.yul\":3334:3338   */\n  dup3\n    /* \"#utility.yul\":3330:3346   */\n  shr\n    /* \"#utility.yul\":3309:3346   */\n  swap1\n  pop\n    /* \"#utility.yul\":3236:3353   */\n  swap3\n  swap2\n  pop\n  pop\n  jump\t// out\n    /* \"#utility.yul\":3359:3528   */\ntag_39:\n    /* \"#utility.yul\":3403:3409   */\n  0x00\n    /* \"#utility.yul\":3436:3487   */\n  tag_84\n    /* \"#utility.yul\":3484:3485   */\n  0x00\n    /* \"#utility.yul\":3480:3486   */\n  not\n    /* \"#utility.yul\":3472:3477   */\n  dup5\n    /* \"#utility.yul\":3469:3470   */\n  0x08\n    /* \"#utility.yul\":3465:3478   */\n  mul\n    /* \"#utility.yul\":3436:3487   */\n  tag_38\n  jump\t// in\ntag_84:\n    /* \"#utility.yul\":3432:3488   */\n  not\n    /* \"#utility.yul\":3517:3521   */\n  dup1\n    /* \"#utility.yul\":3511:3515   */\n  dup4\n    /* \"#utility.yul\":3507:3522   */\n  and\n    /* \"#utility.yul\":3497:3522   */\n  swap2\n  pop\n    /* \"#utility.yul\":3410:3528   */\n  pop\n    /* \"#utility.yul\":3359:3528   */\n  swap3\n  swap2\n  pop\n  pop\n  jump\t// out\n    /* \"#utility.yul\":3533:3828   */\ntag_40:\n    /* \"#utility.yul\":3609:3613   */\n  0x00\n    /* \"#utility.yul\":3755:3784   */\n  tag_86\n    /* \"#utility.yul\":3780:3783   */\n  dup4\n    /* \"#utility.yul\":3774:3778   */\n  dup4\n    /* \"#utility.yul\":3755:3784   */\n  tag_39\n  jump\t// in\ntag_86:\n    /* \"#utility.yul\":3747:3784   */\n  swap2\n  pop\n    /* \"#utility.yul\":3817:3820   */\n  dup3\n    /* \"#utility.yul\":3814:3815   */\n  0x02\n    /* \"#utility.yul\":3810:3821   */\n  mul\n    /* \"#utility.yul\":3804:3808   */\n  dup3\n    /* \"#utility.yul\":3801:3822   */\n  or\n    /* \"#utility.yul\":3793:3822   */\n  swap1\n  pop\n    /* \"#utility.yul\":3533:3828   */\n  swap3\n  swap2\n  pop\n  pop\n  jump\t// out\n    /* \"#utility.yul\":3833:5228   */\ntag_7:\n    /* \"#utility.yul\":3950:3987   */\n  tag_88\n    /* \"#utility.yul\":3983:3986   */\n  dup3\n    /* \"#utility.yul\":3950:3987   */\n  tag_21\n  jump\t// in\ntag_88:\n    /* \"#utility.yul\":4052:4070   */\n  0xffffffffffffffff\n    /* \"#utility.yul\":4044:4050   */\n  dup2\n    /* \"#utility.yul\":4041:4071   */\n  gt\n    /* \"#utility.yul\":4038:4094   */\n  iszero\n  tag_89\n  jumpi\n    /* \"#utility.yul\":4074:4092   */\n  tag_90\n  tag_22\n  jump\t// in\ntag_90:\n    /* \"#utility.yul\":4038:4094   */\ntag_89:\n    /* \"#utility.yul\":4118:4156   */\n  tag_91\n    /* \"#utility.yul\":4150:4154   */\n  dup3\n    /* \"#utility.yul\":4144:4155   */\n  sload\n    /* \"#utility.yul\":4118:4156   */\n  tag_24\n  jump\t// in\ntag_91:\n    /* \"#utility.yul\":4203:4270   */\n  tag_92\n    /* \"#utility.yul\":4263:4269   */\n  dup3\n    /* \"#utility.yul\":4255:4261   */\n  dup3\n    /* \"#utility.yul\":4249:4253   */\n  dup6\n    /* \"#utility.yul\":4203:4270   */\n  tag_37\n  jump\t// in\ntag_92:\n    /* \"#utility.yul\":4297:4298   */\n  0x00\n    /* \"#utility.yul\":4321:4325   */\n  0x20\n    /* \"#utility.yul\":4308:4325   */\n  swap1\n  pop\n    /* \"#utility.yul\":4353:4355   */\n  0x1f\n    /* \"#utility.yul\":4345:4351   */\n  dup4\n    /* \"#utility.yul\":4342:4356   */\n  gt\n    /* \"#utility.yul\":4370:4371   */\n  0x01\n    /* \"#utility.yul\":4365:4983   */\n  dup2\n  eq\n  tag_94\n  jumpi\n    /* \"#utility.yul\":5027:5028   */\n  0x00\n    /* \"#utility.yul\":5044:5050   */\n  dup5\n    /* \"#utility.yul\":5041:5118   */\n  iszero\n  tag_95\n  jumpi\n    /* \"#utility.yul\":5093:5102   */\n  dup3\n    /* \"#utility.yul\":5088:5091   */\n  dup8\n    /* \"#utility.yul\":5084:5103   */\n  add\n    /* \"#utility.yul\":5078:5104   */\n  mload\n    /* \"#utility.yul\":5069:5104   */\n  swap1\n  pop\n    /* \"#utility.yul\":5041:5118   */\ntag_95:\n    /* \"#utility.yul\":5144:5211   */\n  tag_96\n    /* \"#utility.yul\":5204:5210   */\n  dup6\n    /* \"#utility.yul\":5197:5202   */\n  dup3\n    /* \"#utility.yul\":5144:5211   */\n  tag_40\n  jump\t// in\ntag_96:\n    /* \"#utility.yul\":5138:5142   */\n  dup7\n    /* \"#utility.yul\":5131:5212   */\n  sstore\n    /* \"#utility.yul\":5000:5222   */\n  pop\n    /* \"#utility.yul\":4335:5222   */\n  jump(tag_93)\n    /* \"#utility.yul\":4365:4983   */\ntag_94:\n    /* \"#utility.yul\":4417:4421   */\n  0x1f\n    /* \"#utility.yul\":4413:4422   */\n  not\n    /* \"#utility.yul\":4405:4411   */\n  dup5\n    /* \"#utility.yul\":4401:4423   */\n  and\n    /* \"#utility.yul\":4451:4488   */\n  tag_97\n    /* \"#utility.yul\":4483:4487   */\n  dup7\n    /* \"#utility.yul\":4451:4488   */\n  tag_25\n  jump\t// in\ntag_97:\n    /* \"#utility.yul\":4510:4511   */\n  0x00\n    /* \"#utility.yul\":4524:4732   */\ntag_98:\n    /* \"#utility.yul\":4538:4545   */\n  dup3\n    /* \"#utility.yul\":4535:4536   */\n  dup2\n    /* \"#utility.yul\":4532:4546   */\n  lt\n    /* \"#utility.yul\":4524:4732   */\n  iszero\n  tag_100\n  jumpi\n    /* \"#utility.yul\":4617:4626   */\n  dup5\n    /* \"#utility.yul\":4612:4615   */\n  dup10\n    /* \"#utility.yul\":4608:4627   */\n  add\n    /* \"#utility.yul\":4602:4628   */\n  mload\n    /* \"#utility.yul\":4594:4600   */\n  dup3\n    /* \"#utility.yul\":4587:4629   */\n  sstore\n    /* \"#utility.yul\":4668:4669   */\n  0x01\n    /* \"#utility.yul\":4660:4666   */\n  dup3\n    /* \"#utility.yul\":4656:4670   */\n  add\n    /* \"#utility.yul\":4646:4670   */\n  swap2\n  pop\n    /* \"#utility.yul\":4715:4717   */\n  0x20\n    /* \"#utility.yul\":4704:4713   */\n  dup6\n    /* \"#utility.yul\":4700:4718   */\n  add\n    /* \"#utility.yul\":4687:4718   */\n  swap5\n  pop\n    /* \"#utility.yul\":4561:4565   */\n  0x20\n    /* \"#utility.yul\":4558:4559   */\n  dup2\n    /* \"#utility.yul\":4554:4566   */\n  add\n    /* \"#utility.yul\":4549:4566   */\n  swap1\n  pop\n    /* \"#utility.yul\":4524:4732   */\n  jump(tag_98)\ntag_100:\n    /* \"#utility.yul\":4760:4766   */\n  dup7\n    /* \"#utility.yul\":4751:4758   */\n  dup4\n    /* \"#utility.yul\":4748:4767   */\n  lt\n    /* \"#utility.yul\":4745:4924   */\n  iszero\n  tag_101\n  jumpi\n    /* \"#utility.yul\":4818:4827   */\n  dup5\n    /* \"#utility.yul\":4813:4816   */\n  dup10\n    /* \"#utility.yul\":4809:4828   */\n  add\n    /* \"#utility.yul\":4803:4829   */\n  mload\n    /* \"#utility.yul\":4861:4909   */\n  tag_102\n    /* \"#utility.yul\":4903:4907   */\n  0x1f\n    /* \"#utility.yul\":4895:4901   */\n  dup10\n    /* \"#utility.yul\":4891:4908   */\n  and\n    /* \"#utility.yul\":4880:4889   */\n  dup3\n    /* \"#utility.yul\":4861:4909   */\n  tag_39\n  jump\t// in\ntag_102:\n    /* \"#utility.yul\":4853:4859   */\n  dup4\n    /* \"#utility.yul\":4846:4910   */\n  sstore\n    /* \"#utility.yul\":4768:4924   */\n  pop\n    /* \"#utility.yul\":4745:4924   */\ntag_101:\n    /* \"#utility.yul\":4970:4971   */\n  0x01\n    /* \"#utility.yul\":4966:4967   */\n  0x02\n    /* \"#utility.yul\":4958:4964   */\n  dup9\n    /* \"#utility.yul\":4954:4968   */\n  mul\n    /* \"#utility.yul\":4950:4972   */\n  add\n    /* \"#utility.yul\":4944:4948   */\n  dup9\n    /* \"#utility.yul\":4937:4973   */\n  sstore\n    /* \"#utility.yul\":4372:4983   */\n  pop\n  pop\n  pop\n    /* \"#utility.yul\":4335:5222   */\ntag_93:\n  pop\n    /* \"#utility.yul\":3925:5228   */\n  pop\n  pop\n  pop\n    /* \"#utility.yul\":3833:5228   */\n  pop\n  pop\n  jump\t// out\n    /* \"contracts/DegenToken.sol\":168:3108  contract DegenToken is ERC20, Ownable {... */\ntag_18:\n  dataSize(sub_0)\n  dup1\n  dataOffset(sub_0)\n  0x00\n  codecopy\n  0x00\n  return\nstop\n\nsub_0: assembly {\n        /* \"contracts/DegenToken.sol\":168:3108  contract DegenToken is ERC20, Ownable {... */\n      mstore(0x40, 0x80)\n      callvalue\n      dup1\n      iszero\n      tag_1\n      jumpi\n      0x00\n      dup1\n      revert\n    tag_1:\n      pop\n      jumpi(tag_2, lt(calldatasize, 0x04))\n      shr(0xe0, calldataload(0x00))\n      dup1\n      0x95d89b41\n      gt\n      tag_28\n      jumpi\n      dup1\n      0xc00aa3a5\n      gt\n      tag_29\n      jumpi\n      dup1\n      0xe4d74695\n      gt\n      tag_30\n      jumpi\n      dup1\n      0xe4d74695\n      eq\n      tag_24\n      jumpi\n      dup1\n      0xf0dda65c\n      eq\n      tag_25\n      jumpi\n      dup1\n      0xf2fde38b\n      eq\n      tag_26\n      jumpi\n      dup1\n      0xf732ae71\n      eq\n      tag_27\n      jumpi\n      jump(tag_2)\n    tag_30:\n      dup1\n      0xc00aa3a5\n      eq\n      tag_21\n      jumpi\n      dup1\n      0xc71daccb\n      eq\n      tag_22\n      jumpi\n      dup1\n      0xdd62ed3e\n      eq\n      tag_23\n      jumpi\n      jump(tag_2)\n    tag_29:\n      dup1\n      0x95d89b41\n      eq\n      tag_15\n      jumpi\n      dup1\n      0xa457c2d7\n      eq\n      tag_16\n      jumpi\n      dup1\n      0xa48da4ef\n      eq\n      tag_17\n      jumpi\n      dup1\n      0xa9059cbb\n      eq\n      tag_18\n      jumpi\n      dup1\n      0xbec3fa17\n      eq\n      tag_19\n      jumpi\n      dup1\n      0xbfb231d2\n      eq\n      tag_20\n      jumpi\n      jump(tag_2)\n    tag_28:\n      dup1\n      0x659da27c\n      gt\n      tag_31\n      jumpi\n      dup1\n      0x659da27c\n      eq\n      tag_9\n      jumpi\n      dup1\n      0x6bfb0d01\n      eq\n      tag_10\n      jumpi\n      dup1\n      0x6d1b229d\n      eq\n      tag_11\n      jumpi\n      dup1\n      0x70a08231\n      eq\n      tag_12\n      jumpi\n      dup1\n      0x715018a6\n      eq\n      tag_13\n      jumpi\n      dup1\n      0x8da5cb5b\n      eq\n      tag_14\n      jumpi\n      jump(tag_2)\n    tag_31:\n      dup1\n      0x06fdde03\n      eq\n      tag_3\n      jumpi\n      dup1\n      0x095ea7b3\n      eq\n      tag_4\n      jumpi\n      dup1\n      0x18160ddd\n      eq\n      tag_5\n      jumpi\n      dup1\n      0x23b872dd\n      eq\n      tag_6\n      jumpi\n      dup1\n      0x313ce567\n      eq\n      tag_7\n      jumpi\n      dup1\n      0x39509351\n      eq\n      tag_8\n      jumpi\n    tag_2:\n      0x00\n      dup1\n      revert\n        /* \"@openzeppelin/contracts/token/ERC20/ERC20.sol\":2154:2252  function name() public view virtual override returns (string memory) {... */\n    tag_3:\n      tag_32\n      tag_33\n      jump\t// in\n    tag_32:\n      mload(0x40)\n      tag_34\n      swap2\n      swap1\n      tag_35\n      jump\t// in\n    tag_34:\n      mload(0x40)\n      dup1\n      swap2\n      sub\n      swap1\n      return\n        /* \"@openzeppelin/contracts/token/ERC20/ERC20.sol\":4431:4628  function approve(address spender, uint256 amount) public virtual override returns (bool) {... */\n    tag_4:\n      tag_36\n      0x04\n      dup1\n      calldatasize\n      sub\n      dup2\n      add\n      swap1\n      tag_37\n      swap2\n      swap1\n      tag_38\n      jump\t// in\n    tag_37:\n      tag_39\n      jump\t// in\n    tag_36:\n      mload(0x40)\n      tag_40\n      swap2\n      swap1\n      tag_41\n      jump\t// in\n    tag_40:\n      mload(0x40)\n      dup1\n      swap2\n      sub\n      swap1\n      return\n        /* \"@openzeppelin/contracts/token/ERC20/ERC20.sol\":3242:3348  function totalSupply() public view virtual override returns (uint256) {... */\n    tag_5:\n      tag_42\n      tag_43\n      jump\t// in\n    tag_42:\n      mload(0x40)\n      tag_44\n      swap2\n      swap1\n      tag_45\n      jump\t// in\n    tag_44:\n      mload(0x40)\n      dup1\n      swap2\n      sub\n      swap1\n      return\n        /* \"@openzeppelin/contracts/token/ERC20/ERC20.sol\":5190:5476  function transferFrom(... */\n    tag_6:\n      tag_46\n      0x04\n      dup1\n      calldatasize\n      sub\n      dup2\n      add\n      swap1\n      tag_47\n      swap2\n      swap1\n      tag_48\n      jump\t// in\n    tag_47:\n      tag_49\n      jump\t// in\n    tag_46:\n      mload(0x40)\n      tag_50\n      swap2\n      swap1\n      tag_41\n      jump\t// in\n    tag_50:\n      mload(0x40)\n      dup1\n      swap2\n      sub\n      swap1\n      return\n        /* \"@openzeppelin/contracts/token/ERC20/ERC20.sol\":3091:3182  function decimals() public view virtual override returns (uint8) {... */\n    tag_7:\n      tag_51\n      tag_52\n      jump\t// in\n    tag_51:\n      mload(0x40)\n      tag_53\n      swap2\n      swap1\n      tag_54\n      jump\t// in\n    tag_53:\n      mload(0x40)\n      dup1\n      swap2\n      sub\n      swap1\n      return\n        /* \"@openzeppelin/contracts/token/ERC20/ERC20.sol\":5871:6105  function increaseAllowance(address spender, uint256 addedValue) public virtual returns (bool) {... */\n    tag_8:\n      tag_55\n      0x04\n      dup1\n      calldatasize\n      sub\n      dup2\n      add\n      swap1\n      tag_56\n      swap2\n      swap1\n      tag_38\n      jump\t// in\n    tag_56:\n      tag_57\n      jump\t// in\n    tag_55:\n      mload(0x40)\n      tag_58\n      swap2\n      swap1\n      tag_41\n      jump\t// in\n    tag_58:\n      mload(0x40)\n      dup1\n      swap2\n      sub\n      swap1\n      return\n        /* \"contracts/DegenToken.sol\":2265:2607  function itemInventory() external view returns (string[] memory) {... */\n    tag_9:\n      tag_59\n      tag_60\n      jump\t// in\n    tag_59:\n      mload(0x40)\n      tag_61\n      swap2\n      swap1\n      tag_62\n      jump\t// in\n    tag_61:\n      mload(0x40)\n      dup1\n      swap2\n      sub\n      swap1\n      return\n        /* \"contracts/DegenToken.sol\":344:368  uint256 public itemCount */\n    tag_10:\n      tag_63\n      tag_64\n      jump\t// in\n    tag_63:\n      mload(0x40)\n      tag_65\n      swap2\n      swap1\n      tag_45\n      jump\t// in\n    tag_65:\n      mload(0x40)\n      dup1\n      swap2\n      sub\n      swap1\n      return\n        /* \"contracts/DegenToken.sol\":2724:2909  function burnTokens(uint256 amount) public {... */\n    tag_11:\n      tag_66\n      0x04\n      dup1\n      calldatasize\n      sub\n      dup2\n      add\n      swap1\n      tag_67\n      swap2\n      swap1\n      tag_68\n      jump\t// in\n    tag_67:\n      tag_69\n      jump\t// in\n    tag_66:\n      stop\n        /* \"@openzeppelin/contracts/token/ERC20/ERC20.sol\":3406:3531  function balanceOf(address account) public view virtual override returns (uint256) {... */\n    tag_12:\n      tag_70\n      0x04\n      dup1\n      calldatasize\n      sub\n      dup2\n      add\n      swap1\n      tag_71\n      swap2\n      swap1\n      tag_72\n      jump\t// in\n    tag_71:\n      tag_73\n      jump\t// in\n    tag_70:\n      mload(0x40)\n      tag_74\n      swap2\n      swap1\n      tag_45\n      jump\t// in\n    tag_74:\n      mload(0x40)\n      dup1\n      swap2\n      sub\n      swap1\n      return\n        /* \"@openzeppelin/contracts/access/Ownable.sol\":1831:1932  function renounceOwnership() public virtual onlyOwner {... */\n    tag_13:\n      tag_75\n      tag_76\n      jump\t// in\n    tag_75:\n      stop\n        /* \"@openzeppelin/contracts/access/Ownable.sol\":1201:1286  function owner() public view virtual returns (address) {... */\n    tag_14:\n      tag_77\n      tag_78\n      jump\t// in\n    tag_77:\n      mload(0x40)\n      tag_79\n      swap2\n      swap1\n      tag_80\n      jump\t// in\n    tag_79:\n      mload(0x40)\n      dup1\n      swap2\n      sub\n      swap1\n      return\n        /* \"@openzeppelin/contracts/token/ERC20/ERC20.sol\":2365:2467  function symbol() public view virtual override returns (string memory) {... */\n    tag_15:\n      tag_81\n      tag_82\n      jump\t// in\n    tag_81:\n      mload(0x40)\n      tag_83\n      swap2\n      swap1\n      tag_35\n      jump\t// in\n    tag_83:\n      mload(0x40)\n      dup1\n      swap2\n      sub\n      swap1\n      return\n        /* \"@openzeppelin/contracts/token/ERC20/ERC20.sol\":6592:7019  function decreaseAllowance(address spender, uint256 subtractedValue) public virtual returns (bool) {... */\n    tag_16:\n      tag_84\n      0x04\n      dup1\n      calldatasize\n      sub\n      dup2\n      add\n      swap1\n      tag_85\n      swap2\n      swap1\n      tag_38\n      jump\t// in\n    tag_85:\n      tag_86\n      jump\t// in\n    tag_84:\n      mload(0x40)\n      tag_87\n      swap2\n      swap1\n      tag_41\n      jump\t// in\n    tag_87:\n      mload(0x40)\n      dup1\n      swap2\n      sub\n      swap1\n      return\n        /* \"contracts/DegenToken.sol\":2915:3106  function burnOther(address to, uint256 amount) public onlyOwner {... */\n    tag_17:\n      tag_88\n      0x04\n      dup1\n      calldatasize\n      sub\n      dup2\n      add\n      swap1\n      tag_89\n      swap2\n      swap1\n      tag_38\n      jump\t// in\n    tag_89:\n      tag_90\n      jump\t// in\n    tag_88:\n      stop\n        /* \"@openzeppelin/contracts/token/ERC20/ERC20.sol\":3727:3916  function transfer(address to, uint256 amount) public virtual override returns (bool) {... */\n    tag_18:\n      tag_91\n      0x04\n      dup1\n      calldatasize\n      sub\n      dup2\n      add\n      swap1\n      tag_92\n      swap2\n      swap1\n      tag_38\n      jump\t// in\n    tag_92:\n      tag_93\n      jump\t// in\n    tag_91:\n      mload(0x40)\n      tag_94\n      swap2\n      swap1\n      tag_41\n      jump\t// in\n    tag_94:\n      mload(0x40)\n      dup1\n      swap2\n      sub\n      swap1\n      return\n        /* \"contracts/DegenToken.sol\":744:998  function transferTokens(address _receiver, uint256 _value) external {... */\n    tag_19:\n      tag_95\n      0x04\n      dup1\n      calldatasize\n      sub\n      dup2\n      add\n      swap1\n      tag_96\n      swap2\n      swap1\n      tag_38\n      jump\t// in\n    tag_96:\n      tag_97\n      jump\t// in\n    tag_95:\n      stop\n        /* \"contracts/DegenToken.sol\":301:338  mapping(uint256 => Item) public items */\n    tag_20:\n      tag_98\n      0x04\n      dup1\n      calldatasize\n      sub\n      dup2\n      add\n      swap1\n      tag_99\n      swap2\n      swap1\n      tag_68\n      jump\t// in\n    tag_99:\n      tag_100\n      jump\t// in\n    tag_98:\n      mload(0x40)\n      tag_101\n      swap4\n      swap3\n      swap2\n      swap1\n      tag_102\n      jump\t// in\n    tag_101:\n      mload(0x40)\n      dup1\n      swap2\n      sub\n      swap1\n      return\n        /* \"contracts/DegenToken.sol\":375:425  mapping(address => uint256[]) public redeemedItems */\n    tag_21:\n      tag_103\n      0x04\n      dup1\n      calldatasize\n      sub\n      dup2\n      add\n      swap1\n      tag_104\n      swap2\n      swap1\n      tag_38\n      jump\t// in\n    tag_104:\n      tag_105\n      jump\t// in\n    tag_103:\n      mload(0x40)\n      tag_106\n      swap2\n      swap1\n      tag_45\n      jump\t// in\n    tag_106:\n      mload(0x40)\n      dup1\n      swap2\n      sub\n      swap1\n      return\n        /* \"contracts/DegenToken.sol\":2613:2716  function checkBalance() external view returns (uint256) { ... */\n    tag_22:\n      tag_107\n      tag_108\n      jump\t// in\n    tag_107:\n      mload(0x40)\n      tag_109\n      swap2\n      swap1\n      tag_45\n      jump\t// in\n    tag_109:\n      mload(0x40)\n      dup1\n      swap2\n      sub\n      swap1\n      return\n        /* \"@openzeppelin/contracts/token/ERC20/ERC20.sol\":3974:4123  function allowance(address owner, address spender) public view virtual override returns (uint256) {... */\n    tag_23:\n      tag_110\n      0x04\n      dup1\n      calldatasize\n      sub\n      dup2\n      add\n      swap1\n      tag_111\n      swap2\n      swap1\n      tag_112\n      jump\t// in\n    tag_111:\n      tag_113\n      jump\t// in\n    tag_110:\n      mload(0x40)\n      tag_114\n      swap2\n      swap1\n      tag_45\n      jump\t// in\n    tag_114:\n      mload(0x40)\n      dup1\n      swap2\n      sub\n      swap1\n      return\n        /* \"contracts/DegenToken.sol\":1984:2259  function redeemItems(uint256 itemId) external {... */\n    tag_24:\n      tag_115\n      0x04\n      dup1\n      calldatasize\n      sub\n      dup2\n      add\n      swap1\n      tag_116\n      swap2\n      swap1\n      tag_68\n      jump\t// in\n    tag_116:\n      tag_117\n      jump\t// in\n    tag_115:\n      stop\n        /* \"contracts/DegenToken.sol\":639:738  function mintTokens(address to, uint256 amount) public onlyOwner {... */\n    tag_25:\n      tag_118\n      0x04\n      dup1\n      calldatasize\n      sub\n      dup2\n      add\n      swap1\n      tag_119\n      swap2\n      swap1\n      tag_38\n      jump\t// in\n    tag_119:\n      tag_120\n      jump\t// in\n    tag_118:\n      stop\n        /* \"@openzeppelin/contracts/access/Ownable.sol\":2081:2279  function transferOwnership(address newOwner) public virtual onlyOwner {... */\n    tag_26:\n      tag_121\n      0x04\n      dup1\n      calldatasize\n      sub\n      dup2\n      add\n      swap1\n      tag_122\n      swap2\n      swap1\n      tag_72\n      jump\t// in\n    tag_122:\n      tag_123\n      jump\t// in\n    tag_121:\n      stop\n        /* \"contracts/DegenToken.sol\":1571:1978  function itemShop() public view returns (string memory) {... */\n    tag_27:\n      tag_124\n      tag_125\n      jump\t// in\n    tag_124:\n      mload(0x40)\n      tag_126\n      swap2\n      swap1\n      tag_35\n      jump\t// in\n    tag_126:\n      mload(0x40)\n      dup1\n      swap2\n      sub\n      swap1\n      return\n        /* \"@openzeppelin/contracts/token/ERC20/ERC20.sol\":2154:2252  function name() public view virtual override returns (string memory) {... */\n    tag_33:\n        /* \"@openzeppelin/contracts/token/ERC20/ERC20.sol\":2208:2221  string memory */\n      0x60\n        /* \"@openzeppelin/contracts/token/ERC20/ERC20.sol\":2240:2245  _name */\n      0x03\n        /* \"@openzeppelin/contracts/token/ERC20/ERC20.sol\":2233:2245  return _name */\n      dup1\n      sload\n      tag_128\n      swap1\n      tag_129\n      jump\t// in\n    tag_128:\n      dup1\n      0x1f\n      add\n      0x20\n      dup1\n      swap2\n      div\n      mul\n      0x20\n      add\n      mload(0x40)\n      swap1\n      dup2\n      add\n      0x40\n      mstore\n      dup1\n      swap3\n      swap2\n      swap1\n      dup2\n      dup2\n      mstore\n      0x20\n      add\n      dup3\n      dup1\n      sload\n      tag_130\n      swap1\n      tag_129\n      jump\t// in\n    tag_130:\n      dup1\n      iszero\n      tag_131\n      jumpi\n      dup1\n      0x1f\n      lt\n      tag_132\n      jumpi\n      0x0100\n      dup1\n      dup4\n      sload\n      div\n      mul\n      dup4\n      mstore\n      swap2\n      0x20\n      add\n      swap2\n      jump(tag_131)\n    tag_132:\n      dup3\n      add\n      swap2\n      swap1\n      0x00\n      mstore\n      keccak256(0x00, 0x20)\n      swap1\n    tag_133:\n      dup2\n      sload\n      dup2\n      mstore\n      swap1\n      0x01\n      add\n      swap1\n      0x20\n      add\n      dup1\n      dup4\n      gt\n      tag_133\n      jumpi\n      dup3\n      swap1\n      sub\n      0x1f\n      and\n      dup3\n      add\n      swap2\n    tag_131:\n      pop\n      pop\n      pop\n      pop\n      pop\n      swap1\n      pop\n        /* \"@openzeppelin/contracts/token/ERC20/ERC20.sol\":2154:2252  function name() public view virtual override returns (string memory) {... */\n      swap1\n      jump\t// out\n        /* \"@openzeppelin/contracts/token/ERC20/ERC20.sol\":4431:4628  function approve(address spender, uint256 amount) public virtual override returns (bool) {... */\n    tag_39:\n        /* \"@openzeppelin/contracts/token/ERC20/ERC20.sol\":4514:4518  bool */\n      0x00\n        /* \"@openzeppelin/contracts/token/ERC20/ERC20.sol\":4530:4543  address owner */\n      dup1\n        /* \"@openzeppelin/contracts/token/ERC20/ERC20.sol\":4546:4558  _msgSender() */\n      tag_135\n        /* \"@openzeppelin/contracts/token/ERC20/ERC20.sol\":4546:4556  _msgSender */\n      tag_136\n        /* \"@openzeppelin/contracts/token/ERC20/ERC20.sol\":4546:4558  _msgSender() */\n      jump\t// in\n    tag_135:\n        /* \"@openzeppelin/contracts/token/ERC20/ERC20.sol\":4530:4558  address owner = _msgSender() */\n      swap1\n      pop\n        /* \"@openzeppelin/contracts/token/ERC20/ERC20.sol\":4568:4600  _approve(owner, spender, amount) */\n      tag_137\n        /* \"@openzeppelin/contracts/token/ERC20/ERC20.sol\":4577:4582  owner */\n      dup2\n        /* \"@openzeppelin/contracts/token/ERC20/ERC20.sol\":4584:4591  spender */\n      dup6\n        /* \"@openzeppelin/contracts/token/ERC20/ERC20.sol\":4593:4599  amount */\n      dup6\n        /* \"@openzeppelin/contracts/token/ERC20/ERC20.sol\":4568:4576  _approve */\n      tag_138\n        /* \"@openzeppelin/contracts/token/ERC20/ERC20.sol\":4568:4600  _approve(owner, spender, amount) */\n      jump\t// in\n    tag_137:\n        /* \"@openzeppelin/contracts/token/ERC20/ERC20.sol\":4617:4621  true */\n      0x01\n        /* \"@openzeppelin/contracts/token/ERC20/ERC20.sol\":4610:4621  return true */\n      swap2\n      pop\n      pop\n        /* \"@openzeppelin/contracts/token/ERC20/ERC20.sol\":4431:4628  function approve(address spender, uint256 amount) public virtual override returns (bool) {... */\n      swap3\n      swap2\n      pop\n      pop\n      jump\t// out\n        /* \"@openzeppelin/contracts/token/ERC20/ERC20.sol\":3242:3348  function totalSupply() public view virtual override returns (uint256) {... */\n    tag_43:\n        /* \"@openzeppelin/contracts/token/ERC20/ERC20.sol\":3303:3310  uint256 */\n      0x00\n        /* \"@openzeppelin/contracts/token/ERC20/ERC20.sol\":3329:3341  _totalSupply */\n      sload(0x02)\n        /* \"@openzeppelin/contracts/token/ERC20/ERC20.sol\":3322:3341  return _totalSupply */\n      swap1\n      pop\n        /* \"@openzeppelin/contracts/token/ERC20/ERC20.sol\":3242:3348  function totalSupply() public view virtual override returns (uint256) {... */\n      swap1\n      jump\t// out\n        /* \"@openzeppelin/contracts/token/ERC20/ERC20.sol\":5190:5476  function transferFrom(... */\n    tag_49:\n        /* \"@openzeppelin/contracts/token/ERC20/ERC20.sol\":5317:5321  bool */\n      0x00\n        /* \"@openzeppelin/contracts/token/ERC20/ERC20.sol\":5333:5348  address spender */\n      dup1\n        /* \"@openzeppelin/contracts/token/ERC20/ERC20.sol\":5351:5363  _msgSender() */\n      tag_141\n        /* \"@openzeppelin/contracts/token/ERC20/ERC20.sol\":5351:5361  _msgSender */\n      tag_136\n        /* \"@openzeppelin/contracts/token/ERC20/ERC20.sol\":5351:5363  _msgSender() */\n      jump\t// in\n    tag_141:\n        /* \"@openzeppelin/contracts/token/ERC20/ERC20.sol\":5333:5363  address spender = _msgSender() */\n      swap1\n      pop\n        /* \"@openzeppelin/contracts/token/ERC20/ERC20.sol\":5373:5411  _spendAllowance(from, spender, amount) */\n      tag_142\n        /* \"@openzeppelin/contracts/token/ERC20/ERC20.sol\":5389:5393  from */\n      dup6\n        /* \"@openzeppelin/contracts/token/ERC20/ERC20.sol\":5395:5402  spender */\n      dup3\n        /* \"@openzeppelin/contracts/token/ERC20/ERC20.sol\":5404:5410  amount */\n      dup6\n        /* \"@openzeppelin/contracts/token/ERC20/ERC20.sol\":5373:5388  _spendAllowance */\n      tag_143\n        /* \"@openzeppelin/contracts/token/ERC20/ERC20.sol\":5373:5411  _spendAllowance(from, spender, amount) */\n      jump\t// in\n    tag_142:\n        /* \"@openzeppelin/contracts/token/ERC20/ERC20.sol\":5421:5448  _transfer(from, to, amount) */\n      tag_144\n        /* \"@openzeppelin/contracts/token/ERC20/ERC20.sol\":5431:5435  from */\n      dup6\n        /* \"@openzeppelin/contracts/token/ERC20/ERC20.sol\":5437:5439  to */\n      dup6\n        /* \"@openzeppelin/contracts/token/ERC20/ERC20.sol\":5441:5447  amount */\n      dup6\n        /* \"@openzeppelin/contracts/token/ERC20/ERC20.sol\":5421:5430  _transfer */\n      tag_145\n        /* \"@openzeppelin/contracts/token/ERC20/ERC20.sol\":5421:5448  _transfer(from, to, amount) */\n      jump\t// in\n    tag_144:\n        /* \"@openzeppelin/contracts/token/ERC20/ERC20.sol\":5465:5469  true */\n      0x01\n        /* \"@openzeppelin/contracts/token/ERC20/ERC20.sol\":5458:5469  return true */\n      swap2\n      pop\n      pop\n        /* \"@openzeppelin/contracts/token/ERC20/ERC20.sol\":5190:5476  function transferFrom(... */\n      swap4\n      swap3\n      pop\n      pop\n      pop\n      jump\t// out\n        /* \"@openzeppelin/contracts/token/ERC20/ERC20.sol\":3091:3182  function decimals() public view virtual override returns (uint8) {... */\n    tag_52:\n        /* \"@openzeppelin/contracts/token/ERC20/ERC20.sol\":3149:3154  uint8 */\n      0x00\n        /* \"@openzeppelin/contracts/token/ERC20/ERC20.sol\":3173:3175  18 */\n      0x12\n        /* \"@openzeppelin/contracts/token/ERC20/ERC20.sol\":3166:3175  return 18 */\n      swap1\n      pop\n        /* \"@openzeppelin/contracts/token/ERC20/ERC20.sol\":3091:3182  function decimals() public view virtual override returns (uint8) {... */\n      swap1\n      jump\t// out\n        /* \"@openzeppelin/contracts/token/ERC20/ERC20.sol\":5871:6105  function increaseAllowance(address spender, uint256 addedValue) public virtual returns (bool) {... */\n    tag_57:\n        /* \"@openzeppelin/contracts/token/ERC20/ERC20.sol\":5959:5963  bool */\n      0x00\n        /* \"@openzeppelin/contracts/token/ERC20/ERC20.sol\":5975:5988  address owner */\n      dup1\n        /* \"@openzeppelin/contracts/token/ERC20/ERC20.sol\":5991:6003  _msgSender() */\n      tag_148\n        /* \"@openzeppelin/contracts/token/ERC20/ERC20.sol\":5991:6001  _msgSender */\n      tag_136\n        /* \"@openzeppelin/contracts/token/ERC20/ERC20.sol\":5991:6003  _msgSender() */\n      jump\t// in\n    tag_148:\n        /* \"@openzeppelin/contracts/token/ERC20/ERC20.sol\":5975:6003  address owner = _msgSender() */\n      swap1\n      pop\n        /* \"@openzeppelin/contracts/token/ERC20/ERC20.sol\":6013:6077  _approve(owner, spender, allowance(owner, spender) + addedValue) */\n      tag_149\n        /* \"@openzeppelin/contracts/token/ERC20/ERC20.sol\":6022:6027  owner */\n      dup2\n        /* \"@openzeppelin/contracts/token/ERC20/ERC20.sol\":6029:6036  spender */\n      dup6\n        /* \"@openzeppelin/contracts/token/ERC20/ERC20.sol\":6066:6076  addedValue */\n      dup6\n        /* \"@openzeppelin/contracts/token/ERC20/ERC20.sol\":6038:6063  allowance(owner, spender) */\n      tag_150\n        /* \"@openzeppelin/contracts/token/ERC20/ERC20.sol\":6048:6053  owner */\n      dup6\n        /* \"@openzeppelin/contracts/token/ERC20/ERC20.sol\":6055:6062  spender */\n      dup10\n        /* \"@openzeppelin/contracts/token/ERC20/ERC20.sol\":6038:6047  allowance */\n      tag_113\n        /* \"@openzeppelin/contracts/token/ERC20/ERC20.sol\":6038:6063  allowance(owner, spender) */\n      jump\t// in\n    tag_150:\n        /* \"@openzeppelin/contracts/token/ERC20/ERC20.sol\":6038:6076  allowance(owner, spender) + addedValue */\n      tag_151\n      swap2\n      swap1\n      tag_152\n      jump\t// in\n    tag_151:\n        /* \"@openzeppelin/contracts/token/ERC20/ERC20.sol\":6013:6021  _approve */\n      tag_138\n        /* \"@openzeppelin/contracts/token/ERC20/ERC20.sol\":6013:6077  _approve(owner, spender, allowance(owner, spender) + addedValue) */\n      jump\t// in\n    tag_149:\n        /* \"@openzeppelin/contracts/token/ERC20/ERC20.sol\":6094:6098  true */\n      0x01\n        /* \"@openzeppelin/contracts/token/ERC20/ERC20.sol\":6087:6098  return true */\n      swap2\n      pop\n      pop\n        /* \"@openzeppelin/contracts/token/ERC20/ERC20.sol\":5871:6105  function increaseAllowance(address spender, uint256 addedValue) public virtual returns (bool) {... */\n      swap3\n      swap2\n      pop\n      pop\n      jump\t// out\n        /* \"contracts/DegenToken.sol\":2265:2607  function itemInventory() external view returns (string[] memory) {... */\n    tag_60:\n        /* \"contracts/DegenToken.sol\":2313:2328  string[] memory */\n      0x60\n        /* \"contracts/DegenToken.sol\":2340:2364  uint256[] memory itemIds */\n      0x00\n        /* \"contracts/DegenToken.sol\":2367:2380  redeemedItems */\n      0x08\n        /* \"contracts/DegenToken.sol\":2367:2392  redeemedItems[msg.sender] */\n      0x00\n        /* \"contracts/DegenToken.sol\":2381:2391  msg.sender */\n      caller\n        /* \"contracts/DegenToken.sol\":2367:2392  redeemedItems[msg.sender] */\n      0xffffffffffffffffffffffffffffffffffffffff\n      and\n      0xffffffffffffffffffffffffffffffffffffffff\n      and\n      dup2\n      mstore\n      0x20\n      add\n      swap1\n      dup2\n      mstore\n      0x20\n      add\n      0x00\n      keccak256\n        /* \"contracts/DegenToken.sol\":2340:2392  uint256[] memory itemIds = redeemedItems[msg.sender] */\n      dup1\n      sload\n      dup1\n      0x20\n      mul\n      0x20\n      add\n      mload(0x40)\n      swap1\n      dup2\n      add\n      0x40\n      mstore\n      dup1\n      swap3\n      swap2\n      swap1\n      dup2\n      dup2\n      mstore\n      0x20\n      add\n      dup3\n      dup1\n      sload\n      dup1\n      iszero\n      tag_154\n      jumpi\n      0x20\n      mul\n      dup3\n      add\n      swap2\n      swap1\n      0x00\n      mstore\n      keccak256(0x00, 0x20)\n      swap1\n    tag_155:\n      dup2\n      sload\n      dup2\n      mstore\n      0x20\n      add\n      swap1\n      0x01\n      add\n      swap1\n      dup1\n      dup4\n      gt\n      tag_155\n      jumpi\n    tag_154:\n      pop\n      pop\n      pop\n      pop\n      pop\n      swap1\n      pop\n        /* \"contracts/DegenToken.sol\":2402:2427  string[] memory itemNames */\n      0x00\n        /* \"contracts/DegenToken.sol\":2443:2450  itemIds */\n      dup2\n        /* \"contracts/DegenToken.sol\":2443:2457  itemIds.length */\n      mload\n        /* \"contracts/DegenToken.sol\":2430:2458  new string[](itemIds.length) */\n      0xffffffffffffffff\n      dup2\n      gt\n      iszero\n      tag_156\n      jumpi\n      tag_157\n      tag_158\n      jump\t// in\n    tag_157:\n    tag_156:\n      mload(0x40)\n      swap1\n      dup1\n      dup3\n      mstore\n      dup1\n      0x20\n      mul\n      0x20\n      add\n      dup3\n      add\n      0x40\n      mstore\n      dup1\n      iszero\n      tag_159\n      jumpi\n      dup2\n      0x20\n      add\n    tag_160:\n      0x60\n      dup2\n      mstore\n      0x20\n      add\n      swap1\n      0x01\n      swap1\n      sub\n      swap1\n      dup2\n      tag_160\n      jumpi\n      swap1\n      pop\n    tag_159:\n      pop\n        /* \"contracts/DegenToken.sol\":2402:2458  string[] memory itemNames = new string[](itemIds.length) */\n      swap1\n      pop\n        /* \"contracts/DegenToken.sol\":2473:2482  uint256 i */\n      0x00\n        /* \"contracts/DegenToken.sol\":2468:2575  for (uint256 i = 0; i < itemIds.length; i++) {... */\n    tag_161:\n        /* \"contracts/DegenToken.sol\":2492:2499  itemIds */\n      dup3\n        /* \"contracts/DegenToken.sol\":2492:2506  itemIds.length */\n      mload\n        /* \"contracts/DegenToken.sol\":2488:2489  i */\n      dup2\n        /* \"contracts/DegenToken.sol\":2488:2506  i < itemIds.length */\n      lt\n        /* \"contracts/DegenToken.sol\":2468:2575  for (uint256 i = 0; i < itemIds.length; i++) {... */\n      iszero\n      tag_162\n      jumpi\n        /* \"contracts/DegenToken.sol\":2542:2547  items */\n      0x06\n        /* \"contracts/DegenToken.sol\":2542:2559  items[itemIds[i]] */\n      0x00\n        /* \"contracts/DegenToken.sol\":2548:2555  itemIds */\n      dup5\n        /* \"contracts/DegenToken.sol\":2556:2557  i */\n      dup4\n        /* \"contracts/DegenToken.sol\":2548:2558  itemIds[i] */\n      dup2\n      mload\n      dup2\n      lt\n      tag_164\n      jumpi\n      tag_165\n      tag_166\n      jump\t// in\n    tag_165:\n    tag_164:\n      0x20\n      mul\n      0x20\n      add\n      add\n      mload\n        /* \"contracts/DegenToken.sol\":2542:2559  items[itemIds[i]] */\n      dup2\n      mstore\n      0x20\n      add\n      swap1\n      dup2\n      mstore\n      0x20\n      add\n      0x00\n      keccak256\n        /* \"contracts/DegenToken.sol\":2542:2564  items[itemIds[i]].name */\n      0x01\n      add\n        /* \"contracts/DegenToken.sol\":2527:2564  itemNames[i] = items[itemIds[i]].name */\n      dup1\n      sload\n      tag_167\n      swap1\n      tag_129\n      jump\t// in\n    tag_167:\n      dup1\n      0x1f\n      add\n      0x20\n      dup1\n      swap2\n      div\n      mul\n      0x20\n      add\n      mload(0x40)\n      swap1\n      dup2\n      add\n      0x40\n      mstore\n      dup1\n      swap3\n      swap2\n      swap1\n      dup2\n      dup2\n      mstore\n      0x20\n      add\n      dup3\n      dup1\n      sload\n      tag_168\n      swap1\n      tag_129\n      jump\t// in\n    tag_168:\n      dup1\n      iszero\n      tag_169\n      jumpi\n      dup1\n      0x1f\n      lt\n      tag_170\n      jumpi\n      0x0100\n      dup1\n      dup4\n      sload\n      div\n      mul\n      dup4\n      mstore\n      swap2\n      0x20\n      add\n      swap2\n      jump(tag_169)\n    tag_170:\n      dup3\n      add\n      swap2\n      swap1\n      0x00\n      mstore\n      keccak256(0x00, 0x20)\n      swap1\n    tag_171:\n      dup2\n      sload\n      dup2\n      mstore\n      swap1\n      0x01\n      add\n      swap1\n      0x20\n      add\n      dup1\n      dup4\n      gt\n      tag_171\n      jumpi\n      dup3\n      swap1\n      sub\n      0x1f\n      and\n      dup3\n      add\n      swap2\n    tag_169:\n      pop\n      pop\n      pop\n      pop\n      pop\n        /* \"contracts/DegenToken.sol\":2527:2536  itemNames */\n      dup3\n        /* \"contracts/DegenToken.sol\":2537:2538  i */\n      dup3\n        /* \"contracts/DegenToken.sol\":2527:2539  itemNames[i] */\n      dup2\n      mload\n      dup2\n      lt\n      tag_172\n      jumpi\n      tag_173\n      tag_166\n      jump\t// in\n    tag_173:\n    tag_172:\n      0x20\n      mul\n      0x20\n      add\n      add\n        /* \"contracts/DegenToken.sol\":2527:2564  itemNames[i] = items[itemIds[i]].name */\n      dup2\n      swap1\n      mstore\n      pop\n        /* \"contracts/DegenToken.sol\":2508:2511  i++ */\n      dup1\n      dup1\n      0x01\n      add\n      swap2\n      pop\n      pop\n        /* \"contracts/DegenToken.sol\":2468:2575  for (uint256 i = 0; i < itemIds.length; i++) {... */\n      jump(tag_161)\n    tag_162:\n      pop\n        /* \"contracts/DegenToken.sol\":2591:2600  itemNames */\n      dup1\n        /* \"contracts/DegenToken.sol\":2584:2600  return itemNames */\n      swap3\n      pop\n      pop\n      pop\n        /* \"contracts/DegenToken.sol\":2265:2607  function itemInventory() external view returns (string[] memory) {... */\n      swap1\n      jump\t// out\n        /* \"contracts/DegenToken.sol\":344:368  uint256 public itemCount */\n    tag_64:\n      sload(0x07)\n      dup2\n      jump\t// out\n        /* \"contracts/DegenToken.sol\":2724:2909  function burnTokens(uint256 amount) public {... */\n    tag_69:\n        /* \"contracts/DegenToken.sol\":2810:2816  amount */\n      dup1\n        /* \"contracts/DegenToken.sol\":2785:2806  balanceOf(msg.sender) */\n      tag_175\n        /* \"contracts/DegenToken.sol\":2795:2805  msg.sender */\n      caller\n        /* \"contracts/DegenToken.sol\":2785:2794  balanceOf */\n      tag_73\n        /* \"contracts/DegenToken.sol\":2785:2806  balanceOf(msg.sender) */\n      jump\t// in\n    tag_175:\n        /* \"contracts/DegenToken.sol\":2785:2816  balanceOf(msg.sender) >= amount */\n      lt\n      iszero\n        /* \"contracts/DegenToken.sol\":2777:2867  require(balanceOf(msg.sender) >= amount, \"You cannot burn more than your current balance\") */\n      tag_176\n      jumpi\n      mload(0x40)\n      0x08c379a000000000000000000000000000000000000000000000000000000000\n      dup2\n      mstore\n      0x04\n      add\n      tag_177\n      swap1\n      tag_178\n      jump\t// in\n    tag_177:\n      mload(0x40)\n      dup1\n      swap2\n      sub\n      swap1\n      revert\n    tag_176:\n        /* \"contracts/DegenToken.sol\":2877:2902  _burn(msg.sender, amount) */\n      tag_179\n        /* \"contracts/DegenToken.sol\":2883:2893  msg.sender */\n      caller\n        /* \"contracts/DegenToken.sol\":2895:2901  amount */\n      dup3\n        /* \"contracts/DegenToken.sol\":2877:2882  _burn */\n      tag_180\n        /* \"contracts/DegenToken.sol\":2877:2902  _burn(msg.sender, amount) */\n      jump\t// in\n    tag_179:\n        /* \"contracts/DegenToken.sol\":2724:2909  function burnTokens(uint256 amount) public {... */\n      pop\n      jump\t// out\n        /* \"@openzeppelin/contracts/token/ERC20/ERC20.sol\":3406:3531  function balanceOf(address account) public view virtual override returns (uint256) {... */\n    tag_73:\n        /* \"@openzeppelin/contracts/token/ERC20/ERC20.sol\":3480:3487  uint256 */\n      0x00\n        /* \"@openzeppelin/contracts/token/ERC20/ERC20.sol\":3506:3515  _balances */\n      dup1\n        /* \"@openzeppelin/contracts/token/ERC20/ERC20.sol\":3506:3524  _balances[account] */\n      0x00\n        /* \"@openzeppelin/contracts/token/ERC20/ERC20.sol\":3516:3523  account */\n      dup4\n        /* \"@openzeppelin/contracts/token/ERC20/ERC20.sol\":3506:3524  _balances[account] */\n      0xffffffffffffffffffffffffffffffffffffffff\n      and\n      0xffffffffffffffffffffffffffffffffffffffff\n      and\n      dup2\n      mstore\n      0x20\n      add\n      swap1\n      dup2\n      mstore\n      0x20\n      add\n      0x00\n      keccak256\n      sload\n        /* \"@openzeppelin/contracts/token/ERC20/ERC20.sol\":3499:3524  return _balances[account] */\n      swap1\n      pop\n        /* \"@openzeppelin/contracts/token/ERC20/ERC20.sol\":3406:3531  function balanceOf(address account) public view virtual override returns (uint256) {... */\n      swap2\n      swap1\n      pop\n      jump\t// out\n        /* \"@openzeppelin/contracts/access/Ownable.sol\":1831:1932  function renounceOwnership() public virtual onlyOwner {... */\n    tag_76:\n        /* \"@openzeppelin/contracts/access/Ownable.sol\":1094:1107  _checkOwner() */\n      tag_183\n        /* \"@openzeppelin/contracts/access/Ownable.sol\":1094:1105  _checkOwner */\n      tag_184\n        /* \"@openzeppelin/contracts/access/Ownable.sol\":1094:1107  _checkOwner() */\n      jump\t// in\n    tag_183:\n        /* \"@openzeppelin/contracts/access/Ownable.sol\":1895:1925  _transferOwnership(address(0)) */\n      tag_186\n        /* \"@openzeppelin/contracts/access/Ownable.sol\":1922:1923  0 */\n      0x00\n        /* \"@openzeppelin/contracts/access/Ownable.sol\":1895:1913  _transferOwnership */\n      tag_187\n        /* \"@openzeppelin/contracts/access/Ownable.sol\":1895:1925  _transferOwnership(address(0)) */\n      jump\t// in\n    tag_186:\n        /* \"@openzeppelin/contracts/access/Ownable.sol\":1831:1932  function renounceOwnership() public virtual onlyOwner {... */\n      jump\t// out\n        /* \"@openzeppelin/contracts/access/Ownable.sol\":1201:1286  function owner() public view virtual returns (address) {... */\n    tag_78:\n        /* \"@openzeppelin/contracts/access/Ownable.sol\":1247:1254  address */\n      0x00\n        /* \"@openzeppelin/contracts/access/Ownable.sol\":1273:1279  _owner */\n      0x05\n      0x00\n      swap1\n      sload\n      swap1\n      0x0100\n      exp\n      swap1\n      div\n      0xffffffffffffffffffffffffffffffffffffffff\n      and\n        /* \"@openzeppelin/contracts/access/Ownable.sol\":1266:1279  return _owner */\n      swap1\n      pop\n        /* \"@openzeppelin/contracts/access/Ownable.sol\":1201:1286  function owner() public view virtual returns (address) {... */\n      swap1\n      jump\t// out\n        /* \"@openzeppelin/contracts/token/ERC20/ERC20.sol\":2365:2467  function symbol() public view virtual override returns (string memory) {... */\n    tag_82:\n        /* \"@openzeppelin/contracts/token/ERC20/ERC20.sol\":2421:2434  string memory */\n      0x60\n        /* \"@openzeppelin/contracts/token/ERC20/ERC20.sol\":2453:2460  _symbol */\n      0x04\n        /* \"@openzeppelin/contracts/token/ERC20/ERC20.sol\":2446:2460  return _symbol */\n      dup1\n      sload\n      tag_190\n      swap1\n      tag_129\n      jump\t// in\n    tag_190:\n      dup1\n      0x1f\n      add\n      0x20\n      dup1\n      swap2\n      div\n      mul\n      0x20\n      add\n      mload(0x40)\n      swap1\n      dup2\n      add\n      0x40\n      mstore\n      dup1\n      swap3\n      swap2\n      swap1\n      dup2\n      dup2\n      mstore\n      0x20\n      add\n      dup3\n      dup1\n      sload\n      tag_191\n      swap1\n      tag_129\n      jump\t// in\n    tag_191:\n      dup1\n      iszero\n      tag_192\n      jumpi\n      dup1\n      0x1f\n      lt\n      tag_193\n      jumpi\n      0x0100\n      dup1\n      dup4\n      sload\n      div\n      mul\n      dup4\n      mstore\n      swap2\n      0x20\n      add\n      swap2\n      jump(tag_192)\n    tag_193:\n      dup3\n      add\n      swap2\n      swap1\n      0x00\n      mstore\n      keccak256(0x00, 0x20)\n      swap1\n    tag_194:\n      dup2\n      sload\n      dup2\n      mstore\n      swap1\n      0x01\n      add\n      swap1\n      0x20\n      add\n      dup1\n      dup4\n      gt\n      tag_194\n      jumpi\n      dup3\n      swap1\n      sub\n      0x1f\n      and\n      dup3\n      add\n      swap2\n    tag_192:\n      pop\n      pop\n      pop\n      pop\n      pop\n      swap1\n      pop\n        /* \"@openzeppelin/contracts/token/ERC20/ERC20.sol\":2365:2467  function symbol() public view virtual override returns (string memory) {... */\n      swap1\n      jump\t// out\n        /* \"@openzeppelin/contracts/token/ERC20/ERC20.sol\":6592:7019  function decreaseAllowance(address spender, uint256 subtractedValue) public virtual returns (bool) {... */\n    tag_86:\n        /* \"@openzeppelin/contracts/token/ERC20/ERC20.sol\":6685:6689  bool */\n      0x00\n        /* \"@openzeppelin/contracts/token/ERC20/ERC20.sol\":6701:6714  address owner */\n      dup1\n        /* \"@openzeppelin/contracts/token/ERC20/ERC20.sol\":6717:6729  _msgSender() */\n      tag_196\n        /* \"@openzeppelin/contracts/token/ERC20/ERC20.sol\":6717:6727  _msgSender */\n      tag_136\n        /* \"@openzeppelin/contracts/token/ERC20/ERC20.sol\":6717:6729  _msgSender() */\n      jump\t// in\n    tag_196:\n        /* \"@openzeppelin/contracts/token/ERC20/ERC20.sol\":6701:6729  address owner = _msgSender() */\n      swap1\n      pop\n        /* \"@openzeppelin/contracts/token/ERC20/ERC20.sol\":6739:6763  uint256 currentAllowance */\n      0x00\n        /* \"@openzeppelin/contracts/token/ERC20/ERC20.sol\":6766:6791  allowance(owner, spender) */\n      tag_197\n        /* \"@openzeppelin/contracts/token/ERC20/ERC20.sol\":6776:6781  owner */\n      dup3\n        /* \"@openzeppelin/contracts/token/ERC20/ERC20.sol\":6783:6790  spender */\n      dup7\n        /* \"@openzeppelin/contracts/token/ERC20/ERC20.sol\":6766:6775  allowance */\n      tag_113\n        /* \"@openzeppelin/contracts/token/ERC20/ERC20.sol\":6766:6791  allowance(owner, spender) */\n      jump\t// in\n    tag_197:\n        /* \"@openzeppelin/contracts/token/ERC20/ERC20.sol\":6739:6791  uint256 currentAllowance = allowance(owner, spender) */\n      swap1\n      pop\n        /* \"@openzeppelin/contracts/token/ERC20/ERC20.sol\":6829:6844  subtractedValue */\n      dup4\n        /* \"@openzeppelin/contracts/token/ERC20/ERC20.sol\":6809:6825  currentAllowance */\n      dup2\n        /* \"@openzeppelin/contracts/token/ERC20/ERC20.sol\":6809:6844  currentAllowance >= subtractedValue */\n      lt\n      iszero\n        /* \"@openzeppelin/contracts/token/ERC20/ERC20.sol\":6801:6886  require(currentAllowance >= subtractedValue, \"ERC20: decreased allowance below zero\") */\n      tag_198\n      jumpi\n      mload(0x40)\n      0x08c379a000000000000000000000000000000000000000000000000000000000\n      dup2\n      mstore\n      0x04\n      add\n      tag_199\n      swap1\n      tag_200\n      jump\t// in\n    tag_199:\n      mload(0x40)\n      dup1\n      swap2\n      sub\n      swap1\n      revert\n    tag_198:\n        /* \"@openzeppelin/contracts/token/ERC20/ERC20.sol\":6920:6980  _approve(owner, spender, currentAllowance - subtractedValue) */\n      tag_201\n        /* \"@openzeppelin/contracts/token/ERC20/ERC20.sol\":6929:6934  owner */\n      dup3\n        /* \"@openzeppelin/contracts/token/ERC20/ERC20.sol\":6936:6943  spender */\n      dup7\n        /* \"@openzeppelin/contracts/token/ERC20/ERC20.sol\":6964:6979  subtractedValue */\n      dup7\n        /* \"@openzeppelin/contracts/token/ERC20/ERC20.sol\":6945:6961  currentAllowance */\n      dup5\n        /* \"@openzeppelin/contracts/token/ERC20/ERC20.sol\":6945:6979  currentAllowance - subtractedValue */\n      sub\n        /* \"@openzeppelin/contracts/token/ERC20/ERC20.sol\":6920:6928  _approve */\n      tag_138\n        /* \"@openzeppelin/contracts/token/ERC20/ERC20.sol\":6920:6980  _approve(owner, spender, currentAllowance - subtractedValue) */\n      jump\t// in\n    tag_201:\n        /* \"@openzeppelin/contracts/token/ERC20/ERC20.sol\":7008:7012  true */\n      0x01\n        /* \"@openzeppelin/contracts/token/ERC20/ERC20.sol\":7001:7012  return true */\n      swap3\n      pop\n      pop\n      pop\n        /* \"@openzeppelin/contracts/token/ERC20/ERC20.sol\":6592:7019  function decreaseAllowance(address spender, uint256 subtractedValue) public virtual returns (bool) {... */\n      swap3\n      swap2\n      pop\n      pop\n      jump\t// out\n        /* \"contracts/DegenToken.sol\":2915:3106  function burnOther(address to, uint256 amount) public onlyOwner {... */\n    tag_90:\n        /* \"@openzeppelin/contracts/access/Ownable.sol\":1094:1107  _checkOwner() */\n      tag_203\n        /* \"@openzeppelin/contracts/access/Ownable.sol\":1094:1105  _checkOwner */\n      tag_184\n        /* \"@openzeppelin/contracts/access/Ownable.sol\":1094:1107  _checkOwner() */\n      jump\t// in\n    tag_203:\n        /* \"contracts/DegenToken.sol\":3014:3020  amount */\n      dup1\n        /* \"contracts/DegenToken.sol\":2997:3010  balanceOf(to) */\n      tag_205\n        /* \"contracts/DegenToken.sol\":3007:3009  to */\n      dup4\n        /* \"contracts/DegenToken.sol\":2997:3006  balanceOf */\n      tag_73\n        /* \"contracts/DegenToken.sol\":2997:3010  balanceOf(to) */\n      jump\t// in\n    tag_205:\n        /* \"contracts/DegenToken.sol\":2997:3020  balanceOf(to) >= amount */\n      lt\n      iszero\n        /* \"contracts/DegenToken.sol\":2989:3072  require(balanceOf(to) >= amount, \"You cannot burn more than the available balance\") */\n      tag_206\n      jumpi\n      mload(0x40)\n      0x08c379a000000000000000000000000000000000000000000000000000000000\n      dup2\n      mstore\n      0x04\n      add\n      tag_207\n      swap1\n      tag_208\n      jump\t// in\n    tag_207:\n      mload(0x40)\n      dup1\n      swap2\n      sub\n      swap1\n      revert\n    tag_206:\n        /* \"contracts/DegenToken.sol\":3082:3099  _burn(to, amount) */\n      tag_209\n        /* \"contracts/DegenToken.sol\":3088:3090  to */\n      dup3\n        /* \"contracts/DegenToken.sol\":3092:3098  amount */\n      dup3\n        /* \"contracts/DegenToken.sol\":3082:3087  _burn */\n      tag_180\n        /* \"contracts/DegenToken.sol\":3082:3099  _burn(to, amount) */\n      jump\t// in\n    tag_209:\n        /* \"contracts/DegenToken.sol\":2915:3106  function burnOther(address to, uint256 amount) public onlyOwner {... */\n      pop\n      pop\n      jump\t// out\n        /* \"@openzeppelin/contracts/token/ERC20/ERC20.sol\":3727:3916  function transfer(address to, uint256 amount) public virtual override returns (bool) {... */\n    tag_93:\n        /* \"@openzeppelin/contracts/token/ERC20/ERC20.sol\":3806:3810  bool */\n      0x00\n        /* \"@openzeppelin/contracts/token/ERC20/ERC20.sol\":3822:3835  address owner */\n      dup1\n        /* \"@openzeppelin/contracts/token/ERC20/ERC20.sol\":3838:3850  _msgSender() */\n      tag_211\n        /* \"@openzeppelin/contracts/token/ERC20/ERC20.sol\":3838:3848  _msgSender */\n      tag_136\n        /* \"@openzeppelin/contracts/token/ERC20/ERC20.sol\":3838:3850  _msgSender() */\n      jump\t// in\n    tag_211:\n        /* \"@openzeppelin/contracts/token/ERC20/ERC20.sol\":3822:3850  address owner = _msgSender() */\n      swap1\n      pop\n        /* \"@openzeppelin/contracts/token/ERC20/ERC20.sol\":3860:3888  _transfer(owner, to, amount) */\n      tag_212\n        /* \"@openzeppelin/contracts/token/ERC20/ERC20.sol\":3870:3875  owner */\n      dup2\n        /* \"@openzeppelin/contracts/token/ERC20/ERC20.sol\":3877:3879  to */\n      dup6\n        /* \"@openzeppelin/contracts/token/ERC20/ERC20.sol\":3881:3887  amount */\n      dup6\n        /* \"@openzeppelin/contracts/token/ERC20/ERC20.sol\":3860:3869  _transfer */\n      tag_145\n        /* \"@openzeppelin/contracts/token/ERC20/ERC20.sol\":3860:3888  _transfer(owner, to, amount) */\n      jump\t// in\n    tag_212:\n        /* \"@openzeppelin/contracts/token/ERC20/ERC20.sol\":3905:3909  true */\n      0x01\n        /* \"@openzeppelin/contracts/token/ERC20/ERC20.sol\":3898:3909  return true */\n      swap2\n      pop\n      pop\n        /* \"@openzeppelin/contracts/token/ERC20/ERC20.sol\":3727:3916  function transfer(address to, uint256 amount) public virtual override returns (bool) {... */\n      swap3\n      swap2\n      pop\n      pop\n      jump\t// out\n        /* \"contracts/DegenToken.sol\":744:998  function transferTokens(address _receiver, uint256 _value) external {... */\n    tag_97:\n        /* \"contracts/DegenToken.sol\":855:861  _value */\n      dup1\n        /* \"contracts/DegenToken.sol\":830:851  balanceOf(msg.sender) */\n      tag_214\n        /* \"contracts/DegenToken.sol\":840:850  msg.sender */\n      caller\n        /* \"contracts/DegenToken.sol\":830:839  balanceOf */\n      tag_73\n        /* \"contracts/DegenToken.sol\":830:851  balanceOf(msg.sender) */\n      jump\t// in\n    tag_214:\n        /* \"contracts/DegenToken.sol\":830:861  balanceOf(msg.sender) >= _value */\n      lt\n      iszero\n        /* \"contracts/DegenToken.sol\":822:901  require(balanceOf(msg.sender) >= _value, \"You do not have enough Degen Tokens\") */\n      tag_215\n      jumpi\n      mload(0x40)\n      0x08c379a000000000000000000000000000000000000000000000000000000000\n      dup2\n      mstore\n      0x04\n      add\n      tag_216\n      swap1\n      tag_217\n      jump\t// in\n    tag_216:\n      mload(0x40)\n      dup1\n      swap2\n      sub\n      swap1\n      revert\n    tag_215:\n        /* \"contracts/DegenToken.sol\":911:938  approve(msg.sender, _value) */\n      tag_218\n        /* \"contracts/DegenToken.sol\":919:929  msg.sender */\n      caller\n        /* \"contracts/DegenToken.sol\":931:937  _value */\n      dup3\n        /* \"contracts/DegenToken.sol\":911:918  approve */\n      tag_39\n        /* \"contracts/DegenToken.sol\":911:938  approve(msg.sender, _value) */\n      jump\t// in\n    tag_218:\n      pop\n        /* \"contracts/DegenToken.sol\":948:991  transferFrom(msg.sender, _receiver, _value) */\n      tag_219\n        /* \"contracts/DegenToken.sol\":961:971  msg.sender */\n      caller\n        /* \"contracts/DegenToken.sol\":973:982  _receiver */\n      dup4\n        /* \"contracts/DegenToken.sol\":984:990  _value */\n      dup4\n        /* \"contracts/DegenToken.sol\":948:960  transferFrom */\n      tag_49\n        /* \"contracts/DegenToken.sol\":948:991  transferFrom(msg.sender, _receiver, _value) */\n      jump\t// in\n    tag_219:\n      pop\n        /* \"contracts/DegenToken.sol\":744:998  function transferTokens(address _receiver, uint256 _value) external {... */\n      pop\n      pop\n      jump\t// out\n        /* \"contracts/DegenToken.sol\":301:338  mapping(uint256 => Item) public items */\n    tag_100:\n      mstore(0x20, 0x06)\n      dup1\n      0x00\n      mstore\n      keccak256(0x00, 0x40)\n      0x00\n      swap2\n      pop\n      swap1\n      pop\n      dup1\n      0x00\n      add\n      sload\n      swap1\n      dup1\n      0x01\n      add\n      dup1\n      sload\n      tag_220\n      swap1\n      tag_129\n      jump\t// in\n    tag_220:\n      dup1\n      0x1f\n      add\n      0x20\n      dup1\n      swap2\n      div\n      mul\n      0x20\n      add\n      mload(0x40)\n      swap1\n      dup2\n      add\n      0x40\n      mstore\n      dup1\n      swap3\n      swap2\n      swap1\n      dup2\n      dup2\n      mstore\n      0x20\n      add\n      dup3\n      dup1\n      sload\n      tag_221\n      swap1\n      tag_129\n      jump\t// in\n    tag_221:\n      dup1\n      iszero\n      tag_222\n      jumpi\n      dup1\n      0x1f\n      lt\n      tag_223\n      jumpi\n      0x0100\n      dup1\n      dup4\n      sload\n      div\n      mul\n      dup4\n      mstore\n      swap2\n      0x20\n      add\n      swap2\n      jump(tag_222)\n    tag_223:\n      dup3\n      add\n      swap2\n      swap1\n      0x00\n      mstore\n      keccak256(0x00, 0x20)\n      swap1\n    tag_224:\n      dup2\n      sload\n      dup2\n      mstore\n      swap1\n      0x01\n      add\n      swap1\n      0x20\n      add\n      dup1\n      dup4\n      gt\n      tag_224\n      jumpi\n      dup3\n      swap1\n      sub\n      0x1f\n      and\n      dup3\n      add\n      swap2\n    tag_222:\n      pop\n      pop\n      pop\n      pop\n      pop\n      swap1\n      dup1\n      0x02\n      add\n      sload\n      swap1\n      pop\n      dup4\n      jump\t// out\n        /* \"contracts/DegenToken.sol\":375:425  mapping(address => uint256[]) public redeemedItems */\n    tag_105:\n      mstore(0x20, 0x08)\n      dup2\n      0x00\n      mstore\n      keccak256(0x00, 0x40)\n      dup2\n      dup2\n      sload\n      dup2\n      lt\n      tag_225\n      jumpi\n      0x00\n      dup1\n      revert\n    tag_225:\n      swap1\n      0x00\n      mstore\n      keccak256(0x00, 0x20)\n      add\n      0x00\n      swap2\n      pop\n      swap2\n      pop\n      pop\n      sload\n      dup2\n      jump\t// out\n        /* \"contracts/DegenToken.sol\":2613:2716  function checkBalance() external view returns (uint256) { ... */\n    tag_108:\n        /* \"contracts/DegenToken.sol\":2660:2667  uint256 */\n      0x00\n        /* \"contracts/DegenToken.sol\":2687:2708  balanceOf(msg.sender) */\n      tag_228\n        /* \"contracts/DegenToken.sol\":2697:2707  msg.sender */\n      caller\n        /* \"contracts/DegenToken.sol\":2687:2696  balanceOf */\n      tag_73\n        /* \"contracts/DegenToken.sol\":2687:2708  balanceOf(msg.sender) */\n      jump\t// in\n    tag_228:\n        /* \"contracts/DegenToken.sol\":2680:2708  return balanceOf(msg.sender) */\n      swap1\n      pop\n        /* \"contracts/DegenToken.sol\":2613:2716  function checkBalance() external view returns (uint256) { ... */\n      swap1\n      jump\t// out\n        /* \"@openzeppelin/contracts/token/ERC20/ERC20.sol\":3974:4123  function allowance(address owner, address spender) public view virtual override returns (uint256) {... */\n    tag_113:\n        /* \"@openzeppelin/contracts/token/ERC20/ERC20.sol\":4063:4070  uint256 */\n      0x00\n        /* \"@openzeppelin/contracts/token/ERC20/ERC20.sol\":4089:4100  _allowances */\n      0x01\n        /* \"@openzeppelin/contracts/token/ERC20/ERC20.sol\":4089:4107  _allowances[owner] */\n      0x00\n        /* \"@openzeppelin/contracts/token/ERC20/ERC20.sol\":4101:4106  owner */\n      dup5\n        /* \"@openzeppelin/contracts/token/ERC20/ERC20.sol\":4089:4107  _allowances[owner] */\n      0xffffffffffffffffffffffffffffffffffffffff\n      and\n      0xffffffffffffffffffffffffffffffffffffffff\n      and\n      dup2\n      mstore\n      0x20\n      add\n      swap1\n      dup2\n      mstore\n      0x20\n      add\n      0x00\n      keccak256\n        /* \"@openzeppelin/contracts/token/ERC20/ERC20.sol\":4089:4116  _allowances[owner][spender] */\n      0x00\n        /* \"@openzeppelin/contracts/token/ERC20/ERC20.sol\":4108:4115  spender */\n      dup4\n        /* \"@openzeppelin/contracts/token/ERC20/ERC20.sol\":4089:4116  _allowances[owner][spender] */\n      0xffffffffffffffffffffffffffffffffffffffff\n      and\n      0xffffffffffffffffffffffffffffffffffffffff\n      and\n      dup2\n      mstore\n      0x20\n      add\n      swap1\n      dup2\n      mstore\n      0x20\n      add\n      0x00\n      keccak256\n      sload\n        /* \"@openzeppelin/contracts/token/ERC20/ERC20.sol\":4082:4116  return _allowances[owner][spender] */\n      swap1\n      pop\n        /* \"@openzeppelin/contracts/token/ERC20/ERC20.sol\":3974:4123  function allowance(address owner, address spender) public view virtual override returns (uint256) {... */\n      swap3\n      swap2\n      pop\n      pop\n      jump\t// out\n        /* \"contracts/DegenToken.sol\":1984:2259  function redeemItems(uint256 itemId) external {... */\n    tag_117:\n        /* \"contracts/DegenToken.sol\":2040:2056  Item memory item */\n      0x00\n        /* \"contracts/DegenToken.sol\":2059:2064  items */\n      0x06\n        /* \"contracts/DegenToken.sol\":2059:2072  items[itemId] */\n      0x00\n        /* \"contracts/DegenToken.sol\":2065:2071  itemId */\n      dup4\n        /* \"contracts/DegenToken.sol\":2059:2072  items[itemId] */\n      dup2\n      mstore\n      0x20\n      add\n      swap1\n      dup2\n      mstore\n      0x20\n      add\n      0x00\n      keccak256\n        /* \"contracts/DegenToken.sol\":2040:2072  Item memory item = items[itemId] */\n      mload(0x40)\n      dup1\n      0x60\n      add\n      0x40\n      mstore\n      swap1\n      dup2\n      0x00\n      dup3\n      add\n      sload\n      dup2\n      mstore\n      0x20\n      add\n      0x01\n      dup3\n      add\n      dup1\n      sload\n      tag_231\n      swap1\n      tag_129\n      jump\t// in\n    tag_231:\n      dup1\n      0x1f\n      add\n      0x20\n      dup1\n      swap2\n      div\n      mul\n      0x20\n      add\n      mload(0x40)\n      swap1\n      dup2\n      add\n      0x40\n      mstore\n      dup1\n      swap3\n      swap2\n      swap1\n      dup2\n      dup2\n      mstore\n      0x20\n      add\n      dup3\n      dup1\n      sload\n      tag_232\n      swap1\n      tag_129\n      jump\t// in\n    tag_232:\n      dup1\n      iszero\n      tag_233\n      jumpi\n      dup1\n      0x1f\n      lt\n      tag_234\n      jumpi\n      0x0100\n      dup1\n      dup4\n      sload\n      div\n      mul\n      dup4\n      mstore\n      swap2\n      0x20\n      add\n      swap2\n      jump(tag_233)\n    tag_234:\n      dup3\n      add\n      swap2\n      swap1\n      0x00\n      mstore\n      keccak256(0x00, 0x20)\n      swap1\n    tag_235:\n      dup2\n      sload\n      dup2\n      mstore\n      swap1\n      0x01\n      add\n      swap1\n      0x20\n      add\n      dup1\n      dup4\n      gt\n      tag_235\n      jumpi\n      dup3\n      swap1\n      sub\n      0x1f\n      and\n      dup3\n      add\n      swap2\n    tag_233:\n      pop\n      pop\n      pop\n      pop\n      pop\n      dup2\n      mstore\n      0x20\n      add\n      0x02\n      dup3\n      add\n      sload\n      dup2\n      mstore\n      pop\n      pop\n      swap1\n      pop\n        /* \"contracts/DegenToken.sol\":2115:2119  item */\n      dup1\n        /* \"contracts/DegenToken.sol\":2115:2125  item.price */\n      0x40\n      add\n      mload\n        /* \"contracts/DegenToken.sol\":2090:2111  balanceOf(msg.sender) */\n      tag_236\n        /* \"contracts/DegenToken.sol\":2100:2110  msg.sender */\n      caller\n        /* \"contracts/DegenToken.sol\":2090:2099  balanceOf */\n      tag_73\n        /* \"contracts/DegenToken.sol\":2090:2111  balanceOf(msg.sender) */\n      jump\t// in\n    tag_236:\n        /* \"contracts/DegenToken.sol\":2090:2125  balanceOf(msg.sender) >= item.price */\n      lt\n      iszero\n        /* \"contracts/DegenToken.sol\":2082:2165  require(balanceOf(msg.sender) >= item.price, \"You do not have enough Degen Tokens\") */\n      tag_237\n      jumpi\n      mload(0x40)\n      0x08c379a000000000000000000000000000000000000000000000000000000000\n      dup2\n      mstore\n      0x04\n      add\n      tag_238\n      swap1\n      tag_217\n      jump\t// in\n    tag_238:\n      mload(0x40)\n      dup1\n      swap2\n      sub\n      swap1\n      revert\n    tag_237:\n        /* \"contracts/DegenToken.sol\":2175:2204  _burn(msg.sender, item.price) */\n      tag_239\n        /* \"contracts/DegenToken.sol\":2181:2191  msg.sender */\n      caller\n        /* \"contracts/DegenToken.sol\":2193:2197  item */\n      dup3\n        /* \"contracts/DegenToken.sol\":2193:2203  item.price */\n      0x40\n      add\n      mload\n        /* \"contracts/DegenToken.sol\":2175:2180  _burn */\n      tag_180\n        /* \"contracts/DegenToken.sol\":2175:2204  _burn(msg.sender, item.price) */\n      jump\t// in\n    tag_239:\n        /* \"contracts/DegenToken.sol\":2214:2227  redeemedItems */\n      0x08\n        /* \"contracts/DegenToken.sol\":2214:2239  redeemedItems[msg.sender] */\n      0x00\n        /* \"contracts/DegenToken.sol\":2228:2238  msg.sender */\n      caller\n        /* \"contracts/DegenToken.sol\":2214:2239  redeemedItems[msg.sender] */\n      0xffffffffffffffffffffffffffffffffffffffff\n      and\n      0xffffffffffffffffffffffffffffffffffffffff\n      and\n      dup2\n      mstore\n      0x20\n      add\n      swap1\n      dup2\n      mstore\n      0x20\n      add\n      0x00\n      keccak256\n        /* \"contracts/DegenToken.sol\":2245:2251  itemId */\n      dup3\n        /* \"contracts/DegenToken.sol\":2214:2252  redeemedItems[msg.sender].push(itemId) */\n      swap1\n      dup1\n      0x01\n      dup2\n      sload\n      add\n      dup1\n      dup3\n      sstore\n      dup1\n      swap2\n      pop\n      pop\n      0x01\n      swap1\n      sub\n      swap1\n      0x00\n      mstore\n      keccak256(0x00, 0x20)\n      add\n      0x00\n      swap1\n      swap2\n      swap1\n      swap2\n      swap1\n      swap2\n      pop\n      sstore\n        /* \"contracts/DegenToken.sol\":2030:2259  {... */\n      pop\n        /* \"contracts/DegenToken.sol\":1984:2259  function redeemItems(uint256 itemId) external {... */\n      pop\n      jump\t// out\n        /* \"contracts/DegenToken.sol\":639:738  function mintTokens(address to, uint256 amount) public onlyOwner {... */\n    tag_120:\n        /* \"@openzeppelin/contracts/access/Ownable.sol\":1094:1107  _checkOwner() */\n      tag_242\n        /* \"@openzeppelin/contracts/access/Ownable.sol\":1094:1105  _checkOwner */\n      tag_184\n        /* \"@openzeppelin/contracts/access/Ownable.sol\":1094:1107  _checkOwner() */\n      jump\t// in\n    tag_242:\n        /* \"contracts/DegenToken.sol\":714:731  _mint(to, amount) */\n      tag_244\n        /* \"contracts/DegenToken.sol\":720:722  to */\n      dup3\n        /* \"contracts/DegenToken.sol\":724:730  amount */\n      dup3\n        /* \"contracts/DegenToken.sol\":714:719  _mint */\n      tag_245\n        /* \"contracts/DegenToken.sol\":714:731  _mint(to, amount) */\n      jump\t// in\n    tag_244:\n        /* \"contracts/DegenToken.sol\":639:738  function mintTokens(address to, uint256 amount) public onlyOwner {... */\n      pop\n      pop\n      jump\t// out\n        /* \"@openzeppelin/contracts/access/Ownable.sol\":2081:2279  function transferOwnership(address newOwner) public virtual onlyOwner {... */\n    tag_123:\n        /* \"@openzeppelin/contracts/access/Ownable.sol\":1094:1107  _checkOwner() */\n      tag_247\n        /* \"@openzeppelin/contracts/access/Ownable.sol\":1094:1105  _checkOwner */\n      tag_184\n        /* \"@openzeppelin/contracts/access/Ownable.sol\":1094:1107  _checkOwner() */\n      jump\t// in\n    tag_247:\n        /* \"@openzeppelin/contracts/access/Ownable.sol\":2189:2190  0 */\n      0x00\n        /* \"@openzeppelin/contracts/access/Ownable.sol\":2169:2191  newOwner != address(0) */\n      0xffffffffffffffffffffffffffffffffffffffff\n      and\n        /* \"@openzeppelin/contracts/access/Ownable.sol\":2169:2177  newOwner */\n      dup2\n        /* \"@openzeppelin/contracts/access/Ownable.sol\":2169:2191  newOwner != address(0) */\n      0xffffffffffffffffffffffffffffffffffffffff\n      and\n      sub\n        /* \"@openzeppelin/contracts/access/Ownable.sol\":2161:2234  require(newOwner != address(0), \"Ownable: new owner is the zero address\") */\n      tag_249\n      jumpi\n      mload(0x40)\n      0x08c379a000000000000000000000000000000000000000000000000000000000\n      dup2\n      mstore\n      0x04\n      add\n      tag_250\n      swap1\n      tag_251\n      jump\t// in\n    tag_250:\n      mload(0x40)\n      dup1\n      swap2\n      sub\n      swap1\n      revert\n    tag_249:\n        /* \"@openzeppelin/contracts/access/Ownable.sol\":2244:2272  _transferOwnership(newOwner) */\n      tag_252\n        /* \"@openzeppelin/contracts/access/Ownable.sol\":2263:2271  newOwner */\n      dup2\n        /* \"@openzeppelin/contracts/access/Ownable.sol\":2244:2262  _transferOwnership */\n      tag_187\n        /* \"@openzeppelin/contracts/access/Ownable.sol\":2244:2272  _transferOwnership(newOwner) */\n      jump\t// in\n    tag_252:\n        /* \"@openzeppelin/contracts/access/Ownable.sol\":2081:2279  function transferOwnership(address newOwner) public virtual onlyOwner {... */\n      pop\n      jump\t// out\n        /* \"contracts/DegenToken.sol\":1571:1978  function itemShop() public view returns (string memory) {... */\n    tag_125:\n        /* \"contracts/DegenToken.sol\":1612:1625  string memory */\n      0x60\n        /* \"contracts/DegenToken.sol\":1637:1659  string memory allItems */\n      0x00\n        /* \"contracts/DegenToken.sol\":1637:1694  string memory allItems = \"Here are the available items: \" */\n      mload(0x40)\n      dup1\n      0x40\n      add\n      0x40\n      mstore\n      dup1\n      0x1e\n      dup2\n      mstore\n      0x20\n      add\n      0x48657265206172652074686520617661696c61626c65206974656d733a200000\n      dup2\n      mstore\n      pop\n      swap1\n      pop\n        /* \"contracts/DegenToken.sol\":1709:1718  uint256 i */\n      0x00\n        /* \"contracts/DegenToken.sol\":1721:1722  1 */\n      0x01\n        /* \"contracts/DegenToken.sol\":1709:1722  uint256 i = 1 */\n      swap1\n      pop\n        /* \"contracts/DegenToken.sol\":1704:1947  for (uint256 i = 1; i <= itemCount; i++) {... */\n    tag_254:\n        /* \"contracts/DegenToken.sol\":1729:1738  itemCount */\n      sload(0x07)\n        /* \"contracts/DegenToken.sol\":1724:1725  i */\n      dup2\n        /* \"contracts/DegenToken.sol\":1724:1738  i <= itemCount */\n      gt\n        /* \"contracts/DegenToken.sol\":1704:1947  for (uint256 i = 1; i <= itemCount; i++) {... */\n      tag_255\n      jumpi\n        /* \"contracts/DegenToken.sol\":1759:1775  Item memory item */\n      0x00\n        /* \"contracts/DegenToken.sol\":1778:1783  items */\n      0x06\n        /* \"contracts/DegenToken.sol\":1778:1786  items[i] */\n      0x00\n        /* \"contracts/DegenToken.sol\":1784:1785  i */\n      dup4\n        /* \"contracts/DegenToken.sol\":1778:1786  items[i] */\n      dup2\n      mstore\n      0x20\n      add\n      swap1\n      dup2\n      mstore\n      0x20\n      add\n      0x00\n      keccak256\n        /* \"contracts/DegenToken.sol\":1759:1786  Item memory item = items[i] */\n      mload(0x40)\n      dup1\n      0x60\n      add\n      0x40\n      mstore\n      swap1\n      dup2\n      0x00\n      dup3\n      add\n      sload\n      dup2\n      mstore\n      0x20\n      add\n      0x01\n      dup3\n      add\n      dup1\n      sload\n      tag_257\n      swap1\n      tag_129\n      jump\t// in\n    tag_257:\n      dup1\n      0x1f\n      add\n      0x20\n      dup1\n      swap2\n      div\n      mul\n      0x20\n      add\n      mload(0x40)\n      swap1\n      dup2\n      add\n      0x40\n      mstore\n      dup1\n      swap3\n      swap2\n      swap1\n      dup2\n      dup2\n      mstore\n      0x20\n      add\n      dup3\n      dup1\n      sload\n      tag_258\n      swap1\n      tag_129\n      jump\t// in\n    tag_258:\n      dup1\n      iszero\n      tag_259\n      jumpi\n      dup1\n      0x1f\n      lt\n      tag_260\n      jumpi\n      0x0100\n      dup1\n      dup4\n      sload\n      div\n      mul\n      dup4\n      mstore\n      swap2\n      0x20\n      add\n      swap2\n      jump(tag_259)\n    tag_260:\n      dup3\n      add\n      swap2\n      swap1\n      0x00\n      mstore\n      keccak256(0x00, 0x20)\n      swap1\n    tag_261:\n      dup2\n      sload\n      dup2\n      mstore\n      swap1\n      0x01\n      add\n      swap1\n      0x20\n      add\n      dup1\n      dup4\n      gt\n      tag_261\n      jumpi\n      dup3\n      swap1\n      sub\n      0x1f\n      and\n      dup3\n      add\n      swap2\n    tag_259:\n      pop\n      pop\n      pop\n      pop\n      pop\n      dup2\n      mstore\n      0x20\n      add\n      0x02\n      dup3\n      add\n      sload\n      dup2\n      mstore\n      pop\n      pop\n      swap1\n      pop\n        /* \"contracts/DegenToken.sol\":1835:1843  allItems */\n      dup3\n        /* \"contracts/DegenToken.sol\":1853:1870  uint2str(item.id) */\n      tag_262\n        /* \"contracts/DegenToken.sol\":1862:1866  item */\n      dup3\n        /* \"contracts/DegenToken.sol\":1862:1869  item.id */\n      0x00\n      add\n      mload\n        /* \"contracts/DegenToken.sol\":1853:1861  uint2str */\n      tag_263\n        /* \"contracts/DegenToken.sol\":1853:1870  uint2str(item.id) */\n      jump\t// in\n    tag_262:\n        /* \"contracts/DegenToken.sol\":1884:1888  item */\n      dup3\n        /* \"contracts/DegenToken.sol\":1884:1893  item.name */\n      0x20\n      add\n      mload\n        /* \"contracts/DegenToken.sol\":1908:1928  uint2str(item.price) */\n      tag_264\n        /* \"contracts/DegenToken.sol\":1917:1921  item */\n      dup5\n        /* \"contracts/DegenToken.sol\":1917:1927  item.price */\n      0x40\n      add\n      mload\n        /* \"contracts/DegenToken.sol\":1908:1916  uint2str */\n      tag_263\n        /* \"contracts/DegenToken.sol\":1908:1928  uint2str(item.price) */\n      jump\t// in\n    tag_264:\n        /* \"contracts/DegenToken.sol\":1818:1935  abi.encodePacked(allItems, \"ID: \", uint2str(item.id), \", Name: \", item.name, \", Price: \", uint2str(item.price), \"\\n\") */\n      add(0x20, mload(0x40))\n      tag_265\n      swap5\n      swap4\n      swap3\n      swap2\n      swap1\n      tag_266\n      jump\t// in\n    tag_265:\n      mload(0x40)\n      0x20\n      dup2\n      dup4\n      sub\n      sub\n      dup2\n      mstore\n      swap1\n      0x40\n      mstore\n        /* \"contracts/DegenToken.sol\":1800:1936  allItems = string(abi.encodePacked(allItems, \"ID: \", uint2str(item.id), \", Name: \", item.name, \", Price: \", uint2str(item.price), \"\\n\")) */\n      swap3\n      pop\n        /* \"contracts/DegenToken.sol\":1745:1947  {... */\n      pop\n        /* \"contracts/DegenToken.sol\":1740:1743  i++ */\n      dup1\n      dup1\n      tag_267\n      swap1\n      tag_268\n      jump\t// in\n    tag_267:\n      swap2\n      pop\n      pop\n        /* \"contracts/DegenToken.sol\":1704:1947  for (uint256 i = 1; i <= itemCount; i++) {... */\n      jump(tag_254)\n    tag_255:\n      pop\n        /* \"contracts/DegenToken.sol\":1963:1971  allItems */\n      dup1\n        /* \"contracts/DegenToken.sol\":1956:1971  return allItems */\n      swap2\n      pop\n      pop\n        /* \"contracts/DegenToken.sol\":1571:1978  function itemShop() public view returns (string memory) {... */\n      swap1\n      jump\t// out\n        /* \"@openzeppelin/contracts/utils/Context.sol\":640:736  function _msgSender() internal view virtual returns (address) {... */\n    tag_136:\n        /* \"@openzeppelin/contracts/utils/Context.sol\":693:700  address */\n      0x00\n        /* \"@openzeppelin/contracts/utils/Context.sol\":719:729  msg.sender */\n      caller\n        /* \"@openzeppelin/contracts/utils/Context.sol\":712:729  return msg.sender */\n      swap1\n      pop\n        /* \"@openzeppelin/contracts/utils/Context.sol\":640:736  function _msgSender() internal view virtual returns (address) {... */\n      swap1\n      jump\t// out\n        /* \"@openzeppelin/contracts/token/ERC20/ERC20.sol\":10504:10874  function _approve(... */\n    tag_138:\n        /* \"@openzeppelin/contracts/token/ERC20/ERC20.sol\":10652:10653  0 */\n      0x00\n        /* \"@openzeppelin/contracts/token/ERC20/ERC20.sol\":10635:10654  owner != address(0) */\n      0xffffffffffffffffffffffffffffffffffffffff\n      and\n        /* \"@openzeppelin/contracts/token/ERC20/ERC20.sol\":10635:10640  owner */\n      dup4\n        /* \"@openzeppelin/contracts/token/ERC20/ERC20.sol\":10635:10654  owner != address(0) */\n      0xffffffffffffffffffffffffffffffffffffffff\n      and\n      sub\n        /* \"@openzeppelin/contracts/token/ERC20/ERC20.sol\":10627:10695  require(owner != address(0), \"ERC20: approve from the zero address\") */\n      tag_271\n      jumpi\n      mload(0x40)\n      0x08c379a000000000000000000000000000000000000000000000000000000000\n      dup2\n      mstore\n      0x04\n      add\n      tag_272\n      swap1\n      tag_273\n      jump\t// in\n    tag_272:\n      mload(0x40)\n      dup1\n      swap2\n      sub\n      swap1\n      revert\n    tag_271:\n        /* \"@openzeppelin/contracts/token/ERC20/ERC20.sol\":10732:10733  0 */\n      0x00\n        /* \"@openzeppelin/contracts/token/ERC20/ERC20.sol\":10713:10734  spender != address(0) */\n      0xffffffffffffffffffffffffffffffffffffffff\n      and\n        /* \"@openzeppelin/contracts/token/ERC20/ERC20.sol\":10713:10720  spender */\n      dup3\n        /* \"@openzeppelin/contracts/token/ERC20/ERC20.sol\":10713:10734  spender != address(0) */\n      0xffffffffffffffffffffffffffffffffffffffff\n      and\n      sub\n        /* \"@openzeppelin/contracts/token/ERC20/ERC20.sol\":10705:10773  require(spender != address(0), \"ERC20: approve to the zero address\") */\n      tag_274\n      jumpi\n      mload(0x40)\n      0x08c379a000000000000000000000000000000000000000000000000000000000\n      dup2\n      mstore\n      0x04\n      add\n      tag_275\n      swap1\n      tag_276\n      jump\t// in\n    tag_275:\n      mload(0x40)\n      dup1\n      swap2\n      sub\n      swap1\n      revert\n    tag_274:\n        /* \"@openzeppelin/contracts/token/ERC20/ERC20.sol\":10814:10820  amount */\n      dup1\n        /* \"@openzeppelin/contracts/token/ERC20/ERC20.sol\":10784:10795  _allowances */\n      0x01\n        /* \"@openzeppelin/contracts/token/ERC20/ERC20.sol\":10784:10802  _allowances[owner] */\n      0x00\n        /* \"@openzeppelin/contracts/token/ERC20/ERC20.sol\":10796:10801  owner */\n      dup6\n        /* \"@openzeppelin/contracts/token/ERC20/ERC20.sol\":10784:10802  _allowances[owner] */\n      0xffffffffffffffffffffffffffffffffffffffff\n      and\n      0xffffffffffffffffffffffffffffffffffffffff\n      and\n      dup2\n      mstore\n      0x20\n      add\n      swap1\n      dup2\n      mstore\n      0x20\n      add\n      0x00\n      keccak256\n        /* \"@openzeppelin/contracts/token/ERC20/ERC20.sol\":10784:10811  _allowances[owner][spender] */\n      0x00\n        /* \"@openzeppelin/contracts/token/ERC20/ERC20.sol\":10803:10810  spender */\n      dup5\n        /* \"@openzeppelin/contracts/token/ERC20/ERC20.sol\":10784:10811  _allowances[owner][spender] */\n      0xffffffffffffffffffffffffffffffffffffffff\n      and\n      0xffffffffffffffffffffffffffffffffffffffff\n      and\n      dup2\n      mstore\n      0x20\n      add\n      swap1\n      dup2\n      mstore\n      0x20\n      add\n      0x00\n      keccak256\n        /* \"@openzeppelin/contracts/token/ERC20/ERC20.sol\":10784:10820  _allowances[owner][spender] = amount */\n      dup2\n      swap1\n      sstore\n      pop\n        /* \"@openzeppelin/contracts/token/ERC20/ERC20.sol\":10851:10858  spender */\n      dup2\n        /* \"@openzeppelin/contracts/token/ERC20/ERC20.sol\":10835:10867  Approval(owner, spender, amount) */\n      0xffffffffffffffffffffffffffffffffffffffff\n      and\n        /* \"@openzeppelin/contracts/token/ERC20/ERC20.sol\":10844:10849  owner */\n      dup4\n        /* \"@openzeppelin/contracts/token/ERC20/ERC20.sol\":10835:10867  Approval(owner, spender, amount) */\n      0xffffffffffffffffffffffffffffffffffffffff\n      and\n      0x8c5be1e5ebec7d5bd14f71427d1e84f3dd0314c0f7b2291e5b200ac8c7c3b925\n        /* \"@openzeppelin/contracts/token/ERC20/ERC20.sol\":10860:10866  amount */\n      dup4\n        /* \"@openzeppelin/contracts/token/ERC20/ERC20.sol\":10835:10867  Approval(owner, spender, amount) */\n      mload(0x40)\n      tag_277\n      swap2\n      swap1\n      tag_45\n      jump\t// in\n    tag_277:\n      mload(0x40)\n      dup1\n      swap2\n      sub\n      swap1\n      log3\n        /* \"@openzeppelin/contracts/token/ERC20/ERC20.sol\":10504:10874  function _approve(... */\n      pop\n      pop\n      pop\n      jump\t// out\n        /* \"@openzeppelin/contracts/token/ERC20/ERC20.sol\":11155:11596  function _spendAllowance(... */\n    tag_143:\n        /* \"@openzeppelin/contracts/token/ERC20/ERC20.sol\":11285:11309  uint256 currentAllowance */\n      0x00\n        /* \"@openzeppelin/contracts/token/ERC20/ERC20.sol\":11312:11337  allowance(owner, spender) */\n      tag_279\n        /* \"@openzeppelin/contracts/token/ERC20/ERC20.sol\":11322:11327  owner */\n      dup5\n        /* \"@openzeppelin/contracts/token/ERC20/ERC20.sol\":11329:11336  spender */\n      dup5\n        /* \"@openzeppelin/contracts/token/ERC20/ERC20.sol\":11312:11321  allowance */\n      tag_113\n        /* \"@openzeppelin/contracts/token/ERC20/ERC20.sol\":11312:11337  allowance(owner, spender) */\n      jump\t// in\n    tag_279:\n        /* \"@openzeppelin/contracts/token/ERC20/ERC20.sol\":11285:11337  uint256 currentAllowance = allowance(owner, spender) */\n      swap1\n      pop\n        /* \"@openzeppelin/contracts/token/ERC20/ERC20.sol\":11371:11388  type(uint256).max */\n      0xffffffffffffffffffffffffffffffffffffffffffffffffffffffffffffffff\n        /* \"@openzeppelin/contracts/token/ERC20/ERC20.sol\":11351:11367  currentAllowance */\n      dup2\n        /* \"@openzeppelin/contracts/token/ERC20/ERC20.sol\":11351:11388  currentAllowance != type(uint256).max */\n      eq\n        /* \"@openzeppelin/contracts/token/ERC20/ERC20.sol\":11347:11590  if (currentAllowance != type(uint256).max) {... */\n      tag_280\n      jumpi\n        /* \"@openzeppelin/contracts/token/ERC20/ERC20.sol\":11432:11438  amount */\n      dup2\n        /* \"@openzeppelin/contracts/token/ERC20/ERC20.sol\":11412:11428  currentAllowance */\n      dup2\n        /* \"@openzeppelin/contracts/token/ERC20/ERC20.sol\":11412:11438  currentAllowance >= amount */\n      lt\n      iszero\n        /* \"@openzeppelin/contracts/token/ERC20/ERC20.sol\":11404:11472  require(currentAllowance >= amount, \"ERC20: insufficient allowance\") */\n      tag_281\n      jumpi\n      mload(0x40)\n      0x08c379a000000000000000000000000000000000000000000000000000000000\n      dup2\n      mstore\n      0x04\n      add\n      tag_282\n      swap1\n      tag_283\n      jump\t// in\n    tag_282:\n      mload(0x40)\n      dup1\n      swap2\n      sub\n      swap1\n      revert\n    tag_281:\n        /* \"@openzeppelin/contracts/token/ERC20/ERC20.sol\":11514:11565  _approve(owner, spender, currentAllowance - amount) */\n      tag_284\n        /* \"@openzeppelin/contracts/token/ERC20/ERC20.sol\":11523:11528  owner */\n      dup5\n        /* \"@openzeppelin/contracts/token/ERC20/ERC20.sol\":11530:11537  spender */\n      dup5\n        /* \"@openzeppelin/contracts/token/ERC20/ERC20.sol\":11558:11564  amount */\n      dup5\n        /* \"@openzeppelin/contracts/token/ERC20/ERC20.sol\":11539:11555  currentAllowance */\n      dup5\n        /* \"@openzeppelin/contracts/token/ERC20/ERC20.sol\":11539:11564  currentAllowance - amount */\n      sub\n        /* \"@openzeppelin/contracts/token/ERC20/ERC20.sol\":11514:11522  _approve */\n      tag_138\n        /* \"@openzeppelin/contracts/token/ERC20/ERC20.sol\":11514:11565  _approve(owner, spender, currentAllowance - amount) */\n      jump\t// in\n    tag_284:\n        /* \"@openzeppelin/contracts/token/ERC20/ERC20.sol\":11347:11590  if (currentAllowance != type(uint256).max) {... */\n    tag_280:\n        /* \"@openzeppelin/contracts/token/ERC20/ERC20.sol\":11275:11596  {... */\n      pop\n        /* \"@openzeppelin/contracts/token/ERC20/ERC20.sol\":11155:11596  function _spendAllowance(... */\n      pop\n      pop\n      pop\n      jump\t// out\n        /* \"@openzeppelin/contracts/token/ERC20/ERC20.sol\":7473:8291  function _transfer(... */\n    tag_145:\n        /* \"@openzeppelin/contracts/token/ERC20/ERC20.sol\":7615:7616  0 */\n      0x00\n        /* \"@openzeppelin/contracts/token/ERC20/ERC20.sol\":7599:7617  from != address(0) */\n      0xffffffffffffffffffffffffffffffffffffffff\n      and\n        /* \"@openzeppelin/contracts/token/ERC20/ERC20.sol\":7599:7603  from */\n      dup4\n        /* \"@openzeppelin/contracts/token/ERC20/ERC20.sol\":7599:7617  from != address(0) */\n      0xffffffffffffffffffffffffffffffffffffffff\n      and\n      sub\n        /* \"@openzeppelin/contracts/token/ERC20/ERC20.sol\":7591:7659  require(from != address(0), \"ERC20: transfer from the zero address\") */\n      tag_286\n      jumpi\n      mload(0x40)\n      0x08c379a000000000000000000000000000000000000000000000000000000000\n      dup2\n      mstore\n      0x04\n      add\n      tag_287\n      swap1\n      tag_288\n      jump\t// in\n    tag_287:\n      mload(0x40)\n      dup1\n      swap2\n      sub\n      swap1\n      revert\n    tag_286:\n        /* \"@openzeppelin/contracts/token/ERC20/ERC20.sol\":7691:7692  0 */\n      0x00\n        /* \"@openzeppelin/contracts/token/ERC20/ERC20.sol\":7677:7693  to != address(0) */\n      0xffffffffffffffffffffffffffffffffffffffff\n      and\n        /* \"@openzeppelin/contracts/token/ERC20/ERC20.sol\":7677:7679  to */\n      dup3\n        /* \"@openzeppelin/contracts/token/ERC20/ERC20.sol\":7677:7693  to != address(0) */\n      0xffffffffffffffffffffffffffffffffffffffff\n      and\n      sub\n        /* \"@openzeppelin/contracts/token/ERC20/ERC20.sol\":7669:7733  require(to != address(0), \"ERC20: transfer to the zero address\") */\n      tag_289\n      jumpi\n      mload(0x40)\n      0x08c379a000000000000000000000000000000000000000000000000000000000\n      dup2\n      mstore\n      0x04\n      add\n      tag_290\n      swap1\n      tag_291\n      jump\t// in\n    tag_290:\n      mload(0x40)\n      dup1\n      swap2\n      sub\n      swap1\n      revert\n    tag_289:\n        /* \"@openzeppelin/contracts/token/ERC20/ERC20.sol\":7744:7782  _beforeTokenTransfer(from, to, amount) */\n      tag_292\n        /* \"@openzeppelin/contracts/token/ERC20/ERC20.sol\":7765:7769  from */\n      dup4\n        /* \"@openzeppelin/contracts/token/ERC20/ERC20.sol\":7771:7773  to */\n      dup4\n        /* \"@openzeppelin/contracts/token/ERC20/ERC20.sol\":7775:7781  amount */\n      dup4\n        /* \"@openzeppelin/contracts/token/ERC20/ERC20.sol\":7744:7764  _beforeTokenTransfer */\n      tag_293\n        /* \"@openzeppelin/contracts/token/ERC20/ERC20.sol\":7744:7782  _beforeTokenTransfer(from, to, amount) */\n      jump\t// in\n    tag_292:\n        /* \"@openzeppelin/contracts/token/ERC20/ERC20.sol\":7793:7812  uint256 fromBalance */\n      0x00\n        /* \"@openzeppelin/contracts/token/ERC20/ERC20.sol\":7815:7824  _balances */\n      dup1\n        /* \"@openzeppelin/contracts/token/ERC20/ERC20.sol\":7815:7830  _balances[from] */\n      0x00\n        /* \"@openzeppelin/contracts/token/ERC20/ERC20.sol\":7825:7829  from */\n      dup6\n        /* \"@openzeppelin/contracts/token/ERC20/ERC20.sol\":7815:7830  _balances[from] */\n      0xffffffffffffffffffffffffffffffffffffffff\n      and\n      0xffffffffffffffffffffffffffffffffffffffff\n      and\n      dup2\n      mstore\n      0x20\n      add\n      swap1\n      dup2\n      mstore\n      0x20\n      add\n      0x00\n      keccak256\n      sload\n        /* \"@openzeppelin/contracts/token/ERC20/ERC20.sol\":7793:7830  uint256 fromBalance = _balances[from] */\n      swap1\n      pop\n        /* \"@openzeppelin/contracts/token/ERC20/ERC20.sol\":7863:7869  amount */\n      dup2\n        /* \"@openzeppelin/contracts/token/ERC20/ERC20.sol\":7848:7859  fromBalance */\n      dup2\n        /* \"@openzeppelin/contracts/token/ERC20/ERC20.sol\":7848:7869  fromBalance >= amount */\n      lt\n      iszero\n        /* \"@openzeppelin/contracts/token/ERC20/ERC20.sol\":7840:7912  require(fromBalance >= amount, \"ERC20: transfer amount exceeds balance\") */\n      tag_294\n      jumpi\n      mload(0x40)\n      0x08c379a000000000000000000000000000000000000000000000000000000000\n      dup2\n      mstore\n      0x04\n      add\n      tag_295\n      swap1\n      tag_296\n      jump\t// in\n    tag_295:\n      mload(0x40)\n      dup1\n      swap2\n      sub\n      swap1\n      revert\n    tag_294:\n        /* \"@openzeppelin/contracts/token/ERC20/ERC20.sol\":7978:7984  amount */\n      dup2\n        /* \"@openzeppelin/contracts/token/ERC20/ERC20.sol\":7964:7975  fromBalance */\n      dup2\n        /* \"@openzeppelin/contracts/token/ERC20/ERC20.sol\":7964:7984  fromBalance - amount */\n      sub\n        /* \"@openzeppelin/contracts/token/ERC20/ERC20.sol\":7946:7955  _balances */\n      0x00\n        /* \"@openzeppelin/contracts/token/ERC20/ERC20.sol\":7946:7961  _balances[from] */\n      dup1\n        /* \"@openzeppelin/contracts/token/ERC20/ERC20.sol\":7956:7960  from */\n      dup7\n        /* \"@openzeppelin/contracts/token/ERC20/ERC20.sol\":7946:7961  _balances[from] */\n      0xffffffffffffffffffffffffffffffffffffffff\n      and\n      0xffffffffffffffffffffffffffffffffffffffff\n      and\n      dup2\n      mstore\n      0x20\n      add\n      swap1\n      dup2\n      mstore\n      0x20\n      add\n      0x00\n      keccak256\n        /* \"@openzeppelin/contracts/token/ERC20/ERC20.sol\":7946:7984  _balances[from] = fromBalance - amount */\n      dup2\n      swap1\n      sstore\n      pop\n        /* \"@openzeppelin/contracts/token/ERC20/ERC20.sol\":8178:8184  amount */\n      dup2\n        /* \"@openzeppelin/contracts/token/ERC20/ERC20.sol\":8161:8170  _balances */\n      0x00\n        /* \"@openzeppelin/contracts/token/ERC20/ERC20.sol\":8161:8174  _balances[to] */\n      dup1\n        /* \"@openzeppelin/contracts/token/ERC20/ERC20.sol\":8171:8173  to */\n      dup6\n        /* \"@openzeppelin/contracts/token/ERC20/ERC20.sol\":8161:8174  _balances[to] */\n      0xffffffffffffffffffffffffffffffffffffffff\n      and\n      0xffffffffffffffffffffffffffffffffffffffff\n      and\n      dup2\n      mstore\n      0x20\n      add\n      swap1\n      dup2\n      mstore\n      0x20\n      add\n      0x00\n      keccak256\n      0x00\n        /* \"@openzeppelin/contracts/token/ERC20/ERC20.sol\":8161:8184  _balances[to] += amount */\n      dup3\n      dup3\n      sload\n      add\n      swap3\n      pop\n      pop\n      dup2\n      swap1\n      sstore\n      pop\n        /* \"@openzeppelin/contracts/token/ERC20/ERC20.sol\":8225:8227  to */\n      dup3\n        /* \"@openzeppelin/contracts/token/ERC20/ERC20.sol\":8210:8236  Transfer(from, to, amount) */\n      0xffffffffffffffffffffffffffffffffffffffff\n      and\n        /* \"@openzeppelin/contracts/token/ERC20/ERC20.sol\":8219:8223  from */\n      dup5\n        /* \"@openzeppelin/contracts/token/ERC20/ERC20.sol\":8210:8236  Transfer(from, to, amount) */\n      0xffffffffffffffffffffffffffffffffffffffff\n      and\n      0xddf252ad1be2c89b69c2b068fc378daa952ba7f163c4a11628f55a4df523b3ef\n        /* \"@openzeppelin/contracts/token/ERC20/ERC20.sol\":8229:8235  amount */\n      dup5\n        /* \"@openzeppelin/contracts/token/ERC20/ERC20.sol\":8210:8236  Transfer(from, to, amount) */\n      mload(0x40)\n      tag_297\n      swap2\n      swap1\n      tag_45\n      jump\t// in\n    tag_297:\n      mload(0x40)\n      dup1\n      swap2\n      sub\n      swap1\n      log3\n        /* \"@openzeppelin/contracts/token/ERC20/ERC20.sol\":8247:8284  _afterTokenTransfer(from, to, amount) */\n      tag_298\n        /* \"@openzeppelin/contracts/token/ERC20/ERC20.sol\":8267:8271  from */\n      dup5\n        /* \"@openzeppelin/contracts/token/ERC20/ERC20.sol\":8273:8275  to */\n      dup5\n        /* \"@openzeppelin/contracts/token/ERC20/ERC20.sol\":8277:8283  amount */\n      dup5\n        /* \"@openzeppelin/contracts/token/ERC20/ERC20.sol\":8247:8266  _afterTokenTransfer */\n      tag_299\n        /* \"@openzeppelin/contracts/token/ERC20/ERC20.sol\":8247:8284  _afterTokenTransfer(from, to, amount) */\n      jump\t// in\n    tag_298:\n        /* \"@openzeppelin/contracts/token/ERC20/ERC20.sol\":7581:8291  {... */\n      pop\n        /* \"@openzeppelin/contracts/token/ERC20/ERC20.sol\":7473:8291  function _transfer(... */\n      pop\n      pop\n      pop\n      jump\t// out\n        /* \"@openzeppelin/contracts/token/ERC20/ERC20.sol\":9422:10081  function _burn(address account, uint256 amount) internal virtual {... */\n    tag_180:\n        /* \"@openzeppelin/contracts/token/ERC20/ERC20.sol\":9524:9525  0 */\n      0x00\n        /* \"@openzeppelin/contracts/token/ERC20/ERC20.sol\":9505:9526  account != address(0) */\n      0xffffffffffffffffffffffffffffffffffffffff\n      and\n        /* \"@openzeppelin/contracts/token/ERC20/ERC20.sol\":9505:9512  account */\n      dup3\n        /* \"@openzeppelin/contracts/token/ERC20/ERC20.sol\":9505:9526  account != address(0) */\n      0xffffffffffffffffffffffffffffffffffffffff\n      and\n      sub\n        /* \"@openzeppelin/contracts/token/ERC20/ERC20.sol\":9497:9564  require(account != address(0), \"ERC20: burn from the zero address\") */\n      tag_301\n      jumpi\n      mload(0x40)\n      0x08c379a000000000000000000000000000000000000000000000000000000000\n      dup2\n      mstore\n      0x04\n      add\n      tag_302\n      swap1\n      tag_303\n      jump\t// in\n    tag_302:\n      mload(0x40)\n      dup1\n      swap2\n      sub\n      swap1\n      revert\n    tag_301:\n        /* \"@openzeppelin/contracts/token/ERC20/ERC20.sol\":9575:9624  _beforeTokenTransfer(account, address(0), amount) */\n      tag_304\n        /* \"@openzeppelin/contracts/token/ERC20/ERC20.sol\":9596:9603  account */\n      dup3\n        /* \"@openzeppelin/contracts/token/ERC20/ERC20.sol\":9613:9614  0 */\n      0x00\n        /* \"@openzeppelin/contracts/token/ERC20/ERC20.sol\":9617:9623  amount */\n      dup4\n        /* \"@openzeppelin/contracts/token/ERC20/ERC20.sol\":9575:9595  _beforeTokenTransfer */\n      tag_293\n        /* \"@openzeppelin/contracts/token/ERC20/ERC20.sol\":9575:9624  _beforeTokenTransfer(account, address(0), amount) */\n      jump\t// in\n    tag_304:\n        /* \"@openzeppelin/contracts/token/ERC20/ERC20.sol\":9635:9657  uint256 accountBalance */\n      0x00\n        /* \"@openzeppelin/contracts/token/ERC20/ERC20.sol\":9660:9669  _balances */\n      dup1\n        /* \"@openzeppelin/contracts/token/ERC20/ERC20.sol\":9660:9678  _balances[account] */\n      0x00\n        /* \"@openzeppelin/contracts/token/ERC20/ERC20.sol\":9670:9677  account */\n      dup5\n        /* \"@openzeppelin/contracts/token/ERC20/ERC20.sol\":9660:9678  _balances[account] */\n      0xffffffffffffffffffffffffffffffffffffffff\n      and\n      0xffffffffffffffffffffffffffffffffffffffff\n      and\n      dup2\n      mstore\n      0x20\n      add\n      swap1\n      dup2\n      mstore\n      0x20\n      add\n      0x00\n      keccak256\n      sload\n        /* \"@openzeppelin/contracts/token/ERC20/ERC20.sol\":9635:9678  uint256 accountBalance = _balances[account] */\n      swap1\n      pop\n        /* \"@openzeppelin/contracts/token/ERC20/ERC20.sol\":9714:9720  amount */\n      dup2\n        /* \"@openzeppelin/contracts/token/ERC20/ERC20.sol\":9696:9710  accountBalance */\n      dup2\n        /* \"@openzeppelin/contracts/token/ERC20/ERC20.sol\":9696:9720  accountBalance >= amount */\n      lt\n      iszero\n        /* \"@openzeppelin/contracts/token/ERC20/ERC20.sol\":9688:9759  require(accountBalance >= amount, \"ERC20: burn amount exceeds balance\") */\n      tag_305\n      jumpi\n      mload(0x40)\n      0x08c379a000000000000000000000000000000000000000000000000000000000\n      dup2\n      mstore\n      0x04\n      add\n      tag_306\n      swap1\n      tag_307\n      jump\t// in\n    tag_306:\n      mload(0x40)\n      dup1\n      swap2\n      sub\n      swap1\n      revert\n    tag_305:\n        /* \"@openzeppelin/contracts/token/ERC20/ERC20.sol\":9831:9837  amount */\n      dup2\n        /* \"@openzeppelin/contracts/token/ERC20/ERC20.sol\":9814:9828  accountBalance */\n      dup2\n        /* \"@openzeppelin/contracts/token/ERC20/ERC20.sol\":9814:9837  accountBalance - amount */\n      sub\n        /* \"@openzeppelin/contracts/token/ERC20/ERC20.sol\":9793:9802  _balances */\n      0x00\n        /* \"@openzeppelin/contracts/token/ERC20/ERC20.sol\":9793:9811  _balances[account] */\n      dup1\n        /* \"@openzeppelin/contracts/token/ERC20/ERC20.sol\":9803:9810  account */\n      dup6\n        /* \"@openzeppelin/contracts/token/ERC20/ERC20.sol\":9793:9811  _balances[account] */\n      0xffffffffffffffffffffffffffffffffffffffff\n      and\n      0xffffffffffffffffffffffffffffffffffffffff\n      and\n      dup2\n      mstore\n      0x20\n      add\n      swap1\n      dup2\n      mstore\n      0x20\n      add\n      0x00\n      keccak256\n        /* \"@openzeppelin/contracts/token/ERC20/ERC20.sol\":9793:9837  _balances[account] = accountBalance - amount */\n      dup2\n      swap1\n      sstore\n      pop\n        /* \"@openzeppelin/contracts/token/ERC20/ERC20.sol\":9946:9952  amount */\n      dup2\n        /* \"@openzeppelin/contracts/token/ERC20/ERC20.sol\":9930:9942  _totalSupply */\n      0x02\n      0x00\n        /* \"@openzeppelin/contracts/token/ERC20/ERC20.sol\":9930:9952  _totalSupply -= amount */\n      dup3\n      dup3\n      sload\n      sub\n      swap3\n      pop\n      pop\n      dup2\n      swap1\n      sstore\n      pop\n        /* \"@openzeppelin/contracts/token/ERC20/ERC20.sol\":10004:10005  0 */\n      0x00\n        /* \"@openzeppelin/contracts/token/ERC20/ERC20.sol\":9978:10015  Transfer(account, address(0), amount) */\n      0xffffffffffffffffffffffffffffffffffffffff\n      and\n        /* \"@openzeppelin/contracts/token/ERC20/ERC20.sol\":9987:9994  account */\n      dup4\n        /* \"@openzeppelin/contracts/token/ERC20/ERC20.sol\":9978:10015  Transfer(account, address(0), amount) */\n      0xffffffffffffffffffffffffffffffffffffffff\n      and\n      0xddf252ad1be2c89b69c2b068fc378daa952ba7f163c4a11628f55a4df523b3ef\n        /* \"@openzeppelin/contracts/token/ERC20/ERC20.sol\":10008:10014  amount */\n      dup5\n        /* \"@openzeppelin/contracts/token/ERC20/ERC20.sol\":9978:10015  Transfer(account, address(0), amount) */\n      mload(0x40)\n      tag_308\n      swap2\n      swap1\n      tag_45\n      jump\t// in\n    tag_308:\n      mload(0x40)\n      dup1\n      swap2\n      sub\n      swap1\n      log3\n        /* \"@openzeppelin/contracts/token/ERC20/ERC20.sol\":10026:10074  _afterTokenTransfer(account, address(0), amount) */\n      tag_309\n        /* \"@openzeppelin/contracts/token/ERC20/ERC20.sol\":10046:10053  account */\n      dup4\n        /* \"@openzeppelin/contracts/token/ERC20/ERC20.sol\":10063:10064  0 */\n      0x00\n        /* \"@openzeppelin/contracts/token/ERC20/ERC20.sol\":10067:10073  amount */\n      dup5\n        /* \"@openzeppelin/contracts/token/ERC20/ERC20.sol\":10026:10045  _afterTokenTransfer */\n      tag_299\n        /* \"@openzeppelin/contracts/token/ERC20/ERC20.sol\":10026:10074  _afterTokenTransfer(account, address(0), amount) */\n      jump\t// in\n    tag_309:\n        /* \"@openzeppelin/contracts/token/ERC20/ERC20.sol\":9487:10081  {... */\n      pop\n        /* \"@openzeppelin/contracts/token/ERC20/ERC20.sol\":9422:10081  function _burn(address account, uint256 amount) internal virtual {... */\n      pop\n      pop\n      jump\t// out\n        /* \"@openzeppelin/contracts/access/Ownable.sol\":1359:1489  function _checkOwner() internal view virtual {... */\n    tag_184:\n        /* \"@openzeppelin/contracts/access/Ownable.sol\":1433:1445  _msgSender() */\n      tag_311\n        /* \"@openzeppelin/contracts/access/Ownable.sol\":1433:1443  _msgSender */\n      tag_136\n        /* \"@openzeppelin/contracts/access/Ownable.sol\":1433:1445  _msgSender() */\n      jump\t// in\n    tag_311:\n        /* \"@openzeppelin/contracts/access/Ownable.sol\":1422:1445  owner() == _msgSender() */\n      0xffffffffffffffffffffffffffffffffffffffff\n      and\n        /* \"@openzeppelin/contracts/access/Ownable.sol\":1422:1429  owner() */\n      tag_312\n        /* \"@openzeppelin/contracts/access/Ownable.sol\":1422:1427  owner */\n      tag_78\n        /* \"@openzeppelin/contracts/access/Ownable.sol\":1422:1429  owner() */\n      jump\t// in\n    tag_312:\n        /* \"@openzeppelin/contracts/access/Ownable.sol\":1422:1445  owner() == _msgSender() */\n      0xffffffffffffffffffffffffffffffffffffffff\n      and\n      eq\n        /* \"@openzeppelin/contracts/access/Ownable.sol\":1414:1482  require(owner() == _msgSender(), \"Ownable: caller is not the owner\") */\n      tag_313\n      jumpi\n      mload(0x40)\n      0x08c379a000000000000000000000000000000000000000000000000000000000\n      dup2\n      mstore\n      0x04\n      add\n      tag_314\n      swap1\n      tag_315\n      jump\t// in\n    tag_314:\n      mload(0x40)\n      dup1\n      swap2\n      sub\n      swap1\n      revert\n    tag_313:\n        /* \"@openzeppelin/contracts/access/Ownable.sol\":1359:1489  function _checkOwner() internal view virtual {... */\n      jump\t// out\n        /* \"@openzeppelin/contracts/access/Ownable.sol\":2433:2620  function _transferOwnership(address newOwner) internal virtual {... */\n    tag_187:\n        /* \"@openzeppelin/contracts/access/Ownable.sol\":2506:2522  address oldOwner */\n      0x00\n        /* \"@openzeppelin/contracts/access/Ownable.sol\":2525:2531  _owner */\n      0x05\n      0x00\n      swap1\n      sload\n      swap1\n      0x0100\n      exp\n      swap1\n      div\n      0xffffffffffffffffffffffffffffffffffffffff\n      and\n        /* \"@openzeppelin/contracts/access/Ownable.sol\":2506:2531  address oldOwner = _owner */\n      swap1\n      pop\n        /* \"@openzeppelin/contracts/access/Ownable.sol\":2550:2558  newOwner */\n      dup2\n        /* \"@openzeppelin/contracts/access/Ownable.sol\":2541:2547  _owner */\n      0x05\n      0x00\n        /* \"@openzeppelin/contracts/access/Ownable.sol\":2541:2558  _owner = newOwner */\n      0x0100\n      exp\n      dup2\n      sload\n      dup2\n      0xffffffffffffffffffffffffffffffffffffffff\n      mul\n      not\n      and\n      swap1\n      dup4\n      0xffffffffffffffffffffffffffffffffffffffff\n      and\n      mul\n      or\n      swap1\n      sstore\n      pop\n        /* \"@openzeppelin/contracts/access/Ownable.sol\":2604:2612  newOwner */\n      dup2\n        /* \"@openzeppelin/contracts/access/Ownable.sol\":2573:2613  OwnershipTransferred(oldOwner, newOwner) */\n      0xffffffffffffffffffffffffffffffffffffffff\n      and\n        /* \"@openzeppelin/contracts/access/Ownable.sol\":2594:2602  oldOwner */\n      dup2\n        /* \"@openzeppelin/contracts/access/Ownable.sol\":2573:2613  OwnershipTransferred(oldOwner, newOwner) */\n      0xffffffffffffffffffffffffffffffffffffffff\n      and\n      0x8be0079c531659141344cd1fd0a4f28419497f9722a3daafe3b4186f6b6457e0\n      mload(0x40)\n      mload(0x40)\n      dup1\n      swap2\n      sub\n      swap1\n      log3\n        /* \"@openzeppelin/contracts/access/Ownable.sol\":2496:2620  {... */\n      pop\n        /* \"@openzeppelin/contracts/access/Ownable.sol\":2433:2620  function _transferOwnership(address newOwner) internal virtual {... */\n      pop\n      jump\t// out\n        /* \"@openzeppelin/contracts/token/ERC20/ERC20.sol\":8567:9102  function _mint(address account, uint256 amount) internal virtual {... */\n    tag_245:\n        /* \"@openzeppelin/contracts/token/ERC20/ERC20.sol\":8669:8670  0 */\n      0x00\n        /* \"@openzeppelin/contracts/token/ERC20/ERC20.sol\":8650:8671  account != address(0) */\n      0xffffffffffffffffffffffffffffffffffffffff\n      and\n        /* \"@openzeppelin/contracts/token/ERC20/ERC20.sol\":8650:8657  account */\n      dup3\n        /* \"@openzeppelin/contracts/token/ERC20/ERC20.sol\":8650:8671  account != address(0) */\n      0xffffffffffffffffffffffffffffffffffffffff\n      and\n      sub\n        /* \"@openzeppelin/contracts/token/ERC20/ERC20.sol\":8642:8707  require(account != address(0), \"ERC20: mint to the zero address\") */\n      tag_318\n      jumpi\n      mload(0x40)\n      0x08c379a000000000000000000000000000000000000000000000000000000000\n      dup2\n      mstore\n      0x04\n      add\n      tag_319\n      swap1\n      tag_320\n      jump\t// in\n    tag_319:\n      mload(0x40)\n      dup1\n      swap2\n      sub\n      swap1\n      revert\n    tag_318:\n        /* \"@openzeppelin/contracts/token/ERC20/ERC20.sol\":8718:8767  _beforeTokenTransfer(address(0), account, amount) */\n      tag_321\n        /* \"@openzeppelin/contracts/token/ERC20/ERC20.sol\":8747:8748  0 */\n      0x00\n        /* \"@openzeppelin/contracts/token/ERC20/ERC20.sol\":8751:8758  account */\n      dup4\n        /* \"@openzeppelin/contracts/token/ERC20/ERC20.sol\":8760:8766  amount */\n      dup4\n        /* \"@openzeppelin/contracts/token/ERC20/ERC20.sol\":8718:8738  _beforeTokenTransfer */\n      tag_293\n        /* \"@openzeppelin/contracts/token/ERC20/ERC20.sol\":8718:8767  _beforeTokenTransfer(address(0), account, amount) */\n      jump\t// in\n    tag_321:\n        /* \"@openzeppelin/contracts/token/ERC20/ERC20.sol\":8794:8800  amount */\n      dup1\n        /* \"@openzeppelin/contracts/token/ERC20/ERC20.sol\":8778:8790  _totalSupply */\n      0x02\n      0x00\n        /* \"@openzeppelin/contracts/token/ERC20/ERC20.sol\":8778:8800  _totalSupply += amount */\n      dup3\n      dup3\n      sload\n      tag_322\n      swap2\n      swap1\n      tag_152\n      jump\t// in\n    tag_322:\n      swap3\n      pop\n      pop\n      dup2\n      swap1\n      sstore\n      pop\n        /* \"@openzeppelin/contracts/token/ERC20/ERC20.sol\":8968:8974  amount */\n      dup1\n        /* \"@openzeppelin/contracts/token/ERC20/ERC20.sol\":8946:8955  _balances */\n      0x00\n        /* \"@openzeppelin/contracts/token/ERC20/ERC20.sol\":8946:8964  _balances[account] */\n      dup1\n        /* \"@openzeppelin/contracts/token/ERC20/ERC20.sol\":8956:8963  account */\n      dup5\n        /* \"@openzeppelin/contracts/token/ERC20/ERC20.sol\":8946:8964  _balances[account] */\n      0xffffffffffffffffffffffffffffffffffffffff\n      and\n      0xffffffffffffffffffffffffffffffffffffffff\n      and\n      dup2\n      mstore\n      0x20\n      add\n      swap1\n      dup2\n      mstore\n      0x20\n      add\n      0x00\n      keccak256\n      0x00\n        /* \"@openzeppelin/contracts/token/ERC20/ERC20.sol\":8946:8974  _balances[account] += amount */\n      dup3\n      dup3\n      sload\n      add\n      swap3\n      pop\n      pop\n      dup2\n      swap1\n      sstore\n      pop\n        /* \"@openzeppelin/contracts/token/ERC20/ERC20.sol\":9020:9027  account */\n      dup2\n        /* \"@openzeppelin/contracts/token/ERC20/ERC20.sol\":8999:9036  Transfer(address(0), account, amount) */\n      0xffffffffffffffffffffffffffffffffffffffff\n      and\n        /* \"@openzeppelin/contracts/token/ERC20/ERC20.sol\":9016:9017  0 */\n      0x00\n        /* \"@openzeppelin/contracts/token/ERC20/ERC20.sol\":8999:9036  Transfer(address(0), account, amount) */\n      0xffffffffffffffffffffffffffffffffffffffff\n      and\n      0xddf252ad1be2c89b69c2b068fc378daa952ba7f163c4a11628f55a4df523b3ef\n        /* \"@openzeppelin/contracts/token/ERC20/ERC20.sol\":9029:9035  amount */\n      dup4\n        /* \"@openzeppelin/contracts/token/ERC20/ERC20.sol\":8999:9036  Transfer(address(0), account, amount) */\n      mload(0x40)\n      tag_323\n      swap2\n      swap1\n      tag_45\n      jump\t// in\n    tag_323:\n      mload(0x40)\n      dup1\n      swap2\n      sub\n      swap1\n      log3\n        /* \"@openzeppelin/contracts/token/ERC20/ERC20.sol\":9047:9095  _afterTokenTransfer(address(0), account, amount) */\n      tag_324\n        /* \"@openzeppelin/contracts/token/ERC20/ERC20.sol\":9075:9076  0 */\n      0x00\n        /* \"@openzeppelin/contracts/token/ERC20/ERC20.sol\":9079:9086  account */\n      dup4\n        /* \"@openzeppelin/contracts/token/ERC20/ERC20.sol\":9088:9094  amount */\n      dup4\n        /* \"@openzeppelin/contracts/token/ERC20/ERC20.sol\":9047:9066  _afterTokenTransfer */\n      tag_299\n        /* \"@openzeppelin/contracts/token/ERC20/ERC20.sol\":9047:9095  _afterTokenTransfer(address(0), account, amount) */\n      jump\t// in\n    tag_324:\n        /* \"@openzeppelin/contracts/token/ERC20/ERC20.sol\":8567:9102  function _mint(address account, uint256 amount) internal virtual {... */\n      pop\n      pop\n      jump\t// out\n        /* \"contracts/DegenToken.sol\":1004:1557  function uint2str(uint256 _i) internal pure returns (string memory) {... */\n    tag_263:\n        /* \"contracts/DegenToken.sol\":1057:1070  string memory */\n      0x60\n        /* \"contracts/DegenToken.sol\":1092:1093  0 */\n      0x00\n        /* \"contracts/DegenToken.sol\":1086:1088  _i */\n      dup3\n        /* \"contracts/DegenToken.sol\":1086:1093  _i == 0 */\n      sub\n        /* \"contracts/DegenToken.sol\":1082:1130  if (_i == 0) {... */\n      tag_326\n      jumpi\n        /* \"contracts/DegenToken.sol\":1109:1119  return \"0\" */\n      mload(0x40)\n      dup1\n      0x40\n      add\n      0x40\n      mstore\n      dup1\n      0x01\n      dup2\n      mstore\n      0x20\n      add\n      0x3000000000000000000000000000000000000000000000000000000000000000\n      dup2\n      mstore\n      pop\n      swap1\n      pop\n      jump(tag_325)\n        /* \"contracts/DegenToken.sol\":1082:1130  if (_i == 0) {... */\n    tag_326:\n        /* \"contracts/DegenToken.sol\":1139:1148  uint256 j */\n      0x00\n        /* \"contracts/DegenToken.sol\":1151:1153  _i */\n      dup3\n        /* \"contracts/DegenToken.sol\":1139:1153  uint256 j = _i */\n      swap1\n      pop\n        /* \"contracts/DegenToken.sol\":1163:1174  uint256 len */\n      0x00\n        /* \"contracts/DegenToken.sol\":1184:1250  while (j != 0) {... */\n    tag_327:\n        /* \"contracts/DegenToken.sol\":1196:1197  0 */\n      0x00\n        /* \"contracts/DegenToken.sol\":1191:1192  j */\n      dup3\n        /* \"contracts/DegenToken.sol\":1191:1197  j != 0 */\n      eq\n        /* \"contracts/DegenToken.sol\":1184:1250  while (j != 0) {... */\n      tag_328\n      jumpi\n        /* \"contracts/DegenToken.sol\":1213:1218  len++ */\n      dup1\n      dup1\n      tag_329\n      swap1\n      tag_268\n      jump\t// in\n    tag_329:\n      swap2\n      pop\n      pop\n        /* \"contracts/DegenToken.sol\":1237:1239  10 */\n      0x0a\n        /* \"contracts/DegenToken.sol\":1232:1239  j /= 10 */\n      dup3\n      tag_330\n      swap2\n      swap1\n      tag_331\n      jump\t// in\n    tag_330:\n      swap2\n      pop\n        /* \"contracts/DegenToken.sol\":1184:1250  while (j != 0) {... */\n      jump(tag_327)\n    tag_328:\n        /* \"contracts/DegenToken.sol\":1259:1276  bytes memory bstr */\n      0x00\n        /* \"contracts/DegenToken.sol\":1289:1292  len */\n      dup2\n        /* \"contracts/DegenToken.sol\":1279:1293  new bytes(len) */\n      0xffffffffffffffff\n      dup2\n      gt\n      iszero\n      tag_332\n      jumpi\n      tag_333\n      tag_158\n      jump\t// in\n    tag_333:\n    tag_332:\n      mload(0x40)\n      swap1\n      dup1\n      dup3\n      mstore\n      dup1\n      0x1f\n      add\n      not(0x1f)\n      and\n      0x20\n      add\n      dup3\n      add\n      0x40\n      mstore\n      dup1\n      iszero\n      tag_334\n      jumpi\n      dup2\n      0x20\n      add\n      0x01\n      dup3\n      mul\n      dup1\n      calldatasize\n      dup4\n      calldatacopy\n      dup1\n      dup3\n      add\n      swap2\n      pop\n      pop\n      swap1\n      pop\n    tag_334:\n      pop\n        /* \"contracts/DegenToken.sol\":1259:1293  bytes memory bstr = new bytes(len) */\n      swap1\n      pop\n        /* \"contracts/DegenToken.sol\":1303:1312  uint256 k */\n      0x00\n        /* \"contracts/DegenToken.sol\":1315:1318  len */\n      dup3\n        /* \"contracts/DegenToken.sol\":1303:1318  uint256 k = len */\n      swap1\n      pop\n        /* \"contracts/DegenToken.sol\":1328:1522  while (_i != 0) {... */\n    tag_335:\n        /* \"contracts/DegenToken.sol\":1341:1342  0 */\n      0x00\n        /* \"contracts/DegenToken.sol\":1335:1337  _i */\n      dup7\n        /* \"contracts/DegenToken.sol\":1335:1342  _i != 0 */\n      eq\n        /* \"contracts/DegenToken.sol\":1328:1522  while (_i != 0) {... */\n      tag_336\n      jumpi\n        /* \"contracts/DegenToken.sol\":1366:1367  1 */\n      0x01\n        /* \"contracts/DegenToken.sol\":1362:1363  k */\n      dup2\n        /* \"contracts/DegenToken.sol\":1362:1367  k - 1 */\n      tag_337\n      swap2\n      swap1\n      tag_338\n      jump\t// in\n    tag_337:\n        /* \"contracts/DegenToken.sol\":1358:1367  k = k - 1 */\n      swap1\n      pop\n        /* \"contracts/DegenToken.sol\":1381:1391  uint8 temp */\n      0x00\n        /* \"contracts/DegenToken.sol\":1421:1423  10 */\n      0x0a\n        /* \"contracts/DegenToken.sol\":1416:1418  10 */\n      dup1\n        /* \"contracts/DegenToken.sol\":1411:1413  _i */\n      dup9\n        /* \"contracts/DegenToken.sol\":1411:1418  _i / 10 */\n      tag_339\n      swap2\n      swap1\n      tag_331\n      jump\t// in\n    tag_339:\n        /* \"contracts/DegenToken.sol\":1411:1423  _i / 10 * 10 */\n      tag_340\n      swap2\n      swap1\n      tag_341\n      jump\t// in\n    tag_340:\n        /* \"contracts/DegenToken.sol\":1406:1408  _i */\n      dup8\n        /* \"contracts/DegenToken.sol\":1406:1423  _i - _i / 10 * 10 */\n      tag_342\n      swap2\n      swap1\n      tag_338\n      jump\t// in\n    tag_342:\n        /* \"contracts/DegenToken.sol\":1395:1397  48 */\n      0x30\n        /* \"contracts/DegenToken.sol\":1395:1424  48 + uint8(_i - _i / 10 * 10) */\n      tag_343\n      swap2\n      swap1\n      tag_344\n      jump\t// in\n    tag_343:\n        /* \"contracts/DegenToken.sol\":1381:1425  uint8 temp = (48 + uint8(_i - _i / 10 * 10)) */\n      swap1\n      pop\n        /* \"contracts/DegenToken.sol\":1439:1448  bytes1 b1 */\n      0x00\n        /* \"contracts/DegenToken.sol\":1458:1462  temp */\n      dup2\n        /* \"contracts/DegenToken.sol\":1451:1463  bytes1(temp) */\n      0xf8\n      shl\n        /* \"contracts/DegenToken.sol\":1439:1463  bytes1 b1 = bytes1(temp) */\n      swap1\n      pop\n        /* \"contracts/DegenToken.sol\":1487:1489  b1 */\n      dup1\n        /* \"contracts/DegenToken.sol\":1477:1481  bstr */\n      dup5\n        /* \"contracts/DegenToken.sol\":1482:1483  k */\n      dup5\n        /* \"contracts/DegenToken.sol\":1477:1484  bstr[k] */\n      dup2\n      mload\n      dup2\n      lt\n      tag_345\n      jumpi\n      tag_346\n      tag_166\n      jump\t// in\n    tag_346:\n    tag_345:\n      0x20\n      add\n      add\n        /* \"contracts/DegenToken.sol\":1477:1489  bstr[k] = b1 */\n      swap1\n      not(0xffffffffffffffffffffffffffffffffffffffffffffffffffffffffffffff)\n      and\n      swap1\n      dup2\n      0x00\n      byte\n      swap1\n      mstore8\n      pop\n        /* \"contracts/DegenToken.sol\":1509:1511  10 */\n      0x0a\n        /* \"contracts/DegenToken.sol\":1503:1511  _i /= 10 */\n      dup9\n      tag_347\n      swap2\n      swap1\n      tag_331\n      jump\t// in\n    tag_347:\n      swap8\n      pop\n        /* \"contracts/DegenToken.sol\":1344:1522  {... */\n      pop\n      pop\n        /* \"contracts/DegenToken.sol\":1328:1522  while (_i != 0) {... */\n      jump(tag_335)\n    tag_336:\n        /* \"contracts/DegenToken.sol\":1545:1549  bstr */\n      dup2\n        /* \"contracts/DegenToken.sol\":1531:1550  return string(bstr) */\n      swap5\n      pop\n      pop\n      pop\n      pop\n      pop\n        /* \"contracts/DegenToken.sol\":1004:1557  function uint2str(uint256 _i) internal pure returns (string memory) {... */\n    tag_325:\n      swap2\n      swap1\n      pop\n      jump\t// out\n        /* \"@openzeppelin/contracts/token/ERC20/ERC20.sol\":12180:12301  function _beforeTokenTransfer(... */\n    tag_293:\n      pop\n      pop\n      pop\n      jump\t// out\n        /* \"@openzeppelin/contracts/token/ERC20/ERC20.sol\":12889:13009  function _afterTokenTransfer(... */\n    tag_299:\n      pop\n      pop\n      pop\n      jump\t// out\n        /* \"#utility.yul\":7:106   */\n    tag_350:\n        /* \"#utility.yul\":59:65   */\n      0x00\n        /* \"#utility.yul\":93:98   */\n      dup2\n        /* \"#utility.yul\":87:99   */\n      mload\n        /* \"#utility.yul\":77:99   */\n      swap1\n      pop\n        /* \"#utility.yul\":7:106   */\n      swap2\n      swap1\n      pop\n      jump\t// out\n        /* \"#utility.yul\":112:281   */\n    tag_351:\n        /* \"#utility.yul\":196:207   */\n      0x00\n        /* \"#utility.yul\":230:236   */\n      dup3\n        /* \"#utility.yul\":225:228   */\n      dup3\n        /* \"#utility.yul\":218:237   */\n      mstore\n        /* \"#utility.yul\":270:274   */\n      0x20\n        /* \"#utility.yul\":265:268   */\n      dup3\n        /* \"#utility.yul\":261:275   */\n      add\n        /* \"#utility.yul\":246:275   */\n      swap1\n      pop\n        /* \"#utility.yul\":112:281   */\n      swap3\n      swap2\n      pop\n      pop\n      jump\t// out\n        /* \"#utility.yul\":287:426   */\n    tag_352:\n        /* \"#utility.yul\":376:382   */\n      dup3\n        /* \"#utility.yul\":371:374   */\n      dup2\n        /* \"#utility.yul\":366:369   */\n      dup4\n        /* \"#utility.yul\":360:383   */\n      mcopy\n        /* \"#utility.yul\":417:418   */\n      0x00\n        /* \"#utility.yul\":408:414   */\n      dup4\n        /* \"#utility.yul\":403:406   */\n      dup4\n        /* \"#utility.yul\":399:415   */\n      add\n        /* \"#utility.yul\":392:419   */\n      mstore\n        /* \"#utility.yul\":287:426   */\n      pop\n      pop\n      pop\n      jump\t// out\n        /* \"#utility.yul\":432:534   */\n    tag_353:\n        /* \"#utility.yul\":473:479   */\n      0x00\n        /* \"#utility.yul\":524:526   */\n      0x1f\n        /* \"#utility.yul\":520:527   */\n      not\n        /* \"#utility.yul\":515:517   */\n      0x1f\n        /* \"#utility.yul\":508:513   */\n      dup4\n        /* \"#utility.yul\":504:518   */\n      add\n        /* \"#utility.yul\":500:528   */\n      and\n        /* \"#utility.yul\":490:528   */\n      swap1\n      pop\n        /* \"#utility.yul\":432:534   */\n      swap2\n      swap1\n      pop\n      jump\t// out\n        /* \"#utility.yul\":540:917   */\n    tag_354:\n        /* \"#utility.yul\":628:631   */\n      0x00\n        /* \"#utility.yul\":656:695   */\n      tag_428\n        /* \"#utility.yul\":689:694   */\n      dup3\n        /* \"#utility.yul\":656:695   */\n      tag_350\n      jump\t// in\n    tag_428:\n        /* \"#utility.yul\":711:782   */\n      tag_429\n        /* \"#utility.yul\":775:781   */\n      dup2\n        /* \"#utility.yul\":770:773   */\n      dup6\n        /* \"#utility.yul\":711:782   */\n      tag_351\n      jump\t// in\n    tag_429:\n        /* \"#utility.yul\":704:782   */\n      swap4\n      pop\n        /* \"#utility.yul\":791:856   */\n      tag_430\n        /* \"#utility.yul\":849:855   */\n      dup2\n        /* \"#utility.yul\":844:847   */\n      dup6\n        /* \"#utility.yul\":837:841   */\n      0x20\n        /* \"#utility.yul\":830:835   */\n      dup7\n        /* \"#utility.yul\":826:842   */\n      add\n        /* \"#utility.yul\":791:856   */\n      tag_352\n      jump\t// in\n    tag_430:\n        /* \"#utility.yul\":881:910   */\n      tag_431\n        /* \"#utility.yul\":903:909   */\n      dup2\n        /* \"#utility.yul\":881:910   */\n      tag_353\n      jump\t// in\n    tag_431:\n        /* \"#utility.yul\":876:879   */\n      dup5\n        /* \"#utility.yul\":872:911   */\n      add\n        /* \"#utility.yul\":865:911   */\n      swap2\n      pop\n        /* \"#utility.yul\":632:917   */\n      pop\n        /* \"#utility.yul\":540:917   */\n      swap3\n      swap2\n      pop\n      pop\n      jump\t// out\n        /* \"#utility.yul\":923:1236   */\n    tag_35:\n        /* \"#utility.yul\":1036:1040   */\n      0x00\n        /* \"#utility.yul\":1074:1076   */\n      0x20\n        /* \"#utility.yul\":1063:1072   */\n      dup3\n        /* \"#utility.yul\":1059:1077   */\n      add\n        /* \"#utility.yul\":1051:1077   */\n      swap1\n      pop\n        /* \"#utility.yul\":1123:1132   */\n      dup2\n        /* \"#utility.yul\":1117:1121   */\n      dup2\n        /* \"#utility.yul\":1113:1133   */\n      sub\n        /* \"#utility.yul\":1109:1110   */\n      0x00\n        /* \"#utility.yul\":1098:1107   */\n      dup4\n        /* \"#utility.yul\":1094:1111   */\n      add\n        /* \"#utility.yul\":1087:1134   */\n      mstore\n        /* \"#utility.yul\":1151:1229   */\n      tag_433\n        /* \"#utility.yul\":1224:1228   */\n      dup2\n        /* \"#utility.yul\":1215:1221   */\n      dup5\n        /* \"#utility.yul\":1151:1229   */\n      tag_354\n      jump\t// in\n    tag_433:\n        /* \"#utility.yul\":1143:1229   */\n      swap1\n      pop\n        /* \"#utility.yul\":923:1236   */\n      swap3\n      swap2\n      pop\n      pop\n      jump\t// out\n        /* \"#utility.yul\":1323:1440   */\n    tag_356:\n        /* \"#utility.yul\":1432:1433   */\n      0x00\n        /* \"#utility.yul\":1429:1430   */\n      dup1\n        /* \"#utility.yul\":1422:1434   */\n      revert\n        /* \"#utility.yul\":1569:1695   */\n    tag_358:\n        /* \"#utility.yul\":1606:1613   */\n      0x00\n        /* \"#utility.yul\":1646:1688   */\n      0xffffffffffffffffffffffffffffffffffffffff\n        /* \"#utility.yul\":1639:1644   */\n      dup3\n        /* \"#utility.yul\":1635:1689   */\n      and\n        /* \"#utility.yul\":1624:1689   */\n      swap1\n      pop\n        /* \"#utility.yul\":1569:1695   */\n      swap2\n      swap1\n      pop\n      jump\t// out\n        /* \"#utility.yul\":1701:1797   */\n    tag_359:\n        /* \"#utility.yul\":1738:1745   */\n      0x00\n        /* \"#utility.yul\":1767:1791   */\n      tag_439\n        /* \"#utility.yul\":1785:1790   */\n      dup3\n        /* \"#utility.yul\":1767:1791   */\n      tag_358\n      jump\t// in\n    tag_439:\n        /* \"#utility.yul\":1756:1791   */\n      swap1\n      pop\n        /* \"#utility.yul\":1701:1797   */\n      swap2\n      swap1\n      pop\n      jump\t// out\n        /* \"#utility.yul\":1803:1925   */\n    tag_360:\n        /* \"#utility.yul\":1876:1900   */\n      tag_441\n        /* \"#utility.yul\":1894:1899   */\n      dup2\n        /* \"#utility.yul\":1876:1900   */\n      tag_359\n      jump\t// in\n    tag_441:\n        /* \"#utility.yul\":1869:1874   */\n      dup2\n        /* \"#utility.yul\":1866:1901   */\n      eq\n        /* \"#utility.yul\":1856:1919   */\n      tag_442\n      jumpi\n        /* \"#utility.yul\":1915:1916   */\n      0x00\n        /* \"#utility.yul\":1912:1913   */\n      dup1\n        /* \"#utility.yul\":1905:1917   */\n      revert\n        /* \"#utility.yul\":1856:1919   */\n    tag_442:\n        /* \"#utility.yul\":1803:1925   */\n      pop\n      jump\t// out\n        /* \"#utility.yul\":1931:2070   */\n    tag_361:\n        /* \"#utility.yul\":1977:1982   */\n      0x00\n        /* \"#utility.yul\":2015:2021   */\n      dup2\n        /* \"#utility.yul\":2002:2022   */\n      calldataload\n        /* \"#utility.yul\":1993:2022   */\n      swap1\n      pop\n        /* \"#utility.yul\":2031:2064   */\n      tag_444\n        /* \"#utility.yul\":2058:2063   */\n      dup2\n        /* \"#utility.yul\":2031:2064   */\n      tag_360\n      jump\t// in\n    tag_444:\n        /* \"#utility.yul\":1931:2070   */\n      swap3\n      swap2\n      pop\n      pop\n      jump\t// out\n        /* \"#utility.yul\":2076:2153   */\n    tag_362:\n        /* \"#utility.yul\":2113:2120   */\n      0x00\n        /* \"#utility.yul\":2142:2147   */\n      dup2\n        /* \"#utility.yul\":2131:2147   */\n      swap1\n      pop\n        /* \"#utility.yul\":2076:2153   */\n      swap2\n      swap1\n      pop\n      jump\t// out\n        /* \"#utility.yul\":2159:2281   */\n    tag_363:\n        /* \"#utility.yul\":2232:2256   */\n      tag_447\n        /* \"#utility.yul\":2250:2255   */\n      dup2\n        /* \"#utility.yul\":2232:2256   */\n      tag_362\n      jump\t// in\n    tag_447:\n        /* \"#utility.yul\":2225:2230   */\n      dup2\n        /* \"#utility.yul\":2222:2257   */\n      eq\n        /* \"#utility.yul\":2212:2275   */\n      tag_448\n      jumpi\n        /* \"#utility.yul\":2271:2272   */\n      0x00\n        /* \"#utility.yul\":2268:2269   */\n      dup1\n        /* \"#utility.yul\":2261:2273   */\n      revert\n        /* \"#utility.yul\":2212:2275   */\n    tag_448:\n        /* \"#utility.yul\":2159:2281   */\n      pop\n      jump\t// out\n        /* \"#utility.yul\":2287:2426   */\n    tag_364:\n        /* \"#utility.yul\":2333:2338   */\n      0x00\n        /* \"#utility.yul\":2371:2377   */\n      dup2\n        /* \"#utility.yul\":2358:2378   */\n      calldataload\n        /* \"#utility.yul\":2349:2378   */\n      swap1\n      pop\n        /* \"#utility.yul\":2387:2420   */\n      tag_450\n        /* \"#utility.yul\":2414:2419   */\n      dup2\n        /* \"#utility.yul\":2387:2420   */\n      tag_363\n      jump\t// in\n    tag_450:\n        /* \"#utility.yul\":2287:2426   */\n      swap3\n      swap2\n      pop\n      pop\n      jump\t// out\n        /* \"#utility.yul\":2432:2906   */\n    tag_38:\n        /* \"#utility.yul\":2500:2506   */\n      0x00\n        /* \"#utility.yul\":2508:2514   */\n      dup1\n        /* \"#utility.yul\":2557:2559   */\n      0x40\n        /* \"#utility.yul\":2545:2554   */\n      dup4\n        /* \"#utility.yul\":2536:2543   */\n      dup6\n        /* \"#utility.yul\":2532:2555   */\n      sub\n        /* \"#utility.yul\":2528:2560   */\n      slt\n        /* \"#utility.yul\":2525:2644   */\n      iszero\n      tag_452\n      jumpi\n        /* \"#utility.yul\":2563:2642   */\n      tag_453\n      tag_356\n      jump\t// in\n    tag_453:\n        /* \"#utility.yul\":2525:2644   */\n    tag_452:\n        /* \"#utility.yul\":2683:2684   */\n      0x00\n        /* \"#utility.yul\":2708:2761   */\n      tag_454\n        /* \"#utility.yul\":2753:2760   */\n      dup6\n        /* \"#utility.yul\":2744:2750   */\n      dup3\n        /* \"#utility.yul\":2733:2742   */\n      dup7\n        /* \"#utility.yul\":2729:2751   */\n      add\n        /* \"#utility.yul\":2708:2761   */\n      tag_361\n      jump\t// in\n    tag_454:\n        /* \"#utility.yul\":2698:2761   */\n      swap3\n      pop\n        /* \"#utility.yul\":2654:2771   */\n      pop\n        /* \"#utility.yul\":2810:2812   */\n      0x20\n        /* \"#utility.yul\":2836:2889   */\n      tag_455\n        /* \"#utility.yul\":2881:2888   */\n      dup6\n        /* \"#utility.yul\":2872:2878   */\n      dup3\n        /* \"#utility.yul\":2861:2870   */\n      dup7\n        /* \"#utility.yul\":2857:2879   */\n      add\n        /* \"#utility.yul\":2836:2889   */\n      tag_364\n      jump\t// in\n    tag_455:\n        /* \"#utility.yul\":2826:2889   */\n      swap2\n      pop\n        /* \"#utility.yul\":2781:2899   */\n      pop\n        /* \"#utility.yul\":2432:2906   */\n      swap3\n      pop\n      swap3\n      swap1\n      pop\n      jump\t// out\n        /* \"#utility.yul\":2912:3002   */\n    tag_365:\n        /* \"#utility.yul\":2946:2953   */\n      0x00\n        /* \"#utility.yul\":2989:2994   */\n      dup2\n        /* \"#utility.yul\":2982:2995   */\n      iszero\n        /* \"#utility.yul\":2975:2996   */\n      iszero\n        /* \"#utility.yul\":2964:2996   */\n      swap1\n      pop\n        /* \"#utility.yul\":2912:3002   */\n      swap2\n      swap1\n      pop\n      jump\t// out\n        /* \"#utility.yul\":3008:3117   */\n    tag_366:\n        /* \"#utility.yul\":3089:3110   */\n      tag_458\n        /* \"#utility.yul\":3104:3109   */\n      dup2\n        /* \"#utility.yul\":3089:3110   */\n      tag_365\n      jump\t// in\n    tag_458:\n        /* \"#utility.yul\":3084:3087   */\n      dup3\n        /* \"#utility.yul\":3077:3111   */\n      mstore\n        /* \"#utility.yul\":3008:3117   */\n      pop\n      pop\n      jump\t// out\n        /* \"#utility.yul\":3123:3333   */\n    tag_41:\n        /* \"#utility.yul\":3210:3214   */\n      0x00\n        /* \"#utility.yul\":3248:3250   */\n      0x20\n        /* \"#utility.yul\":3237:3246   */\n      dup3\n        /* \"#utility.yul\":3233:3251   */\n      add\n        /* \"#utility.yul\":3225:3251   */\n      swap1\n      pop\n        /* \"#utility.yul\":3261:3326   */\n      tag_460\n        /* \"#utility.yul\":3323:3324   */\n      0x00\n        /* \"#utility.yul\":3312:3321   */\n      dup4\n        /* \"#utility.yul\":3308:3325   */\n      add\n        /* \"#utility.yul\":3299:3305   */\n      dup5\n        /* \"#utility.yul\":3261:3326   */\n      tag_366\n      jump\t// in\n    tag_460:\n        /* \"#utility.yul\":3123:3333   */\n      swap3\n      swap2\n      pop\n      pop\n      jump\t// out\n        /* \"#utility.yul\":3339:3457   */\n    tag_367:\n        /* \"#utility.yul\":3426:3450   */\n      tag_462\n        /* \"#utility.yul\":3444:3449   */\n      dup2\n        /* \"#utility.yul\":3426:3450   */\n      tag_362\n      jump\t// in\n    tag_462:\n        /* \"#utility.yul\":3421:3424   */\n      dup3\n        /* \"#utility.yul\":3414:3451   */\n      mstore\n        /* \"#utility.yul\":3339:3457   */\n      pop\n      pop\n      jump\t// out\n        /* \"#utility.yul\":3463:3685   */\n    tag_45:\n        /* \"#utility.yul\":3556:3560   */\n      0x00\n        /* \"#utility.yul\":3594:3596   */\n      0x20\n        /* \"#utility.yul\":3583:3592   */\n      dup3\n        /* \"#utility.yul\":3579:3597   */\n      add\n        /* \"#utility.yul\":3571:3597   */\n      swap1\n      pop\n        /* \"#utility.yul\":3607:3678   */\n      tag_464\n        /* \"#utility.yul\":3675:3676   */\n      0x00\n        /* \"#utility.yul\":3664:3673   */\n      dup4\n        /* \"#utility.yul\":3660:3677   */\n      add\n        /* \"#utility.yul\":3651:3657   */\n      dup5\n        /* \"#utility.yul\":3607:3678   */\n      tag_367\n      jump\t// in\n    tag_464:\n        /* \"#utility.yul\":3463:3685   */\n      swap3\n      swap2\n      pop\n      pop\n      jump\t// out\n        /* \"#utility.yul\":3691:4310   */\n    tag_48:\n        /* \"#utility.yul\":3768:3774   */\n      0x00\n        /* \"#utility.yul\":3776:3782   */\n      dup1\n        /* \"#utility.yul\":3784:3790   */\n      0x00\n        /* \"#utility.yul\":3833:3835   */\n      0x60\n        /* \"#utility.yul\":3821:3830   */\n      dup5\n        /* \"#utility.yul\":3812:3819   */\n      dup7\n        /* \"#utility.yul\":3808:3831   */\n      sub\n        /* \"#utility.yul\":3804:3836   */\n      slt\n        /* \"#utility.yul\":3801:3920   */\n      iszero\n      tag_466\n      jumpi\n        /* \"#utility.yul\":3839:3918   */\n      tag_467\n      tag_356\n      jump\t// in\n    tag_467:\n        /* \"#utility.yul\":3801:3920   */\n    tag_466:\n        /* \"#utility.yul\":3959:3960   */\n      0x00\n        /* \"#utility.yul\":3984:4037   */\n      tag_468\n        /* \"#utility.yul\":4029:4036   */\n      dup7\n        /* \"#utility.yul\":4020:4026   */\n      dup3\n        /* \"#utility.yul\":4009:4018   */\n      dup8\n        /* \"#utility.yul\":4005:4027   */\n      add\n        /* \"#utility.yul\":3984:4037   */\n      tag_361\n      jump\t// in\n    tag_468:\n        /* \"#utility.yul\":3974:4037   */\n      swap4\n      pop\n        /* \"#utility.yul\":3930:4047   */\n      pop\n        /* \"#utility.yul\":4086:4088   */\n      0x20\n        /* \"#utility.yul\":4112:4165   */\n      tag_469\n        /* \"#utility.yul\":4157:4164   */\n      dup7\n        /* \"#utility.yul\":4148:4154   */\n      dup3\n        /* \"#utility.yul\":4137:4146   */\n      dup8\n        /* \"#utility.yul\":4133:4155   */\n      add\n        /* \"#utility.yul\":4112:4165   */\n      tag_361\n      jump\t// in\n    tag_469:\n        /* \"#utility.yul\":4102:4165   */\n      swap3\n      pop\n        /* \"#utility.yul\":4057:4175   */\n      pop\n        /* \"#utility.yul\":4214:4216   */\n      0x40\n        /* \"#utility.yul\":4240:4293   */\n      tag_470\n        /* \"#utility.yul\":4285:4292   */\n      dup7\n        /* \"#utility.yul\":4276:4282   */\n      dup3\n        /* \"#utility.yul\":4265:4274   */\n      dup8\n        /* \"#utility.yul\":4261:4283   */\n      add\n        /* \"#utility.yul\":4240:4293   */\n      tag_364\n      jump\t// in\n    tag_470:\n        /* \"#utility.yul\":4230:4293   */\n      swap2\n      pop\n        /* \"#utility.yul\":4185:4303   */\n      pop\n        /* \"#utility.yul\":3691:4310   */\n      swap3\n      pop\n      swap3\n      pop\n      swap3\n      jump\t// out\n        /* \"#utility.yul\":4316:4402   */\n    tag_368:\n        /* \"#utility.yul\":4351:4358   */\n      0x00\n        /* \"#utility.yul\":4391:4395   */\n      0xff\n        /* \"#utility.yul\":4384:4389   */\n      dup3\n        /* \"#utility.yul\":4380:4396   */\n      and\n        /* \"#utility.yul\":4369:4396   */\n      swap1\n      pop\n        /* \"#utility.yul\":4316:4402   */\n      swap2\n      swap1\n      pop\n      jump\t// out\n        /* \"#utility.yul\":4408:4520   */\n    tag_369:\n        /* \"#utility.yul\":4491:4513   */\n      tag_473\n        /* \"#utility.yul\":4507:4512   */\n      dup2\n        /* \"#utility.yul\":4491:4513   */\n      tag_368\n      jump\t// in\n    tag_473:\n        /* \"#utility.yul\":4486:4489   */\n      dup3\n        /* \"#utility.yul\":4479:4514   */\n      mstore\n        /* \"#utility.yul\":4408:4520   */\n      pop\n      pop\n      jump\t// out\n        /* \"#utility.yul\":4526:4740   */\n    tag_54:\n        /* \"#utility.yul\":4615:4619   */\n      0x00\n        /* \"#utility.yul\":4653:4655   */\n      0x20\n        /* \"#utility.yul\":4642:4651   */\n      dup3\n        /* \"#utility.yul\":4638:4656   */\n      add\n        /* \"#utility.yul\":4630:4656   */\n      swap1\n      pop\n        /* \"#utility.yul\":4666:4733   */\n      tag_475\n        /* \"#utility.yul\":4730:4731   */\n      0x00\n        /* \"#utility.yul\":4719:4728   */\n      dup4\n        /* \"#utility.yul\":4715:4732   */\n      add\n        /* \"#utility.yul\":4706:4712   */\n      dup5\n        /* \"#utility.yul\":4666:4733   */\n      tag_369\n      jump\t// in\n    tag_475:\n        /* \"#utility.yul\":4526:4740   */\n      swap3\n      swap2\n      pop\n      pop\n      jump\t// out\n        /* \"#utility.yul\":4746:4870   */\n    tag_370:\n        /* \"#utility.yul\":4823:4829   */\n      0x00\n        /* \"#utility.yul\":4857:4862   */\n      dup2\n        /* \"#utility.yul\":4851:4863   */\n      mload\n        /* \"#utility.yul\":4841:4863   */\n      swap1\n      pop\n        /* \"#utility.yul\":4746:4870   */\n      swap2\n      swap1\n      pop\n      jump\t// out\n        /* \"#utility.yul\":4876:5070   */\n    tag_371:\n        /* \"#utility.yul\":4985:4996   */\n      0x00\n        /* \"#utility.yul\":5019:5025   */\n      dup3\n        /* \"#utility.yul\":5014:5017   */\n      dup3\n        /* \"#utility.yul\":5007:5026   */\n      mstore\n        /* \"#utility.yul\":5059:5063   */\n      0x20\n        /* \"#utility.yul\":5054:5057   */\n      dup3\n        /* \"#utility.yul\":5050:5064   */\n      add\n        /* \"#utility.yul\":5035:5064   */\n      swap1\n      pop\n        /* \"#utility.yul\":4876:5070   */\n      swap3\n      swap2\n      pop\n      pop\n      jump\t// out\n        /* \"#utility.yul\":5076:5218   */\n    tag_372:\n        /* \"#utility.yul\":5153:5157   */\n      0x00\n        /* \"#utility.yul\":5176:5179   */\n      dup2\n        /* \"#utility.yul\":5168:5179   */\n      swap1\n      pop\n        /* \"#utility.yul\":5206:5210   */\n      0x20\n        /* \"#utility.yul\":5201:5204   */\n      dup3\n        /* \"#utility.yul\":5197:5211   */\n      add\n        /* \"#utility.yul\":5189:5211   */\n      swap1\n      pop\n        /* \"#utility.yul\":5076:5218   */\n      swap2\n      swap1\n      pop\n      jump\t// out\n        /* \"#utility.yul\":5224:5383   */\n    tag_373:\n        /* \"#utility.yul\":5298:5309   */\n      0x00\n        /* \"#utility.yul\":5332:5338   */\n      dup3\n        /* \"#utility.yul\":5327:5330   */\n      dup3\n        /* \"#utility.yul\":5320:5339   */\n      mstore\n        /* \"#utility.yul\":5372:5376   */\n      0x20\n        /* \"#utility.yul\":5367:5370   */\n      dup3\n        /* \"#utility.yul\":5363:5377   */\n      add\n        /* \"#utility.yul\":5348:5377   */\n      swap1\n      pop\n        /* \"#utility.yul\":5224:5383   */\n      swap3\n      swap2\n      pop\n      pop\n      jump\t// out\n        /* \"#utility.yul\":5389:5746   */\n    tag_374:\n        /* \"#utility.yul\":5467:5470   */\n      0x00\n        /* \"#utility.yul\":5495:5534   */\n      tag_481\n        /* \"#utility.yul\":5528:5533   */\n      dup3\n        /* \"#utility.yul\":5495:5534   */\n      tag_350\n      jump\t// in\n    tag_481:\n        /* \"#utility.yul\":5550:5611   */\n      tag_482\n        /* \"#utility.yul\":5604:5610   */\n      dup2\n        /* \"#utility.yul\":5599:5602   */\n      dup6\n        /* \"#utility.yul\":5550:5611   */\n      tag_373\n      jump\t// in\n    tag_482:\n        /* \"#utility.yul\":5543:5611   */\n      swap4\n      pop\n        /* \"#utility.yul\":5620:5685   */\n      tag_483\n        /* \"#utility.yul\":5678:5684   */\n      dup2\n        /* \"#utility.yul\":5673:5676   */\n      dup6\n        /* \"#utility.yul\":5666:5670   */\n      0x20\n        /* \"#utility.yul\":5659:5664   */\n      dup7\n        /* \"#utility.yul\":5655:5671   */\n      add\n        /* \"#utility.yul\":5620:5685   */\n      tag_352\n      jump\t// in\n    tag_483:\n        /* \"#utility.yul\":5710:5739   */\n      tag_484\n        /* \"#utility.yul\":5732:5738   */\n      dup2\n        /* \"#utility.yul\":5710:5739   */\n      tag_353\n      jump\t// in\n    tag_484:\n        /* \"#utility.yul\":5705:5708   */\n      dup5\n        /* \"#utility.yul\":5701:5740   */\n      add\n        /* \"#utility.yul\":5694:5740   */\n      swap2\n      pop\n        /* \"#utility.yul\":5471:5746   */\n      pop\n        /* \"#utility.yul\":5389:5746   */\n      swap3\n      swap2\n      pop\n      pop\n      jump\t// out\n        /* \"#utility.yul\":5752:5948   */\n    tag_375:\n        /* \"#utility.yul\":5841:5851   */\n      0x00\n        /* \"#utility.yul\":5876:5942   */\n      tag_486\n        /* \"#utility.yul\":5938:5941   */\n      dup4\n        /* \"#utility.yul\":5930:5936   */\n      dup4\n        /* \"#utility.yul\":5876:5942   */\n      tag_374\n      jump\t// in\n    tag_486:\n        /* \"#utility.yul\":5862:5942   */\n      swap1\n      pop\n        /* \"#utility.yul\":5752:5948   */\n      swap3\n      swap2\n      pop\n      pop\n      jump\t// out\n        /* \"#utility.yul\":5954:6077   */\n    tag_376:\n        /* \"#utility.yul\":6034:6038   */\n      0x00\n        /* \"#utility.yul\":6066:6070   */\n      0x20\n        /* \"#utility.yul\":6061:6064   */\n      dup3\n        /* \"#utility.yul\":6057:6071   */\n      add\n        /* \"#utility.yul\":6049:6071   */\n      swap1\n      pop\n        /* \"#utility.yul\":5954:6077   */\n      swap2\n      swap1\n      pop\n      jump\t// out\n        /* \"#utility.yul\":6111:7102   */\n    tag_377:\n        /* \"#utility.yul\":6250:6253   */\n      0x00\n        /* \"#utility.yul\":6279:6343   */\n      tag_489\n        /* \"#utility.yul\":6337:6342   */\n      dup3\n        /* \"#utility.yul\":6279:6343   */\n      tag_370\n      jump\t// in\n    tag_489:\n        /* \"#utility.yul\":6359:6455   */\n      tag_490\n        /* \"#utility.yul\":6448:6454   */\n      dup2\n        /* \"#utility.yul\":6443:6446   */\n      dup6\n        /* \"#utility.yul\":6359:6455   */\n      tag_371\n      jump\t// in\n    tag_490:\n        /* \"#utility.yul\":6352:6455   */\n      swap4\n      pop\n        /* \"#utility.yul\":6481:6484   */\n      dup4\n        /* \"#utility.yul\":6526:6530   */\n      0x20\n        /* \"#utility.yul\":6518:6524   */\n      dup3\n        /* \"#utility.yul\":6514:6531   */\n      mul\n        /* \"#utility.yul\":6509:6512   */\n      dup6\n        /* \"#utility.yul\":6505:6532   */\n      add\n        /* \"#utility.yul\":6556:6622   */\n      tag_491\n        /* \"#utility.yul\":6616:6621   */\n      dup6\n        /* \"#utility.yul\":6556:6622   */\n      tag_372\n      jump\t// in\n    tag_491:\n        /* \"#utility.yul\":6645:6652   */\n      dup1\n        /* \"#utility.yul\":6676:6677   */\n      0x00\n        /* \"#utility.yul\":6661:7057   */\n    tag_492:\n        /* \"#utility.yul\":6686:6692   */\n      dup6\n        /* \"#utility.yul\":6683:6684   */\n      dup2\n        /* \"#utility.yul\":6680:6693   */\n      lt\n        /* \"#utility.yul\":6661:7057   */\n      iszero\n      tag_494\n      jumpi\n        /* \"#utility.yul\":6757:6766   */\n      dup5\n        /* \"#utility.yul\":6751:6755   */\n      dup5\n        /* \"#utility.yul\":6747:6767   */\n      sub\n        /* \"#utility.yul\":6742:6745   */\n      dup10\n        /* \"#utility.yul\":6735:6768   */\n      mstore\n        /* \"#utility.yul\":6808:6814   */\n      dup2\n        /* \"#utility.yul\":6802:6815   */\n      mload\n        /* \"#utility.yul\":6836:6920   */\n      tag_495\n        /* \"#utility.yul\":6915:6919   */\n      dup6\n        /* \"#utility.yul\":6900:6913   */\n      dup3\n        /* \"#utility.yul\":6836:6920   */\n      tag_375\n      jump\t// in\n    tag_495:\n        /* \"#utility.yul\":6828:6920   */\n      swap5\n      pop\n        /* \"#utility.yul\":6943:7013   */\n      tag_496\n        /* \"#utility.yul\":7006:7012   */\n      dup4\n        /* \"#utility.yul\":6943:7013   */\n      tag_376\n      jump\t// in\n    tag_496:\n        /* \"#utility.yul\":6933:7013   */\n      swap3\n      pop\n        /* \"#utility.yul\":7042:7046   */\n      0x20\n        /* \"#utility.yul\":7037:7040   */\n      dup11\n        /* \"#utility.yul\":7033:7047   */\n      add\n        /* \"#utility.yul\":7026:7047   */\n      swap10\n      pop\n        /* \"#utility.yul\":6721:7057   */\n      pop\n        /* \"#utility.yul\":6708:6709   */\n      0x01\n        /* \"#utility.yul\":6705:6706   */\n      dup2\n        /* \"#utility.yul\":6701:6710   */\n      add\n        /* \"#utility.yul\":6696:6710   */\n      swap1\n      pop\n        /* \"#utility.yul\":6661:7057   */\n      jump(tag_492)\n    tag_494:\n        /* \"#utility.yul\":6665:6679   */\n      pop\n        /* \"#utility.yul\":7073:7077   */\n      dup3\n        /* \"#utility.yul\":7066:7077   */\n      swap8\n      pop\n        /* \"#utility.yul\":7093:7096   */\n      dup8\n        /* \"#utility.yul\":7086:7096   */\n      swap6\n      pop\n        /* \"#utility.yul\":6255:7102   */\n      pop\n      pop\n      pop\n      pop\n      pop\n        /* \"#utility.yul\":6111:7102   */\n      swap3\n      swap2\n      pop\n      pop\n      jump\t// out\n        /* \"#utility.yul\":7108:7521   */\n    tag_62:\n        /* \"#utility.yul\":7271:7275   */\n      0x00\n        /* \"#utility.yul\":7309:7311   */\n      0x20\n        /* \"#utility.yul\":7298:7307   */\n      dup3\n        /* \"#utility.yul\":7294:7312   */\n      add\n        /* \"#utility.yul\":7286:7312   */\n      swap1\n      pop\n        /* \"#utility.yul\":7358:7367   */\n      dup2\n        /* \"#utility.yul\":7352:7356   */\n      dup2\n        /* \"#utility.yul\":7348:7368   */\n      sub\n        /* \"#utility.yul\":7344:7345   */\n      0x00\n        /* \"#utility.yul\":7333:7342   */\n      dup4\n        /* \"#utility.yul\":7329:7346   */\n      add\n        /* \"#utility.yul\":7322:7369   */\n      mstore\n        /* \"#utility.yul\":7386:7514   */\n      tag_498\n        /* \"#utility.yul\":7509:7513   */\n      dup2\n        /* \"#utility.yul\":7500:7506   */\n      dup5\n        /* \"#utility.yul\":7386:7514   */\n      tag_377\n      jump\t// in\n    tag_498:\n        /* \"#utility.yul\":7378:7514   */\n      swap1\n      pop\n        /* \"#utility.yul\":7108:7521   */\n      swap3\n      swap2\n      pop\n      pop\n      jump\t// out\n        /* \"#utility.yul\":7527:7856   */\n    tag_68:\n        /* \"#utility.yul\":7586:7592   */\n      0x00\n        /* \"#utility.yul\":7635:7637   */\n      0x20\n        /* \"#utility.yul\":7623:7632   */\n      dup3\n        /* \"#utility.yul\":7614:7621   */\n      dup5\n        /* \"#utility.yul\":7610:7633   */\n      sub\n        /* \"#utility.yul\":7606:7638   */\n      slt\n        /* \"#utility.yul\":7603:7722   */\n      iszero\n      tag_500\n      jumpi\n        /* \"#utility.yul\":7641:7720   */\n      tag_501\n      tag_356\n      jump\t// in\n    tag_501:\n        /* \"#utility.yul\":7603:7722   */\n    tag_500:\n        /* \"#utility.yul\":7761:7762   */\n      0x00\n        /* \"#utility.yul\":7786:7839   */\n      tag_502\n        /* \"#utility.yul\":7831:7838   */\n      dup5\n        /* \"#utility.yul\":7822:7828   */\n      dup3\n        /* \"#utility.yul\":7811:7820   */\n      dup6\n        /* \"#utility.yul\":7807:7829   */\n      add\n        /* \"#utility.yul\":7786:7839   */\n      tag_364\n      jump\t// in\n    tag_502:\n        /* \"#utility.yul\":7776:7839   */\n      swap2\n      pop\n        /* \"#utility.yul\":7732:7849   */\n      pop\n        /* \"#utility.yul\":7527:7856   */\n      swap3\n      swap2\n      pop\n      pop\n      jump\t// out\n        /* \"#utility.yul\":7862:8191   */\n    tag_72:\n        /* \"#utility.yul\":7921:7927   */\n      0x00\n        /* \"#utility.yul\":7970:7972   */\n      0x20\n        /* \"#utility.yul\":7958:7967   */\n      dup3\n        /* \"#utility.yul\":7949:7956   */\n      dup5\n        /* \"#utility.yul\":7945:7968   */\n      sub\n        /* \"#utility.yul\":7941:7973   */\n      slt\n        /* \"#utility.yul\":7938:8057   */\n      iszero\n      tag_504\n      jumpi\n        /* \"#utility.yul\":7976:8055   */\n      tag_505\n      tag_356\n      jump\t// in\n    tag_505:\n        /* \"#utility.yul\":7938:8057   */\n    tag_504:\n        /* \"#utility.yul\":8096:8097   */\n      0x00\n        /* \"#utility.yul\":8121:8174   */\n      tag_506\n        /* \"#utility.yul\":8166:8173   */\n      dup5\n        /* \"#utility.yul\":8157:8163   */\n      dup3\n        /* \"#utility.yul\":8146:8155   */\n      dup6\n        /* \"#utility.yul\":8142:8164   */\n      add\n        /* \"#utility.yul\":8121:8174   */\n      tag_361\n      jump\t// in\n    tag_506:\n        /* \"#utility.yul\":8111:8174   */\n      swap2\n      pop\n        /* \"#utility.yul\":8067:8184   */\n      pop\n        /* \"#utility.yul\":7862:8191   */\n      swap3\n      swap2\n      pop\n      pop\n      jump\t// out\n        /* \"#utility.yul\":8197:8315   */\n    tag_378:\n        /* \"#utility.yul\":8284:8308   */\n      tag_508\n        /* \"#utility.yul\":8302:8307   */\n      dup2\n        /* \"#utility.yul\":8284:8308   */\n      tag_359\n      jump\t// in\n    tag_508:\n        /* \"#utility.yul\":8279:8282   */\n      dup3\n        /* \"#utility.yul\":8272:8309   */\n      mstore\n        /* \"#utility.yul\":8197:8315   */\n      pop\n      pop\n      jump\t// out\n        /* \"#utility.yul\":8321:8543   */\n    tag_80:\n        /* \"#utility.yul\":8414:8418   */\n      0x00\n        /* \"#utility.yul\":8452:8454   */\n      0x20\n        /* \"#utility.yul\":8441:8450   */\n      dup3\n        /* \"#utility.yul\":8437:8455   */\n      add\n        /* \"#utility.yul\":8429:8455   */\n      swap1\n      pop\n        /* \"#utility.yul\":8465:8536   */\n      tag_510\n        /* \"#utility.yul\":8533:8534   */\n      0x00\n        /* \"#utility.yul\":8522:8531   */\n      dup4\n        /* \"#utility.yul\":8518:8535   */\n      add\n        /* \"#utility.yul\":8509:8515   */\n      dup5\n        /* \"#utility.yul\":8465:8536   */\n      tag_378\n      jump\t// in\n    tag_510:\n        /* \"#utility.yul\":8321:8543   */\n      swap3\n      swap2\n      pop\n      pop\n      jump\t// out\n        /* \"#utility.yul\":8549:9082   */\n    tag_102:\n        /* \"#utility.yul\":8718:8722   */\n      0x00\n        /* \"#utility.yul\":8756:8758   */\n      0x60\n        /* \"#utility.yul\":8745:8754   */\n      dup3\n        /* \"#utility.yul\":8741:8759   */\n      add\n        /* \"#utility.yul\":8733:8759   */\n      swap1\n      pop\n        /* \"#utility.yul\":8769:8840   */\n      tag_512\n        /* \"#utility.yul\":8837:8838   */\n      0x00\n        /* \"#utility.yul\":8826:8835   */\n      dup4\n        /* \"#utility.yul\":8822:8839   */\n      add\n        /* \"#utility.yul\":8813:8819   */\n      dup7\n        /* \"#utility.yul\":8769:8840   */\n      tag_367\n      jump\t// in\n    tag_512:\n        /* \"#utility.yul\":8887:8896   */\n      dup2\n        /* \"#utility.yul\":8881:8885   */\n      dup2\n        /* \"#utility.yul\":8877:8897   */\n      sub\n        /* \"#utility.yul\":8872:8874   */\n      0x20\n        /* \"#utility.yul\":8861:8870   */\n      dup4\n        /* \"#utility.yul\":8857:8875   */\n      add\n        /* \"#utility.yul\":8850:8898   */\n      mstore\n        /* \"#utility.yul\":8915:8993   */\n      tag_513\n        /* \"#utility.yul\":8988:8992   */\n      dup2\n        /* \"#utility.yul\":8979:8985   */\n      dup6\n        /* \"#utility.yul\":8915:8993   */\n      tag_354\n      jump\t// in\n    tag_513:\n        /* \"#utility.yul\":8907:8993   */\n      swap1\n      pop\n        /* \"#utility.yul\":9003:9075   */\n      tag_514\n        /* \"#utility.yul\":9071:9073   */\n      0x40\n        /* \"#utility.yul\":9060:9069   */\n      dup4\n        /* \"#utility.yul\":9056:9074   */\n      add\n        /* \"#utility.yul\":9047:9053   */\n      dup5\n        /* \"#utility.yul\":9003:9075   */\n      tag_367\n      jump\t// in\n    tag_514:\n        /* \"#utility.yul\":8549:9082   */\n      swap5\n      swap4\n      pop\n      pop\n      pop\n      pop\n      jump\t// out\n        /* \"#utility.yul\":9088:9562   */\n    tag_112:\n        /* \"#utility.yul\":9156:9162   */\n      0x00\n        /* \"#utility.yul\":9164:9170   */\n      dup1\n        /* \"#utility.yul\":9213:9215   */\n      0x40\n        /* \"#utility.yul\":9201:9210   */\n      dup4\n        /* \"#utility.yul\":9192:9199   */\n      dup6\n        /* \"#utility.yul\":9188:9211   */\n      sub\n        /* \"#utility.yul\":9184:9216   */\n      slt\n        /* \"#utility.yul\":9181:9300   */\n      iszero\n      tag_516\n      jumpi\n        /* \"#utility.yul\":9219:9298   */\n      tag_517\n      tag_356\n      jump\t// in\n    tag_517:\n        /* \"#utility.yul\":9181:9300   */\n    tag_516:\n        /* \"#utility.yul\":9339:9340   */\n      0x00\n        /* \"#utility.yul\":9364:9417   */\n      tag_518\n        /* \"#utility.yul\":9409:9416   */\n      dup6\n        /* \"#utility.yul\":9400:9406   */\n      dup3\n        /* \"#utility.yul\":9389:9398   */\n      dup7\n        /* \"#utility.yul\":9385:9407   */\n      add\n        /* \"#utility.yul\":9364:9417   */\n      tag_361\n      jump\t// in\n    tag_518:\n        /* \"#utility.yul\":9354:9417   */\n      swap3\n      pop\n        /* \"#utility.yul\":9310:9427   */\n      pop\n        /* \"#utility.yul\":9466:9468   */\n      0x20\n        /* \"#utility.yul\":9492:9545   */\n      tag_519\n        /* \"#utility.yul\":9537:9544   */\n      dup6\n        /* \"#utility.yul\":9528:9534   */\n      dup3\n        /* \"#utility.yul\":9517:9526   */\n      dup7\n        /* \"#utility.yul\":9513:9535   */\n      add\n        /* \"#utility.yul\":9492:9545   */\n      tag_361\n      jump\t// in\n    tag_519:\n        /* \"#utility.yul\":9482:9545   */\n      swap2\n      pop\n        /* \"#utility.yul\":9437:9555   */\n      pop\n        /* \"#utility.yul\":9088:9562   */\n      swap3\n      pop\n      swap3\n      swap1\n      pop\n      jump\t// out\n        /* \"#utility.yul\":9568:9748   */\n    tag_379:\n        /* \"#utility.yul\":9616:9693   */\n      0x4e487b7100000000000000000000000000000000000000000000000000000000\n        /* \"#utility.yul\":9613:9614   */\n      0x00\n        /* \"#utility.yul\":9606:9694   */\n      mstore\n        /* \"#utility.yul\":9713:9717   */\n      0x22\n        /* \"#utility.yul\":9710:9711   */\n      0x04\n        /* \"#utility.yul\":9703:9718   */\n      mstore\n        /* \"#utility.yul\":9737:9741   */\n      0x24\n        /* \"#utility.yul\":9734:9735   */\n      0x00\n        /* \"#utility.yul\":9727:9742   */\n      revert\n        /* \"#utility.yul\":9754:10074   */\n    tag_129:\n        /* \"#utility.yul\":9798:9804   */\n      0x00\n        /* \"#utility.yul\":9835:9836   */\n      0x02\n        /* \"#utility.yul\":9829:9833   */\n      dup3\n        /* \"#utility.yul\":9825:9837   */\n      div\n        /* \"#utility.yul\":9815:9837   */\n      swap1\n      pop\n        /* \"#utility.yul\":9882:9883   */\n      0x01\n        /* \"#utility.yul\":9876:9880   */\n      dup3\n        /* \"#utility.yul\":9872:9884   */\n      and\n        /* \"#utility.yul\":9903:9921   */\n      dup1\n        /* \"#utility.yul\":9893:9974   */\n      tag_522\n      jumpi\n        /* \"#utility.yul\":9959:9963   */\n      0x7f\n        /* \"#utility.yul\":9951:9957   */\n      dup3\n        /* \"#utility.yul\":9947:9964   */\n      and\n        /* \"#utility.yul\":9937:9964   */\n      swap2\n      pop\n        /* \"#utility.yul\":9893:9974   */\n    tag_522:\n        /* \"#utility.yul\":10021:10023   */\n      0x20\n        /* \"#utility.yul\":10013:10019   */\n      dup3\n        /* \"#utility.yul\":10010:10024   */\n      lt\n        /* \"#utility.yul\":9990:10008   */\n      dup2\n        /* \"#utility.yul\":9987:10025   */\n      sub\n        /* \"#utility.yul\":9984:10068   */\n      tag_523\n      jumpi\n        /* \"#utility.yul\":10040:10058   */\n      tag_524\n      tag_379\n      jump\t// in\n    tag_524:\n        /* \"#utility.yul\":9984:10068   */\n    tag_523:\n        /* \"#utility.yul\":9805:10074   */\n      pop\n        /* \"#utility.yul\":9754:10074   */\n      swap2\n      swap1\n      pop\n      jump\t// out\n        /* \"#utility.yul\":10080:10260   */\n    tag_380:\n        /* \"#utility.yul\":10128:10205   */\n      0x4e487b7100000000000000000000000000000000000000000000000000000000\n        /* \"#utility.yul\":10125:10126   */\n      0x00\n        /* \"#utility.yul\":10118:10206   */\n      mstore\n        /* \"#utility.yul\":10225:10229   */\n      0x11\n        /* \"#utility.yul\":10222:10223   */\n      0x04\n        /* \"#utility.yul\":10215:10230   */\n      mstore\n        /* \"#utility.yul\":10249:10253   */\n      0x24\n        /* \"#utility.yul\":10246:10247   */\n      0x00\n        /* \"#utility.yul\":10239:10254   */\n      revert\n        /* \"#utility.yul\":10266:10457   */\n    tag_152:\n        /* \"#utility.yul\":10306:10309   */\n      0x00\n        /* \"#utility.yul\":10325:10345   */\n      tag_527\n        /* \"#utility.yul\":10343:10344   */\n      dup3\n        /* \"#utility.yul\":10325:10345   */\n      tag_362\n      jump\t// in\n    tag_527:\n        /* \"#utility.yul\":10320:10345   */\n      swap2\n      pop\n        /* \"#utility.yul\":10359:10379   */\n      tag_528\n        /* \"#utility.yul\":10377:10378   */\n      dup4\n        /* \"#utility.yul\":10359:10379   */\n      tag_362\n      jump\t// in\n    tag_528:\n        /* \"#utility.yul\":10354:10379   */\n      swap3\n      pop\n        /* \"#utility.yul\":10402:10403   */\n      dup3\n        /* \"#utility.yul\":10399:10400   */\n      dup3\n        /* \"#utility.yul\":10395:10404   */\n      add\n        /* \"#utility.yul\":10388:10404   */\n      swap1\n      pop\n        /* \"#utility.yul\":10423:10426   */\n      dup1\n        /* \"#utility.yul\":10420:10421   */\n      dup3\n        /* \"#utility.yul\":10417:10427   */\n      gt\n        /* \"#utility.yul\":10414:10450   */\n      iszero\n      tag_529\n      jumpi\n        /* \"#utility.yul\":10430:10448   */\n      tag_530\n      tag_380\n      jump\t// in\n    tag_530:\n        /* \"#utility.yul\":10414:10450   */\n    tag_529:\n        /* \"#utility.yul\":10266:10457   */\n      swap3\n      swap2\n      pop\n      pop\n      jump\t// out\n        /* \"#utility.yul\":10463:10643   */\n    tag_158:\n        /* \"#utility.yul\":10511:10588   */\n      0x4e487b7100000000000000000000000000000000000000000000000000000000\n        /* \"#utility.yul\":10508:10509   */\n      0x00\n        /* \"#utility.yul\":10501:10589   */\n      mstore\n        /* \"#utility.yul\":10608:10612   */\n      0x41\n        /* \"#utility.yul\":10605:10606   */\n      0x04\n        /* \"#utility.yul\":10598:10613   */\n      mstore\n        /* \"#utility.yul\":10632:10636   */\n      0x24\n        /* \"#utility.yul\":10629:10630   */\n      0x00\n        /* \"#utility.yul\":10622:10637   */\n      revert\n        /* \"#utility.yul\":10649:10829   */\n    tag_166:\n        /* \"#utility.yul\":10697:10774   */\n      0x4e487b7100000000000000000000000000000000000000000000000000000000\n        /* \"#utility.yul\":10694:10695   */\n      0x00\n        /* \"#utility.yul\":10687:10775   */\n      mstore\n        /* \"#utility.yul\":10794:10798   */\n      0x32\n        /* \"#utility.yul\":10791:10792   */\n      0x04\n        /* \"#utility.yul\":10784:10799   */\n      mstore\n        /* \"#utility.yul\":10818:10822   */\n      0x24\n        /* \"#utility.yul\":10815:10816   */\n      0x00\n        /* \"#utility.yul\":10808:10823   */\n      revert\n        /* \"#utility.yul\":10835:11068   */\n    tag_381:\n        /* \"#utility.yul\":10975:11009   */\n      0x596f752063616e6e6f74206275726e206d6f7265207468616e20796f75722063\n        /* \"#utility.yul\":10971:10972   */\n      0x00\n        /* \"#utility.yul\":10963:10969   */\n      dup3\n        /* \"#utility.yul\":10959:10973   */\n      add\n        /* \"#utility.yul\":10952:11010   */\n      mstore\n        /* \"#utility.yul\":11044:11060   */\n      0x757272656e742062616c616e6365000000000000000000000000000000000000\n        /* \"#utility.yul\":11039:11041   */\n      0x20\n        /* \"#utility.yul\":11031:11037   */\n      dup3\n        /* \"#utility.yul\":11027:11042   */\n      add\n        /* \"#utility.yul\":11020:11061   */\n      mstore\n        /* \"#utility.yul\":10835:11068   */\n      pop\n      jump\t// out\n        /* \"#utility.yul\":11074:11440   */\n    tag_382:\n        /* \"#utility.yul\":11216:11219   */\n      0x00\n        /* \"#utility.yul\":11237:11304   */\n      tag_535\n        /* \"#utility.yul\":11301:11303   */\n      0x2e\n        /* \"#utility.yul\":11296:11299   */\n      dup4\n        /* \"#utility.yul\":11237:11304   */\n      tag_351\n      jump\t// in\n    tag_535:\n        /* \"#utility.yul\":11230:11304   */\n      swap2\n      pop\n        /* \"#utility.yul\":11313:11406   */\n      tag_536\n        /* \"#utility.yul\":11402:11405   */\n      dup3\n        /* \"#utility.yul\":11313:11406   */\n      tag_381\n      jump\t// in\n    tag_536:\n        /* \"#utility.yul\":11431:11433   */\n      0x40\n        /* \"#utility.yul\":11426:11429   */\n      dup3\n        /* \"#utility.yul\":11422:11434   */\n      add\n        /* \"#utility.yul\":11415:11434   */\n      swap1\n      pop\n        /* \"#utility.yul\":11074:11440   */\n      swap2\n      swap1\n      pop\n      jump\t// out\n        /* \"#utility.yul\":11446:11865   */\n    tag_178:\n        /* \"#utility.yul\":11612:11616   */\n      0x00\n        /* \"#utility.yul\":11650:11652   */\n      0x20\n        /* \"#utility.yul\":11639:11648   */\n      dup3\n        /* \"#utility.yul\":11635:11653   */\n      add\n        /* \"#utility.yul\":11627:11653   */\n      swap1\n      pop\n        /* \"#utility.yul\":11699:11708   */\n      dup2\n        /* \"#utility.yul\":11693:11697   */\n      dup2\n        /* \"#utility.yul\":11689:11709   */\n      sub\n        /* \"#utility.yul\":11685:11686   */\n      0x00\n        /* \"#utility.yul\":11674:11683   */\n      dup4\n        /* \"#utility.yul\":11670:11687   */\n      add\n        /* \"#utility.yul\":11663:11710   */\n      mstore\n        /* \"#utility.yul\":11727:11858   */\n      tag_538\n        /* \"#utility.yul\":11853:11857   */\n      dup2\n        /* \"#utility.yul\":11727:11858   */\n      tag_382\n      jump\t// in\n    tag_538:\n        /* \"#utility.yul\":11719:11858   */\n      swap1\n      pop\n        /* \"#utility.yul\":11446:11865   */\n      swap2\n      swap1\n      pop\n      jump\t// out\n        /* \"#utility.yul\":11871:12095   */\n    tag_383:\n        /* \"#utility.yul\":12011:12045   */\n      0x45524332303a2064656372656173656420616c6c6f77616e63652062656c6f77\n        /* \"#utility.yul\":12007:12008   */\n      0x00\n        /* \"#utility.yul\":11999:12005   */\n      dup3\n        /* \"#utility.yul\":11995:12009   */\n      add\n        /* \"#utility.yul\":11988:12046   */\n      mstore\n        /* \"#utility.yul\":12080:12087   */\n      0x207a65726f000000000000000000000000000000000000000000000000000000\n        /* \"#utility.yul\":12075:12077   */\n      0x20\n        /* \"#utility.yul\":12067:12073   */\n      dup3\n        /* \"#utility.yul\":12063:12078   */\n      add\n        /* \"#utility.yul\":12056:12088   */\n      mstore\n        /* \"#utility.yul\":11871:12095   */\n      pop\n      jump\t// out\n        /* \"#utility.yul\":12101:12467   */\n    tag_384:\n        /* \"#utility.yul\":12243:12246   */\n      0x00\n        /* \"#utility.yul\":12264:12331   */\n      tag_541\n        /* \"#utility.yul\":12328:12330   */\n      0x25\n        /* \"#utility.yul\":12323:12326   */\n      dup4\n        /* \"#utility.yul\":12264:12331   */\n      tag_351\n      jump\t// in\n    tag_541:\n        /* \"#utility.yul\":12257:12331   */\n      swap2\n      pop\n        /* \"#utility.yul\":12340:12433   */\n      tag_542\n        /* \"#utility.yul\":12429:12432   */\n      dup3\n        /* \"#utility.yul\":12340:12433   */\n      tag_383\n      jump\t// in\n    tag_542:\n        /* \"#utility.yul\":12458:12460   */\n      0x40\n        /* \"#utility.yul\":12453:12456   */\n      dup3\n        /* \"#utility.yul\":12449:12461   */\n      add\n        /* \"#utility.yul\":12442:12461   */\n      swap1\n      pop\n        /* \"#utility.yul\":12101:12467   */\n      swap2\n      swap1\n      pop\n      jump\t// out\n        /* \"#utility.yul\":12473:12892   */\n    tag_200:\n        /* \"#utility.yul\":12639:12643   */\n      0x00\n        /* \"#utility.yul\":12677:12679   */\n      0x20\n        /* \"#utility.yul\":12666:12675   */\n      dup3\n        /* \"#utility.yul\":12662:12680   */\n      add\n        /* \"#utility.yul\":12654:12680   */\n      swap1\n      pop\n        /* \"#utility.yul\":12726:12735   */\n      dup2\n        /* \"#utility.yul\":12720:12724   */\n      dup2\n        /* \"#utility.yul\":12716:12736   */\n      sub\n        /* \"#utility.yul\":12712:12713   */\n      0x00\n        /* \"#utility.yul\":12701:12710   */\n      dup4\n        /* \"#utility.yul\":12697:12714   */\n      add\n        /* \"#utility.yul\":12690:12737   */\n      mstore\n        /* \"#utility.yul\":12754:12885   */\n      tag_544\n        /* \"#utility.yul\":12880:12884   */\n      dup2\n        /* \"#utility.yul\":12754:12885   */\n      tag_384\n      jump\t// in\n    tag_544:\n        /* \"#utility.yul\":12746:12885   */\n      swap1\n      pop\n        /* \"#utility.yul\":12473:12892   */\n      swap2\n      swap1\n      pop\n      jump\t// out\n        /* \"#utility.yul\":12898:13132   */\n    tag_385:\n        /* \"#utility.yul\":13038:13072   */\n      0x596f752063616e6e6f74206275726e206d6f7265207468616e20746865206176\n        /* \"#utility.yul\":13034:13035   */\n      0x00\n        /* \"#utility.yul\":13026:13032   */\n      dup3\n        /* \"#utility.yul\":13022:13036   */\n      add\n        /* \"#utility.yul\":13015:13073   */\n      mstore\n        /* \"#utility.yul\":13107:13124   */\n      0x61696c61626c652062616c616e63650000000000000000000000000000000000\n        /* \"#utility.yul\":13102:13104   */\n      0x20\n        /* \"#utility.yul\":13094:13100   */\n      dup3\n        /* \"#utility.yul\":13090:13105   */\n      add\n        /* \"#utility.yul\":13083:13125   */\n      mstore\n        /* \"#utility.yul\":12898:13132   */\n      pop\n      jump\t// out\n        /* \"#utility.yul\":13138:13504   */\n    tag_386:\n        /* \"#utility.yul\":13280:13283   */\n      0x00\n        /* \"#utility.yul\":13301:13368   */\n      tag_547\n        /* \"#utility.yul\":13365:13367   */\n      0x2f\n        /* \"#utility.yul\":13360:13363   */\n      dup4\n        /* \"#utility.yul\":13301:13368   */\n      tag_351\n      jump\t// in\n    tag_547:\n        /* \"#utility.yul\":13294:13368   */\n      swap2\n      pop\n        /* \"#utility.yul\":13377:13470   */\n      tag_548\n        /* \"#utility.yul\":13466:13469   */\n      dup3\n        /* \"#utility.yul\":13377:13470   */\n      tag_385\n      jump\t// in\n    tag_548:\n        /* \"#utility.yul\":13495:13497   */\n      0x40\n        /* \"#utility.yul\":13490:13493   */\n      dup3\n        /* \"#utility.yul\":13486:13498   */\n      add\n        /* \"#utility.yul\":13479:13498   */\n      swap1\n      pop\n        /* \"#utility.yul\":13138:13504   */\n      swap2\n      swap1\n      pop\n      jump\t// out\n        /* \"#utility.yul\":13510:13929   */\n    tag_208:\n        /* \"#utility.yul\":13676:13680   */\n      0x00\n        /* \"#utility.yul\":13714:13716   */\n      0x20\n        /* \"#utility.yul\":13703:13712   */\n      dup3\n        /* \"#utility.yul\":13699:13717   */\n      add\n        /* \"#utility.yul\":13691:13717   */\n      swap1\n      pop\n        /* \"#utility.yul\":13763:13772   */\n      dup2\n        /* \"#utility.yul\":13757:13761   */\n      dup2\n        /* \"#utility.yul\":13753:13773   */\n      sub\n        /* \"#utility.yul\":13749:13750   */\n      0x00\n        /* \"#utility.yul\":13738:13747   */\n      dup4\n        /* \"#utility.yul\":13734:13751   */\n      add\n        /* \"#utility.yul\":13727:13774   */\n      mstore\n        /* \"#utility.yul\":13791:13922   */\n      tag_550\n        /* \"#utility.yul\":13917:13921   */\n      dup2\n        /* \"#utility.yul\":13791:13922   */\n      tag_386\n      jump\t// in\n    tag_550:\n        /* \"#utility.yul\":13783:13922   */\n      swap1\n      pop\n        /* \"#utility.yul\":13510:13929   */\n      swap2\n      swap1\n      pop\n      jump\t// out\n        /* \"#utility.yul\":13935:14157   */\n    tag_387:\n        /* \"#utility.yul\":14075:14109   */\n      0x596f7520646f206e6f74206861766520656e6f75676820446567656e20546f6b\n        /* \"#utility.yul\":14071:14072   */\n      0x00\n        /* \"#utility.yul\":14063:14069   */\n      dup3\n        /* \"#utility.yul\":14059:14073   */\n      add\n        /* \"#utility.yul\":14052:14110   */\n      mstore\n        /* \"#utility.yul\":14144:14149   */\n      0x656e730000000000000000000000000000000000000000000000000000000000\n        /* \"#utility.yul\":14139:14141   */\n      0x20\n        /* \"#utility.yul\":14131:14137   */\n      dup3\n        /* \"#utility.yul\":14127:14142   */\n      add\n        /* \"#utility.yul\":14120:14150   */\n      mstore\n        /* \"#utility.yul\":13935:14157   */\n      pop\n      jump\t// out\n        /* \"#utility.yul\":14163:14529   */\n    tag_388:\n        /* \"#utility.yul\":14305:14308   */\n      0x00\n        /* \"#utility.yul\":14326:14393   */\n      tag_553\n        /* \"#utility.yul\":14390:14392   */\n      0x23\n        /* \"#utility.yul\":14385:14388   */\n      dup4\n        /* \"#utility.yul\":14326:14393   */\n      tag_351\n      jump\t// in\n    tag_553:\n        /* \"#utility.yul\":14319:14393   */\n      swap2\n      pop\n        /* \"#utility.yul\":14402:14495   */\n      tag_554\n        /* \"#utility.yul\":14491:14494   */\n      dup3\n        /* \"#utility.yul\":14402:14495   */\n      tag_387\n      jump\t// in\n    tag_554:\n        /* \"#utility.yul\":14520:14522   */\n      0x40\n        /* \"#utility.yul\":14515:14518   */\n      dup3\n        /* \"#utility.yul\":14511:14523   */\n      add\n        /* \"#utility.yul\":14504:14523   */\n      swap1\n      pop\n        /* \"#utility.yul\":14163:14529   */\n      swap2\n      swap1\n      pop\n      jump\t// out\n        /* \"#utility.yul\":14535:14954   */\n    tag_217:\n        /* \"#utility.yul\":14701:14705   */\n      0x00\n        /* \"#utility.yul\":14739:14741   */\n      0x20\n        /* \"#utility.yul\":14728:14737   */\n      dup3\n        /* \"#utility.yul\":14724:14742   */\n      add\n        /* \"#utility.yul\":14716:14742   */\n      swap1\n      pop\n        /* \"#utility.yul\":14788:14797   */\n      dup2\n        /* \"#utility.yul\":14782:14786   */\n      dup2\n        /* \"#utility.yul\":14778:14798   */\n      sub\n        /* \"#utility.yul\":14774:14775   */\n      0x00\n        /* \"#utility.yul\":14763:14772   */\n      dup4\n        /* \"#utility.yul\":14759:14776   */\n      add\n        /* \"#utility.yul\":14752:14799   */\n      mstore\n        /* \"#utility.yul\":14816:14947   */\n      tag_556\n        /* \"#utility.yul\":14942:14946   */\n      dup2\n        /* \"#utility.yul\":14816:14947   */\n      tag_388\n      jump\t// in\n    tag_556:\n        /* \"#utility.yul\":14808:14947   */\n      swap1\n      pop\n        /* \"#utility.yul\":14535:14954   */\n      swap2\n      swap1\n      pop\n      jump\t// out\n        /* \"#utility.yul\":14960:15185   */\n    tag_389:\n        /* \"#utility.yul\":15100:15134   */\n      0x4f776e61626c653a206e6577206f776e657220697320746865207a65726f2061\n        /* \"#utility.yul\":15096:15097   */\n      0x00\n        /* \"#utility.yul\":15088:15094   */\n      dup3\n        /* \"#utility.yul\":15084:15098   */\n      add\n        /* \"#utility.yul\":15077:15135   */\n      mstore\n        /* \"#utility.yul\":15169:15177   */\n      0x6464726573730000000000000000000000000000000000000000000000000000\n        /* \"#utility.yul\":15164:15166   */\n      0x20\n        /* \"#utility.yul\":15156:15162   */\n      dup3\n        /* \"#utility.yul\":15152:15167   */\n      add\n        /* \"#utility.yul\":15145:15178   */\n      mstore\n        /* \"#utility.yul\":14960:15185   */\n      pop\n      jump\t// out\n        /* \"#utility.yul\":15191:15557   */\n    tag_390:\n        /* \"#utility.yul\":15333:15336   */\n      0x00\n        /* \"#utility.yul\":15354:15421   */\n      tag_559\n        /* \"#utility.yul\":15418:15420   */\n      0x26\n        /* \"#utility.yul\":15413:15416   */\n      dup4\n        /* \"#utility.yul\":15354:15421   */\n      tag_351\n      jump\t// in\n    tag_559:\n        /* \"#utility.yul\":15347:15421   */\n      swap2\n      pop\n        /* \"#utility.yul\":15430:15523   */\n      tag_560\n        /* \"#utility.yul\":15519:15522   */\n      dup3\n        /* \"#utility.yul\":15430:15523   */\n      tag_389\n      jump\t// in\n    tag_560:\n        /* \"#utility.yul\":15548:15550   */\n      0x40\n        /* \"#utility.yul\":15543:15546   */\n      dup3\n        /* \"#utility.yul\":15539:15551   */\n      add\n        /* \"#utility.yul\":15532:15551   */\n      swap1\n      pop\n        /* \"#utility.yul\":15191:15557   */\n      swap2\n      swap1\n      pop\n      jump\t// out\n        /* \"#utility.yul\":15563:15982   */\n    tag_251:\n        /* \"#utility.yul\":15729:15733   */\n      0x00\n        /* \"#utility.yul\":15767:15769   */\n      0x20\n        /* \"#utility.yul\":15756:15765   */\n      dup3\n        /* \"#utility.yul\":15752:15770   */\n      add\n        /* \"#utility.yul\":15744:15770   */\n      swap1\n      pop\n        /* \"#utility.yul\":15816:15825   */\n      dup2\n        /* \"#utility.yul\":15810:15814   */\n      dup2\n        /* \"#utility.yul\":15806:15826   */\n      sub\n        /* \"#utility.yul\":15802:15803   */\n      0x00\n        /* \"#utility.yul\":15791:15800   */\n      dup4\n        /* \"#utility.yul\":15787:15804   */\n      add\n        /* \"#utility.yul\":15780:15827   */\n      mstore\n        /* \"#utility.yul\":15844:15975   */\n      tag_562\n        /* \"#utility.yul\":15970:15974   */\n      dup2\n        /* \"#utility.yul\":15844:15975   */\n      tag_390\n      jump\t// in\n    tag_562:\n        /* \"#utility.yul\":15836:15975   */\n      swap1\n      pop\n        /* \"#utility.yul\":15563:15982   */\n      swap2\n      swap1\n      pop\n      jump\t// out\n        /* \"#utility.yul\":15988:16136   */\n    tag_391:\n        /* \"#utility.yul\":16090:16101   */\n      0x00\n        /* \"#utility.yul\":16127:16130   */\n      dup2\n        /* \"#utility.yul\":16112:16130   */\n      swap1\n      pop\n        /* \"#utility.yul\":15988:16136   */\n      swap3\n      swap2\n      pop\n      pop\n      jump\t// out\n        /* \"#utility.yul\":16142:16532   */\n    tag_392:\n        /* \"#utility.yul\":16248:16251   */\n      0x00\n        /* \"#utility.yul\":16276:16315   */\n      tag_565\n        /* \"#utility.yul\":16309:16314   */\n      dup3\n        /* \"#utility.yul\":16276:16315   */\n      tag_350\n      jump\t// in\n    tag_565:\n        /* \"#utility.yul\":16331:16420   */\n      tag_566\n        /* \"#utility.yul\":16413:16419   */\n      dup2\n        /* \"#utility.yul\":16408:16411   */\n      dup6\n        /* \"#utility.yul\":16331:16420   */\n      tag_391\n      jump\t// in\n    tag_566:\n        /* \"#utility.yul\":16324:16420   */\n      swap4\n      pop\n        /* \"#utility.yul\":16429:16494   */\n      tag_567\n        /* \"#utility.yul\":16487:16493   */\n      dup2\n        /* \"#utility.yul\":16482:16485   */\n      dup6\n        /* \"#utility.yul\":16475:16479   */\n      0x20\n        /* \"#utility.yul\":16468:16473   */\n      dup7\n        /* \"#utility.yul\":16464:16480   */\n      add\n        /* \"#utility.yul\":16429:16494   */\n      tag_352\n      jump\t// in\n    tag_567:\n        /* \"#utility.yul\":16519:16525   */\n      dup1\n        /* \"#utility.yul\":16514:16517   */\n      dup5\n        /* \"#utility.yul\":16510:16526   */\n      add\n        /* \"#utility.yul\":16503:16526   */\n      swap2\n      pop\n        /* \"#utility.yul\":16252:16532   */\n      pop\n        /* \"#utility.yul\":16142:16532   */\n      swap3\n      swap2\n      pop\n      pop\n      jump\t// out\n        /* \"#utility.yul\":16538:16692   */\n    tag_393:\n        /* \"#utility.yul\":16678:16684   */\n      0x49443a2000000000000000000000000000000000000000000000000000000000\n        /* \"#utility.yul\":16674:16675   */\n      0x00\n        /* \"#utility.yul\":16666:16672   */\n      dup3\n        /* \"#utility.yul\":16662:16676   */\n      add\n        /* \"#utility.yul\":16655:16685   */\n      mstore\n        /* \"#utility.yul\":16538:16692   */\n      pop\n      jump\t// out\n        /* \"#utility.yul\":16698:17098   */\n    tag_394:\n        /* \"#utility.yul\":16858:16861   */\n      0x00\n        /* \"#utility.yul\":16879:16963   */\n      tag_570\n        /* \"#utility.yul\":16961:16962   */\n      0x04\n        /* \"#utility.yul\":16956:16959   */\n      dup4\n        /* \"#utility.yul\":16879:16963   */\n      tag_391\n      jump\t// in\n    tag_570:\n        /* \"#utility.yul\":16872:16963   */\n      swap2\n      pop\n        /* \"#utility.yul\":16972:17065   */\n      tag_571\n        /* \"#utility.yul\":17061:17064   */\n      dup3\n        /* \"#utility.yul\":16972:17065   */\n      tag_393\n      jump\t// in\n    tag_571:\n        /* \"#utility.yul\":17090:17091   */\n      0x04\n        /* \"#utility.yul\":17085:17088   */\n      dup3\n        /* \"#utility.yul\":17081:17092   */\n      add\n        /* \"#utility.yul\":17074:17092   */\n      swap1\n      pop\n        /* \"#utility.yul\":16698:17098   */\n      swap2\n      swap1\n      pop\n      jump\t// out\n        /* \"#utility.yul\":17104:17262   */\n    tag_395:\n        /* \"#utility.yul\":17244:17254   */\n      0x2c204e616d653a20000000000000000000000000000000000000000000000000\n        /* \"#utility.yul\":17240:17241   */\n      0x00\n        /* \"#utility.yul\":17232:17238   */\n      dup3\n        /* \"#utility.yul\":17228:17242   */\n      add\n        /* \"#utility.yul\":17221:17255   */\n      mstore\n        /* \"#utility.yul\":17104:17262   */\n      pop\n      jump\t// out\n        /* \"#utility.yul\":17268:17668   */\n    tag_396:\n        /* \"#utility.yul\":17428:17431   */\n      0x00\n        /* \"#utility.yul\":17449:17533   */\n      tag_574\n        /* \"#utility.yul\":17531:17532   */\n      0x08\n        /* \"#utility.yul\":17526:17529   */\n      dup4\n        /* \"#utility.yul\":17449:17533   */\n      tag_391\n      jump\t// in\n    tag_574:\n        /* \"#utility.yul\":17442:17533   */\n      swap2\n      pop\n        /* \"#utility.yul\":17542:17635   */\n      tag_575\n        /* \"#utility.yul\":17631:17634   */\n      dup3\n        /* \"#utility.yul\":17542:17635   */\n      tag_395\n      jump\t// in\n    tag_575:\n        /* \"#utility.yul\":17660:17661   */\n      0x08\n        /* \"#utility.yul\":17655:17658   */\n      dup3\n        /* \"#utility.yul\":17651:17662   */\n      add\n        /* \"#utility.yul\":17644:17662   */\n      swap1\n      pop\n        /* \"#utility.yul\":17268:17668   */\n      swap2\n      swap1\n      pop\n      jump\t// out\n        /* \"#utility.yul\":17674:17833   */\n    tag_397:\n        /* \"#utility.yul\":17814:17825   */\n      0x2c2050726963653a200000000000000000000000000000000000000000000000\n        /* \"#utility.yul\":17810:17811   */\n      0x00\n        /* \"#utility.yul\":17802:17808   */\n      dup3\n        /* \"#utility.yul\":17798:17812   */\n      add\n        /* \"#utility.yul\":17791:17826   */\n      mstore\n        /* \"#utility.yul\":17674:17833   */\n      pop\n      jump\t// out\n        /* \"#utility.yul\":17839:18239   */\n    tag_398:\n        /* \"#utility.yul\":17999:18002   */\n      0x00\n        /* \"#utility.yul\":18020:18104   */\n      tag_578\n        /* \"#utility.yul\":18102:18103   */\n      0x09\n        /* \"#utility.yul\":18097:18100   */\n      dup4\n        /* \"#utility.yul\":18020:18104   */\n      tag_391\n      jump\t// in\n    tag_578:\n        /* \"#utility.yul\":18013:18104   */\n      swap2\n      pop\n        /* \"#utility.yul\":18113:18206   */\n      tag_579\n        /* \"#utility.yul\":18202:18205   */\n      dup3\n        /* \"#utility.yul\":18113:18206   */\n      tag_397\n      jump\t// in\n    tag_579:\n        /* \"#utility.yul\":18231:18232   */\n      0x09\n        /* \"#utility.yul\":18226:18229   */\n      dup3\n        /* \"#utility.yul\":18222:18233   */\n      add\n        /* \"#utility.yul\":18215:18233   */\n      swap1\n      pop\n        /* \"#utility.yul\":17839:18239   */\n      swap2\n      swap1\n      pop\n      jump\t// out\n        /* \"#utility.yul\":18245:18459   */\n    tag_399:\n        /* \"#utility.yul\":18385:18451   */\n      0x0a00000000000000000000000000000000000000000000000000000000000000\n        /* \"#utility.yul\":18381:18382   */\n      0x00\n        /* \"#utility.yul\":18373:18379   */\n      dup3\n        /* \"#utility.yul\":18369:18383   */\n      add\n        /* \"#utility.yul\":18362:18452   */\n      mstore\n        /* \"#utility.yul\":18245:18459   */\n      pop\n      jump\t// out\n        /* \"#utility.yul\":18465:18865   */\n    tag_400:\n        /* \"#utility.yul\":18625:18628   */\n      0x00\n        /* \"#utility.yul\":18646:18730   */\n      tag_582\n        /* \"#utility.yul\":18728:18729   */\n      0x01\n        /* \"#utility.yul\":18723:18726   */\n      dup4\n        /* \"#utility.yul\":18646:18730   */\n      tag_391\n      jump\t// in\n    tag_582:\n        /* \"#utility.yul\":18639:18730   */\n      swap2\n      pop\n        /* \"#utility.yul\":18739:18832   */\n      tag_583\n        /* \"#utility.yul\":18828:18831   */\n      dup3\n        /* \"#utility.yul\":18739:18832   */\n      tag_399\n      jump\t// in\n    tag_583:\n        /* \"#utility.yul\":18857:18858   */\n      0x01\n        /* \"#utility.yul\":18852:18855   */\n      dup3\n        /* \"#utility.yul\":18848:18859   */\n      add\n        /* \"#utility.yul\":18841:18859   */\n      swap1\n      pop\n        /* \"#utility.yul\":18465:18865   */\n      swap2\n      swap1\n      pop\n      jump\t// out\n        /* \"#utility.yul\":18871:20690   */\n    tag_266:\n        /* \"#utility.yul\":19551:19554   */\n      0x00\n        /* \"#utility.yul\":19573:19668   */\n      tag_585\n        /* \"#utility.yul\":19664:19667   */\n      dup3\n        /* \"#utility.yul\":19655:19661   */\n      dup8\n        /* \"#utility.yul\":19573:19668   */\n      tag_392\n      jump\t// in\n    tag_585:\n        /* \"#utility.yul\":19566:19668   */\n      swap2\n      pop\n        /* \"#utility.yul\":19685:19833   */\n      tag_586\n        /* \"#utility.yul\":19829:19832   */\n      dup3\n        /* \"#utility.yul\":19685:19833   */\n      tag_394\n      jump\t// in\n    tag_586:\n        /* \"#utility.yul\":19678:19833   */\n      swap2\n      pop\n        /* \"#utility.yul\":19850:19945   */\n      tag_587\n        /* \"#utility.yul\":19941:19944   */\n      dup3\n        /* \"#utility.yul\":19932:19938   */\n      dup7\n        /* \"#utility.yul\":19850:19945   */\n      tag_392\n      jump\t// in\n    tag_587:\n        /* \"#utility.yul\":19843:19945   */\n      swap2\n      pop\n        /* \"#utility.yul\":19962:20110   */\n      tag_588\n        /* \"#utility.yul\":20106:20109   */\n      dup3\n        /* \"#utility.yul\":19962:20110   */\n      tag_396\n      jump\t// in\n    tag_588:\n        /* \"#utility.yul\":19955:20110   */\n      swap2\n      pop\n        /* \"#utility.yul\":20127:20222   */\n      tag_589\n        /* \"#utility.yul\":20218:20221   */\n      dup3\n        /* \"#utility.yul\":20209:20215   */\n      dup6\n        /* \"#utility.yul\":20127:20222   */\n      tag_392\n      jump\t// in\n    tag_589:\n        /* \"#utility.yul\":20120:20222   */\n      swap2\n      pop\n        /* \"#utility.yul\":20239:20387   */\n      tag_590\n        /* \"#utility.yul\":20383:20386   */\n      dup3\n        /* \"#utility.yul\":20239:20387   */\n      tag_398\n      jump\t// in\n    tag_590:\n        /* \"#utility.yul\":20232:20387   */\n      swap2\n      pop\n        /* \"#utility.yul\":20404:20499   */\n      tag_591\n        /* \"#utility.yul\":20495:20498   */\n      dup3\n        /* \"#utility.yul\":20486:20492   */\n      dup5\n        /* \"#utility.yul\":20404:20499   */\n      tag_392\n      jump\t// in\n    tag_591:\n        /* \"#utility.yul\":20397:20499   */\n      swap2\n      pop\n        /* \"#utility.yul\":20516:20664   */\n      tag_592\n        /* \"#utility.yul\":20660:20663   */\n      dup3\n        /* \"#utility.yul\":20516:20664   */\n      tag_400\n      jump\t// in\n    tag_592:\n        /* \"#utility.yul\":20509:20664   */\n      swap2\n      pop\n        /* \"#utility.yul\":20681:20684   */\n      dup2\n        /* \"#utility.yul\":20674:20684   */\n      swap1\n      pop\n        /* \"#utility.yul\":18871:20690   */\n      swap6\n      swap5\n      pop\n      pop\n      pop\n      pop\n      pop\n      jump\t// out\n        /* \"#utility.yul\":20696:20929   */\n    tag_268:\n        /* \"#utility.yul\":20735:20738   */\n      0x00\n        /* \"#utility.yul\":20758:20782   */\n      tag_594\n        /* \"#utility.yul\":20776:20781   */\n      dup3\n        /* \"#utility.yul\":20758:20782   */\n      tag_362\n      jump\t// in\n    tag_594:\n        /* \"#utility.yul\":20749:20782   */\n      swap2\n      pop\n        /* \"#utility.yul\":20804:20870   */\n      0xffffffffffffffffffffffffffffffffffffffffffffffffffffffffffffffff\n        /* \"#utility.yul\":20797:20802   */\n      dup3\n        /* \"#utility.yul\":20794:20871   */\n      sub\n        /* \"#utility.yul\":20791:20894   */\n      tag_595\n      jumpi\n        /* \"#utility.yul\":20874:20892   */\n      tag_596\n      tag_380\n      jump\t// in\n    tag_596:\n        /* \"#utility.yul\":20791:20894   */\n    tag_595:\n        /* \"#utility.yul\":20921:20922   */\n      0x01\n        /* \"#utility.yul\":20914:20919   */\n      dup3\n        /* \"#utility.yul\":20910:20923   */\n      add\n        /* \"#utility.yul\":20903:20923   */\n      swap1\n      pop\n        /* \"#utility.yul\":20696:20929   */\n      swap2\n      swap1\n      pop\n      jump\t// out\n        /* \"#utility.yul\":20935:21158   */\n    tag_401:\n        /* \"#utility.yul\":21075:21109   */\n      0x45524332303a20617070726f76652066726f6d20746865207a65726f20616464\n        /* \"#utility.yul\":21071:21072   */\n      0x00\n        /* \"#utility.yul\":21063:21069   */\n      dup3\n        /* \"#utility.yul\":21059:21073   */\n      add\n        /* \"#utility.yul\":21052:21110   */\n      mstore\n        /* \"#utility.yul\":21144:21150   */\n      0x7265737300000000000000000000000000000000000000000000000000000000\n        /* \"#utility.yul\":21139:21141   */\n      0x20\n        /* \"#utility.yul\":21131:21137   */\n      dup3\n        /* \"#utility.yul\":21127:21142   */\n      add\n        /* \"#utility.yul\":21120:21151   */\n      mstore\n        /* \"#utility.yul\":20935:21158   */\n      pop\n      jump\t// out\n        /* \"#utility.yul\":21164:21530   */\n    tag_402:\n        /* \"#utility.yul\":21306:21309   */\n      0x00\n        /* \"#utility.yul\":21327:21394   */\n      tag_599\n        /* \"#utility.yul\":21391:21393   */\n      0x24\n        /* \"#utility.yul\":21386:21389   */\n      dup4\n        /* \"#utility.yul\":21327:21394   */\n      tag_351\n      jump\t// in\n    tag_599:\n        /* \"#utility.yul\":21320:21394   */\n      swap2\n      pop\n        /* \"#utility.yul\":21403:21496   */\n      tag_600\n        /* \"#utility.yul\":21492:21495   */\n      dup3\n        /* \"#utility.yul\":21403:21496   */\n      tag_401\n      jump\t// in\n    tag_600:\n        /* \"#utility.yul\":21521:21523   */\n      0x40\n        /* \"#utility.yul\":21516:21519   */\n      dup3\n        /* \"#utility.yul\":21512:21524   */\n      add\n        /* \"#utility.yul\":21505:21524   */\n      swap1\n      pop\n        /* \"#utility.yul\":21164:21530   */\n      swap2\n      swap1\n      pop\n      jump\t// out\n        /* \"#utility.yul\":21536:21955   */\n    tag_273:\n        /* \"#utility.yul\":21702:21706   */\n      0x00\n        /* \"#utility.yul\":21740:21742   */\n      0x20\n        /* \"#utility.yul\":21729:21738   */\n      dup3\n        /* \"#utility.yul\":21725:21743   */\n      add\n        /* \"#utility.yul\":21717:21743   */\n      swap1\n      pop\n        /* \"#utility.yul\":21789:21798   */\n      dup2\n        /* \"#utility.yul\":21783:21787   */\n      dup2\n        /* \"#utility.yul\":21779:21799   */\n      sub\n        /* \"#utility.yul\":21775:21776   */\n      0x00\n        /* \"#utility.yul\":21764:21773   */\n      dup4\n        /* \"#utility.yul\":21760:21777   */\n      add\n        /* \"#utility.yul\":21753:21800   */\n      mstore\n        /* \"#utility.yul\":21817:21948   */\n      tag_602\n        /* \"#utility.yul\":21943:21947   */\n      dup2\n        /* \"#utility.yul\":21817:21948   */\n      tag_402\n      jump\t// in\n    tag_602:\n        /* \"#utility.yul\":21809:21948   */\n      swap1\n      pop\n        /* \"#utility.yul\":21536:21955   */\n      swap2\n      swap1\n      pop\n      jump\t// out\n        /* \"#utility.yul\":21961:22182   */\n    tag_403:\n        /* \"#utility.yul\":22101:22135   */\n      0x45524332303a20617070726f766520746f20746865207a65726f206164647265\n        /* \"#utility.yul\":22097:22098   */\n      0x00\n        /* \"#utility.yul\":22089:22095   */\n      dup3\n        /* \"#utility.yul\":22085:22099   */\n      add\n        /* \"#utility.yul\":22078:22136   */\n      mstore\n        /* \"#utility.yul\":22170:22174   */\n      0x7373000000000000000000000000000000000000000000000000000000000000\n        /* \"#utility.yul\":22165:22167   */\n      0x20\n        /* \"#utility.yul\":22157:22163   */\n      dup3\n        /* \"#utility.yul\":22153:22168   */\n      add\n        /* \"#utility.yul\":22146:22175   */\n      mstore\n        /* \"#utility.yul\":21961:22182   */\n      pop\n      jump\t// out\n        /* \"#utility.yul\":22188:22554   */\n    tag_404:\n        /* \"#utility.yul\":22330:22333   */\n      0x00\n        /* \"#utility.yul\":22351:22418   */\n      tag_605\n        /* \"#utility.yul\":22415:22417   */\n      0x22\n        /* \"#utility.yul\":22410:22413   */\n      dup4\n        /* \"#utility.yul\":22351:22418   */\n      tag_351\n      jump\t// in\n    tag_605:\n        /* \"#utility.yul\":22344:22418   */\n      swap2\n      pop\n        /* \"#utility.yul\":22427:22520   */\n      tag_606\n        /* \"#utility.yul\":22516:22519   */\n      dup3\n        /* \"#utility.yul\":22427:22520   */\n      tag_403\n      jump\t// in\n    tag_606:\n        /* \"#utility.yul\":22545:22547   */\n      0x40\n        /* \"#utility.yul\":22540:22543   */\n      dup3\n        /* \"#utility.yul\":22536:22548   */\n      add\n        /* \"#utility.yul\":22529:22548   */\n      swap1\n      pop\n        /* \"#utility.yul\":22188:22554   */\n      swap2\n      swap1\n      pop\n      jump\t// out\n        /* \"#utility.yul\":22560:22979   */\n    tag_276:\n        /* \"#utility.yul\":22726:22730   */\n      0x00\n        /* \"#utility.yul\":22764:22766   */\n      0x20\n        /* \"#utility.yul\":22753:22762   */\n      dup3\n        /* \"#utility.yul\":22749:22767   */\n      add\n        /* \"#utility.yul\":22741:22767   */\n      swap1\n      pop\n        /* \"#utility.yul\":22813:22822   */\n      dup2\n        /* \"#utility.yul\":22807:22811   */\n      dup2\n        /* \"#utility.yul\":22803:22823   */\n      sub\n        /* \"#utility.yul\":22799:22800   */\n      0x00\n        /* \"#utility.yul\":22788:22797   */\n      dup4\n        /* \"#utility.yul\":22784:22801   */\n      add\n        /* \"#utility.yul\":22777:22824   */\n      mstore\n        /* \"#utility.yul\":22841:22972   */\n      tag_608\n        /* \"#utility.yul\":22967:22971   */\n      dup2\n        /* \"#utility.yul\":22841:22972   */\n      tag_404\n      jump\t// in\n    tag_608:\n        /* \"#utility.yul\":22833:22972   */\n      swap1\n      pop\n        /* \"#utility.yul\":22560:22979   */\n      swap2\n      swap1\n      pop\n      jump\t// out\n        /* \"#utility.yul\":22985:23164   */\n    tag_405:\n        /* \"#utility.yul\":23125:23156   */\n      0x45524332303a20696e73756666696369656e7420616c6c6f77616e6365000000\n        /* \"#utility.yul\":23121:23122   */\n      0x00\n        /* \"#utility.yul\":23113:23119   */\n      dup3\n        /* \"#utility.yul\":23109:23123   */\n      add\n        /* \"#utility.yul\":23102:23157   */\n      mstore\n        /* \"#utility.yul\":22985:23164   */\n      pop\n      jump\t// out\n        /* \"#utility.yul\":23170:23536   */\n    tag_406:\n        /* \"#utility.yul\":23312:23315   */\n      0x00\n        /* \"#utility.yul\":23333:23400   */\n      tag_611\n        /* \"#utility.yul\":23397:23399   */\n      0x1d\n        /* \"#utility.yul\":23392:23395   */\n      dup4\n        /* \"#utility.yul\":23333:23400   */\n      tag_351\n      jump\t// in\n    tag_611:\n        /* \"#utility.yul\":23326:23400   */\n      swap2\n      pop\n        /* \"#utility.yul\":23409:23502   */\n      tag_612\n        /* \"#utility.yul\":23498:23501   */\n      dup3\n        /* \"#utility.yul\":23409:23502   */\n      tag_405\n      jump\t// in\n    tag_612:\n        /* \"#utility.yul\":23527:23529   */\n      0x20\n        /* \"#utility.yul\":23522:23525   */\n      dup3\n        /* \"#utility.yul\":23518:23530   */\n      add\n        /* \"#utility.yul\":23511:23530   */\n      swap1\n      pop\n        /* \"#utility.yul\":23170:23536   */\n      swap2\n      swap1\n      pop\n      jump\t// out\n        /* \"#utility.yul\":23542:23961   */\n    tag_283:\n        /* \"#utility.yul\":23708:23712   */\n      0x00\n        /* \"#utility.yul\":23746:23748   */\n      0x20\n        /* \"#utility.yul\":23735:23744   */\n      dup3\n        /* \"#utility.yul\":23731:23749   */\n      add\n        /* \"#utility.yul\":23723:23749   */\n      swap1\n      pop\n        /* \"#utility.yul\":23795:23804   */\n      dup2\n        /* \"#utility.yul\":23789:23793   */\n      dup2\n        /* \"#utility.yul\":23785:23805   */\n      sub\n        /* \"#utility.yul\":23781:23782   */\n      0x00\n        /* \"#utility.yul\":23770:23779   */\n      dup4\n        /* \"#utility.yul\":23766:23783   */\n      add\n        /* \"#utility.yul\":23759:23806   */\n      mstore\n        /* \"#utility.yul\":23823:23954   */\n      tag_614\n        /* \"#utility.yul\":23949:23953   */\n      dup2\n        /* \"#utility.yul\":23823:23954   */\n      tag_406\n      jump\t// in\n    tag_614:\n        /* \"#utility.yul\":23815:23954   */\n      swap1\n      pop\n        /* \"#utility.yul\":23542:23961   */\n      swap2\n      swap1\n      pop\n      jump\t// out\n        /* \"#utility.yul\":23967:24191   */\n    tag_407:\n        /* \"#utility.yul\":24107:24141   */\n      0x45524332303a207472616e736665722066726f6d20746865207a65726f206164\n        /* \"#utility.yul\":24103:24104   */\n      0x00\n        /* \"#utility.yul\":24095:24101   */\n      dup3\n        /* \"#utility.yul\":24091:24105   */\n      add\n        /* \"#utility.yul\":24084:24142   */\n      mstore\n        /* \"#utility.yul\":24176:24183   */\n      0x6472657373000000000000000000000000000000000000000000000000000000\n        /* \"#utility.yul\":24171:24173   */\n      0x20\n        /* \"#utility.yul\":24163:24169   */\n      dup3\n        /* \"#utility.yul\":24159:24174   */\n      add\n        /* \"#utility.yul\":24152:24184   */\n      mstore\n        /* \"#utility.yul\":23967:24191   */\n      pop\n      jump\t// out\n        /* \"#utility.yul\":24197:24563   */\n    tag_408:\n        /* \"#utility.yul\":24339:24342   */\n      0x00\n        /* \"#utility.yul\":24360:24427   */\n      tag_617\n        /* \"#utility.yul\":24424:24426   */\n      0x25\n        /* \"#utility.yul\":24419:24422   */\n      dup4\n        /* \"#utility.yul\":24360:24427   */\n      tag_351\n      jump\t// in\n    tag_617:\n        /* \"#utility.yul\":24353:24427   */\n      swap2\n      pop\n        /* \"#utility.yul\":24436:24529   */\n      tag_618\n        /* \"#utility.yul\":24525:24528   */\n      dup3\n        /* \"#utility.yul\":24436:24529   */\n      tag_407\n      jump\t// in\n    tag_618:\n        /* \"#utility.yul\":24554:24556   */\n      0x40\n        /* \"#utility.yul\":24549:24552   */\n      dup3\n        /* \"#utility.yul\":24545:24557   */\n      add\n        /* \"#utility.yul\":24538:24557   */\n      swap1\n      pop\n        /* \"#utility.yul\":24197:24563   */\n      swap2\n      swap1\n      pop\n      jump\t// out\n        /* \"#utility.yul\":24569:24988   */\n    tag_288:\n        /* \"#utility.yul\":24735:24739   */\n      0x00\n        /* \"#utility.yul\":24773:24775   */\n      0x20\n        /* \"#utility.yul\":24762:24771   */\n      dup3\n        /* \"#utility.yul\":24758:24776   */\n      add\n        /* \"#utility.yul\":24750:24776   */\n      swap1\n      pop\n        /* \"#utility.yul\":24822:24831   */\n      dup2\n        /* \"#utility.yul\":24816:24820   */\n      dup2\n        /* \"#utility.yul\":24812:24832   */\n      sub\n        /* \"#utility.yul\":24808:24809   */\n      0x00\n        /* \"#utility.yul\":24797:24806   */\n      dup4\n        /* \"#utility.yul\":24793:24810   */\n      add\n        /* \"#utility.yul\":24786:24833   */\n      mstore\n        /* \"#utility.yul\":24850:24981   */\n      tag_620\n        /* \"#utility.yul\":24976:24980   */\n      dup2\n        /* \"#utility.yul\":24850:24981   */\n      tag_408\n      jump\t// in\n    tag_620:\n        /* \"#utility.yul\":24842:24981   */\n      swap1\n      pop\n        /* \"#utility.yul\":24569:24988   */\n      swap2\n      swap1\n      pop\n      jump\t// out\n        /* \"#utility.yul\":24994:25216   */\n    tag_409:\n        /* \"#utility.yul\":25134:25168   */\n      0x45524332303a207472616e7366657220746f20746865207a65726f2061646472\n        /* \"#utility.yul\":25130:25131   */\n      0x00\n        /* \"#utility.yul\":25122:25128   */\n      dup3\n        /* \"#utility.yul\":25118:25132   */\n      add\n        /* \"#utility.yul\":25111:25169   */\n      mstore\n        /* \"#utility.yul\":25203:25208   */\n      0x6573730000000000000000000000000000000000000000000000000000000000\n        /* \"#utility.yul\":25198:25200   */\n      0x20\n        /* \"#utility.yul\":25190:25196   */\n      dup3\n        /* \"#utility.yul\":25186:25201   */\n      add\n        /* \"#utility.yul\":25179:25209   */\n      mstore\n        /* \"#utility.yul\":24994:25216   */\n      pop\n      jump\t// out\n        /* \"#utility.yul\":25222:25588   */\n    tag_410:\n        /* \"#utility.yul\":25364:25367   */\n      0x00\n        /* \"#utility.yul\":25385:25452   */\n      tag_623\n        /* \"#utility.yul\":25449:25451   */\n      0x23\n        /* \"#utility.yul\":25444:25447   */\n      dup4\n        /* \"#utility.yul\":25385:25452   */\n      tag_351\n      jump\t// in\n    tag_623:\n        /* \"#utility.yul\":25378:25452   */\n      swap2\n      pop\n        /* \"#utility.yul\":25461:25554   */\n      tag_624\n        /* \"#utility.yul\":25550:25553   */\n      dup3\n        /* \"#utility.yul\":25461:25554   */\n      tag_409\n      jump\t// in\n    tag_624:\n        /* \"#utility.yul\":25579:25581   */\n      0x40\n        /* \"#utility.yul\":25574:25577   */\n      dup3\n        /* \"#utility.yul\":25570:25582   */\n      add\n        /* \"#utility.yul\":25563:25582   */\n      swap1\n      pop\n        /* \"#utility.yul\":25222:25588   */\n      swap2\n      swap1\n      pop\n      jump\t// out\n        /* \"#utility.yul\":25594:26013   */\n    tag_291:\n        /* \"#utility.yul\":25760:25764   */\n      0x00\n        /* \"#utility.yul\":25798:25800   */\n      0x20\n        /* \"#utility.yul\":25787:25796   */\n      dup3\n        /* \"#utility.yul\":25783:25801   */\n      add\n        /* \"#utility.yul\":25775:25801   */\n      swap1\n      pop\n        /* \"#utility.yul\":25847:25856   */\n      dup2\n        /* \"#utility.yul\":25841:25845   */\n      dup2\n        /* \"#utility.yul\":25837:25857   */\n      sub\n        /* \"#utility.yul\":25833:25834   */\n      0x00\n        /* \"#utility.yul\":25822:25831   */\n      dup4\n        /* \"#utility.yul\":25818:25835   */\n      add\n        /* \"#utility.yul\":25811:25858   */\n      mstore\n        /* \"#utility.yul\":25875:26006   */\n      tag_626\n        /* \"#utility.yul\":26001:26005   */\n      dup2\n        /* \"#utility.yul\":25875:26006   */\n      tag_410\n      jump\t// in\n    tag_626:\n        /* \"#utility.yul\":25867:26006   */\n      swap1\n      pop\n        /* \"#utility.yul\":25594:26013   */\n      swap2\n      swap1\n      pop\n      jump\t// out\n        /* \"#utility.yul\":26019:26244   */\n    tag_411:\n        /* \"#utility.yul\":26159:26193   */\n      0x45524332303a207472616e7366657220616d6f756e7420657863656564732062\n        /* \"#utility.yul\":26155:26156   */\n      0x00\n        /* \"#utility.yul\":26147:26153   */\n      dup3\n        /* \"#utility.yul\":26143:26157   */\n      add\n        /* \"#utility.yul\":26136:26194   */\n      mstore\n        /* \"#utility.yul\":26228:26236   */\n      0x616c616e63650000000000000000000000000000000000000000000000000000\n        /* \"#utility.yul\":26223:26225   */\n      0x20\n        /* \"#utility.yul\":26215:26221   */\n      dup3\n        /* \"#utility.yul\":26211:26226   */\n      add\n        /* \"#utility.yul\":26204:26237   */\n      mstore\n        /* \"#utility.yul\":26019:26244   */\n      pop\n      jump\t// out\n        /* \"#utility.yul\":26250:26616   */\n    tag_412:\n        /* \"#utility.yul\":26392:26395   */\n      0x00\n        /* \"#utility.yul\":26413:26480   */\n      tag_629\n        /* \"#utility.yul\":26477:26479   */\n      0x26\n        /* \"#utility.yul\":26472:26475   */\n      dup4\n        /* \"#utility.yul\":26413:26480   */\n      tag_351\n      jump\t// in\n    tag_629:\n        /* \"#utility.yul\":26406:26480   */\n      swap2\n      pop\n        /* \"#utility.yul\":26489:26582   */\n      tag_630\n        /* \"#utility.yul\":26578:26581   */\n      dup3\n        /* \"#utility.yul\":26489:26582   */\n      tag_411\n      jump\t// in\n    tag_630:\n        /* \"#utility.yul\":26607:26609   */\n      0x40\n        /* \"#utility.yul\":26602:26605   */\n      dup3\n        /* \"#utility.yul\":26598:26610   */\n      add\n        /* \"#utility.yul\":26591:26610   */\n      swap1\n      pop\n        /* \"#utility.yul\":26250:26616   */\n      swap2\n      swap1\n      pop\n      jump\t// out\n        /* \"#utility.yul\":26622:27041   */\n    tag_296:\n        /* \"#utility.yul\":26788:26792   */\n      0x00\n        /* \"#utility.yul\":26826:26828   */\n      0x20\n        /* \"#utility.yul\":26815:26824   */\n      dup3\n        /* \"#utility.yul\":26811:26829   */\n      add\n        /* \"#utility.yul\":26803:26829   */\n      swap1\n      pop\n        /* \"#utility.yul\":26875:26884   */\n      dup2\n        /* \"#utility.yul\":26869:26873   */\n      dup2\n        /* \"#utility.yul\":26865:26885   */\n      sub\n        /* \"#utility.yul\":26861:26862   */\n      0x00\n        /* \"#utility.yul\":26850:26859   */\n      dup4\n        /* \"#utility.yul\":26846:26863   */\n      add\n        /* \"#utility.yul\":26839:26886   */\n      mstore\n        /* \"#utility.yul\":26903:27034   */\n      tag_632\n        /* \"#utility.yul\":27029:27033   */\n      dup2\n        /* \"#utility.yul\":26903:27034   */\n      tag_412\n      jump\t// in\n    tag_632:\n        /* \"#utility.yul\":26895:27034   */\n      swap1\n      pop\n        /* \"#utility.yul\":26622:27041   */\n      swap2\n      swap1\n      pop\n      jump\t// out\n        /* \"#utility.yul\":27047:27267   */\n    tag_413:\n        /* \"#utility.yul\":27187:27221   */\n      0x45524332303a206275726e2066726f6d20746865207a65726f20616464726573\n        /* \"#utility.yul\":27183:27184   */\n      0x00\n        /* \"#utility.yul\":27175:27181   */\n      dup3\n        /* \"#utility.yul\":27171:27185   */\n      add\n        /* \"#utility.yul\":27164:27222   */\n      mstore\n        /* \"#utility.yul\":27256:27259   */\n      0x7300000000000000000000000000000000000000000000000000000000000000\n        /* \"#utility.yul\":27251:27253   */\n      0x20\n        /* \"#utility.yul\":27243:27249   */\n      dup3\n        /* \"#utility.yul\":27239:27254   */\n      add\n        /* \"#utility.yul\":27232:27260   */\n      mstore\n        /* \"#utility.yul\":27047:27267   */\n      pop\n      jump\t// out\n        /* \"#utility.yul\":27273:27639   */\n    tag_414:\n        /* \"#utility.yul\":27415:27418   */\n      0x00\n        /* \"#utility.yul\":27436:27503   */\n      tag_635\n        /* \"#utility.yul\":27500:27502   */\n      0x21\n        /* \"#utility.yul\":27495:27498   */\n      dup4\n        /* \"#utility.yul\":27436:27503   */\n      tag_351\n      jump\t// in\n    tag_635:\n        /* \"#utility.yul\":27429:27503   */\n      swap2\n      pop\n        /* \"#utility.yul\":27512:27605   */\n      tag_636\n        /* \"#utility.yul\":27601:27604   */\n      dup3\n        /* \"#utility.yul\":27512:27605   */\n      tag_413\n      jump\t// in\n    tag_636:\n        /* \"#utility.yul\":27630:27632   */\n      0x40\n        /* \"#utility.yul\":27625:27628   */\n      dup3\n        /* \"#utility.yul\":27621:27633   */\n      add\n        /* \"#utility.yul\":27614:27633   */\n      swap1\n      pop\n        /* \"#utility.yul\":27273:27639   */\n      swap2\n      swap1\n      pop\n      jump\t// out\n        /* \"#utility.yul\":27645:28064   */\n    tag_303:\n        /* \"#utility.yul\":27811:27815   */\n      0x00\n        /* \"#utility.yul\":27849:27851   */\n      0x20\n        /* \"#utility.yul\":27838:27847   */\n      dup3\n        /* \"#utility.yul\":27834:27852   */\n      add\n        /* \"#utility.yul\":27826:27852   */\n      swap1\n      pop\n        /* \"#utility.yul\":27898:27907   */\n      dup2\n        /* \"#utility.yul\":27892:27896   */\n      dup2\n        /* \"#utility.yul\":27888:27908   */\n      sub\n        /* \"#utility.yul\":27884:27885   */\n      0x00\n        /* \"#utility.yul\":27873:27882   */\n      dup4\n        /* \"#utility.yul\":27869:27886   */\n      add\n        /* \"#utility.yul\":27862:27909   */\n      mstore\n        /* \"#utility.yul\":27926:28057   */\n      tag_638\n        /* \"#utility.yul\":28052:28056   */\n      dup2\n        /* \"#utility.yul\":27926:28057   */\n      tag_414\n      jump\t// in\n    tag_638:\n        /* \"#utility.yul\":27918:28057   */\n      swap1\n      pop\n        /* \"#utility.yul\":27645:28064   */\n      swap2\n      swap1\n      pop\n      jump\t// out\n        /* \"#utility.yul\":28070:28291   */\n    tag_415:\n        /* \"#utility.yul\":28210:28244   */\n      0x45524332303a206275726e20616d6f756e7420657863656564732062616c616e\n        /* \"#utility.yul\":28206:28207   */\n      0x00\n        /* \"#utility.yul\":28198:28204   */\n      dup3\n        /* \"#utility.yul\":28194:28208   */\n      add\n        /* \"#utility.yul\":28187:28245   */\n      mstore\n        /* \"#utility.yul\":28279:28283   */\n      0x6365000000000000000000000000000000000000000000000000000000000000\n        /* \"#utility.yul\":28274:28276   */\n      0x20\n        /* \"#utility.yul\":28266:28272   */\n      dup3\n        /* \"#utility.yul\":28262:28277   */\n      add\n        /* \"#utility.yul\":28255:28284   */\n      mstore\n        /* \"#utility.yul\":28070:28291   */\n      pop\n      jump\t// out\n        /* \"#utility.yul\":28297:28663   */\n    tag_416:\n        /* \"#utility.yul\":28439:28442   */\n      0x00\n        /* \"#utility.yul\":28460:28527   */\n      tag_641\n        /* \"#utility.yul\":28524:28526   */\n      0x22\n        /* \"#utility.yul\":28519:28522   */\n      dup4\n        /* \"#utility.yul\":28460:28527   */\n      tag_351\n      jump\t// in\n    tag_641:\n        /* \"#utility.yul\":28453:28527   */\n      swap2\n      pop\n        /* \"#utility.yul\":28536:28629   */\n      tag_642\n        /* \"#utility.yul\":28625:28628   */\n      dup3\n        /* \"#utility.yul\":28536:28629   */\n      tag_415\n      jump\t// in\n    tag_642:\n        /* \"#utility.yul\":28654:28656   */\n      0x40\n        /* \"#utility.yul\":28649:28652   */\n      dup3\n        /* \"#utility.yul\":28645:28657   */\n      add\n        /* \"#utility.yul\":28638:28657   */\n      swap1\n      pop\n        /* \"#utility.yul\":28297:28663   */\n      swap2\n      swap1\n      pop\n      jump\t// out\n        /* \"#utility.yul\":28669:29088   */\n    tag_307:\n        /* \"#utility.yul\":28835:28839   */\n      0x00\n        /* \"#utility.yul\":28873:28875   */\n      0x20\n        /* \"#utility.yul\":28862:28871   */\n      dup3\n        /* \"#utility.yul\":28858:28876   */\n      add\n        /* \"#utility.yul\":28850:28876   */\n      swap1\n      pop\n        /* \"#utility.yul\":28922:28931   */\n      dup2\n        /* \"#utility.yul\":28916:28920   */\n      dup2\n        /* \"#utility.yul\":28912:28932   */\n      sub\n        /* \"#utility.yul\":28908:28909   */\n      0x00\n        /* \"#utility.yul\":28897:28906   */\n      dup4\n        /* \"#utility.yul\":28893:28910   */\n      add\n        /* \"#utility.yul\":28886:28933   */\n      mstore\n        /* \"#utility.yul\":28950:29081   */\n      tag_644\n        /* \"#utility.yul\":29076:29080   */\n      dup2\n        /* \"#utility.yul\":28950:29081   */\n      tag_416\n      jump\t// in\n    tag_644:\n        /* \"#utility.yul\":28942:29081   */\n      swap1\n      pop\n        /* \"#utility.yul\":28669:29088   */\n      swap2\n      swap1\n      pop\n      jump\t// out\n        /* \"#utility.yul\":29094:29276   */\n    tag_417:\n        /* \"#utility.yul\":29234:29268   */\n      0x4f776e61626c653a2063616c6c6572206973206e6f7420746865206f776e6572\n        /* \"#utility.yul\":29230:29231   */\n      0x00\n        /* \"#utility.yul\":29222:29228   */\n      dup3\n        /* \"#utility.yul\":29218:29232   */\n      add\n        /* \"#utility.yul\":29211:29269   */\n      mstore\n        /* \"#utility.yul\":29094:29276   */\n      pop\n      jump\t// out\n        /* \"#utility.yul\":29282:29648   */\n    tag_418:\n        /* \"#utility.yul\":29424:29427   */\n      0x00\n        /* \"#utility.yul\":29445:29512   */\n      tag_647\n        /* \"#utility.yul\":29509:29511   */\n      0x20\n        /* \"#utility.yul\":29504:29507   */\n      dup4\n        /* \"#utility.yul\":29445:29512   */\n      tag_351\n      jump\t// in\n    tag_647:\n        /* \"#utility.yul\":29438:29512   */\n      swap2\n      pop\n        /* \"#utility.yul\":29521:29614   */\n      tag_648\n        /* \"#utility.yul\":29610:29613   */\n      dup3\n        /* \"#utility.yul\":29521:29614   */\n      tag_417\n      jump\t// in\n    tag_648:\n        /* \"#utility.yul\":29639:29641   */\n      0x20\n        /* \"#utility.yul\":29634:29637   */\n      dup3\n        /* \"#utility.yul\":29630:29642   */\n      add\n        /* \"#utility.yul\":29623:29642   */\n      swap1\n      pop\n        /* \"#utility.yul\":29282:29648   */\n      swap2\n      swap1\n      pop\n      jump\t// out\n        /* \"#utility.yul\":29654:30073   */\n    tag_315:\n        /* \"#utility.yul\":29820:29824   */\n      0x00\n        /* \"#utility.yul\":29858:29860   */\n      0x20\n        /* \"#utility.yul\":29847:29856   */\n      dup3\n        /* \"#utility.yul\":29843:29861   */\n      add\n        /* \"#utility.yul\":29835:29861   */\n      swap1\n      pop\n        /* \"#utility.yul\":29907:29916   */\n      dup2\n        /* \"#utility.yul\":29901:29905   */\n      dup2\n        /* \"#utility.yul\":29897:29917   */\n      sub\n        /* \"#utility.yul\":29893:29894   */\n      0x00\n        /* \"#utility.yul\":29882:29891   */\n      dup4\n        /* \"#utility.yul\":29878:29895   */\n      add\n        /* \"#utility.yul\":29871:29918   */\n      mstore\n        /* \"#utility.yul\":29935:30066   */\n      tag_650\n        /* \"#utility.yul\":30061:30065   */\n      dup2\n        /* \"#utility.yul\":29935:30066   */\n      tag_418\n      jump\t// in\n    tag_650:\n        /* \"#utility.yul\":29927:30066   */\n      swap1\n      pop\n        /* \"#utility.yul\":29654:30073   */\n      swap2\n      swap1\n      pop\n      jump\t// out\n        /* \"#utility.yul\":30079:30260   */\n    tag_419:\n        /* \"#utility.yul\":30219:30252   */\n      0x45524332303a206d696e7420746f20746865207a65726f206164647265737300\n        /* \"#utility.yul\":30215:30216   */\n      0x00\n        /* \"#utility.yul\":30207:30213   */\n      dup3\n        /* \"#utility.yul\":30203:30217   */\n      add\n        /* \"#utility.yul\":30196:30253   */\n      mstore\n        /* \"#utility.yul\":30079:30260   */\n      pop\n      jump\t// out\n        /* \"#utility.yul\":30266:30632   */\n    tag_420:\n        /* \"#utility.yul\":30408:30411   */\n      0x00\n        /* \"#utility.yul\":30429:30496   */\n      tag_653\n        /* \"#utility.yul\":30493:30495   */\n      0x1f\n        /* \"#utility.yul\":30488:30491   */\n      dup4\n        /* \"#utility.yul\":30429:30496   */\n      tag_351\n      jump\t// in\n    tag_653:\n        /* \"#utility.yul\":30422:30496   */\n      swap2\n      pop\n        /* \"#utility.yul\":30505:30598   */\n      tag_654\n        /* \"#utility.yul\":30594:30597   */\n      dup3\n        /* \"#utility.yul\":30505:30598   */\n      tag_419\n      jump\t// in\n    tag_654:\n        /* \"#utility.yul\":30623:30625   */\n      0x20\n        /* \"#utility.yul\":30618:30621   */\n      dup3\n        /* \"#utility.yul\":30614:30626   */\n      add\n        /* \"#utility.yul\":30607:30626   */\n      swap1\n      pop\n        /* \"#utility.yul\":30266:30632   */\n      swap2\n      swap1\n      pop\n      jump\t// out\n        /* \"#utility.yul\":30638:31057   */\n    tag_320:\n        /* \"#utility.yul\":30804:30808   */\n      0x00\n        /* \"#utility.yul\":30842:30844   */\n      0x20\n        /* \"#utility.yul\":30831:30840   */\n      dup3\n        /* \"#utility.yul\":30827:30845   */\n      add\n        /* \"#utility.yul\":30819:30845   */\n      swap1\n      pop\n        /* \"#utility.yul\":30891:30900   */\n      dup2\n        /* \"#utility.yul\":30885:30889   */\n      dup2\n        /* \"#utility.yul\":30881:30901   */\n      sub\n        /* \"#utility.yul\":30877:30878   */\n      0x00\n        /* \"#utility.yul\":30866:30875   */\n      dup4\n        /* \"#utility.yul\":30862:30879   */\n      add\n        /* \"#utility.yul\":30855:30902   */\n      mstore\n        /* \"#utility.yul\":30919:31050   */\n      tag_656\n        /* \"#utility.yul\":31045:31049   */\n      dup2\n        /* \"#utility.yul\":30919:31050   */\n      tag_420\n      jump\t// in\n    tag_656:\n        /* \"#utility.yul\":30911:31050   */\n      swap1\n      pop\n        /* \"#utility.yul\":30638:31057   */\n      swap2\n      swap1\n      pop\n      jump\t// out\n        /* \"#utility.yul\":31063:31243   */\n    tag_421:\n        /* \"#utility.yul\":31111:31188   */\n      0x4e487b7100000000000000000000000000000000000000000000000000000000\n        /* \"#utility.yul\":31108:31109   */\n      0x00\n        /* \"#utility.yul\":31101:31189   */\n      mstore\n        /* \"#utility.yul\":31208:31212   */\n      0x12\n        /* \"#utility.yul\":31205:31206   */\n      0x04\n        /* \"#utility.yul\":31198:31213   */\n      mstore\n        /* \"#utility.yul\":31232:31236   */\n      0x24\n        /* \"#utility.yul\":31229:31230   */\n      0x00\n        /* \"#utility.yul\":31222:31237   */\n      revert\n        /* \"#utility.yul\":31249:31434   */\n    tag_331:\n        /* \"#utility.yul\":31289:31290   */\n      0x00\n        /* \"#utility.yul\":31306:31326   */\n      tag_659\n        /* \"#utility.yul\":31324:31325   */\n      dup3\n        /* \"#utility.yul\":31306:31326   */\n      tag_362\n      jump\t// in\n    tag_659:\n        /* \"#utility.yul\":31301:31326   */\n      swap2\n      pop\n        /* \"#utility.yul\":31340:31360   */\n      tag_660\n        /* \"#utility.yul\":31358:31359   */\n      dup4\n        /* \"#utility.yul\":31340:31360   */\n      tag_362\n      jump\t// in\n    tag_660:\n        /* \"#utility.yul\":31335:31360   */\n      swap3\n      pop\n        /* \"#utility.yul\":31379:31380   */\n      dup3\n        /* \"#utility.yul\":31369:31404   */\n      tag_661\n      jumpi\n        /* \"#utility.yul\":31384:31402   */\n      tag_662\n      tag_421\n      jump\t// in\n    tag_662:\n        /* \"#utility.yul\":31369:31404   */\n    tag_661:\n        /* \"#utility.yul\":31426:31427   */\n      dup3\n        /* \"#utility.yul\":31423:31424   */\n      dup3\n        /* \"#utility.yul\":31419:31428   */\n      div\n        /* \"#utility.yul\":31414:31428   */\n      swap1\n      pop\n        /* \"#utility.yul\":31249:31434   */\n      swap3\n      swap2\n      pop\n      pop\n      jump\t// out\n        /* \"#utility.yul\":31440:31634   */\n    tag_338:\n        /* \"#utility.yul\":31480:31484   */\n      0x00\n        /* \"#utility.yul\":31500:31520   */\n      tag_664\n        /* \"#utility.yul\":31518:31519   */\n      dup3\n        /* \"#utility.yul\":31500:31520   */\n      tag_362\n      jump\t// in\n    tag_664:\n        /* \"#utility.yul\":31495:31520   */\n      swap2\n      pop\n        /* \"#utility.yul\":31534:31554   */\n      tag_665\n        /* \"#utility.yul\":31552:31553   */\n      dup4\n        /* \"#utility.yul\":31534:31554   */\n      tag_362\n      jump\t// in\n    tag_665:\n        /* \"#utility.yul\":31529:31554   */\n      swap3\n      pop\n        /* \"#utility.yul\":31578:31579   */\n      dup3\n        /* \"#utility.yul\":31575:31576   */\n      dup3\n        /* \"#utility.yul\":31571:31580   */\n      sub\n        /* \"#utility.yul\":31563:31580   */\n      swap1\n      pop\n        /* \"#utility.yul\":31602:31603   */\n      dup2\n        /* \"#utility.yul\":31596:31600   */\n      dup2\n        /* \"#utility.yul\":31593:31604   */\n      gt\n        /* \"#utility.yul\":31590:31627   */\n      iszero\n      tag_666\n      jumpi\n        /* \"#utility.yul\":31607:31625   */\n      tag_667\n      tag_380\n      jump\t// in\n    tag_667:\n        /* \"#utility.yul\":31590:31627   */\n    tag_666:\n        /* \"#utility.yul\":31440:31634   */\n      swap3\n      swap2\n      pop\n      pop\n      jump\t// out\n        /* \"#utility.yul\":31640:32050   */\n    tag_341:\n        /* \"#utility.yul\":31680:31687   */\n      0x00\n        /* \"#utility.yul\":31703:31723   */\n      tag_669\n        /* \"#utility.yul\":31721:31722   */\n      dup3\n        /* \"#utility.yul\":31703:31723   */\n      tag_362\n      jump\t// in\n    tag_669:\n        /* \"#utility.yul\":31698:31723   */\n      swap2\n      pop\n        /* \"#utility.yul\":31737:31757   */\n      tag_670\n        /* \"#utility.yul\":31755:31756   */\n      dup4\n        /* \"#utility.yul\":31737:31757   */\n      tag_362\n      jump\t// in\n    tag_670:\n        /* \"#utility.yul\":31732:31757   */\n      swap3\n      pop\n        /* \"#utility.yul\":31792:31793   */\n      dup3\n        /* \"#utility.yul\":31789:31790   */\n      dup3\n        /* \"#utility.yul\":31785:31794   */\n      mul\n        /* \"#utility.yul\":31814:31844   */\n      tag_671\n        /* \"#utility.yul\":31832:31843   */\n      dup2\n        /* \"#utility.yul\":31814:31844   */\n      tag_362\n      jump\t// in\n    tag_671:\n        /* \"#utility.yul\":31803:31844   */\n      swap2\n      pop\n        /* \"#utility.yul\":31993:31994   */\n      dup3\n        /* \"#utility.yul\":31984:31991   */\n      dup3\n        /* \"#utility.yul\":31980:31995   */\n      div\n        /* \"#utility.yul\":31977:31978   */\n      dup5\n        /* \"#utility.yul\":31974:31996   */\n      eq\n        /* \"#utility.yul\":31954:31955   */\n      dup4\n        /* \"#utility.yul\":31947:31956   */\n      iszero\n        /* \"#utility.yul\":31927:32010   */\n      or\n        /* \"#utility.yul\":31904:32043   */\n      tag_672\n      jumpi\n        /* \"#utility.yul\":32023:32041   */\n      tag_673\n      tag_380\n      jump\t// in\n    tag_673:\n        /* \"#utility.yul\":31904:32043   */\n    tag_672:\n        /* \"#utility.yul\":31688:32050   */\n      pop\n        /* \"#utility.yul\":31640:32050   */\n      swap3\n      swap2\n      pop\n      pop\n      jump\t// out\n        /* \"#utility.yul\":32056:32244   */\n    tag_344:\n        /* \"#utility.yul\":32094:32097   */\n      0x00\n        /* \"#utility.yul\":32113:32131   */\n      tag_675\n        /* \"#utility.yul\":32129:32130   */\n      dup3\n        /* \"#utility.yul\":32113:32131   */\n      tag_368\n      jump\t// in\n    tag_675:\n        /* \"#utility.yul\":32108:32131   */\n      swap2\n      pop\n        /* \"#utility.yul\":32145:32163   */\n      tag_676\n        /* \"#utility.yul\":32161:32162   */\n      dup4\n        /* \"#utility.yul\":32145:32163   */\n      tag_368\n      jump\t// in\n    tag_676:\n        /* \"#utility.yul\":32140:32163   */\n      swap3\n      pop\n        /* \"#utility.yul\":32186:32187   */\n      dup3\n        /* \"#utility.yul\":32183:32184   */\n      dup3\n        /* \"#utility.yul\":32179:32188   */\n      add\n        /* \"#utility.yul\":32172:32188   */\n      swap1\n      pop\n        /* \"#utility.yul\":32209:32213   */\n      0xff\n        /* \"#utility.yul\":32204:32207   */\n      dup2\n        /* \"#utility.yul\":32201:32214   */\n      gt\n        /* \"#utility.yul\":32198:32237   */\n      iszero\n      tag_677\n      jumpi\n        /* \"#utility.yul\":32217:32235   */\n      tag_678\n      tag_380\n      jump\t// in\n    tag_678:\n        /* \"#utility.yul\":32198:32237   */\n    tag_677:\n        /* \"#utility.yul\":32056:32244   */\n      swap3\n      swap2\n      pop\n      pop\n      jump\t// out\n\n    auxdata: 0xa2646970667358221220b3dc72e2eb2803d71fffc404c7acfb241adcbb6d4d1e36adbb4032cd437d0f2464736f6c634300081a0033\n}\n",
				"bytecode": {
					"linkReferences": {},
					"object": "608060405234801561000f575f80fd5b506040518060400160405280600581526020017f446567656e0000000000000000000000000000000000000000000000000000008152506040518060400160405280600381526020017f44474e0000000000000000000000000000000000000000000000000000000000815250816003908161008b9190610578565b50806004908161009b9190610578565b5050506100ba6100af61027460201b60201c565b61027b60201b60201c565b6040518060600160405280600181526020016040518060400160405280600681526020017f59616d61746f0000000000000000000000000000000000000000000000000000815250815260200160c881525060065f600181526020019081526020015f205f820151815f0155602082015181600101908161013b9190610578565b50604082015181600201559050506040518060600160405280600281526020016040518060400160405280600981526020017f526562656c6c696f6e0000000000000000000000000000000000000000000000815250815260200160c881525060065f600281526020019081526020015f205f820151815f015560208201518160010190816101ca9190610578565b50604082015181600201559050506040518060600160405280600381526020016040518060400160405280600981526020017f52656420517565656e0000000000000000000000000000000000000000000000815250815260200160c881525060065f600381526020019081526020015f205f820151815f015560208201518160010190816102599190610578565b50604082015181600201559050506003600781905550610647565b5f33905090565b5f60055f9054906101000a900473ffffffffffffffffffffffffffffffffffffffff1690508160055f6101000a81548173ffffffffffffffffffffffffffffffffffffffff021916908373ffffffffffffffffffffffffffffffffffffffff1602179055508173ffffffffffffffffffffffffffffffffffffffff168173ffffffffffffffffffffffffffffffffffffffff167f8be0079c531659141344cd1fd0a4f28419497f9722a3daafe3b4186f6b6457e060405160405180910390a35050565b5f81519050919050565b7f4e487b71000000000000000000000000000000000000000000000000000000005f52604160045260245ffd5b7f4e487b71000000000000000000000000000000000000000000000000000000005f52602260045260245ffd5b5f60028204905060018216806103b957607f821691505b6020821081036103cc576103cb610375565b5b50919050565b5f819050815f5260205f209050919050565b5f6020601f8301049050919050565b5f82821b905092915050565b5f6008830261042e7fffffffffffffffffffffffffffffffffffffffffffffffffffffffffffffffff826103f3565b61043886836103f3565b95508019841693508086168417925050509392505050565b5f819050919050565b5f819050919050565b5f61047c61047761047284610450565b610459565b610450565b9050919050565b5f819050919050565b61049583610462565b6104a96104a182610483565b8484546103ff565b825550505050565b5f90565b6104bd6104b1565b6104c881848461048c565b505050565b5b818110156104eb576104e05f826104b5565b6001810190506104ce565b5050565b601f82111561053057610501816103d2565b61050a846103e4565b81016020851015610519578190505b61052d610525856103e4565b8301826104cd565b50505b505050565b5f82821c905092915050565b5f6105505f1984600802610535565b1980831691505092915050565b5f6105688383610541565b9150826002028217905092915050565b6105818261033e565b67ffffffffffffffff81111561059a57610599610348565b5b6105a482546103a2565b6105af8282856104ef565b5f60209050601f8311600181146105e0575f84156105ce578287015190505b6105d8858261055d565b86555061063f565b601f1984166105ee866103d2565b5f5b82811015610615578489015182556001820191506020850194506020810190506105f0565b86831015610632578489015161062e601f891682610541565b8355505b6001600288020188555050505b505050505050565b612ad6806106545f395ff3fe608060405234801561000f575f80fd5b5060043610610171575f3560e01c806395d89b41116100dc578063c00aa3a511610095578063e4d746951161006f578063e4d7469514610475578063f0dda65c14610491578063f2fde38b146104ad578063f732ae71146104c957610171565b8063c00aa3a5146103f7578063c71daccb14610427578063dd62ed3e1461044557610171565b806395d89b411461030f578063a457c2d71461032d578063a48da4ef1461035d578063a9059cbb14610379578063bec3fa17146103a9578063bfb231d2146103c557610171565b8063659da27c1161012e578063659da27c1461025f5780636bfb0d011461027d5780636d1b229d1461029b57806370a08231146102b7578063715018a6146102e75780638da5cb5b146102f157610171565b806306fdde0314610175578063095ea7b31461019357806318160ddd146101c357806323b872dd146101e1578063313ce56714610211578063395093511461022f575b5f80fd5b61017d6104e7565b60405161018a9190611aa9565b60405180910390f35b6101ad60048036038101906101a89190611b5a565b610577565b6040516101ba9190611bb2565b60405180910390f35b6101cb610599565b6040516101d89190611bda565b60405180910390f35b6101fb60048036038101906101f69190611bf3565b6105a2565b6040516102089190611bb2565b60405180910390f35b6102196105d0565b6040516102269190611c5e565b60405180910390f35b61024960048036038101906102449190611b5a565b6105d8565b6040516102569190611bb2565b60405180910390f35b61026761060e565b6040516102749190611d7a565b60405180910390f35b6102856107e3565b6040516102929190611bda565b60405180910390f35b6102b560048036038101906102b09190611d9a565b6107e9565b005b6102d160048036038101906102cc9190611dc5565b610841565b6040516102de9190611bda565b60405180910390f35b6102ef610886565b005b6102f9610899565b6040516103069190611dff565b60405180910390f35b6103176108c1565b6040516103249190611aa9565b60405180910390f35b61034760048036038101906103429190611b5a565b610951565b6040516103549190611bb2565b60405180910390f35b61037760048036038101906103729190611b5a565b6109c6565b005b610393600480360381019061038e9190611b5a565b610a27565b6040516103a09190611bb2565b60405180910390f35b6103c360048036038101906103be9190611b5a565b610a49565b005b6103df60048036038101906103da9190611d9a565b610aaf565b6040516103ee93929190611e18565b60405180910390f35b610411600480360381019061040c9190611b5a565b610b5b565b60405161041e9190611bda565b60405180910390f35b61042f610b86565b60405161043c9190611bda565b60405180910390f35b61045f600480360381019061045a9190611e54565b610b95565b60405161046c9190611bda565b60405180910390f35b61048f600480360381019061048a9190611d9a565b610c17565b005b6104ab60048036038101906104a69190611b5a565b610d9b565b005b6104c760048036038101906104c29190611dc5565b610db1565b005b6104d1610e33565b6040516104de9190611aa9565b60405180910390f35b6060600380546104f690611ebf565b80601f016020809104026020016040519081016040528092919081815260200182805461052290611ebf565b801561056d5780601f106105445761010080835404028352916020019161056d565b820191905f5260205f20905b81548152906001019060200180831161055057829003601f168201915b5050505050905090565b5f80610581610f9e565b905061058e818585610fa5565b600191505092915050565b5f600254905090565b5f806105ac610f9e565b90506105b9858285611168565b6105c48585856111f3565b60019150509392505050565b5f6012905090565b5f806105e2610f9e565b90506106038185856105f48589610b95565b6105fe9190611f1c565b610fa5565b600191505092915050565b60605f60085f3373ffffffffffffffffffffffffffffffffffffffff1673ffffffffffffffffffffffffffffffffffffffff1681526020019081526020015f2080548060200260200160405190810160405280929190818152602001828054801561069657602002820191905f5260205f20905b815481526020019060010190808311610682575b505050505090505f815167ffffffffffffffff8111156106b9576106b8611f4f565b5b6040519080825280602002602001820160405280156106ec57816020015b60608152602001906001900390816106d75790505b5090505f5b82518110156107da5760065f8483815181106107105761070f611f7c565b5b602002602001015181526020019081526020015f20600101805461073390611ebf565b80601f016020809104026020016040519081016040528092919081815260200182805461075f90611ebf565b80156107aa5780601f10610781576101008083540402835291602001916107aa565b820191905f5260205f20905b81548152906001019060200180831161078d57829003601f168201915b50505050508282815181106107c2576107c1611f7c565b5b602002602001018190525080806001019150506106f1565b50809250505090565b60075481565b806107f333610841565b1015610834576040517f08c379a000000000000000000000000000000000000000000000000000000000815260040161082b90612019565b60405180910390fd5b61083e338261145f565b50565b5f805f8373ffffffffffffffffffffffffffffffffffffffff1673ffffffffffffffffffffffffffffffffffffffff1681526020019081526020015f20549050919050565b61088e611622565b6108975f6116a0565b565b5f60055f9054906101000a900473ffffffffffffffffffffffffffffffffffffffff16905090565b6060600480546108d090611ebf565b80601f01602080910402602001604051908101604052809291908181526020018280546108fc90611ebf565b80156109475780601f1061091e57610100808354040283529160200191610947565b820191905f5260205f20905b81548152906001019060200180831161092a57829003601f168201915b5050505050905090565b5f8061095b610f9e565b90505f6109688286610b95565b9050838110156109ad576040517f08c379a00000000000000000000000000000000000000000000000000000000081526004016109a4906120a7565b60405180910390fd5b6109ba8286868403610fa5565b60019250505092915050565b6109ce611622565b806109d883610841565b1015610a19576040517f08c379a0000000000000000000000000000000000000000000000000000000008152600401610a1090612135565b60405180910390fd5b610a23828261145f565b5050565b5f80610a31610f9e565b9050610a3e8185856111f3565b600191505092915050565b80610a5333610841565b1015610a94576040517f08c379a0000000000000000000000000000000000000000000000000000000008152600401610a8b906121c3565b60405180910390fd5b610a9e3382610577565b50610aaa3383836105a2565b505050565b6006602052805f5260405f205f91509050805f015490806001018054610ad490611ebf565b80601f0160208091040260200160405190810160405280929190818152602001828054610b0090611ebf565b8015610b4b5780601f10610b2257610100808354040283529160200191610b4b565b820191905f5260205f20905b815481529060010190602001808311610b2e57829003601f168201915b5050505050908060020154905083565b6008602052815f5260405f208181548110610b74575f80fd5b905f5260205f20015f91509150505481565b5f610b9033610841565b905090565b5f60015f8473ffffffffffffffffffffffffffffffffffffffff1673ffffffffffffffffffffffffffffffffffffffff1681526020019081526020015f205f8373ffffffffffffffffffffffffffffffffffffffff1673ffffffffffffffffffffffffffffffffffffffff1681526020019081526020015f2054905092915050565b5f60065f8381526020019081526020015f206040518060600160405290815f8201548152602001600182018054610c4d90611ebf565b80601f0160208091040260200160405190810160405280929190818152602001828054610c7990611ebf565b8015610cc45780601f10610c9b57610100808354040283529160200191610cc4565b820191905f5260205f20905b815481529060010190602001808311610ca757829003601f168201915b5050505050815260200160028201548152505090508060400151610ce733610841565b1015610d28576040517f08c379a0000000000000000000000000000000000000000000000000000000008152600401610d1f906121c3565b60405180910390fd5b610d3633826040015161145f565b60085f3373ffffffffffffffffffffffffffffffffffffffff1673ffffffffffffffffffffffffffffffffffffffff1681526020019081526020015f2082908060018154018082558091505060019003905f5260205f20015f90919091909150555050565b610da3611622565b610dad8282611763565b5050565b610db9611622565b5f73ffffffffffffffffffffffffffffffffffffffff168173ffffffffffffffffffffffffffffffffffffffff1603610e27576040517f08c379a0000000000000000000000000000000000000000000000000000000008152600401610e1e90612251565b60405180910390fd5b610e30816116a0565b50565b60605f6040518060400160405280601e81526020017f48657265206172652074686520617661696c61626c65206974656d733a20000081525090505f600190505b6007548111610f96575f60065f8381526020019081526020015f206040518060600160405290815f8201548152602001600182018054610eb390611ebf565b80601f0160208091040260200160405190810160405280929190818152602001828054610edf90611ebf565b8015610f2a5780601f10610f0157610100808354040283529160200191610f2a565b820191905f5260205f20905b815481529060010190602001808311610f0d57829003601f168201915b50505050508152602001600282015481525050905082610f4c825f01516118b1565b8260200151610f5e84604001516118b1565b604051602001610f7194939291906123d1565b6040516020818303038152906040529250508080610f8e9061243a565b915050610e74565b508091505090565b5f33905090565b5f73ffffffffffffffffffffffffffffffffffffffff168373ffffffffffffffffffffffffffffffffffffffff1603611013576040517f08c379a000000000000000000000000000000000000000000000000000000000815260040161100a906124f1565b60405180910390fd5b5f73ffffffffffffffffffffffffffffffffffffffff168273ffffffffffffffffffffffffffffffffffffffff1603611081576040517f08c379a00000000000000000000000000000000000000000000000000000000081526004016110789061257f565b60405180910390fd5b8060015f8573ffffffffffffffffffffffffffffffffffffffff1673ffffffffffffffffffffffffffffffffffffffff1681526020019081526020015f205f8473ffffffffffffffffffffffffffffffffffffffff1673ffffffffffffffffffffffffffffffffffffffff1681526020019081526020015f20819055508173ffffffffffffffffffffffffffffffffffffffff168373ffffffffffffffffffffffffffffffffffffffff167f8c5be1e5ebec7d5bd14f71427d1e84f3dd0314c0f7b2291e5b200ac8c7c3b9258360405161115b9190611bda565b60405180910390a3505050565b5f6111738484610b95565b90507fffffffffffffffffffffffffffffffffffffffffffffffffffffffffffffffff81146111ed57818110156111df576040517f08c379a00000000000000000000000000000000000000000000000000000000081526004016111d6906125e7565b60405180910390fd5b6111ec8484848403610fa5565b5b50505050565b5f73ffffffffffffffffffffffffffffffffffffffff168373ffffffffffffffffffffffffffffffffffffffff1603611261576040517f08c379a000000000000000000000000000000000000000000000000000000000815260040161125890612675565b60405180910390fd5b5f73ffffffffffffffffffffffffffffffffffffffff168273ffffffffffffffffffffffffffffffffffffffff16036112cf576040517f08c379a00000000000000000000000000000000000000000000000000000000081526004016112c690612703565b60405180910390fd5b6112da838383611a2f565b5f805f8573ffffffffffffffffffffffffffffffffffffffff1673ffffffffffffffffffffffffffffffffffffffff1681526020019081526020015f205490508181101561135d576040517f08c379a000000000000000000000000000000000000000000000000000000000815260040161135490612791565b60405180910390fd5b8181035f808673ffffffffffffffffffffffffffffffffffffffff1673ffffffffffffffffffffffffffffffffffffffff1681526020019081526020015f2081905550815f808573ffffffffffffffffffffffffffffffffffffffff1673ffffffffffffffffffffffffffffffffffffffff1681526020019081526020015f205f82825401925050819055508273ffffffffffffffffffffffffffffffffffffffff168473ffffffffffffffffffffffffffffffffffffffff167fddf252ad1be2c89b69c2b068fc378daa952ba7f163c4a11628f55a4df523b3ef846040516114469190611bda565b60405180910390a3611459848484611a34565b50505050565b5f73ffffffffffffffffffffffffffffffffffffffff168273ffffffffffffffffffffffffffffffffffffffff16036114cd576040517f08c379a00000000000000000000000000000000000000000000000000000000081526004016114c49061281f565b60405180910390fd5b6114d8825f83611a2f565b5f805f8473ffffffffffffffffffffffffffffffffffffffff1673ffffffffffffffffffffffffffffffffffffffff1681526020019081526020015f205490508181101561155b576040517f08c379a0000000000000000000000000000000000000000000000000000000008152600401611552906128ad565b60405180910390fd5b8181035f808573ffffffffffffffffffffffffffffffffffffffff1673ffffffffffffffffffffffffffffffffffffffff1681526020019081526020015f20819055508160025f82825403925050819055505f73ffffffffffffffffffffffffffffffffffffffff168373ffffffffffffffffffffffffffffffffffffffff167fddf252ad1be2c89b69c2b068fc378daa952ba7f163c4a11628f55a4df523b3ef8460405161160a9190611bda565b60405180910390a361161d835f84611a34565b505050565b61162a610f9e565b73ffffffffffffffffffffffffffffffffffffffff16611648610899565b73ffffffffffffffffffffffffffffffffffffffff161461169e576040517f08c379a000000000000000000000000000000000000000000000000000000000815260040161169590612915565b60405180910390fd5b565b5f60055f9054906101000a900473ffffffffffffffffffffffffffffffffffffffff1690508160055f6101000a81548173ffffffffffffffffffffffffffffffffffffffff021916908373ffffffffffffffffffffffffffffffffffffffff1602179055508173ffffffffffffffffffffffffffffffffffffffff168173ffffffffffffffffffffffffffffffffffffffff167f8be0079c531659141344cd1fd0a4f28419497f9722a3daafe3b4186f6b6457e060405160405180910390a35050565b5f73ffffffffffffffffffffffffffffffffffffffff168273ffffffffffffffffffffffffffffffffffffffff16036117d1576040517f08c379a00000000000000000000000000000000000000000000000000000000081526004016117c89061297d565b60405180910390fd5b6117dc5f8383611a2f565b8060025f8282546117ed9190611f1c565b92505081905550805f808473ffffffffffffffffffffffffffffffffffffffff1673ffffffffffffffffffffffffffffffffffffffff1681526020019081526020015f205f82825401925050819055508173ffffffffffffffffffffffffffffffffffffffff165f73ffffffffffffffffffffffffffffffffffffffff167fddf252ad1be2c89b69c2b068fc378daa952ba7f163c4a11628f55a4df523b3ef8360405161189a9190611bda565b60405180910390a36118ad5f8383611a34565b5050565b60605f82036118f7576040518060400160405280600181526020017f30000000000000000000000000000000000000000000000000000000000000008152509050611a2a565b5f8290505f5b5f821461192657808061190f9061243a565b915050600a8261191f91906129c8565b91506118fd565b5f8167ffffffffffffffff81111561194157611940611f4f565b5b6040519080825280601f01601f1916602001820160405280156119735781602001600182028036833780820191505090505b5090505f8290505b5f8614611a225760018161198f91906129f8565b90505f600a80886119a091906129c8565b6119aa9190612a2b565b876119b591906129f8565b60306119c19190612a6c565b90505f8160f81b9050808484815181106119de576119dd611f7c565b5b60200101907effffffffffffffffffffffffffffffffffffffffffffffffffffffffffffff191690815f1a905350600a88611a1991906129c8565b9750505061197b565b819450505050505b919050565b505050565b505050565b5f81519050919050565b5f82825260208201905092915050565b8281835e5f83830152505050565b5f601f19601f8301169050919050565b5f611a7b82611a39565b611a858185611a43565b9350611a95818560208601611a53565b611a9e81611a61565b840191505092915050565b5f6020820190508181035f830152611ac18184611a71565b905092915050565b5f80fd5b5f73ffffffffffffffffffffffffffffffffffffffff82169050919050565b5f611af682611acd565b9050919050565b611b0681611aec565b8114611b10575f80fd5b50565b5f81359050611b2181611afd565b92915050565b5f819050919050565b611b3981611b27565b8114611b43575f80fd5b50565b5f81359050611b5481611b30565b92915050565b5f8060408385031215611b7057611b6f611ac9565b5b5f611b7d85828601611b13565b9250506020611b8e85828601611b46565b9150509250929050565b5f8115159050919050565b611bac81611b98565b82525050565b5f602082019050611bc55f830184611ba3565b92915050565b611bd481611b27565b82525050565b5f602082019050611bed5f830184611bcb565b92915050565b5f805f60608486031215611c0a57611c09611ac9565b5b5f611c1786828701611b13565b9350506020611c2886828701611b13565b9250506040611c3986828701611b46565b9150509250925092565b5f60ff82169050919050565b611c5881611c43565b82525050565b5f602082019050611c715f830184611c4f565b92915050565b5f81519050919050565b5f82825260208201905092915050565b5f819050602082019050919050565b5f82825260208201905092915050565b5f611cba82611a39565b611cc48185611ca0565b9350611cd4818560208601611a53565b611cdd81611a61565b840191505092915050565b5f611cf38383611cb0565b905092915050565b5f602082019050919050565b5f611d1182611c77565b611d1b8185611c81565b935083602082028501611d2d85611c91565b805f5b85811015611d685784840389528151611d498582611ce8565b9450611d5483611cfb565b925060208a01995050600181019050611d30565b50829750879550505050505092915050565b5f6020820190508181035f830152611d928184611d07565b905092915050565b5f60208284031215611daf57611dae611ac9565b5b5f611dbc84828501611b46565b91505092915050565b5f60208284031215611dda57611dd9611ac9565b5b5f611de784828501611b13565b91505092915050565b611df981611aec565b82525050565b5f602082019050611e125f830184611df0565b92915050565b5f606082019050611e2b5f830186611bcb565b8181036020830152611e3d8185611a71565b9050611e4c6040830184611bcb565b949350505050565b5f8060408385031215611e6a57611e69611ac9565b5b5f611e7785828601611b13565b9250506020611e8885828601611b13565b9150509250929050565b7f4e487b71000000000000000000000000000000000000000000000000000000005f52602260045260245ffd5b5f6002820490506001821680611ed657607f821691505b602082108103611ee957611ee8611e92565b5b50919050565b7f4e487b71000000000000000000000000000000000000000000000000000000005f52601160045260245ffd5b5f611f2682611b27565b9150611f3183611b27565b9250828201905080821115611f4957611f48611eef565b5b92915050565b7f4e487b71000000000000000000000000000000000000000000000000000000005f52604160045260245ffd5b7f4e487b71000000000000000000000000000000000000000000000000000000005f52603260045260245ffd5b7f596f752063616e6e6f74206275726e206d6f7265207468616e20796f757220635f8201527f757272656e742062616c616e6365000000000000000000000000000000000000602082015250565b5f612003602e83611a43565b915061200e82611fa9565b604082019050919050565b5f6020820190508181035f83015261203081611ff7565b9050919050565b7f45524332303a2064656372656173656420616c6c6f77616e63652062656c6f775f8201527f207a65726f000000000000000000000000000000000000000000000000000000602082015250565b5f612091602583611a43565b915061209c82612037565b604082019050919050565b5f6020820190508181035f8301526120be81612085565b9050919050565b7f596f752063616e6e6f74206275726e206d6f7265207468616e207468652061765f8201527f61696c61626c652062616c616e63650000000000000000000000000000000000602082015250565b5f61211f602f83611a43565b915061212a826120c5565b604082019050919050565b5f6020820190508181035f83015261214c81612113565b9050919050565b7f596f7520646f206e6f74206861766520656e6f75676820446567656e20546f6b5f8201527f656e730000000000000000000000000000000000000000000000000000000000602082015250565b5f6121ad602383611a43565b91506121b882612153565b604082019050919050565b5f6020820190508181035f8301526121da816121a1565b9050919050565b7f4f776e61626c653a206e6577206f776e657220697320746865207a65726f20615f8201527f6464726573730000000000000000000000000000000000000000000000000000602082015250565b5f61223b602683611a43565b9150612246826121e1565b604082019050919050565b5f6020820190508181035f8301526122688161222f565b9050919050565b5f81905092915050565b5f61228382611a39565b61228d818561226f565b935061229d818560208601611a53565b80840191505092915050565b7f49443a20000000000000000000000000000000000000000000000000000000005f82015250565b5f6122dd60048361226f565b91506122e8826122a9565b600482019050919050565b7f2c204e616d653a200000000000000000000000000000000000000000000000005f82015250565b5f61232760088361226f565b9150612332826122f3565b600882019050919050565b7f2c2050726963653a2000000000000000000000000000000000000000000000005f82015250565b5f61237160098361226f565b915061237c8261233d565b600982019050919050565b7f0a000000000000000000000000000000000000000000000000000000000000005f82015250565b5f6123bb60018361226f565b91506123c682612387565b600182019050919050565b5f6123dc8287612279565b91506123e7826122d1565b91506123f38286612279565b91506123fe8261231b565b915061240a8285612279565b915061241582612365565b91506124218284612279565b915061242c826123af565b915081905095945050505050565b5f61244482611b27565b91507fffffffffffffffffffffffffffffffffffffffffffffffffffffffffffffffff820361247657612475611eef565b5b600182019050919050565b7f45524332303a20617070726f76652066726f6d20746865207a65726f206164645f8201527f7265737300000000000000000000000000000000000000000000000000000000602082015250565b5f6124db602483611a43565b91506124e682612481565b604082019050919050565b5f6020820190508181035f830152612508816124cf565b9050919050565b7f45524332303a20617070726f766520746f20746865207a65726f2061646472655f8201527f7373000000000000000000000000000000000000000000000000000000000000602082015250565b5f612569602283611a43565b91506125748261250f565b604082019050919050565b5f6020820190508181035f8301526125968161255d565b9050919050565b7f45524332303a20696e73756666696369656e7420616c6c6f77616e63650000005f82015250565b5f6125d1601d83611a43565b91506125dc8261259d565b602082019050919050565b5f6020820190508181035f8301526125fe816125c5565b9050919050565b7f45524332303a207472616e736665722066726f6d20746865207a65726f2061645f8201527f6472657373000000000000000000000000000000000000000000000000000000602082015250565b5f61265f602583611a43565b915061266a82612605565b604082019050919050565b5f6020820190508181035f83015261268c81612653565b9050919050565b7f45524332303a207472616e7366657220746f20746865207a65726f20616464725f8201527f6573730000000000000000000000000000000000000000000000000000000000602082015250565b5f6126ed602383611a43565b91506126f882612693565b604082019050919050565b5f6020820190508181035f83015261271a816126e1565b9050919050565b7f45524332303a207472616e7366657220616d6f756e74206578636565647320625f8201527f616c616e63650000000000000000000000000000000000000000000000000000602082015250565b5f61277b602683611a43565b915061278682612721565b604082019050919050565b5f6020820190508181035f8301526127a88161276f565b9050919050565b7f45524332303a206275726e2066726f6d20746865207a65726f206164647265735f8201527f7300000000000000000000000000000000000000000000000000000000000000602082015250565b5f612809602183611a43565b9150612814826127af565b604082019050919050565b5f6020820190508181035f830152612836816127fd565b9050919050565b7f45524332303a206275726e20616d6f756e7420657863656564732062616c616e5f8201527f6365000000000000000000000000000000000000000000000000000000000000602082015250565b5f612897602283611a43565b91506128a28261283d565b604082019050919050565b5f6020820190508181035f8301526128c48161288b565b9050919050565b7f4f776e61626c653a2063616c6c6572206973206e6f7420746865206f776e65725f82015250565b5f6128ff602083611a43565b915061290a826128cb565b602082019050919050565b5f6020820190508181035f83015261292c816128f3565b9050919050565b7f45524332303a206d696e7420746f20746865207a65726f2061646472657373005f82015250565b5f612967601f83611a43565b915061297282612933565b602082019050919050565b5f6020820190508181035f8301526129948161295b565b9050919050565b7f4e487b71000000000000000000000000000000000000000000000000000000005f52601260045260245ffd5b5f6129d282611b27565b91506129dd83611b27565b9250826129ed576129ec61299b565b5b828204905092915050565b5f612a0282611b27565b9150612a0d83611b27565b9250828203905081811115612a2557612a24611eef565b5b92915050565b5f612a3582611b27565b9150612a4083611b27565b9250828202612a4e81611b27565b91508282048414831517612a6557612a64611eef565b5b5092915050565b5f612a7682611c43565b9150612a8183611c43565b9250828201905060ff811115612a9a57612a99611eef565b5b9291505056fea2646970667358221220b3dc72e2eb2803d71fffc404c7acfb241adcbb6d4d1e36adbb4032cd437d0f2464736f6c634300081a0033",
					"opcodes": "PUSH1 0x80 PUSH1 0x40 MSTORE CALLVALUE DUP1 ISZERO PUSH2 0xF JUMPI PUSH0 DUP1 REVERT JUMPDEST POP PUSH1 0x40 MLOAD DUP1 PUSH1 0x40 ADD PUSH1 0x40 MSTORE DUP1 PUSH1 0x5 DUP2 MSTORE PUSH1 0x20 ADD PUSH32 0x446567656E000000000000000000000000000000000000000000000000000000 DUP2 MSTORE POP PUSH1 0x40 MLOAD DUP1 PUSH1 0x40 ADD PUSH1 0x40 MSTORE DUP1 PUSH1 0x3 DUP2 MSTORE PUSH1 0x20 ADD PUSH32 0x44474E0000000000000000000000000000000000000000000000000000000000 DUP2 MSTORE POP DUP2 PUSH1 0x3 SWAP1 DUP2 PUSH2 0x8B SWAP2 SWAP1 PUSH2 0x578 JUMP JUMPDEST POP DUP1 PUSH1 0x4 SWAP1 DUP2 PUSH2 0x9B SWAP2 SWAP1 PUSH2 0x578 JUMP JUMPDEST POP POP POP PUSH2 0xBA PUSH2 0xAF PUSH2 0x274 PUSH1 0x20 SHL PUSH1 0x20 SHR JUMP JUMPDEST PUSH2 0x27B PUSH1 0x20 SHL PUSH1 0x20 SHR JUMP JUMPDEST PUSH1 0x40 MLOAD DUP1 PUSH1 0x60 ADD PUSH1 0x40 MSTORE DUP1 PUSH1 0x1 DUP2 MSTORE PUSH1 0x20 ADD PUSH1 0x40 MLOAD DUP1 PUSH1 0x40 ADD PUSH1 0x40 MSTORE DUP1 PUSH1 0x6 DUP2 MSTORE PUSH1 0x20 ADD PUSH32 0x59616D61746F0000000000000000000000000000000000000000000000000000 DUP2 MSTORE POP DUP2 MSTORE PUSH1 0x20 ADD PUSH1 0xC8 DUP2 MSTORE POP PUSH1 0x6 PUSH0 PUSH1 0x1 DUP2 MSTORE PUSH1 0x20 ADD SWAP1 DUP2 MSTORE PUSH1 0x20 ADD PUSH0 KECCAK256 PUSH0 DUP3 ADD MLOAD DUP2 PUSH0 ADD SSTORE PUSH1 0x20 DUP3 ADD MLOAD DUP2 PUSH1 0x1 ADD SWAP1 DUP2 PUSH2 0x13B SWAP2 SWAP1 PUSH2 0x578 JUMP JUMPDEST POP PUSH1 0x40 DUP3 ADD MLOAD DUP2 PUSH1 0x2 ADD SSTORE SWAP1 POP POP PUSH1 0x40 MLOAD DUP1 PUSH1 0x60 ADD PUSH1 0x40 MSTORE DUP1 PUSH1 0x2 DUP2 MSTORE PUSH1 0x20 ADD PUSH1 0x40 MLOAD DUP1 PUSH1 0x40 ADD PUSH1 0x40 MSTORE DUP1 PUSH1 0x9 DUP2 MSTORE PUSH1 0x20 ADD PUSH32 0x526562656C6C696F6E0000000000000000000000000000000000000000000000 DUP2 MSTORE POP DUP2 MSTORE PUSH1 0x20 ADD PUSH1 0xC8 DUP2 MSTORE POP PUSH1 0x6 PUSH0 PUSH1 0x2 DUP2 MSTORE PUSH1 0x20 ADD SWAP1 DUP2 MSTORE PUSH1 0x20 ADD PUSH0 KECCAK256 PUSH0 DUP3 ADD MLOAD DUP2 PUSH0 ADD SSTORE PUSH1 0x20 DUP3 ADD MLOAD DUP2 PUSH1 0x1 ADD SWAP1 DUP2 PUSH2 0x1CA SWAP2 SWAP1 PUSH2 0x578 JUMP JUMPDEST POP PUSH1 0x40 DUP3 ADD MLOAD DUP2 PUSH1 0x2 ADD SSTORE SWAP1 POP POP PUSH1 0x40 MLOAD DUP1 PUSH1 0x60 ADD PUSH1 0x40 MSTORE DUP1 PUSH1 0x3 DUP2 MSTORE PUSH1 0x20 ADD PUSH1 0x40 MLOAD DUP1 PUSH1 0x40 ADD PUSH1 0x40 MSTORE DUP1 PUSH1 0x9 DUP2 MSTORE PUSH1 0x20 ADD PUSH32 0x52656420517565656E0000000000000000000000000000000000000000000000 DUP2 MSTORE POP DUP2 MSTORE PUSH1 0x20 ADD PUSH1 0xC8 DUP2 MSTORE POP PUSH1 0x6 PUSH0 PUSH1 0x3 DUP2 MSTORE PUSH1 0x20 ADD SWAP1 DUP2 MSTORE PUSH1 0x20 ADD PUSH0 KECCAK256 PUSH0 DUP3 ADD MLOAD DUP2 PUSH0 ADD SSTORE PUSH1 0x20 DUP3 ADD MLOAD DUP2 PUSH1 0x1 ADD SWAP1 DUP2 PUSH2 0x259 SWAP2 SWAP1 PUSH2 0x578 JUMP JUMPDEST POP PUSH1 0x40 DUP3 ADD MLOAD DUP2 PUSH1 0x2 ADD SSTORE SWAP1 POP POP PUSH1 0x3 PUSH1 0x7 DUP2 SWAP1 SSTORE POP PUSH2 0x647 JUMP JUMPDEST PUSH0 CALLER SWAP1 POP SWAP1 JUMP JUMPDEST PUSH0 PUSH1 0x5 PUSH0 SWAP1 SLOAD SWAP1 PUSH2 0x100 EXP SWAP1 DIV PUSH20 0xFFFFFFFFFFFFFFFFFFFFFFFFFFFFFFFFFFFFFFFF AND SWAP1 POP DUP2 PUSH1 0x5 PUSH0 PUSH2 0x100 EXP DUP2 SLOAD DUP2 PUSH20 0xFFFFFFFFFFFFFFFFFFFFFFFFFFFFFFFFFFFFFFFF MUL NOT AND SWAP1 DUP4 PUSH20 0xFFFFFFFFFFFFFFFFFFFFFFFFFFFFFFFFFFFFFFFF AND MUL OR SWAP1 SSTORE POP DUP2 PUSH20 0xFFFFFFFFFFFFFFFFFFFFFFFFFFFFFFFFFFFFFFFF AND DUP2 PUSH20 0xFFFFFFFFFFFFFFFFFFFFFFFFFFFFFFFFFFFFFFFF AND PUSH32 0x8BE0079C531659141344CD1FD0A4F28419497F9722A3DAAFE3B4186F6B6457E0 PUSH1 0x40 MLOAD PUSH1 0x40 MLOAD DUP1 SWAP2 SUB SWAP1 LOG3 POP POP JUMP JUMPDEST PUSH0 DUP2 MLOAD SWAP1 POP SWAP2 SWAP1 POP JUMP JUMPDEST PUSH32 0x4E487B7100000000000000000000000000000000000000000000000000000000 PUSH0 MSTORE PUSH1 0x41 PUSH1 0x4 MSTORE PUSH1 0x24 PUSH0 REVERT JUMPDEST PUSH32 0x4E487B7100000000000000000000000000000000000000000000000000000000 PUSH0 MSTORE PUSH1 0x22 PUSH1 0x4 MSTORE PUSH1 0x24 PUSH0 REVERT JUMPDEST PUSH0 PUSH1 0x2 DUP3 DIV SWAP1 POP PUSH1 0x1 DUP3 AND DUP1 PUSH2 0x3B9 JUMPI PUSH1 0x7F DUP3 AND SWAP2 POP JUMPDEST PUSH1 0x20 DUP3 LT DUP2 SUB PUSH2 0x3CC JUMPI PUSH2 0x3CB PUSH2 0x375 JUMP JUMPDEST JUMPDEST POP SWAP2 SWAP1 POP JUMP JUMPDEST PUSH0 DUP2 SWAP1 POP DUP2 PUSH0 MSTORE PUSH1 0x20 PUSH0 KECCAK256 SWAP1 POP SWAP2 SWAP1 POP JUMP JUMPDEST PUSH0 PUSH1 0x20 PUSH1 0x1F DUP4 ADD DIV SWAP1 POP SWAP2 SWAP1 POP JUMP JUMPDEST PUSH0 DUP3 DUP3 SHL SWAP1 POP SWAP3 SWAP2 POP POP JUMP JUMPDEST PUSH0 PUSH1 0x8 DUP4 MUL PUSH2 0x42E PUSH32 0xFFFFFFFFFFFFFFFFFFFFFFFFFFFFFFFFFFFFFFFFFFFFFFFFFFFFFFFFFFFFFFFF DUP3 PUSH2 0x3F3 JUMP JUMPDEST PUSH2 0x438 DUP7 DUP4 PUSH2 0x3F3 JUMP JUMPDEST SWAP6 POP DUP1 NOT DUP5 AND SWAP4 POP DUP1 DUP7 AND DUP5 OR SWAP3 POP POP POP SWAP4 SWAP3 POP POP POP JUMP JUMPDEST PUSH0 DUP2 SWAP1 POP SWAP2 SWAP1 POP JUMP JUMPDEST PUSH0 DUP2 SWAP1 POP SWAP2 SWAP1 POP JUMP JUMPDEST PUSH0 PUSH2 0x47C PUSH2 0x477 PUSH2 0x472 DUP5 PUSH2 0x450 JUMP JUMPDEST PUSH2 0x459 JUMP JUMPDEST PUSH2 0x450 JUMP JUMPDEST SWAP1 POP SWAP2 SWAP1 POP JUMP JUMPDEST PUSH0 DUP2 SWAP1 POP SWAP2 SWAP1 POP JUMP JUMPDEST PUSH2 0x495 DUP4 PUSH2 0x462 JUMP JUMPDEST PUSH2 0x4A9 PUSH2 0x4A1 DUP3 PUSH2 0x483 JUMP JUMPDEST DUP5 DUP5 SLOAD PUSH2 0x3FF JUMP JUMPDEST DUP3 SSTORE POP POP POP POP JUMP JUMPDEST PUSH0 SWAP1 JUMP JUMPDEST PUSH2 0x4BD PUSH2 0x4B1 JUMP JUMPDEST PUSH2 0x4C8 DUP2 DUP5 DUP5 PUSH2 0x48C JUMP JUMPDEST POP POP POP JUMP JUMPDEST JUMPDEST DUP2 DUP2 LT ISZERO PUSH2 0x4EB JUMPI PUSH2 0x4E0 PUSH0 DUP3 PUSH2 0x4B5 JUMP JUMPDEST PUSH1 0x1 DUP2 ADD SWAP1 POP PUSH2 0x4CE JUMP JUMPDEST POP POP JUMP JUMPDEST PUSH1 0x1F DUP3 GT ISZERO PUSH2 0x530 JUMPI PUSH2 0x501 DUP2 PUSH2 0x3D2 JUMP JUMPDEST PUSH2 0x50A DUP5 PUSH2 0x3E4 JUMP JUMPDEST DUP2 ADD PUSH1 0x20 DUP6 LT ISZERO PUSH2 0x519 JUMPI DUP2 SWAP1 POP JUMPDEST PUSH2 0x52D PUSH2 0x525 DUP6 PUSH2 0x3E4 JUMP JUMPDEST DUP4 ADD DUP3 PUSH2 0x4CD JUMP JUMPDEST POP POP JUMPDEST POP POP POP JUMP JUMPDEST PUSH0 DUP3 DUP3 SHR SWAP1 POP SWAP3 SWAP2 POP POP JUMP JUMPDEST PUSH0 PUSH2 0x550 PUSH0 NOT DUP5 PUSH1 0x8 MUL PUSH2 0x535 JUMP JUMPDEST NOT DUP1 DUP4 AND SWAP2 POP POP SWAP3 SWAP2 POP POP JUMP JUMPDEST PUSH0 PUSH2 0x568 DUP4 DUP4 PUSH2 0x541 JUMP JUMPDEST SWAP2 POP DUP3 PUSH1 0x2 MUL DUP3 OR SWAP1 POP SWAP3 SWAP2 POP POP JUMP JUMPDEST PUSH2 0x581 DUP3 PUSH2 0x33E JUMP JUMPDEST PUSH8 0xFFFFFFFFFFFFFFFF DUP2 GT ISZERO PUSH2 0x59A JUMPI PUSH2 0x599 PUSH2 0x348 JUMP JUMPDEST JUMPDEST PUSH2 0x5A4 DUP3 SLOAD PUSH2 0x3A2 JUMP JUMPDEST PUSH2 0x5AF DUP3 DUP3 DUP6 PUSH2 0x4EF JUMP JUMPDEST PUSH0 PUSH1 0x20 SWAP1 POP PUSH1 0x1F DUP4 GT PUSH1 0x1 DUP2 EQ PUSH2 0x5E0 JUMPI PUSH0 DUP5 ISZERO PUSH2 0x5CE JUMPI DUP3 DUP8 ADD MLOAD SWAP1 POP JUMPDEST PUSH2 0x5D8 DUP6 DUP3 PUSH2 0x55D JUMP JUMPDEST DUP7 SSTORE POP PUSH2 0x63F JUMP JUMPDEST PUSH1 0x1F NOT DUP5 AND PUSH2 0x5EE DUP7 PUSH2 0x3D2 JUMP JUMPDEST PUSH0 JUMPDEST DUP3 DUP2 LT ISZERO PUSH2 0x615 JUMPI DUP5 DUP10 ADD MLOAD DUP3 SSTORE PUSH1 0x1 DUP3 ADD SWAP2 POP PUSH1 0x20 DUP6 ADD SWAP5 POP PUSH1 0x20 DUP2 ADD SWAP1 POP PUSH2 0x5F0 JUMP JUMPDEST DUP7 DUP4 LT ISZERO PUSH2 0x632 JUMPI DUP5 DUP10 ADD MLOAD PUSH2 0x62E PUSH1 0x1F DUP10 AND DUP3 PUSH2 0x541 JUMP JUMPDEST DUP4 SSTORE POP JUMPDEST PUSH1 0x1 PUSH1 0x2 DUP9 MUL ADD DUP9 SSTORE POP POP POP JUMPDEST POP POP POP POP POP POP JUMP JUMPDEST PUSH2 0x2AD6 DUP1 PUSH2 0x654 PUSH0 CODECOPY PUSH0 RETURN INVALID PUSH1 0x80 PUSH1 0x40 MSTORE CALLVALUE DUP1 ISZERO PUSH2 0xF JUMPI PUSH0 DUP1 REVERT JUMPDEST POP PUSH1 0x4 CALLDATASIZE LT PUSH2 0x171 JUMPI PUSH0 CALLDATALOAD PUSH1 0xE0 SHR DUP1 PUSH4 0x95D89B41 GT PUSH2 0xDC JUMPI DUP1 PUSH4 0xC00AA3A5 GT PUSH2 0x95 JUMPI DUP1 PUSH4 0xE4D74695 GT PUSH2 0x6F JUMPI DUP1 PUSH4 0xE4D74695 EQ PUSH2 0x475 JUMPI DUP1 PUSH4 0xF0DDA65C EQ PUSH2 0x491 JUMPI DUP1 PUSH4 0xF2FDE38B EQ PUSH2 0x4AD JUMPI DUP1 PUSH4 0xF732AE71 EQ PUSH2 0x4C9 JUMPI PUSH2 0x171 JUMP JUMPDEST DUP1 PUSH4 0xC00AA3A5 EQ PUSH2 0x3F7 JUMPI DUP1 PUSH4 0xC71DACCB EQ PUSH2 0x427 JUMPI DUP1 PUSH4 0xDD62ED3E EQ PUSH2 0x445 JUMPI PUSH2 0x171 JUMP JUMPDEST DUP1 PUSH4 0x95D89B41 EQ PUSH2 0x30F JUMPI DUP1 PUSH4 0xA457C2D7 EQ PUSH2 0x32D JUMPI DUP1 PUSH4 0xA48DA4EF EQ PUSH2 0x35D JUMPI DUP1 PUSH4 0xA9059CBB EQ PUSH2 0x379 JUMPI DUP1 PUSH4 0xBEC3FA17 EQ PUSH2 0x3A9 JUMPI DUP1 PUSH4 0xBFB231D2 EQ PUSH2 0x3C5 JUMPI PUSH2 0x171 JUMP JUMPDEST DUP1 PUSH4 0x659DA27C GT PUSH2 0x12E JUMPI DUP1 PUSH4 0x659DA27C EQ PUSH2 0x25F JUMPI DUP1 PUSH4 0x6BFB0D01 EQ PUSH2 0x27D JUMPI DUP1 PUSH4 0x6D1B229D EQ PUSH2 0x29B JUMPI DUP1 PUSH4 0x70A08231 EQ PUSH2 0x2B7 JUMPI DUP1 PUSH4 0x715018A6 EQ PUSH2 0x2E7 JUMPI DUP1 PUSH4 0x8DA5CB5B EQ PUSH2 0x2F1 JUMPI PUSH2 0x171 JUMP JUMPDEST DUP1 PUSH4 0x6FDDE03 EQ PUSH2 0x175 JUMPI DUP1 PUSH4 0x95EA7B3 EQ PUSH2 0x193 JUMPI DUP1 PUSH4 0x18160DDD EQ PUSH2 0x1C3 JUMPI DUP1 PUSH4 0x23B872DD EQ PUSH2 0x1E1 JUMPI DUP1 PUSH4 0x313CE567 EQ PUSH2 0x211 JUMPI DUP1 PUSH4 0x39509351 EQ PUSH2 0x22F JUMPI JUMPDEST PUSH0 DUP1 REVERT JUMPDEST PUSH2 0x17D PUSH2 0x4E7 JUMP JUMPDEST PUSH1 0x40 MLOAD PUSH2 0x18A SWAP2 SWAP1 PUSH2 0x1AA9 JUMP JUMPDEST PUSH1 0x40 MLOAD DUP1 SWAP2 SUB SWAP1 RETURN JUMPDEST PUSH2 0x1AD PUSH1 0x4 DUP1 CALLDATASIZE SUB DUP2 ADD SWAP1 PUSH2 0x1A8 SWAP2 SWAP1 PUSH2 0x1B5A JUMP JUMPDEST PUSH2 0x577 JUMP JUMPDEST PUSH1 0x40 MLOAD PUSH2 0x1BA SWAP2 SWAP1 PUSH2 0x1BB2 JUMP JUMPDEST PUSH1 0x40 MLOAD DUP1 SWAP2 SUB SWAP1 RETURN JUMPDEST PUSH2 0x1CB PUSH2 0x599 JUMP JUMPDEST PUSH1 0x40 MLOAD PUSH2 0x1D8 SWAP2 SWAP1 PUSH2 0x1BDA JUMP JUMPDEST PUSH1 0x40 MLOAD DUP1 SWAP2 SUB SWAP1 RETURN JUMPDEST PUSH2 0x1FB PUSH1 0x4 DUP1 CALLDATASIZE SUB DUP2 ADD SWAP1 PUSH2 0x1F6 SWAP2 SWAP1 PUSH2 0x1BF3 JUMP JUMPDEST PUSH2 0x5A2 JUMP JUMPDEST PUSH1 0x40 MLOAD PUSH2 0x208 SWAP2 SWAP1 PUSH2 0x1BB2 JUMP JUMPDEST PUSH1 0x40 MLOAD DUP1 SWAP2 SUB SWAP1 RETURN JUMPDEST PUSH2 0x219 PUSH2 0x5D0 JUMP JUMPDEST PUSH1 0x40 MLOAD PUSH2 0x226 SWAP2 SWAP1 PUSH2 0x1C5E JUMP JUMPDEST PUSH1 0x40 MLOAD DUP1 SWAP2 SUB SWAP1 RETURN JUMPDEST PUSH2 0x249 PUSH1 0x4 DUP1 CALLDATASIZE SUB DUP2 ADD SWAP1 PUSH2 0x244 SWAP2 SWAP1 PUSH2 0x1B5A JUMP JUMPDEST PUSH2 0x5D8 JUMP JUMPDEST PUSH1 0x40 MLOAD PUSH2 0x256 SWAP2 SWAP1 PUSH2 0x1BB2 JUMP JUMPDEST PUSH1 0x40 MLOAD DUP1 SWAP2 SUB SWAP1 RETURN JUMPDEST PUSH2 0x267 PUSH2 0x60E JUMP JUMPDEST PUSH1 0x40 MLOAD PUSH2 0x274 SWAP2 SWAP1 PUSH2 0x1D7A JUMP JUMPDEST PUSH1 0x40 MLOAD DUP1 SWAP2 SUB SWAP1 RETURN JUMPDEST PUSH2 0x285 PUSH2 0x7E3 JUMP JUMPDEST PUSH1 0x40 MLOAD PUSH2 0x292 SWAP2 SWAP1 PUSH2 0x1BDA JUMP JUMPDEST PUSH1 0x40 MLOAD DUP1 SWAP2 SUB SWAP1 RETURN JUMPDEST PUSH2 0x2B5 PUSH1 0x4 DUP1 CALLDATASIZE SUB DUP2 ADD SWAP1 PUSH2 0x2B0 SWAP2 SWAP1 PUSH2 0x1D9A JUMP JUMPDEST PUSH2 0x7E9 JUMP JUMPDEST STOP JUMPDEST PUSH2 0x2D1 PUSH1 0x4 DUP1 CALLDATASIZE SUB DUP2 ADD SWAP1 PUSH2 0x2CC SWAP2 SWAP1 PUSH2 0x1DC5 JUMP JUMPDEST PUSH2 0x841 JUMP JUMPDEST PUSH1 0x40 MLOAD PUSH2 0x2DE SWAP2 SWAP1 PUSH2 0x1BDA JUMP JUMPDEST PUSH1 0x40 MLOAD DUP1 SWAP2 SUB SWAP1 RETURN JUMPDEST PUSH2 0x2EF PUSH2 0x886 JUMP JUMPDEST STOP JUMPDEST PUSH2 0x2F9 PUSH2 0x899 JUMP JUMPDEST PUSH1 0x40 MLOAD PUSH2 0x306 SWAP2 SWAP1 PUSH2 0x1DFF JUMP JUMPDEST PUSH1 0x40 MLOAD DUP1 SWAP2 SUB SWAP1 RETURN JUMPDEST PUSH2 0x317 PUSH2 0x8C1 JUMP JUMPDEST PUSH1 0x40 MLOAD PUSH2 0x324 SWAP2 SWAP1 PUSH2 0x1AA9 JUMP JUMPDEST PUSH1 0x40 MLOAD DUP1 SWAP2 SUB SWAP1 RETURN JUMPDEST PUSH2 0x347 PUSH1 0x4 DUP1 CALLDATASIZE SUB DUP2 ADD SWAP1 PUSH2 0x342 SWAP2 SWAP1 PUSH2 0x1B5A JUMP JUMPDEST PUSH2 0x951 JUMP JUMPDEST PUSH1 0x40 MLOAD PUSH2 0x354 SWAP2 SWAP1 PUSH2 0x1BB2 JUMP JUMPDEST PUSH1 0x40 MLOAD DUP1 SWAP2 SUB SWAP1 RETURN JUMPDEST PUSH2 0x377 PUSH1 0x4 DUP1 CALLDATASIZE SUB DUP2 ADD SWAP1 PUSH2 0x372 SWAP2 SWAP1 PUSH2 0x1B5A JUMP JUMPDEST PUSH2 0x9C6 JUMP JUMPDEST STOP JUMPDEST PUSH2 0x393 PUSH1 0x4 DUP1 CALLDATASIZE SUB DUP2 ADD SWAP1 PUSH2 0x38E SWAP2 SWAP1 PUSH2 0x1B5A JUMP JUMPDEST PUSH2 0xA27 JUMP JUMPDEST PUSH1 0x40 MLOAD PUSH2 0x3A0 SWAP2 SWAP1 PUSH2 0x1BB2 JUMP JUMPDEST PUSH1 0x40 MLOAD DUP1 SWAP2 SUB SWAP1 RETURN JUMPDEST PUSH2 0x3C3 PUSH1 0x4 DUP1 CALLDATASIZE SUB DUP2 ADD SWAP1 PUSH2 0x3BE SWAP2 SWAP1 PUSH2 0x1B5A JUMP JUMPDEST PUSH2 0xA49 JUMP JUMPDEST STOP JUMPDEST PUSH2 0x3DF PUSH1 0x4 DUP1 CALLDATASIZE SUB DUP2 ADD SWAP1 PUSH2 0x3DA SWAP2 SWAP1 PUSH2 0x1D9A JUMP JUMPDEST PUSH2 0xAAF JUMP JUMPDEST PUSH1 0x40 MLOAD PUSH2 0x3EE SWAP4 SWAP3 SWAP2 SWAP1 PUSH2 0x1E18 JUMP JUMPDEST PUSH1 0x40 MLOAD DUP1 SWAP2 SUB SWAP1 RETURN JUMPDEST PUSH2 0x411 PUSH1 0x4 DUP1 CALLDATASIZE SUB DUP2 ADD SWAP1 PUSH2 0x40C SWAP2 SWAP1 PUSH2 0x1B5A JUMP JUMPDEST PUSH2 0xB5B JUMP JUMPDEST PUSH1 0x40 MLOAD PUSH2 0x41E SWAP2 SWAP1 PUSH2 0x1BDA JUMP JUMPDEST PUSH1 0x40 MLOAD DUP1 SWAP2 SUB SWAP1 RETURN JUMPDEST PUSH2 0x42F PUSH2 0xB86 JUMP JUMPDEST PUSH1 0x40 MLOAD PUSH2 0x43C SWAP2 SWAP1 PUSH2 0x1BDA JUMP JUMPDEST PUSH1 0x40 MLOAD DUP1 SWAP2 SUB SWAP1 RETURN JUMPDEST PUSH2 0x45F PUSH1 0x4 DUP1 CALLDATASIZE SUB DUP2 ADD SWAP1 PUSH2 0x45A SWAP2 SWAP1 PUSH2 0x1E54 JUMP JUMPDEST PUSH2 0xB95 JUMP JUMPDEST PUSH1 0x40 MLOAD PUSH2 0x46C SWAP2 SWAP1 PUSH2 0x1BDA JUMP JUMPDEST PUSH1 0x40 MLOAD DUP1 SWAP2 SUB SWAP1 RETURN JUMPDEST PUSH2 0x48F PUSH1 0x4 DUP1 CALLDATASIZE SUB DUP2 ADD SWAP1 PUSH2 0x48A SWAP2 SWAP1 PUSH2 0x1D9A JUMP JUMPDEST PUSH2 0xC17 JUMP JUMPDEST STOP JUMPDEST PUSH2 0x4AB PUSH1 0x4 DUP1 CALLDATASIZE SUB DUP2 ADD SWAP1 PUSH2 0x4A6 SWAP2 SWAP1 PUSH2 0x1B5A JUMP JUMPDEST PUSH2 0xD9B JUMP JUMPDEST STOP JUMPDEST PUSH2 0x4C7 PUSH1 0x4 DUP1 CALLDATASIZE SUB DUP2 ADD SWAP1 PUSH2 0x4C2 SWAP2 SWAP1 PUSH2 0x1DC5 JUMP JUMPDEST PUSH2 0xDB1 JUMP JUMPDEST STOP JUMPDEST PUSH2 0x4D1 PUSH2 0xE33 JUMP JUMPDEST PUSH1 0x40 MLOAD PUSH2 0x4DE SWAP2 SWAP1 PUSH2 0x1AA9 JUMP JUMPDEST PUSH1 0x40 MLOAD DUP1 SWAP2 SUB SWAP1 RETURN JUMPDEST PUSH1 0x60 PUSH1 0x3 DUP1 SLOAD PUSH2 0x4F6 SWAP1 PUSH2 0x1EBF JUMP JUMPDEST DUP1 PUSH1 0x1F ADD PUSH1 0x20 DUP1 SWAP2 DIV MUL PUSH1 0x20 ADD PUSH1 0x40 MLOAD SWAP1 DUP2 ADD PUSH1 0x40 MSTORE DUP1 SWAP3 SWAP2 SWAP1 DUP2 DUP2 MSTORE PUSH1 0x20 ADD DUP3 DUP1 SLOAD PUSH2 0x522 SWAP1 PUSH2 0x1EBF JUMP JUMPDEST DUP1 ISZERO PUSH2 0x56D JUMPI DUP1 PUSH1 0x1F LT PUSH2 0x544 JUMPI PUSH2 0x100 DUP1 DUP4 SLOAD DIV MUL DUP4 MSTORE SWAP2 PUSH1 0x20 ADD SWAP2 PUSH2 0x56D JUMP JUMPDEST DUP3 ADD SWAP2 SWAP1 PUSH0 MSTORE PUSH1 0x20 PUSH0 KECCAK256 SWAP1 JUMPDEST DUP2 SLOAD DUP2 MSTORE SWAP1 PUSH1 0x1 ADD SWAP1 PUSH1 0x20 ADD DUP1 DUP4 GT PUSH2 0x550 JUMPI DUP3 SWAP1 SUB PUSH1 0x1F AND DUP3 ADD SWAP2 JUMPDEST POP POP POP POP POP SWAP1 POP SWAP1 JUMP JUMPDEST PUSH0 DUP1 PUSH2 0x581 PUSH2 0xF9E JUMP JUMPDEST SWAP1 POP PUSH2 0x58E DUP2 DUP6 DUP6 PUSH2 0xFA5 JUMP JUMPDEST PUSH1 0x1 SWAP2 POP POP SWAP3 SWAP2 POP POP JUMP JUMPDEST PUSH0 PUSH1 0x2 SLOAD SWAP1 POP SWAP1 JUMP JUMPDEST PUSH0 DUP1 PUSH2 0x5AC PUSH2 0xF9E JUMP JUMPDEST SWAP1 POP PUSH2 0x5B9 DUP6 DUP3 DUP6 PUSH2 0x1168 JUMP JUMPDEST PUSH2 0x5C4 DUP6 DUP6 DUP6 PUSH2 0x11F3 JUMP JUMPDEST PUSH1 0x1 SWAP2 POP POP SWAP4 SWAP3 POP POP POP JUMP JUMPDEST PUSH0 PUSH1 0x12 SWAP1 POP SWAP1 JUMP JUMPDEST PUSH0 DUP1 PUSH2 0x5E2 PUSH2 0xF9E JUMP JUMPDEST SWAP1 POP PUSH2 0x603 DUP2 DUP6 DUP6 PUSH2 0x5F4 DUP6 DUP10 PUSH2 0xB95 JUMP JUMPDEST PUSH2 0x5FE SWAP2 SWAP1 PUSH2 0x1F1C JUMP JUMPDEST PUSH2 0xFA5 JUMP JUMPDEST PUSH1 0x1 SWAP2 POP POP SWAP3 SWAP2 POP POP JUMP JUMPDEST PUSH1 0x60 PUSH0 PUSH1 0x8 PUSH0 CALLER PUSH20 0xFFFFFFFFFFFFFFFFFFFFFFFFFFFFFFFFFFFFFFFF AND PUSH20 0xFFFFFFFFFFFFFFFFFFFFFFFFFFFFFFFFFFFFFFFF AND DUP2 MSTORE PUSH1 0x20 ADD SWAP1 DUP2 MSTORE PUSH1 0x20 ADD PUSH0 KECCAK256 DUP1 SLOAD DUP1 PUSH1 0x20 MUL PUSH1 0x20 ADD PUSH1 0x40 MLOAD SWAP1 DUP2 ADD PUSH1 0x40 MSTORE DUP1 SWAP3 SWAP2 SWAP1 DUP2 DUP2 MSTORE PUSH1 0x20 ADD DUP3 DUP1 SLOAD DUP1 ISZERO PUSH2 0x696 JUMPI PUSH1 0x20 MUL DUP3 ADD SWAP2 SWAP1 PUSH0 MSTORE PUSH1 0x20 PUSH0 KECCAK256 SWAP1 JUMPDEST DUP2 SLOAD DUP2 MSTORE PUSH1 0x20 ADD SWAP1 PUSH1 0x1 ADD SWAP1 DUP1 DUP4 GT PUSH2 0x682 JUMPI JUMPDEST POP POP POP POP POP SWAP1 POP PUSH0 DUP2 MLOAD PUSH8 0xFFFFFFFFFFFFFFFF DUP2 GT ISZERO PUSH2 0x6B9 JUMPI PUSH2 0x6B8 PUSH2 0x1F4F JUMP JUMPDEST JUMPDEST PUSH1 0x40 MLOAD SWAP1 DUP1 DUP3 MSTORE DUP1 PUSH1 0x20 MUL PUSH1 0x20 ADD DUP3 ADD PUSH1 0x40 MSTORE DUP1 ISZERO PUSH2 0x6EC JUMPI DUP2 PUSH1 0x20 ADD JUMPDEST PUSH1 0x60 DUP2 MSTORE PUSH1 0x20 ADD SWAP1 PUSH1 0x1 SWAP1 SUB SWAP1 DUP2 PUSH2 0x6D7 JUMPI SWAP1 POP JUMPDEST POP SWAP1 POP PUSH0 JUMPDEST DUP3 MLOAD DUP2 LT ISZERO PUSH2 0x7DA JUMPI PUSH1 0x6 PUSH0 DUP5 DUP4 DUP2 MLOAD DUP2 LT PUSH2 0x710 JUMPI PUSH2 0x70F PUSH2 0x1F7C JUMP JUMPDEST JUMPDEST PUSH1 0x20 MUL PUSH1 0x20 ADD ADD MLOAD DUP2 MSTORE PUSH1 0x20 ADD SWAP1 DUP2 MSTORE PUSH1 0x20 ADD PUSH0 KECCAK256 PUSH1 0x1 ADD DUP1 SLOAD PUSH2 0x733 SWAP1 PUSH2 0x1EBF JUMP JUMPDEST DUP1 PUSH1 0x1F ADD PUSH1 0x20 DUP1 SWAP2 DIV MUL PUSH1 0x20 ADD PUSH1 0x40 MLOAD SWAP1 DUP2 ADD PUSH1 0x40 MSTORE DUP1 SWAP3 SWAP2 SWAP1 DUP2 DUP2 MSTORE PUSH1 0x20 ADD DUP3 DUP1 SLOAD PUSH2 0x75F SWAP1 PUSH2 0x1EBF JUMP JUMPDEST DUP1 ISZERO PUSH2 0x7AA JUMPI DUP1 PUSH1 0x1F LT PUSH2 0x781 JUMPI PUSH2 0x100 DUP1 DUP4 SLOAD DIV MUL DUP4 MSTORE SWAP2 PUSH1 0x20 ADD SWAP2 PUSH2 0x7AA JUMP JUMPDEST DUP3 ADD SWAP2 SWAP1 PUSH0 MSTORE PUSH1 0x20 PUSH0 KECCAK256 SWAP1 JUMPDEST DUP2 SLOAD DUP2 MSTORE SWAP1 PUSH1 0x1 ADD SWAP1 PUSH1 0x20 ADD DUP1 DUP4 GT PUSH2 0x78D JUMPI DUP3 SWAP1 SUB PUSH1 0x1F AND DUP3 ADD SWAP2 JUMPDEST POP POP POP POP POP DUP3 DUP3 DUP2 MLOAD DUP2 LT PUSH2 0x7C2 JUMPI PUSH2 0x7C1 PUSH2 0x1F7C JUMP JUMPDEST JUMPDEST PUSH1 0x20 MUL PUSH1 0x20 ADD ADD DUP2 SWAP1 MSTORE POP DUP1 DUP1 PUSH1 0x1 ADD SWAP2 POP POP PUSH2 0x6F1 JUMP JUMPDEST POP DUP1 SWAP3 POP POP POP SWAP1 JUMP JUMPDEST PUSH1 0x7 SLOAD DUP2 JUMP JUMPDEST DUP1 PUSH2 0x7F3 CALLER PUSH2 0x841 JUMP JUMPDEST LT ISZERO PUSH2 0x834 JUMPI PUSH1 0x40 MLOAD PUSH32 0x8C379A000000000000000000000000000000000000000000000000000000000 DUP2 MSTORE PUSH1 0x4 ADD PUSH2 0x82B SWAP1 PUSH2 0x2019 JUMP JUMPDEST PUSH1 0x40 MLOAD DUP1 SWAP2 SUB SWAP1 REVERT JUMPDEST PUSH2 0x83E CALLER DUP3 PUSH2 0x145F JUMP JUMPDEST POP JUMP JUMPDEST PUSH0 DUP1 PUSH0 DUP4 PUSH20 0xFFFFFFFFFFFFFFFFFFFFFFFFFFFFFFFFFFFFFFFF AND PUSH20 0xFFFFFFFFFFFFFFFFFFFFFFFFFFFFFFFFFFFFFFFF AND DUP2 MSTORE PUSH1 0x20 ADD SWAP1 DUP2 MSTORE PUSH1 0x20 ADD PUSH0 KECCAK256 SLOAD SWAP1 POP SWAP2 SWAP1 POP JUMP JUMPDEST PUSH2 0x88E PUSH2 0x1622 JUMP JUMPDEST PUSH2 0x897 PUSH0 PUSH2 0x16A0 JUMP JUMPDEST JUMP JUMPDEST PUSH0 PUSH1 0x5 PUSH0 SWAP1 SLOAD SWAP1 PUSH2 0x100 EXP SWAP1 DIV PUSH20 0xFFFFFFFFFFFFFFFFFFFFFFFFFFFFFFFFFFFFFFFF AND SWAP1 POP SWAP1 JUMP JUMPDEST PUSH1 0x60 PUSH1 0x4 DUP1 SLOAD PUSH2 0x8D0 SWAP1 PUSH2 0x1EBF JUMP JUMPDEST DUP1 PUSH1 0x1F ADD PUSH1 0x20 DUP1 SWAP2 DIV MUL PUSH1 0x20 ADD PUSH1 0x40 MLOAD SWAP1 DUP2 ADD PUSH1 0x40 MSTORE DUP1 SWAP3 SWAP2 SWAP1 DUP2 DUP2 MSTORE PUSH1 0x20 ADD DUP3 DUP1 SLOAD PUSH2 0x8FC SWAP1 PUSH2 0x1EBF JUMP JUMPDEST DUP1 ISZERO PUSH2 0x947 JUMPI DUP1 PUSH1 0x1F LT PUSH2 0x91E JUMPI PUSH2 0x100 DUP1 DUP4 SLOAD DIV MUL DUP4 MSTORE SWAP2 PUSH1 0x20 ADD SWAP2 PUSH2 0x947 JUMP JUMPDEST DUP3 ADD SWAP2 SWAP1 PUSH0 MSTORE PUSH1 0x20 PUSH0 KECCAK256 SWAP1 JUMPDEST DUP2 SLOAD DUP2 MSTORE SWAP1 PUSH1 0x1 ADD SWAP1 PUSH1 0x20 ADD DUP1 DUP4 GT PUSH2 0x92A JUMPI DUP3 SWAP1 SUB PUSH1 0x1F AND DUP3 ADD SWAP2 JUMPDEST POP POP POP POP POP SWAP1 POP SWAP1 JUMP JUMPDEST PUSH0 DUP1 PUSH2 0x95B PUSH2 0xF9E JUMP JUMPDEST SWAP1 POP PUSH0 PUSH2 0x968 DUP3 DUP7 PUSH2 0xB95 JUMP JUMPDEST SWAP1 POP DUP4 DUP2 LT ISZERO PUSH2 0x9AD JUMPI PUSH1 0x40 MLOAD PUSH32 0x8C379A000000000000000000000000000000000000000000000000000000000 DUP2 MSTORE PUSH1 0x4 ADD PUSH2 0x9A4 SWAP1 PUSH2 0x20A7 JUMP JUMPDEST PUSH1 0x40 MLOAD DUP1 SWAP2 SUB SWAP1 REVERT JUMPDEST PUSH2 0x9BA DUP3 DUP7 DUP7 DUP5 SUB PUSH2 0xFA5 JUMP JUMPDEST PUSH1 0x1 SWAP3 POP POP POP SWAP3 SWAP2 POP POP JUMP JUMPDEST PUSH2 0x9CE PUSH2 0x1622 JUMP JUMPDEST DUP1 PUSH2 0x9D8 DUP4 PUSH2 0x841 JUMP JUMPDEST LT ISZERO PUSH2 0xA19 JUMPI PUSH1 0x40 MLOAD PUSH32 0x8C379A000000000000000000000000000000000000000000000000000000000 DUP2 MSTORE PUSH1 0x4 ADD PUSH2 0xA10 SWAP1 PUSH2 0x2135 JUMP JUMPDEST PUSH1 0x40 MLOAD DUP1 SWAP2 SUB SWAP1 REVERT JUMPDEST PUSH2 0xA23 DUP3 DUP3 PUSH2 0x145F JUMP JUMPDEST POP POP JUMP JUMPDEST PUSH0 DUP1 PUSH2 0xA31 PUSH2 0xF9E JUMP JUMPDEST SWAP1 POP PUSH2 0xA3E DUP2 DUP6 DUP6 PUSH2 0x11F3 JUMP JUMPDEST PUSH1 0x1 SWAP2 POP POP SWAP3 SWAP2 POP POP JUMP JUMPDEST DUP1 PUSH2 0xA53 CALLER PUSH2 0x841 JUMP JUMPDEST LT ISZERO PUSH2 0xA94 JUMPI PUSH1 0x40 MLOAD PUSH32 0x8C379A000000000000000000000000000000000000000000000000000000000 DUP2 MSTORE PUSH1 0x4 ADD PUSH2 0xA8B SWAP1 PUSH2 0x21C3 JUMP JUMPDEST PUSH1 0x40 MLOAD DUP1 SWAP2 SUB SWAP1 REVERT JUMPDEST PUSH2 0xA9E CALLER DUP3 PUSH2 0x577 JUMP JUMPDEST POP PUSH2 0xAAA CALLER DUP4 DUP4 PUSH2 0x5A2 JUMP JUMPDEST POP POP POP JUMP JUMPDEST PUSH1 0x6 PUSH1 0x20 MSTORE DUP1 PUSH0 MSTORE PUSH1 0x40 PUSH0 KECCAK256 PUSH0 SWAP2 POP SWAP1 POP DUP1 PUSH0 ADD SLOAD SWAP1 DUP1 PUSH1 0x1 ADD DUP1 SLOAD PUSH2 0xAD4 SWAP1 PUSH2 0x1EBF JUMP JUMPDEST DUP1 PUSH1 0x1F ADD PUSH1 0x20 DUP1 SWAP2 DIV MUL PUSH1 0x20 ADD PUSH1 0x40 MLOAD SWAP1 DUP2 ADD PUSH1 0x40 MSTORE DUP1 SWAP3 SWAP2 SWAP1 DUP2 DUP2 MSTORE PUSH1 0x20 ADD DUP3 DUP1 SLOAD PUSH2 0xB00 SWAP1 PUSH2 0x1EBF JUMP JUMPDEST DUP1 ISZERO PUSH2 0xB4B JUMPI DUP1 PUSH1 0x1F LT PUSH2 0xB22 JUMPI PUSH2 0x100 DUP1 DUP4 SLOAD DIV MUL DUP4 MSTORE SWAP2 PUSH1 0x20 ADD SWAP2 PUSH2 0xB4B JUMP JUMPDEST DUP3 ADD SWAP2 SWAP1 PUSH0 MSTORE PUSH1 0x20 PUSH0 KECCAK256 SWAP1 JUMPDEST DUP2 SLOAD DUP2 MSTORE SWAP1 PUSH1 0x1 ADD SWAP1 PUSH1 0x20 ADD DUP1 DUP4 GT PUSH2 0xB2E JUMPI DUP3 SWAP1 SUB PUSH1 0x1F AND DUP3 ADD SWAP2 JUMPDEST POP POP POP POP POP SWAP1 DUP1 PUSH1 0x2 ADD SLOAD SWAP1 POP DUP4 JUMP JUMPDEST PUSH1 0x8 PUSH1 0x20 MSTORE DUP2 PUSH0 MSTORE PUSH1 0x40 PUSH0 KECCAK256 DUP2 DUP2 SLOAD DUP2 LT PUSH2 0xB74 JUMPI PUSH0 DUP1 REVERT JUMPDEST SWAP1 PUSH0 MSTORE PUSH1 0x20 PUSH0 KECCAK256 ADD PUSH0 SWAP2 POP SWAP2 POP POP SLOAD DUP2 JUMP JUMPDEST PUSH0 PUSH2 0xB90 CALLER PUSH2 0x841 JUMP JUMPDEST SWAP1 POP SWAP1 JUMP JUMPDEST PUSH0 PUSH1 0x1 PUSH0 DUP5 PUSH20 0xFFFFFFFFFFFFFFFFFFFFFFFFFFFFFFFFFFFFFFFF AND PUSH20 0xFFFFFFFFFFFFFFFFFFFFFFFFFFFFFFFFFFFFFFFF AND DUP2 MSTORE PUSH1 0x20 ADD SWAP1 DUP2 MSTORE PUSH1 0x20 ADD PUSH0 KECCAK256 PUSH0 DUP4 PUSH20 0xFFFFFFFFFFFFFFFFFFFFFFFFFFFFFFFFFFFFFFFF AND PUSH20 0xFFFFFFFFFFFFFFFFFFFFFFFFFFFFFFFFFFFFFFFF AND DUP2 MSTORE PUSH1 0x20 ADD SWAP1 DUP2 MSTORE PUSH1 0x20 ADD PUSH0 KECCAK256 SLOAD SWAP1 POP SWAP3 SWAP2 POP POP JUMP JUMPDEST PUSH0 PUSH1 0x6 PUSH0 DUP4 DUP2 MSTORE PUSH1 0x20 ADD SWAP1 DUP2 MSTORE PUSH1 0x20 ADD PUSH0 KECCAK256 PUSH1 0x40 MLOAD DUP1 PUSH1 0x60 ADD PUSH1 0x40 MSTORE SWAP1 DUP2 PUSH0 DUP3 ADD SLOAD DUP2 MSTORE PUSH1 0x20 ADD PUSH1 0x1 DUP3 ADD DUP1 SLOAD PUSH2 0xC4D SWAP1 PUSH2 0x1EBF JUMP JUMPDEST DUP1 PUSH1 0x1F ADD PUSH1 0x20 DUP1 SWAP2 DIV MUL PUSH1 0x20 ADD PUSH1 0x40 MLOAD SWAP1 DUP2 ADD PUSH1 0x40 MSTORE DUP1 SWAP3 SWAP2 SWAP1 DUP2 DUP2 MSTORE PUSH1 0x20 ADD DUP3 DUP1 SLOAD PUSH2 0xC79 SWAP1 PUSH2 0x1EBF JUMP JUMPDEST DUP1 ISZERO PUSH2 0xCC4 JUMPI DUP1 PUSH1 0x1F LT PUSH2 0xC9B JUMPI PUSH2 0x100 DUP1 DUP4 SLOAD DIV MUL DUP4 MSTORE SWAP2 PUSH1 0x20 ADD SWAP2 PUSH2 0xCC4 JUMP JUMPDEST DUP3 ADD SWAP2 SWAP1 PUSH0 MSTORE PUSH1 0x20 PUSH0 KECCAK256 SWAP1 JUMPDEST DUP2 SLOAD DUP2 MSTORE SWAP1 PUSH1 0x1 ADD SWAP1 PUSH1 0x20 ADD DUP1 DUP4 GT PUSH2 0xCA7 JUMPI DUP3 SWAP1 SUB PUSH1 0x1F AND DUP3 ADD SWAP2 JUMPDEST POP POP POP POP POP DUP2 MSTORE PUSH1 0x20 ADD PUSH1 0x2 DUP3 ADD SLOAD DUP2 MSTORE POP POP SWAP1 POP DUP1 PUSH1 0x40 ADD MLOAD PUSH2 0xCE7 CALLER PUSH2 0x841 JUMP JUMPDEST LT ISZERO PUSH2 0xD28 JUMPI PUSH1 0x40 MLOAD PUSH32 0x8C379A000000000000000000000000000000000000000000000000000000000 DUP2 MSTORE PUSH1 0x4 ADD PUSH2 0xD1F SWAP1 PUSH2 0x21C3 JUMP JUMPDEST PUSH1 0x40 MLOAD DUP1 SWAP2 SUB SWAP1 REVERT JUMPDEST PUSH2 0xD36 CALLER DUP3 PUSH1 0x40 ADD MLOAD PUSH2 0x145F JUMP JUMPDEST PUSH1 0x8 PUSH0 CALLER PUSH20 0xFFFFFFFFFFFFFFFFFFFFFFFFFFFFFFFFFFFFFFFF AND PUSH20 0xFFFFFFFFFFFFFFFFFFFFFFFFFFFFFFFFFFFFFFFF AND DUP2 MSTORE PUSH1 0x20 ADD SWAP1 DUP2 MSTORE PUSH1 0x20 ADD PUSH0 KECCAK256 DUP3 SWAP1 DUP1 PUSH1 0x1 DUP2 SLOAD ADD DUP1 DUP3 SSTORE DUP1 SWAP2 POP POP PUSH1 0x1 SWAP1 SUB SWAP1 PUSH0 MSTORE PUSH1 0x20 PUSH0 KECCAK256 ADD PUSH0 SWAP1 SWAP2 SWAP1 SWAP2 SWAP1 SWAP2 POP SSTORE POP POP JUMP JUMPDEST PUSH2 0xDA3 PUSH2 0x1622 JUMP JUMPDEST PUSH2 0xDAD DUP3 DUP3 PUSH2 0x1763 JUMP JUMPDEST POP POP JUMP JUMPDEST PUSH2 0xDB9 PUSH2 0x1622 JUMP JUMPDEST PUSH0 PUSH20 0xFFFFFFFFFFFFFFFFFFFFFFFFFFFFFFFFFFFFFFFF AND DUP2 PUSH20 0xFFFFFFFFFFFFFFFFFFFFFFFFFFFFFFFFFFFFFFFF AND SUB PUSH2 0xE27 JUMPI PUSH1 0x40 MLOAD PUSH32 0x8C379A000000000000000000000000000000000000000000000000000000000 DUP2 MSTORE PUSH1 0x4 ADD PUSH2 0xE1E SWAP1 PUSH2 0x2251 JUMP JUMPDEST PUSH1 0x40 MLOAD DUP1 SWAP2 SUB SWAP1 REVERT JUMPDEST PUSH2 0xE30 DUP2 PUSH2 0x16A0 JUMP JUMPDEST POP JUMP JUMPDEST PUSH1 0x60 PUSH0 PUSH1 0x40 MLOAD DUP1 PUSH1 0x40 ADD PUSH1 0x40 MSTORE DUP1 PUSH1 0x1E DUP2 MSTORE PUSH1 0x20 ADD PUSH32 0x48657265206172652074686520617661696C61626C65206974656D733A200000 DUP2 MSTORE POP SWAP1 POP PUSH0 PUSH1 0x1 SWAP1 POP JUMPDEST PUSH1 0x7 SLOAD DUP2 GT PUSH2 0xF96 JUMPI PUSH0 PUSH1 0x6 PUSH0 DUP4 DUP2 MSTORE PUSH1 0x20 ADD SWAP1 DUP2 MSTORE PUSH1 0x20 ADD PUSH0 KECCAK256 PUSH1 0x40 MLOAD DUP1 PUSH1 0x60 ADD PUSH1 0x40 MSTORE SWAP1 DUP2 PUSH0 DUP3 ADD SLOAD DUP2 MSTORE PUSH1 0x20 ADD PUSH1 0x1 DUP3 ADD DUP1 SLOAD PUSH2 0xEB3 SWAP1 PUSH2 0x1EBF JUMP JUMPDEST DUP1 PUSH1 0x1F ADD PUSH1 0x20 DUP1 SWAP2 DIV MUL PUSH1 0x20 ADD PUSH1 0x40 MLOAD SWAP1 DUP2 ADD PUSH1 0x40 MSTORE DUP1 SWAP3 SWAP2 SWAP1 DUP2 DUP2 MSTORE PUSH1 0x20 ADD DUP3 DUP1 SLOAD PUSH2 0xEDF SWAP1 PUSH2 0x1EBF JUMP JUMPDEST DUP1 ISZERO PUSH2 0xF2A JUMPI DUP1 PUSH1 0x1F LT PUSH2 0xF01 JUMPI PUSH2 0x100 DUP1 DUP4 SLOAD DIV MUL DUP4 MSTORE SWAP2 PUSH1 0x20 ADD SWAP2 PUSH2 0xF2A JUMP JUMPDEST DUP3 ADD SWAP2 SWAP1 PUSH0 MSTORE PUSH1 0x20 PUSH0 KECCAK256 SWAP1 JUMPDEST DUP2 SLOAD DUP2 MSTORE SWAP1 PUSH1 0x1 ADD SWAP1 PUSH1 0x20 ADD DUP1 DUP4 GT PUSH2 0xF0D JUMPI DUP3 SWAP1 SUB PUSH1 0x1F AND DUP3 ADD SWAP2 JUMPDEST POP POP POP POP POP DUP2 MSTORE PUSH1 0x20 ADD PUSH1 0x2 DUP3 ADD SLOAD DUP2 MSTORE POP POP SWAP1 POP DUP3 PUSH2 0xF4C DUP3 PUSH0 ADD MLOAD PUSH2 0x18B1 JUMP JUMPDEST DUP3 PUSH1 0x20 ADD MLOAD PUSH2 0xF5E DUP5 PUSH1 0x40 ADD MLOAD PUSH2 0x18B1 JUMP JUMPDEST PUSH1 0x40 MLOAD PUSH1 0x20 ADD PUSH2 0xF71 SWAP5 SWAP4 SWAP3 SWAP2 SWAP1 PUSH2 0x23D1 JUMP JUMPDEST PUSH1 0x40 MLOAD PUSH1 0x20 DUP2 DUP4 SUB SUB DUP2 MSTORE SWAP1 PUSH1 0x40 MSTORE SWAP3 POP POP DUP1 DUP1 PUSH2 0xF8E SWAP1 PUSH2 0x243A JUMP JUMPDEST SWAP2 POP POP PUSH2 0xE74 JUMP JUMPDEST POP DUP1 SWAP2 POP POP SWAP1 JUMP JUMPDEST PUSH0 CALLER SWAP1 POP SWAP1 JUMP JUMPDEST PUSH0 PUSH20 0xFFFFFFFFFFFFFFFFFFFFFFFFFFFFFFFFFFFFFFFF AND DUP4 PUSH20 0xFFFFFFFFFFFFFFFFFFFFFFFFFFFFFFFFFFFFFFFF AND SUB PUSH2 0x1013 JUMPI PUSH1 0x40 MLOAD PUSH32 0x8C379A000000000000000000000000000000000000000000000000000000000 DUP2 MSTORE PUSH1 0x4 ADD PUSH2 0x100A SWAP1 PUSH2 0x24F1 JUMP JUMPDEST PUSH1 0x40 MLOAD DUP1 SWAP2 SUB SWAP1 REVERT JUMPDEST PUSH0 PUSH20 0xFFFFFFFFFFFFFFFFFFFFFFFFFFFFFFFFFFFFFFFF AND DUP3 PUSH20 0xFFFFFFFFFFFFFFFFFFFFFFFFFFFFFFFFFFFFFFFF AND SUB PUSH2 0x1081 JUMPI PUSH1 0x40 MLOAD PUSH32 0x8C379A000000000000000000000000000000000000000000000000000000000 DUP2 MSTORE PUSH1 0x4 ADD PUSH2 0x1078 SWAP1 PUSH2 0x257F JUMP JUMPDEST PUSH1 0x40 MLOAD DUP1 SWAP2 SUB SWAP1 REVERT JUMPDEST DUP1 PUSH1 0x1 PUSH0 DUP6 PUSH20 0xFFFFFFFFFFFFFFFFFFFFFFFFFFFFFFFFFFFFFFFF AND PUSH20 0xFFFFFFFFFFFFFFFFFFFFFFFFFFFFFFFFFFFFFFFF AND DUP2 MSTORE PUSH1 0x20 ADD SWAP1 DUP2 MSTORE PUSH1 0x20 ADD PUSH0 KECCAK256 PUSH0 DUP5 PUSH20 0xFFFFFFFFFFFFFFFFFFFFFFFFFFFFFFFFFFFFFFFF AND PUSH20 0xFFFFFFFFFFFFFFFFFFFFFFFFFFFFFFFFFFFFFFFF AND DUP2 MSTORE PUSH1 0x20 ADD SWAP1 DUP2 MSTORE PUSH1 0x20 ADD PUSH0 KECCAK256 DUP2 SWAP1 SSTORE POP DUP2 PUSH20 0xFFFFFFFFFFFFFFFFFFFFFFFFFFFFFFFFFFFFFFFF AND DUP4 PUSH20 0xFFFFFFFFFFFFFFFFFFFFFFFFFFFFFFFFFFFFFFFF AND PUSH32 0x8C5BE1E5EBEC7D5BD14F71427D1E84F3DD0314C0F7B2291E5B200AC8C7C3B925 DUP4 PUSH1 0x40 MLOAD PUSH2 0x115B SWAP2 SWAP1 PUSH2 0x1BDA JUMP JUMPDEST PUSH1 0x40 MLOAD DUP1 SWAP2 SUB SWAP1 LOG3 POP POP POP JUMP JUMPDEST PUSH0 PUSH2 0x1173 DUP5 DUP5 PUSH2 0xB95 JUMP JUMPDEST SWAP1 POP PUSH32 0xFFFFFFFFFFFFFFFFFFFFFFFFFFFFFFFFFFFFFFFFFFFFFFFFFFFFFFFFFFFFFFFF DUP2 EQ PUSH2 0x11ED JUMPI DUP2 DUP2 LT ISZERO PUSH2 0x11DF JUMPI PUSH1 0x40 MLOAD PUSH32 0x8C379A000000000000000000000000000000000000000000000000000000000 DUP2 MSTORE PUSH1 0x4 ADD PUSH2 0x11D6 SWAP1 PUSH2 0x25E7 JUMP JUMPDEST PUSH1 0x40 MLOAD DUP1 SWAP2 SUB SWAP1 REVERT JUMPDEST PUSH2 0x11EC DUP5 DUP5 DUP5 DUP5 SUB PUSH2 0xFA5 JUMP JUMPDEST JUMPDEST POP POP POP POP JUMP JUMPDEST PUSH0 PUSH20 0xFFFFFFFFFFFFFFFFFFFFFFFFFFFFFFFFFFFFFFFF AND DUP4 PUSH20 0xFFFFFFFFFFFFFFFFFFFFFFFFFFFFFFFFFFFFFFFF AND SUB PUSH2 0x1261 JUMPI PUSH1 0x40 MLOAD PUSH32 0x8C379A000000000000000000000000000000000000000000000000000000000 DUP2 MSTORE PUSH1 0x4 ADD PUSH2 0x1258 SWAP1 PUSH2 0x2675 JUMP JUMPDEST PUSH1 0x40 MLOAD DUP1 SWAP2 SUB SWAP1 REVERT JUMPDEST PUSH0 PUSH20 0xFFFFFFFFFFFFFFFFFFFFFFFFFFFFFFFFFFFFFFFF AND DUP3 PUSH20 0xFFFFFFFFFFFFFFFFFFFFFFFFFFFFFFFFFFFFFFFF AND SUB PUSH2 0x12CF JUMPI PUSH1 0x40 MLOAD PUSH32 0x8C379A000000000000000000000000000000000000000000000000000000000 DUP2 MSTORE PUSH1 0x4 ADD PUSH2 0x12C6 SWAP1 PUSH2 0x2703 JUMP JUMPDEST PUSH1 0x40 MLOAD DUP1 SWAP2 SUB SWAP1 REVERT JUMPDEST PUSH2 0x12DA DUP4 DUP4 DUP4 PUSH2 0x1A2F JUMP JUMPDEST PUSH0 DUP1 PUSH0 DUP6 PUSH20 0xFFFFFFFFFFFFFFFFFFFFFFFFFFFFFFFFFFFFFFFF AND PUSH20 0xFFFFFFFFFFFFFFFFFFFFFFFFFFFFFFFFFFFFFFFF AND DUP2 MSTORE PUSH1 0x20 ADD SWAP1 DUP2 MSTORE PUSH1 0x20 ADD PUSH0 KECCAK256 SLOAD SWAP1 POP DUP2 DUP2 LT ISZERO PUSH2 0x135D JUMPI PUSH1 0x40 MLOAD PUSH32 0x8C379A000000000000000000000000000000000000000000000000000000000 DUP2 MSTORE PUSH1 0x4 ADD PUSH2 0x1354 SWAP1 PUSH2 0x2791 JUMP JUMPDEST PUSH1 0x40 MLOAD DUP1 SWAP2 SUB SWAP1 REVERT JUMPDEST DUP2 DUP2 SUB PUSH0 DUP1 DUP7 PUSH20 0xFFFFFFFFFFFFFFFFFFFFFFFFFFFFFFFFFFFFFFFF AND PUSH20 0xFFFFFFFFFFFFFFFFFFFFFFFFFFFFFFFFFFFFFFFF AND DUP2 MSTORE PUSH1 0x20 ADD SWAP1 DUP2 MSTORE PUSH1 0x20 ADD PUSH0 KECCAK256 DUP2 SWAP1 SSTORE POP DUP2 PUSH0 DUP1 DUP6 PUSH20 0xFFFFFFFFFFFFFFFFFFFFFFFFFFFFFFFFFFFFFFFF AND PUSH20 0xFFFFFFFFFFFFFFFFFFFFFFFFFFFFFFFFFFFFFFFF AND DUP2 MSTORE PUSH1 0x20 ADD SWAP1 DUP2 MSTORE PUSH1 0x20 ADD PUSH0 KECCAK256 PUSH0 DUP3 DUP3 SLOAD ADD SWAP3 POP POP DUP2 SWAP1 SSTORE POP DUP3 PUSH20 0xFFFFFFFFFFFFFFFFFFFFFFFFFFFFFFFFFFFFFFFF AND DUP5 PUSH20 0xFFFFFFFFFFFFFFFFFFFFFFFFFFFFFFFFFFFFFFFF AND PUSH32 0xDDF252AD1BE2C89B69C2B068FC378DAA952BA7F163C4A11628F55A4DF523B3EF DUP5 PUSH1 0x40 MLOAD PUSH2 0x1446 SWAP2 SWAP1 PUSH2 0x1BDA JUMP JUMPDEST PUSH1 0x40 MLOAD DUP1 SWAP2 SUB SWAP1 LOG3 PUSH2 0x1459 DUP5 DUP5 DUP5 PUSH2 0x1A34 JUMP JUMPDEST POP POP POP POP JUMP JUMPDEST PUSH0 PUSH20 0xFFFFFFFFFFFFFFFFFFFFFFFFFFFFFFFFFFFFFFFF AND DUP3 PUSH20 0xFFFFFFFFFFFFFFFFFFFFFFFFFFFFFFFFFFFFFFFF AND SUB PUSH2 0x14CD JUMPI PUSH1 0x40 MLOAD PUSH32 0x8C379A000000000000000000000000000000000000000000000000000000000 DUP2 MSTORE PUSH1 0x4 ADD PUSH2 0x14C4 SWAP1 PUSH2 0x281F JUMP JUMPDEST PUSH1 0x40 MLOAD DUP1 SWAP2 SUB SWAP1 REVERT JUMPDEST PUSH2 0x14D8 DUP3 PUSH0 DUP4 PUSH2 0x1A2F JUMP JUMPDEST PUSH0 DUP1 PUSH0 DUP5 PUSH20 0xFFFFFFFFFFFFFFFFFFFFFFFFFFFFFFFFFFFFFFFF AND PUSH20 0xFFFFFFFFFFFFFFFFFFFFFFFFFFFFFFFFFFFFFFFF AND DUP2 MSTORE PUSH1 0x20 ADD SWAP1 DUP2 MSTORE PUSH1 0x20 ADD PUSH0 KECCAK256 SLOAD SWAP1 POP DUP2 DUP2 LT ISZERO PUSH2 0x155B JUMPI PUSH1 0x40 MLOAD PUSH32 0x8C379A000000000000000000000000000000000000000000000000000000000 DUP2 MSTORE PUSH1 0x4 ADD PUSH2 0x1552 SWAP1 PUSH2 0x28AD JUMP JUMPDEST PUSH1 0x40 MLOAD DUP1 SWAP2 SUB SWAP1 REVERT JUMPDEST DUP2 DUP2 SUB PUSH0 DUP1 DUP6 PUSH20 0xFFFFFFFFFFFFFFFFFFFFFFFFFFFFFFFFFFFFFFFF AND PUSH20 0xFFFFFFFFFFFFFFFFFFFFFFFFFFFFFFFFFFFFFFFF AND DUP2 MSTORE PUSH1 0x20 ADD SWAP1 DUP2 MSTORE PUSH1 0x20 ADD PUSH0 KECCAK256 DUP2 SWAP1 SSTORE POP DUP2 PUSH1 0x2 PUSH0 DUP3 DUP3 SLOAD SUB SWAP3 POP POP DUP2 SWAP1 SSTORE POP PUSH0 PUSH20 0xFFFFFFFFFFFFFFFFFFFFFFFFFFFFFFFFFFFFFFFF AND DUP4 PUSH20 0xFFFFFFFFFFFFFFFFFFFFFFFFFFFFFFFFFFFFFFFF AND PUSH32 0xDDF252AD1BE2C89B69C2B068FC378DAA952BA7F163C4A11628F55A4DF523B3EF DUP5 PUSH1 0x40 MLOAD PUSH2 0x160A SWAP2 SWAP1 PUSH2 0x1BDA JUMP JUMPDEST PUSH1 0x40 MLOAD DUP1 SWAP2 SUB SWAP1 LOG3 PUSH2 0x161D DUP4 PUSH0 DUP5 PUSH2 0x1A34 JUMP JUMPDEST POP POP POP JUMP JUMPDEST PUSH2 0x162A PUSH2 0xF9E JUMP JUMPDEST PUSH20 0xFFFFFFFFFFFFFFFFFFFFFFFFFFFFFFFFFFFFFFFF AND PUSH2 0x1648 PUSH2 0x899 JUMP JUMPDEST PUSH20 0xFFFFFFFFFFFFFFFFFFFFFFFFFFFFFFFFFFFFFFFF AND EQ PUSH2 0x169E JUMPI PUSH1 0x40 MLOAD PUSH32 0x8C379A000000000000000000000000000000000000000000000000000000000 DUP2 MSTORE PUSH1 0x4 ADD PUSH2 0x1695 SWAP1 PUSH2 0x2915 JUMP JUMPDEST PUSH1 0x40 MLOAD DUP1 SWAP2 SUB SWAP1 REVERT JUMPDEST JUMP JUMPDEST PUSH0 PUSH1 0x5 PUSH0 SWAP1 SLOAD SWAP1 PUSH2 0x100 EXP SWAP1 DIV PUSH20 0xFFFFFFFFFFFFFFFFFFFFFFFFFFFFFFFFFFFFFFFF AND SWAP1 POP DUP2 PUSH1 0x5 PUSH0 PUSH2 0x100 EXP DUP2 SLOAD DUP2 PUSH20 0xFFFFFFFFFFFFFFFFFFFFFFFFFFFFFFFFFFFFFFFF MUL NOT AND SWAP1 DUP4 PUSH20 0xFFFFFFFFFFFFFFFFFFFFFFFFFFFFFFFFFFFFFFFF AND MUL OR SWAP1 SSTORE POP DUP2 PUSH20 0xFFFFFFFFFFFFFFFFFFFFFFFFFFFFFFFFFFFFFFFF AND DUP2 PUSH20 0xFFFFFFFFFFFFFFFFFFFFFFFFFFFFFFFFFFFFFFFF AND PUSH32 0x8BE0079C531659141344CD1FD0A4F28419497F9722A3DAAFE3B4186F6B6457E0 PUSH1 0x40 MLOAD PUSH1 0x40 MLOAD DUP1 SWAP2 SUB SWAP1 LOG3 POP POP JUMP JUMPDEST PUSH0 PUSH20 0xFFFFFFFFFFFFFFFFFFFFFFFFFFFFFFFFFFFFFFFF AND DUP3 PUSH20 0xFFFFFFFFFFFFFFFFFFFFFFFFFFFFFFFFFFFFFFFF AND SUB PUSH2 0x17D1 JUMPI PUSH1 0x40 MLOAD PUSH32 0x8C379A000000000000000000000000000000000000000000000000000000000 DUP2 MSTORE PUSH1 0x4 ADD PUSH2 0x17C8 SWAP1 PUSH2 0x297D JUMP JUMPDEST PUSH1 0x40 MLOAD DUP1 SWAP2 SUB SWAP1 REVERT JUMPDEST PUSH2 0x17DC PUSH0 DUP4 DUP4 PUSH2 0x1A2F JUMP JUMPDEST DUP1 PUSH1 0x2 PUSH0 DUP3 DUP3 SLOAD PUSH2 0x17ED SWAP2 SWAP1 PUSH2 0x1F1C JUMP JUMPDEST SWAP3 POP POP DUP2 SWAP1 SSTORE POP DUP1 PUSH0 DUP1 DUP5 PUSH20 0xFFFFFFFFFFFFFFFFFFFFFFFFFFFFFFFFFFFFFFFF AND PUSH20 0xFFFFFFFFFFFFFFFFFFFFFFFFFFFFFFFFFFFFFFFF AND DUP2 MSTORE PUSH1 0x20 ADD SWAP1 DUP2 MSTORE PUSH1 0x20 ADD PUSH0 KECCAK256 PUSH0 DUP3 DUP3 SLOAD ADD SWAP3 POP POP DUP2 SWAP1 SSTORE POP DUP2 PUSH20 0xFFFFFFFFFFFFFFFFFFFFFFFFFFFFFFFFFFFFFFFF AND PUSH0 PUSH20 0xFFFFFFFFFFFFFFFFFFFFFFFFFFFFFFFFFFFFFFFF AND PUSH32 0xDDF252AD1BE2C89B69C2B068FC378DAA952BA7F163C4A11628F55A4DF523B3EF DUP4 PUSH1 0x40 MLOAD PUSH2 0x189A SWAP2 SWAP1 PUSH2 0x1BDA JUMP JUMPDEST PUSH1 0x40 MLOAD DUP1 SWAP2 SUB SWAP1 LOG3 PUSH2 0x18AD PUSH0 DUP4 DUP4 PUSH2 0x1A34 JUMP JUMPDEST POP POP JUMP JUMPDEST PUSH1 0x60 PUSH0 DUP3 SUB PUSH2 0x18F7 JUMPI PUSH1 0x40 MLOAD DUP1 PUSH1 0x40 ADD PUSH1 0x40 MSTORE DUP1 PUSH1 0x1 DUP2 MSTORE PUSH1 0x20 ADD PUSH32 0x3000000000000000000000000000000000000000000000000000000000000000 DUP2 MSTORE POP SWAP1 POP PUSH2 0x1A2A JUMP JUMPDEST PUSH0 DUP3 SWAP1 POP PUSH0 JUMPDEST PUSH0 DUP3 EQ PUSH2 0x1926 JUMPI DUP1 DUP1 PUSH2 0x190F SWAP1 PUSH2 0x243A JUMP JUMPDEST SWAP2 POP POP PUSH1 0xA DUP3 PUSH2 0x191F SWAP2 SWAP1 PUSH2 0x29C8 JUMP JUMPDEST SWAP2 POP PUSH2 0x18FD JUMP JUMPDEST PUSH0 DUP2 PUSH8 0xFFFFFFFFFFFFFFFF DUP2 GT ISZERO PUSH2 0x1941 JUMPI PUSH2 0x1940 PUSH2 0x1F4F JUMP JUMPDEST JUMPDEST PUSH1 0x40 MLOAD SWAP1 DUP1 DUP3 MSTORE DUP1 PUSH1 0x1F ADD PUSH1 0x1F NOT AND PUSH1 0x20 ADD DUP3 ADD PUSH1 0x40 MSTORE DUP1 ISZERO PUSH2 0x1973 JUMPI DUP2 PUSH1 0x20 ADD PUSH1 0x1 DUP3 MUL DUP1 CALLDATASIZE DUP4 CALLDATACOPY DUP1 DUP3 ADD SWAP2 POP POP SWAP1 POP JUMPDEST POP SWAP1 POP PUSH0 DUP3 SWAP1 POP JUMPDEST PUSH0 DUP7 EQ PUSH2 0x1A22 JUMPI PUSH1 0x1 DUP2 PUSH2 0x198F SWAP2 SWAP1 PUSH2 0x29F8 JUMP JUMPDEST SWAP1 POP PUSH0 PUSH1 0xA DUP1 DUP9 PUSH2 0x19A0 SWAP2 SWAP1 PUSH2 0x29C8 JUMP JUMPDEST PUSH2 0x19AA SWAP2 SWAP1 PUSH2 0x2A2B JUMP JUMPDEST DUP8 PUSH2 0x19B5 SWAP2 SWAP1 PUSH2 0x29F8 JUMP JUMPDEST PUSH1 0x30 PUSH2 0x19C1 SWAP2 SWAP1 PUSH2 0x2A6C JUMP JUMPDEST SWAP1 POP PUSH0 DUP2 PUSH1 0xF8 SHL SWAP1 POP DUP1 DUP5 DUP5 DUP2 MLOAD DUP2 LT PUSH2 0x19DE JUMPI PUSH2 0x19DD PUSH2 0x1F7C JUMP JUMPDEST JUMPDEST PUSH1 0x20 ADD ADD SWAP1 PUSH31 0xFFFFFFFFFFFFFFFFFFFFFFFFFFFFFFFFFFFFFFFFFFFFFFFFFFFFFFFFFFFFFF NOT AND SWAP1 DUP2 PUSH0 BYTE SWAP1 MSTORE8 POP PUSH1 0xA DUP9 PUSH2 0x1A19 SWAP2 SWAP1 PUSH2 0x29C8 JUMP JUMPDEST SWAP8 POP POP POP PUSH2 0x197B JUMP JUMPDEST DUP2 SWAP5 POP POP POP POP POP JUMPDEST SWAP2 SWAP1 POP JUMP JUMPDEST POP POP POP JUMP JUMPDEST POP POP POP JUMP JUMPDEST PUSH0 DUP2 MLOAD SWAP1 POP SWAP2 SWAP1 POP JUMP JUMPDEST PUSH0 DUP3 DUP3 MSTORE PUSH1 0x20 DUP3 ADD SWAP1 POP SWAP3 SWAP2 POP POP JUMP JUMPDEST DUP3 DUP2 DUP4 MCOPY PUSH0 DUP4 DUP4 ADD MSTORE POP POP POP JUMP JUMPDEST PUSH0 PUSH1 0x1F NOT PUSH1 0x1F DUP4 ADD AND SWAP1 POP SWAP2 SWAP1 POP JUMP JUMPDEST PUSH0 PUSH2 0x1A7B DUP3 PUSH2 0x1A39 JUMP JUMPDEST PUSH2 0x1A85 DUP2 DUP6 PUSH2 0x1A43 JUMP JUMPDEST SWAP4 POP PUSH2 0x1A95 DUP2 DUP6 PUSH1 0x20 DUP7 ADD PUSH2 0x1A53 JUMP JUMPDEST PUSH2 0x1A9E DUP2 PUSH2 0x1A61 JUMP JUMPDEST DUP5 ADD SWAP2 POP POP SWAP3 SWAP2 POP POP JUMP JUMPDEST PUSH0 PUSH1 0x20 DUP3 ADD SWAP1 POP DUP2 DUP2 SUB PUSH0 DUP4 ADD MSTORE PUSH2 0x1AC1 DUP2 DUP5 PUSH2 0x1A71 JUMP JUMPDEST SWAP1 POP SWAP3 SWAP2 POP POP JUMP JUMPDEST PUSH0 DUP1 REVERT JUMPDEST PUSH0 PUSH20 0xFFFFFFFFFFFFFFFFFFFFFFFFFFFFFFFFFFFFFFFF DUP3 AND SWAP1 POP SWAP2 SWAP1 POP JUMP JUMPDEST PUSH0 PUSH2 0x1AF6 DUP3 PUSH2 0x1ACD JUMP JUMPDEST SWAP1 POP SWAP2 SWAP1 POP JUMP JUMPDEST PUSH2 0x1B06 DUP2 PUSH2 0x1AEC JUMP JUMPDEST DUP2 EQ PUSH2 0x1B10 JUMPI PUSH0 DUP1 REVERT JUMPDEST POP JUMP JUMPDEST PUSH0 DUP2 CALLDATALOAD SWAP1 POP PUSH2 0x1B21 DUP2 PUSH2 0x1AFD JUMP JUMPDEST SWAP3 SWAP2 POP POP JUMP JUMPDEST PUSH0 DUP2 SWAP1 POP SWAP2 SWAP1 POP JUMP JUMPDEST PUSH2 0x1B39 DUP2 PUSH2 0x1B27 JUMP JUMPDEST DUP2 EQ PUSH2 0x1B43 JUMPI PUSH0 DUP1 REVERT JUMPDEST POP JUMP JUMPDEST PUSH0 DUP2 CALLDATALOAD SWAP1 POP PUSH2 0x1B54 DUP2 PUSH2 0x1B30 JUMP JUMPDEST SWAP3 SWAP2 POP POP JUMP JUMPDEST PUSH0 DUP1 PUSH1 0x40 DUP4 DUP6 SUB SLT ISZERO PUSH2 0x1B70 JUMPI PUSH2 0x1B6F PUSH2 0x1AC9 JUMP JUMPDEST JUMPDEST PUSH0 PUSH2 0x1B7D DUP6 DUP3 DUP7 ADD PUSH2 0x1B13 JUMP JUMPDEST SWAP3 POP POP PUSH1 0x20 PUSH2 0x1B8E DUP6 DUP3 DUP7 ADD PUSH2 0x1B46 JUMP JUMPDEST SWAP2 POP POP SWAP3 POP SWAP3 SWAP1 POP JUMP JUMPDEST PUSH0 DUP2 ISZERO ISZERO SWAP1 POP SWAP2 SWAP1 POP JUMP JUMPDEST PUSH2 0x1BAC DUP2 PUSH2 0x1B98 JUMP JUMPDEST DUP3 MSTORE POP POP JUMP JUMPDEST PUSH0 PUSH1 0x20 DUP3 ADD SWAP1 POP PUSH2 0x1BC5 PUSH0 DUP4 ADD DUP5 PUSH2 0x1BA3 JUMP JUMPDEST SWAP3 SWAP2 POP POP JUMP JUMPDEST PUSH2 0x1BD4 DUP2 PUSH2 0x1B27 JUMP JUMPDEST DUP3 MSTORE POP POP JUMP JUMPDEST PUSH0 PUSH1 0x20 DUP3 ADD SWAP1 POP PUSH2 0x1BED PUSH0 DUP4 ADD DUP5 PUSH2 0x1BCB JUMP JUMPDEST SWAP3 SWAP2 POP POP JUMP JUMPDEST PUSH0 DUP1 PUSH0 PUSH1 0x60 DUP5 DUP7 SUB SLT ISZERO PUSH2 0x1C0A JUMPI PUSH2 0x1C09 PUSH2 0x1AC9 JUMP JUMPDEST JUMPDEST PUSH0 PUSH2 0x1C17 DUP7 DUP3 DUP8 ADD PUSH2 0x1B13 JUMP JUMPDEST SWAP4 POP POP PUSH1 0x20 PUSH2 0x1C28 DUP7 DUP3 DUP8 ADD PUSH2 0x1B13 JUMP JUMPDEST SWAP3 POP POP PUSH1 0x40 PUSH2 0x1C39 DUP7 DUP3 DUP8 ADD PUSH2 0x1B46 JUMP JUMPDEST SWAP2 POP POP SWAP3 POP SWAP3 POP SWAP3 JUMP JUMPDEST PUSH0 PUSH1 0xFF DUP3 AND SWAP1 POP SWAP2 SWAP1 POP JUMP JUMPDEST PUSH2 0x1C58 DUP2 PUSH2 0x1C43 JUMP JUMPDEST DUP3 MSTORE POP POP JUMP JUMPDEST PUSH0 PUSH1 0x20 DUP3 ADD SWAP1 POP PUSH2 0x1C71 PUSH0 DUP4 ADD DUP5 PUSH2 0x1C4F JUMP JUMPDEST SWAP3 SWAP2 POP POP JUMP JUMPDEST PUSH0 DUP2 MLOAD SWAP1 POP SWAP2 SWAP1 POP JUMP JUMPDEST PUSH0 DUP3 DUP3 MSTORE PUSH1 0x20 DUP3 ADD SWAP1 POP SWAP3 SWAP2 POP POP JUMP JUMPDEST PUSH0 DUP2 SWAP1 POP PUSH1 0x20 DUP3 ADD SWAP1 POP SWAP2 SWAP1 POP JUMP JUMPDEST PUSH0 DUP3 DUP3 MSTORE PUSH1 0x20 DUP3 ADD SWAP1 POP SWAP3 SWAP2 POP POP JUMP JUMPDEST PUSH0 PUSH2 0x1CBA DUP3 PUSH2 0x1A39 JUMP JUMPDEST PUSH2 0x1CC4 DUP2 DUP6 PUSH2 0x1CA0 JUMP JUMPDEST SWAP4 POP PUSH2 0x1CD4 DUP2 DUP6 PUSH1 0x20 DUP7 ADD PUSH2 0x1A53 JUMP JUMPDEST PUSH2 0x1CDD DUP2 PUSH2 0x1A61 JUMP JUMPDEST DUP5 ADD SWAP2 POP POP SWAP3 SWAP2 POP POP JUMP JUMPDEST PUSH0 PUSH2 0x1CF3 DUP4 DUP4 PUSH2 0x1CB0 JUMP JUMPDEST SWAP1 POP SWAP3 SWAP2 POP POP JUMP JUMPDEST PUSH0 PUSH1 0x20 DUP3 ADD SWAP1 POP SWAP2 SWAP1 POP JUMP JUMPDEST PUSH0 PUSH2 0x1D11 DUP3 PUSH2 0x1C77 JUMP JUMPDEST PUSH2 0x1D1B DUP2 DUP6 PUSH2 0x1C81 JUMP JUMPDEST SWAP4 POP DUP4 PUSH1 0x20 DUP3 MUL DUP6 ADD PUSH2 0x1D2D DUP6 PUSH2 0x1C91 JUMP JUMPDEST DUP1 PUSH0 JUMPDEST DUP6 DUP2 LT ISZERO PUSH2 0x1D68 JUMPI DUP5 DUP5 SUB DUP10 MSTORE DUP2 MLOAD PUSH2 0x1D49 DUP6 DUP3 PUSH2 0x1CE8 JUMP JUMPDEST SWAP5 POP PUSH2 0x1D54 DUP4 PUSH2 0x1CFB JUMP JUMPDEST SWAP3 POP PUSH1 0x20 DUP11 ADD SWAP10 POP POP PUSH1 0x1 DUP2 ADD SWAP1 POP PUSH2 0x1D30 JUMP JUMPDEST POP DUP3 SWAP8 POP DUP8 SWAP6 POP POP POP POP POP POP SWAP3 SWAP2 POP POP JUMP JUMPDEST PUSH0 PUSH1 0x20 DUP3 ADD SWAP1 POP DUP2 DUP2 SUB PUSH0 DUP4 ADD MSTORE PUSH2 0x1D92 DUP2 DUP5 PUSH2 0x1D07 JUMP JUMPDEST SWAP1 POP SWAP3 SWAP2 POP POP JUMP JUMPDEST PUSH0 PUSH1 0x20 DUP3 DUP5 SUB SLT ISZERO PUSH2 0x1DAF JUMPI PUSH2 0x1DAE PUSH2 0x1AC9 JUMP JUMPDEST JUMPDEST PUSH0 PUSH2 0x1DBC DUP5 DUP3 DUP6 ADD PUSH2 0x1B46 JUMP JUMPDEST SWAP2 POP POP SWAP3 SWAP2 POP POP JUMP JUMPDEST PUSH0 PUSH1 0x20 DUP3 DUP5 SUB SLT ISZERO PUSH2 0x1DDA JUMPI PUSH2 0x1DD9 PUSH2 0x1AC9 JUMP JUMPDEST JUMPDEST PUSH0 PUSH2 0x1DE7 DUP5 DUP3 DUP6 ADD PUSH2 0x1B13 JUMP JUMPDEST SWAP2 POP POP SWAP3 SWAP2 POP POP JUMP JUMPDEST PUSH2 0x1DF9 DUP2 PUSH2 0x1AEC JUMP JUMPDEST DUP3 MSTORE POP POP JUMP JUMPDEST PUSH0 PUSH1 0x20 DUP3 ADD SWAP1 POP PUSH2 0x1E12 PUSH0 DUP4 ADD DUP5 PUSH2 0x1DF0 JUMP JUMPDEST SWAP3 SWAP2 POP POP JUMP JUMPDEST PUSH0 PUSH1 0x60 DUP3 ADD SWAP1 POP PUSH2 0x1E2B PUSH0 DUP4 ADD DUP7 PUSH2 0x1BCB JUMP JUMPDEST DUP2 DUP2 SUB PUSH1 0x20 DUP4 ADD MSTORE PUSH2 0x1E3D DUP2 DUP6 PUSH2 0x1A71 JUMP JUMPDEST SWAP1 POP PUSH2 0x1E4C PUSH1 0x40 DUP4 ADD DUP5 PUSH2 0x1BCB JUMP JUMPDEST SWAP5 SWAP4 POP POP POP POP JUMP JUMPDEST PUSH0 DUP1 PUSH1 0x40 DUP4 DUP6 SUB SLT ISZERO PUSH2 0x1E6A JUMPI PUSH2 0x1E69 PUSH2 0x1AC9 JUMP JUMPDEST JUMPDEST PUSH0 PUSH2 0x1E77 DUP6 DUP3 DUP7 ADD PUSH2 0x1B13 JUMP JUMPDEST SWAP3 POP POP PUSH1 0x20 PUSH2 0x1E88 DUP6 DUP3 DUP7 ADD PUSH2 0x1B13 JUMP JUMPDEST SWAP2 POP POP SWAP3 POP SWAP3 SWAP1 POP JUMP JUMPDEST PUSH32 0x4E487B7100000000000000000000000000000000000000000000000000000000 PUSH0 MSTORE PUSH1 0x22 PUSH1 0x4 MSTORE PUSH1 0x24 PUSH0 REVERT JUMPDEST PUSH0 PUSH1 0x2 DUP3 DIV SWAP1 POP PUSH1 0x1 DUP3 AND DUP1 PUSH2 0x1ED6 JUMPI PUSH1 0x7F DUP3 AND SWAP2 POP JUMPDEST PUSH1 0x20 DUP3 LT DUP2 SUB PUSH2 0x1EE9 JUMPI PUSH2 0x1EE8 PUSH2 0x1E92 JUMP JUMPDEST JUMPDEST POP SWAP2 SWAP1 POP JUMP JUMPDEST PUSH32 0x4E487B7100000000000000000000000000000000000000000000000000000000 PUSH0 MSTORE PUSH1 0x11 PUSH1 0x4 MSTORE PUSH1 0x24 PUSH0 REVERT JUMPDEST PUSH0 PUSH2 0x1F26 DUP3 PUSH2 0x1B27 JUMP JUMPDEST SWAP2 POP PUSH2 0x1F31 DUP4 PUSH2 0x1B27 JUMP JUMPDEST SWAP3 POP DUP3 DUP3 ADD SWAP1 POP DUP1 DUP3 GT ISZERO PUSH2 0x1F49 JUMPI PUSH2 0x1F48 PUSH2 0x1EEF JUMP JUMPDEST JUMPDEST SWAP3 SWAP2 POP POP JUMP JUMPDEST PUSH32 0x4E487B7100000000000000000000000000000000000000000000000000000000 PUSH0 MSTORE PUSH1 0x41 PUSH1 0x4 MSTORE PUSH1 0x24 PUSH0 REVERT JUMPDEST PUSH32 0x4E487B7100000000000000000000000000000000000000000000000000000000 PUSH0 MSTORE PUSH1 0x32 PUSH1 0x4 MSTORE PUSH1 0x24 PUSH0 REVERT JUMPDEST PUSH32 0x596F752063616E6E6F74206275726E206D6F7265207468616E20796F75722063 PUSH0 DUP3 ADD MSTORE PUSH32 0x757272656E742062616C616E6365000000000000000000000000000000000000 PUSH1 0x20 DUP3 ADD MSTORE POP JUMP JUMPDEST PUSH0 PUSH2 0x2003 PUSH1 0x2E DUP4 PUSH2 0x1A43 JUMP JUMPDEST SWAP2 POP PUSH2 0x200E DUP3 PUSH2 0x1FA9 JUMP JUMPDEST PUSH1 0x40 DUP3 ADD SWAP1 POP SWAP2 SWAP1 POP JUMP JUMPDEST PUSH0 PUSH1 0x20 DUP3 ADD SWAP1 POP DUP2 DUP2 SUB PUSH0 DUP4 ADD MSTORE PUSH2 0x2030 DUP2 PUSH2 0x1FF7 JUMP JUMPDEST SWAP1 POP SWAP2 SWAP1 POP JUMP JUMPDEST PUSH32 0x45524332303A2064656372656173656420616C6C6F77616E63652062656C6F77 PUSH0 DUP3 ADD MSTORE PUSH32 0x207A65726F000000000000000000000000000000000000000000000000000000 PUSH1 0x20 DUP3 ADD MSTORE POP JUMP JUMPDEST PUSH0 PUSH2 0x2091 PUSH1 0x25 DUP4 PUSH2 0x1A43 JUMP JUMPDEST SWAP2 POP PUSH2 0x209C DUP3 PUSH2 0x2037 JUMP JUMPDEST PUSH1 0x40 DUP3 ADD SWAP1 POP SWAP2 SWAP1 POP JUMP JUMPDEST PUSH0 PUSH1 0x20 DUP3 ADD SWAP1 POP DUP2 DUP2 SUB PUSH0 DUP4 ADD MSTORE PUSH2 0x20BE DUP2 PUSH2 0x2085 JUMP JUMPDEST SWAP1 POP SWAP2 SWAP1 POP JUMP JUMPDEST PUSH32 0x596F752063616E6E6F74206275726E206D6F7265207468616E20746865206176 PUSH0 DUP3 ADD MSTORE PUSH32 0x61696C61626C652062616C616E63650000000000000000000000000000000000 PUSH1 0x20 DUP3 ADD MSTORE POP JUMP JUMPDEST PUSH0 PUSH2 0x211F PUSH1 0x2F DUP4 PUSH2 0x1A43 JUMP JUMPDEST SWAP2 POP PUSH2 0x212A DUP3 PUSH2 0x20C5 JUMP JUMPDEST PUSH1 0x40 DUP3 ADD SWAP1 POP SWAP2 SWAP1 POP JUMP JUMPDEST PUSH0 PUSH1 0x20 DUP3 ADD SWAP1 POP DUP2 DUP2 SUB PUSH0 DUP4 ADD MSTORE PUSH2 0x214C DUP2 PUSH2 0x2113 JUMP JUMPDEST SWAP1 POP SWAP2 SWAP1 POP JUMP JUMPDEST PUSH32 0x596F7520646F206E6F74206861766520656E6F75676820446567656E20546F6B PUSH0 DUP3 ADD MSTORE PUSH32 0x656E730000000000000000000000000000000000000000000000000000000000 PUSH1 0x20 DUP3 ADD MSTORE POP JUMP JUMPDEST PUSH0 PUSH2 0x21AD PUSH1 0x23 DUP4 PUSH2 0x1A43 JUMP JUMPDEST SWAP2 POP PUSH2 0x21B8 DUP3 PUSH2 0x2153 JUMP JUMPDEST PUSH1 0x40 DUP3 ADD SWAP1 POP SWAP2 SWAP1 POP JUMP JUMPDEST PUSH0 PUSH1 0x20 DUP3 ADD SWAP1 POP DUP2 DUP2 SUB PUSH0 DUP4 ADD MSTORE PUSH2 0x21DA DUP2 PUSH2 0x21A1 JUMP JUMPDEST SWAP1 POP SWAP2 SWAP1 POP JUMP JUMPDEST PUSH32 0x4F776E61626C653A206E6577206F776E657220697320746865207A65726F2061 PUSH0 DUP3 ADD MSTORE PUSH32 0x6464726573730000000000000000000000000000000000000000000000000000 PUSH1 0x20 DUP3 ADD MSTORE POP JUMP JUMPDEST PUSH0 PUSH2 0x223B PUSH1 0x26 DUP4 PUSH2 0x1A43 JUMP JUMPDEST SWAP2 POP PUSH2 0x2246 DUP3 PUSH2 0x21E1 JUMP JUMPDEST PUSH1 0x40 DUP3 ADD SWAP1 POP SWAP2 SWAP1 POP JUMP JUMPDEST PUSH0 PUSH1 0x20 DUP3 ADD SWAP1 POP DUP2 DUP2 SUB PUSH0 DUP4 ADD MSTORE PUSH2 0x2268 DUP2 PUSH2 0x222F JUMP JUMPDEST SWAP1 POP SWAP2 SWAP1 POP JUMP JUMPDEST PUSH0 DUP2 SWAP1 POP SWAP3 SWAP2 POP POP JUMP JUMPDEST PUSH0 PUSH2 0x2283 DUP3 PUSH2 0x1A39 JUMP JUMPDEST PUSH2 0x228D DUP2 DUP6 PUSH2 0x226F JUMP JUMPDEST SWAP4 POP PUSH2 0x229D DUP2 DUP6 PUSH1 0x20 DUP7 ADD PUSH2 0x1A53 JUMP JUMPDEST DUP1 DUP5 ADD SWAP2 POP POP SWAP3 SWAP2 POP POP JUMP JUMPDEST PUSH32 0x49443A2000000000000000000000000000000000000000000000000000000000 PUSH0 DUP3 ADD MSTORE POP JUMP JUMPDEST PUSH0 PUSH2 0x22DD PUSH1 0x4 DUP4 PUSH2 0x226F JUMP JUMPDEST SWAP2 POP PUSH2 0x22E8 DUP3 PUSH2 0x22A9 JUMP JUMPDEST PUSH1 0x4 DUP3 ADD SWAP1 POP SWAP2 SWAP1 POP JUMP JUMPDEST PUSH32 0x2C204E616D653A20000000000000000000000000000000000000000000000000 PUSH0 DUP3 ADD MSTORE POP JUMP JUMPDEST PUSH0 PUSH2 0x2327 PUSH1 0x8 DUP4 PUSH2 0x226F JUMP JUMPDEST SWAP2 POP PUSH2 0x2332 DUP3 PUSH2 0x22F3 JUMP JUMPDEST PUSH1 0x8 DUP3 ADD SWAP1 POP SWAP2 SWAP1 POP JUMP JUMPDEST PUSH32 0x2C2050726963653A200000000000000000000000000000000000000000000000 PUSH0 DUP3 ADD MSTORE POP JUMP JUMPDEST PUSH0 PUSH2 0x2371 PUSH1 0x9 DUP4 PUSH2 0x226F JUMP JUMPDEST SWAP2 POP PUSH2 0x237C DUP3 PUSH2 0x233D JUMP JUMPDEST PUSH1 0x9 DUP3 ADD SWAP1 POP SWAP2 SWAP1 POP JUMP JUMPDEST PUSH32 0xA00000000000000000000000000000000000000000000000000000000000000 PUSH0 DUP3 ADD MSTORE POP JUMP JUMPDEST PUSH0 PUSH2 0x23BB PUSH1 0x1 DUP4 PUSH2 0x226F JUMP JUMPDEST SWAP2 POP PUSH2 0x23C6 DUP3 PUSH2 0x2387 JUMP JUMPDEST PUSH1 0x1 DUP3 ADD SWAP1 POP SWAP2 SWAP1 POP JUMP JUMPDEST PUSH0 PUSH2 0x23DC DUP3 DUP8 PUSH2 0x2279 JUMP JUMPDEST SWAP2 POP PUSH2 0x23E7 DUP3 PUSH2 0x22D1 JUMP JUMPDEST SWAP2 POP PUSH2 0x23F3 DUP3 DUP7 PUSH2 0x2279 JUMP JUMPDEST SWAP2 POP PUSH2 0x23FE DUP3 PUSH2 0x231B JUMP JUMPDEST SWAP2 POP PUSH2 0x240A DUP3 DUP6 PUSH2 0x2279 JUMP JUMPDEST SWAP2 POP PUSH2 0x2415 DUP3 PUSH2 0x2365 JUMP JUMPDEST SWAP2 POP PUSH2 0x2421 DUP3 DUP5 PUSH2 0x2279 JUMP JUMPDEST SWAP2 POP PUSH2 0x242C DUP3 PUSH2 0x23AF JUMP JUMPDEST SWAP2 POP DUP2 SWAP1 POP SWAP6 SWAP5 POP POP POP POP POP JUMP JUMPDEST PUSH0 PUSH2 0x2444 DUP3 PUSH2 0x1B27 JUMP JUMPDEST SWAP2 POP PUSH32 0xFFFFFFFFFFFFFFFFFFFFFFFFFFFFFFFFFFFFFFFFFFFFFFFFFFFFFFFFFFFFFFFF DUP3 SUB PUSH2 0x2476 JUMPI PUSH2 0x2475 PUSH2 0x1EEF JUMP JUMPDEST JUMPDEST PUSH1 0x1 DUP3 ADD SWAP1 POP SWAP2 SWAP1 POP JUMP JUMPDEST PUSH32 0x45524332303A20617070726F76652066726F6D20746865207A65726F20616464 PUSH0 DUP3 ADD MSTORE PUSH32 0x7265737300000000000000000000000000000000000000000000000000000000 PUSH1 0x20 DUP3 ADD MSTORE POP JUMP JUMPDEST PUSH0 PUSH2 0x24DB PUSH1 0x24 DUP4 PUSH2 0x1A43 JUMP JUMPDEST SWAP2 POP PUSH2 0x24E6 DUP3 PUSH2 0x2481 JUMP JUMPDEST PUSH1 0x40 DUP3 ADD SWAP1 POP SWAP2 SWAP1 POP JUMP JUMPDEST PUSH0 PUSH1 0x20 DUP3 ADD SWAP1 POP DUP2 DUP2 SUB PUSH0 DUP4 ADD MSTORE PUSH2 0x2508 DUP2 PUSH2 0x24CF JUMP JUMPDEST SWAP1 POP SWAP2 SWAP1 POP JUMP JUMPDEST PUSH32 0x45524332303A20617070726F766520746F20746865207A65726F206164647265 PUSH0 DUP3 ADD MSTORE PUSH32 0x7373000000000000000000000000000000000000000000000000000000000000 PUSH1 0x20 DUP3 ADD MSTORE POP JUMP JUMPDEST PUSH0 PUSH2 0x2569 PUSH1 0x22 DUP4 PUSH2 0x1A43 JUMP JUMPDEST SWAP2 POP PUSH2 0x2574 DUP3 PUSH2 0x250F JUMP JUMPDEST PUSH1 0x40 DUP3 ADD SWAP1 POP SWAP2 SWAP1 POP JUMP JUMPDEST PUSH0 PUSH1 0x20 DUP3 ADD SWAP1 POP DUP2 DUP2 SUB PUSH0 DUP4 ADD MSTORE PUSH2 0x2596 DUP2 PUSH2 0x255D JUMP JUMPDEST SWAP1 POP SWAP2 SWAP1 POP JUMP JUMPDEST PUSH32 0x45524332303A20696E73756666696369656E7420616C6C6F77616E6365000000 PUSH0 DUP3 ADD MSTORE POP JUMP JUMPDEST PUSH0 PUSH2 0x25D1 PUSH1 0x1D DUP4 PUSH2 0x1A43 JUMP JUMPDEST SWAP2 POP PUSH2 0x25DC DUP3 PUSH2 0x259D JUMP JUMPDEST PUSH1 0x20 DUP3 ADD SWAP1 POP SWAP2 SWAP1 POP JUMP JUMPDEST PUSH0 PUSH1 0x20 DUP3 ADD SWAP1 POP DUP2 DUP2 SUB PUSH0 DUP4 ADD MSTORE PUSH2 0x25FE DUP2 PUSH2 0x25C5 JUMP JUMPDEST SWAP1 POP SWAP2 SWAP1 POP JUMP JUMPDEST PUSH32 0x45524332303A207472616E736665722066726F6D20746865207A65726F206164 PUSH0 DUP3 ADD MSTORE PUSH32 0x6472657373000000000000000000000000000000000000000000000000000000 PUSH1 0x20 DUP3 ADD MSTORE POP JUMP JUMPDEST PUSH0 PUSH2 0x265F PUSH1 0x25 DUP4 PUSH2 0x1A43 JUMP JUMPDEST SWAP2 POP PUSH2 0x266A DUP3 PUSH2 0x2605 JUMP JUMPDEST PUSH1 0x40 DUP3 ADD SWAP1 POP SWAP2 SWAP1 POP JUMP JUMPDEST PUSH0 PUSH1 0x20 DUP3 ADD SWAP1 POP DUP2 DUP2 SUB PUSH0 DUP4 ADD MSTORE PUSH2 0x268C DUP2 PUSH2 0x2653 JUMP JUMPDEST SWAP1 POP SWAP2 SWAP1 POP JUMP JUMPDEST PUSH32 0x45524332303A207472616E7366657220746F20746865207A65726F2061646472 PUSH0 DUP3 ADD MSTORE PUSH32 0x6573730000000000000000000000000000000000000000000000000000000000 PUSH1 0x20 DUP3 ADD MSTORE POP JUMP JUMPDEST PUSH0 PUSH2 0x26ED PUSH1 0x23 DUP4 PUSH2 0x1A43 JUMP JUMPDEST SWAP2 POP PUSH2 0x26F8 DUP3 PUSH2 0x2693 JUMP JUMPDEST PUSH1 0x40 DUP3 ADD SWAP1 POP SWAP2 SWAP1 POP JUMP JUMPDEST PUSH0 PUSH1 0x20 DUP3 ADD SWAP1 POP DUP2 DUP2 SUB PUSH0 DUP4 ADD MSTORE PUSH2 0x271A DUP2 PUSH2 0x26E1 JUMP JUMPDEST SWAP1 POP SWAP2 SWAP1 POP JUMP JUMPDEST PUSH32 0x45524332303A207472616E7366657220616D6F756E7420657863656564732062 PUSH0 DUP3 ADD MSTORE PUSH32 0x616C616E63650000000000000000000000000000000000000000000000000000 PUSH1 0x20 DUP3 ADD MSTORE POP JUMP JUMPDEST PUSH0 PUSH2 0x277B PUSH1 0x26 DUP4 PUSH2 0x1A43 JUMP JUMPDEST SWAP2 POP PUSH2 0x2786 DUP3 PUSH2 0x2721 JUMP JUMPDEST PUSH1 0x40 DUP3 ADD SWAP1 POP SWAP2 SWAP1 POP JUMP JUMPDEST PUSH0 PUSH1 0x20 DUP3 ADD SWAP1 POP DUP2 DUP2 SUB PUSH0 DUP4 ADD MSTORE PUSH2 0x27A8 DUP2 PUSH2 0x276F JUMP JUMPDEST SWAP1 POP SWAP2 SWAP1 POP JUMP JUMPDEST PUSH32 0x45524332303A206275726E2066726F6D20746865207A65726F20616464726573 PUSH0 DUP3 ADD MSTORE PUSH32 0x7300000000000000000000000000000000000000000000000000000000000000 PUSH1 0x20 DUP3 ADD MSTORE POP JUMP JUMPDEST PUSH0 PUSH2 0x2809 PUSH1 0x21 DUP4 PUSH2 0x1A43 JUMP JUMPDEST SWAP2 POP PUSH2 0x2814 DUP3 PUSH2 0x27AF JUMP JUMPDEST PUSH1 0x40 DUP3 ADD SWAP1 POP SWAP2 SWAP1 POP JUMP JUMPDEST PUSH0 PUSH1 0x20 DUP3 ADD SWAP1 POP DUP2 DUP2 SUB PUSH0 DUP4 ADD MSTORE PUSH2 0x2836 DUP2 PUSH2 0x27FD JUMP JUMPDEST SWAP1 POP SWAP2 SWAP1 POP JUMP JUMPDEST PUSH32 0x45524332303A206275726E20616D6F756E7420657863656564732062616C616E PUSH0 DUP3 ADD MSTORE PUSH32 0x6365000000000000000000000000000000000000000000000000000000000000 PUSH1 0x20 DUP3 ADD MSTORE POP JUMP JUMPDEST PUSH0 PUSH2 0x2897 PUSH1 0x22 DUP4 PUSH2 0x1A43 JUMP JUMPDEST SWAP2 POP PUSH2 0x28A2 DUP3 PUSH2 0x283D JUMP JUMPDEST PUSH1 0x40 DUP3 ADD SWAP1 POP SWAP2 SWAP1 POP JUMP JUMPDEST PUSH0 PUSH1 0x20 DUP3 ADD SWAP1 POP DUP2 DUP2 SUB PUSH0 DUP4 ADD MSTORE PUSH2 0x28C4 DUP2 PUSH2 0x288B JUMP JUMPDEST SWAP1 POP SWAP2 SWAP1 POP JUMP JUMPDEST PUSH32 0x4F776E61626C653A2063616C6C6572206973206E6F7420746865206F776E6572 PUSH0 DUP3 ADD MSTORE POP JUMP JUMPDEST PUSH0 PUSH2 0x28FF PUSH1 0x20 DUP4 PUSH2 0x1A43 JUMP JUMPDEST SWAP2 POP PUSH2 0x290A DUP3 PUSH2 0x28CB JUMP JUMPDEST PUSH1 0x20 DUP3 ADD SWAP1 POP SWAP2 SWAP1 POP JUMP JUMPDEST PUSH0 PUSH1 0x20 DUP3 ADD SWAP1 POP DUP2 DUP2 SUB PUSH0 DUP4 ADD MSTORE PUSH2 0x292C DUP2 PUSH2 0x28F3 JUMP JUMPDEST SWAP1 POP SWAP2 SWAP1 POP JUMP JUMPDEST PUSH32 0x45524332303A206D696E7420746F20746865207A65726F206164647265737300 PUSH0 DUP3 ADD MSTORE POP JUMP JUMPDEST PUSH0 PUSH2 0x2967 PUSH1 0x1F DUP4 PUSH2 0x1A43 JUMP JUMPDEST SWAP2 POP PUSH2 0x2972 DUP3 PUSH2 0x2933 JUMP JUMPDEST PUSH1 0x20 DUP3 ADD SWAP1 POP SWAP2 SWAP1 POP JUMP JUMPDEST PUSH0 PUSH1 0x20 DUP3 ADD SWAP1 POP DUP2 DUP2 SUB PUSH0 DUP4 ADD MSTORE PUSH2 0x2994 DUP2 PUSH2 0x295B JUMP JUMPDEST SWAP1 POP SWAP2 SWAP1 POP JUMP JUMPDEST PUSH32 0x4E487B7100000000000000000000000000000000000000000000000000000000 PUSH0 MSTORE PUSH1 0x12 PUSH1 0x4 MSTORE PUSH1 0x24 PUSH0 REVERT JUMPDEST PUSH0 PUSH2 0x29D2 DUP3 PUSH2 0x1B27 JUMP JUMPDEST SWAP2 POP PUSH2 0x29DD DUP4 PUSH2 0x1B27 JUMP JUMPDEST SWAP3 POP DUP3 PUSH2 0x29ED JUMPI PUSH2 0x29EC PUSH2 0x299B JUMP JUMPDEST JUMPDEST DUP3 DUP3 DIV SWAP1 POP SWAP3 SWAP2 POP POP JUMP JUMPDEST PUSH0 PUSH2 0x2A02 DUP3 PUSH2 0x1B27 JUMP JUMPDEST SWAP2 POP PUSH2 0x2A0D DUP4 PUSH2 0x1B27 JUMP JUMPDEST SWAP3 POP DUP3 DUP3 SUB SWAP1 POP DUP2 DUP2 GT ISZERO PUSH2 0x2A25 JUMPI PUSH2 0x2A24 PUSH2 0x1EEF JUMP JUMPDEST JUMPDEST SWAP3 SWAP2 POP POP JUMP JUMPDEST PUSH0 PUSH2 0x2A35 DUP3 PUSH2 0x1B27 JUMP JUMPDEST SWAP2 POP PUSH2 0x2A40 DUP4 PUSH2 0x1B27 JUMP JUMPDEST SWAP3 POP DUP3 DUP3 MUL PUSH2 0x2A4E DUP2 PUSH2 0x1B27 JUMP JUMPDEST SWAP2 POP DUP3 DUP3 DIV DUP5 EQ DUP4 ISZERO OR PUSH2 0x2A65 JUMPI PUSH2 0x2A64 PUSH2 0x1EEF JUMP JUMPDEST JUMPDEST POP SWAP3 SWAP2 POP POP JUMP JUMPDEST PUSH0 PUSH2 0x2A76 DUP3 PUSH2 0x1C43 JUMP JUMPDEST SWAP2 POP PUSH2 0x2A81 DUP4 PUSH2 0x1C43 JUMP JUMPDEST SWAP3 POP DUP3 DUP3 ADD SWAP1 POP PUSH1 0xFF DUP2 GT ISZERO PUSH2 0x2A9A JUMPI PUSH2 0x2A99 PUSH2 0x1EEF JUMP JUMPDEST JUMPDEST SWAP3 SWAP2 POP POP JUMP INVALID LOG2 PUSH5 0x6970667358 0x22 SLT KECCAK256 0xB3 0xDC PUSH19 0xE2EB2803D71FFFC404C7ACFB241ADCBB6D4D1E CALLDATASIZE 0xAD 0xBB BLOCKHASH ORIGIN 0xCD NUMBER PUSH30 0xF2464736F6C634300081A00330000000000000000000000000000000000 "
				},
				"gasEstimates": {
					"creation": {
						"codeDepositCost": "2193200",
						"executionCost": "infinite",
						"totalCost": "infinite"
					},
					"external": {
						"allowance(address,address)": "infinite",
						"approve(address,uint256)": "infinite",
						"balanceOf(address)": "2918",
						"burnOther(address,uint256)": "infinite",
						"burnTokens(uint256)": "infinite",
						"checkBalance()": "2628",
						"decimals()": "450",
						"decreaseAllowance(address,uint256)": "infinite",
						"increaseAllowance(address,uint256)": "infinite",
						"itemCount()": "2470",
						"itemInventory()": "infinite",
						"itemShop()": "infinite",
						"items(uint256)": "infinite",
						"mintTokens(address,uint256)": "infinite",
						"name()": "infinite",
						"owner()": "2648",
						"redeemItems(uint256)": "infinite",
						"redeemedItems(address,uint256)": "infinite",
						"renounceOwnership()": "30501",
						"symbol()": "infinite",
						"totalSupply()": "2500",
						"transfer(address,uint256)": "infinite",
						"transferFrom(address,address,uint256)": "infinite",
						"transferOwnership(address)": "30819",
						"transferTokens(address,uint256)": "infinite"
					},
					"internal": {
						"uint2str(uint256)": "infinite"
					}
				},
				"methodIdentifiers": {
					"allowance(address,address)": "dd62ed3e",
					"approve(address,uint256)": "095ea7b3",
					"balanceOf(address)": "70a08231",
					"burnOther(address,uint256)": "a48da4ef",
					"burnTokens(uint256)": "6d1b229d",
					"checkBalance()": "c71daccb",
					"decimals()": "313ce567",
					"decreaseAllowance(address,uint256)": "a457c2d7",
					"increaseAllowance(address,uint256)": "39509351",
					"itemCount()": "6bfb0d01",
					"itemInventory()": "659da27c",
					"itemShop()": "f732ae71",
					"items(uint256)": "bfb231d2",
					"mintTokens(address,uint256)": "f0dda65c",
					"name()": "06fdde03",
					"owner()": "8da5cb5b",
					"redeemItems(uint256)": "e4d74695",
					"redeemedItems(address,uint256)": "c00aa3a5",
					"renounceOwnership()": "715018a6",
					"symbol()": "95d89b41",
					"totalSupply()": "18160ddd",
					"transfer(address,uint256)": "a9059cbb",
					"transferFrom(address,address,uint256)": "23b872dd",
					"transferOwnership(address)": "f2fde38b",
					"transferTokens(address,uint256)": "bec3fa17"
				}
			},
			"storageLayout": {
				"storage": [
					{
						"astId": 128,
						"contract": "contracts/DegenToken.sol:DegenToken",
						"label": "_balances",
						"offset": 0,
						"slot": "0",
						"type": "t_mapping(t_address,t_uint256)"
					},
					{
						"astId": 134,
						"contract": "contracts/DegenToken.sol:DegenToken",
						"label": "_allowances",
						"offset": 0,
						"slot": "1",
						"type": "t_mapping(t_address,t_mapping(t_address,t_uint256))"
					},
					{
						"astId": 136,
						"contract": "contracts/DegenToken.sol:DegenToken",
						"label": "_totalSupply",
						"offset": 0,
						"slot": "2",
						"type": "t_uint256"
					},
					{
						"astId": 138,
						"contract": "contracts/DegenToken.sol:DegenToken",
						"label": "_name",
						"offset": 0,
						"slot": "3",
						"type": "t_string_storage"
					},
					{
						"astId": 140,
						"contract": "contracts/DegenToken.sol:DegenToken",
						"label": "_symbol",
						"offset": 0,
						"slot": "4",
						"type": "t_string_storage"
					},
					{
						"astId": 7,
						"contract": "contracts/DegenToken.sol:DegenToken",
						"label": "_owner",
						"offset": 0,
						"slot": "5",
						"type": "t_address"
					},
					{
						"astId": 844,
						"contract": "contracts/DegenToken.sol:DegenToken",
						"label": "items",
						"offset": 0,
						"slot": "6",
						"type": "t_mapping(t_uint256,t_struct(Item)839_storage)"
					},
					{
						"astId": 846,
						"contract": "contracts/DegenToken.sol:DegenToken",
						"label": "itemCount",
						"offset": 0,
						"slot": "7",
						"type": "t_uint256"
					},
					{
						"astId": 851,
						"contract": "contracts/DegenToken.sol:DegenToken",
						"label": "redeemedItems",
						"offset": 0,
						"slot": "8",
						"type": "t_mapping(t_address,t_array(t_uint256)dyn_storage)"
					}
				],
				"types": {
					"t_address": {
						"encoding": "inplace",
						"label": "address",
						"numberOfBytes": "20"
					},
					"t_array(t_uint256)dyn_storage": {
						"base": "t_uint256",
						"encoding": "dynamic_array",
						"label": "uint256[]",
						"numberOfBytes": "32"
					},
					"t_mapping(t_address,t_array(t_uint256)dyn_storage)": {
						"encoding": "mapping",
						"key": "t_address",
						"label": "mapping(address => uint256[])",
						"numberOfBytes": "32",
						"value": "t_array(t_uint256)dyn_storage"
					},
					"t_mapping(t_address,t_mapping(t_address,t_uint256))": {
						"encoding": "mapping",
						"key": "t_address",
						"label": "mapping(address => mapping(address => uint256))",
						"numberOfBytes": "32",
						"value": "t_mapping(t_address,t_uint256)"
					},
					"t_mapping(t_address,t_uint256)": {
						"encoding": "mapping",
						"key": "t_address",
						"label": "mapping(address => uint256)",
						"numberOfBytes": "32",
						"value": "t_uint256"
					},
					"t_mapping(t_uint256,t_struct(Item)839_storage)": {
						"encoding": "mapping",
						"key": "t_uint256",
						"label": "mapping(uint256 => struct DegenToken.Item)",
						"numberOfBytes": "32",
						"value": "t_struct(Item)839_storage"
					},
					"t_string_storage": {
						"encoding": "bytes",
						"label": "string",
						"numberOfBytes": "32"
					},
					"t_struct(Item)839_storage": {
						"encoding": "inplace",
						"label": "struct DegenToken.Item",
						"members": [
							{
								"astId": 834,
								"contract": "contracts/DegenToken.sol:DegenToken",
								"label": "id",
								"offset": 0,
								"slot": "0",
								"type": "t_uint256"
							},
							{
								"astId": 836,
								"contract": "contracts/DegenToken.sol:DegenToken",
								"label": "name",
								"offset": 0,
								"slot": "1",
								"type": "t_string_storage"
							},
							{
								"astId": 838,
								"contract": "contracts/DegenToken.sol:DegenToken",
								"label": "price",
								"offset": 0,
								"slot": "2",
								"type": "t_uint256"
							}
						],
						"numberOfBytes": "96"
					},
					"t_uint256": {
						"encoding": "inplace",
						"label": "uint256",
						"numberOfBytes": "32"
					}
				}
			},
			"userdoc": {
				"kind": "user",
				"methods": {},
				"version": 1
			}
		}
	}
}